{"abi":[{"inputs":[{"internalType":"string","name":"_flightId","type":"string"},{"internalType":"string","name":"_from","type":"string"},{"internalType":"string","name":"_destination","type":"string"},{"internalType":"string","name":"_flyTime","type":"string"},{"internalType":"string","name":"_arrivalTime","type":"string"},{"internalType":"string","name":"_searchableDate","type":"string"},{"internalType":"uint256","name":"_capacity","type":"uint256"},{"internalType":"uint256","name":"_businessPrice","type":"uint256"},{"internalType":"uint256","name":"_economyPrice","type":"uint256"}],"name":"createFlight","outputs":[],"stateMutability":"nonpayable","type":"function"},{"inputs":[{"internalType":"string","name":"","type":"string"},{"internalType":"uint256","name":"","type":"uint256"}],"name":"deployedFlightsDate","outputs":[{"internalType":"address","name":"flightAdress","type":"address"},{"internalType":"string","name":"flightId","type":"string"},{"internalType":"string","name":"from","type":"string"},{"internalType":"string","name":"destination","type":"string"},{"internalType":"string","name":"flyTime","type":"string"},{"internalType":"string","name":"arrivalTime","type":"string"},{"internalType":"uint256","name":"businessPrice","type":"uint256"},{"internalType":"uint256","name":"economyPrice","type":"uint256"}],"stateMutability":"view","type":"function"},{"inputs":[{"internalType":"string","name":"time","type":"string"}],"name":"getFlightsOnDate","outputs":[{"components":[{"internalType":"address","name":"flightAdress","type":"address"},{"internalType":"string","name":"flightId","type":"string"},{"internalType":"string","name":"from","type":"string"},{"internalType":"string","name":"destination","type":"string"},{"internalType":"string","name":"flyTime","type":"string"},{"internalType":"string","name":"arrivalTime","type":"string"},{"internalType":"uint256","name":"businessPrice","type":"uint256"},{"internalType":"uint256","name":"economyPrice","type":"uint256"}],"internalType":"struct FlightFactory.FlightTemplate[]","name":"","type":"tuple[]"}],"stateMutability":"view","type":"function"}],"devdoc":{"kind":"dev","methods":{},"version":1},"evm":{"assembly":"    /* \"Flight.sol\":70:1678  contract FlightFactory {... */\n  mstore(0x40, 0x80)\n  callvalue\n  dup1\n  iszero\n  tag_1\n  jumpi\n  0x00\n  dup1\n  revert\ntag_1:\n  pop\n  dataSize(sub_0)\n  dup1\n  dataOffset(sub_0)\n  0x00\n  codecopy\n  0x00\n  return\nstop\n\nsub_0: assembly {\n        /* \"Flight.sol\":70:1678  contract FlightFactory {... */\n      mstore(0x40, 0x80)\n      callvalue\n      dup1\n      iszero\n      tag_1\n      jumpi\n      0x00\n      dup1\n      revert\n    tag_1:\n      pop\n      jumpi(tag_2, lt(calldatasize, 0x04))\n      shr(0xe0, calldataload(0x00))\n      dup1\n      0x0a9ce09c\n      eq\n      tag_3\n      jumpi\n      dup1\n      0x9106e0de\n      eq\n      tag_4\n      jumpi\n      dup1\n      0xcc9085e5\n      eq\n      tag_5\n      jumpi\n    tag_2:\n      0x00\n      dup1\n      revert\n        /* \"Flight.sol\":1507:1676  function getFlightsOnDate(string memory time)... */\n    tag_3:\n      tag_6\n      0x04\n      dup1\n      calldatasize\n      sub\n      dup2\n      add\n      swap1\n      tag_7\n      swap2\n      swap1\n      tag_8\n      jump\t// in\n    tag_7:\n      tag_9\n      jump\t// in\n    tag_6:\n      mload(0x40)\n      tag_10\n      swap2\n      swap1\n      tag_11\n      jump\t// in\n    tag_10:\n      mload(0x40)\n      dup1\n      swap2\n      sub\n      swap1\n      return\n        /* \"Flight.sol\":99:161  mapping(string => FlightTemplate[]) public deployedFlightsDate */\n    tag_4:\n      tag_12\n      0x04\n      dup1\n      calldatasize\n      sub\n      dup2\n      add\n      swap1\n      tag_13\n      swap2\n      swap1\n      tag_14\n      jump\t// in\n    tag_13:\n      tag_15\n      jump\t// in\n    tag_12:\n      mload(0x40)\n      tag_16\n      swap9\n      swap8\n      swap7\n      swap6\n      swap5\n      swap4\n      swap3\n      swap2\n      swap1\n      tag_17\n      jump\t// in\n    tag_16:\n      mload(0x40)\n      dup1\n      swap2\n      sub\n      swap1\n      return\n        /* \"Flight.sol\":420:1501  function createFlight(... */\n    tag_5:\n      tag_18\n      0x04\n      dup1\n      calldatasize\n      sub\n      dup2\n      add\n      swap1\n      tag_19\n      swap2\n      swap1\n      tag_20\n      jump\t// in\n    tag_19:\n      tag_21\n      jump\t// in\n    tag_18:\n      stop\n        /* \"Flight.sol\":1507:1676  function getFlightsOnDate(string memory time)... */\n    tag_9:\n        /* \"Flight.sol\":1598:1621  FlightTemplate[] memory */\n      0x60\n        /* \"Flight.sol\":1644:1663  deployedFlightsDate */\n      0x00\n        /* \"Flight.sol\":1664:1668  time */\n      dup3\n        /* \"Flight.sol\":1644:1669  deployedFlightsDate[time] */\n      mload(0x40)\n      tag_23\n      swap2\n      swap1\n      tag_24\n      jump\t// in\n    tag_23:\n      swap1\n      dup2\n      mstore\n      0x20\n      add\n      mload(0x40)\n      dup1\n      swap2\n      sub\n      swap1\n      keccak256\n        /* \"Flight.sol\":1637:1669  return deployedFlightsDate[time] */\n      dup1\n      sload\n      dup1\n      0x20\n      mul\n      0x20\n      add\n      mload(0x40)\n      swap1\n      dup2\n      add\n      0x40\n      mstore\n      dup1\n      swap3\n      swap2\n      swap1\n      dup2\n      dup2\n      mstore\n      0x20\n      add\n      0x00\n      swap1\n    tag_25:\n      dup3\n      dup3\n      lt\n      iszero\n      tag_26\n      jumpi\n      dup4\n      dup3\n      swap1\n      0x00\n      mstore\n      keccak256(0x00, 0x20)\n      swap1\n      0x08\n      mul\n      add\n      mload(0x40)\n      dup1\n      0x0100\n      add\n      0x40\n      mstore\n      swap1\n      dup2\n      0x00\n      dup3\n      add\n      0x00\n      swap1\n      sload\n      swap1\n      0x0100\n      exp\n      swap1\n      div\n      0xffffffffffffffffffffffffffffffffffffffff\n      and\n      0xffffffffffffffffffffffffffffffffffffffff\n      and\n      0xffffffffffffffffffffffffffffffffffffffff\n      and\n      dup2\n      mstore\n      0x20\n      add\n      0x01\n      dup3\n      add\n      dup1\n      sload\n      tag_28\n      swap1\n      tag_29\n      jump\t// in\n    tag_28:\n      dup1\n      0x1f\n      add\n      0x20\n      dup1\n      swap2\n      div\n      mul\n      0x20\n      add\n      mload(0x40)\n      swap1\n      dup2\n      add\n      0x40\n      mstore\n      dup1\n      swap3\n      swap2\n      swap1\n      dup2\n      dup2\n      mstore\n      0x20\n      add\n      dup3\n      dup1\n      sload\n      tag_30\n      swap1\n      tag_29\n      jump\t// in\n    tag_30:\n      dup1\n      iszero\n      tag_31\n      jumpi\n      dup1\n      0x1f\n      lt\n      tag_32\n      jumpi\n      0x0100\n      dup1\n      dup4\n      sload\n      div\n      mul\n      dup4\n      mstore\n      swap2\n      0x20\n      add\n      swap2\n      jump(tag_31)\n    tag_32:\n      dup3\n      add\n      swap2\n      swap1\n      0x00\n      mstore\n      keccak256(0x00, 0x20)\n      swap1\n    tag_33:\n      dup2\n      sload\n      dup2\n      mstore\n      swap1\n      0x01\n      add\n      swap1\n      0x20\n      add\n      dup1\n      dup4\n      gt\n      tag_33\n      jumpi\n      dup3\n      swap1\n      sub\n      0x1f\n      and\n      dup3\n      add\n      swap2\n    tag_31:\n      pop\n      pop\n      pop\n      pop\n      pop\n      dup2\n      mstore\n      0x20\n      add\n      0x02\n      dup3\n      add\n      dup1\n      sload\n      tag_34\n      swap1\n      tag_29\n      jump\t// in\n    tag_34:\n      dup1\n      0x1f\n      add\n      0x20\n      dup1\n      swap2\n      div\n      mul\n      0x20\n      add\n      mload(0x40)\n      swap1\n      dup2\n      add\n      0x40\n      mstore\n      dup1\n      swap3\n      swap2\n      swap1\n      dup2\n      dup2\n      mstore\n      0x20\n      add\n      dup3\n      dup1\n      sload\n      tag_35\n      swap1\n      tag_29\n      jump\t// in\n    tag_35:\n      dup1\n      iszero\n      tag_36\n      jumpi\n      dup1\n      0x1f\n      lt\n      tag_37\n      jumpi\n      0x0100\n      dup1\n      dup4\n      sload\n      div\n      mul\n      dup4\n      mstore\n      swap2\n      0x20\n      add\n      swap2\n      jump(tag_36)\n    tag_37:\n      dup3\n      add\n      swap2\n      swap1\n      0x00\n      mstore\n      keccak256(0x00, 0x20)\n      swap1\n    tag_38:\n      dup2\n      sload\n      dup2\n      mstore\n      swap1\n      0x01\n      add\n      swap1\n      0x20\n      add\n      dup1\n      dup4\n      gt\n      tag_38\n      jumpi\n      dup3\n      swap1\n      sub\n      0x1f\n      and\n      dup3\n      add\n      swap2\n    tag_36:\n      pop\n      pop\n      pop\n      pop\n      pop\n      dup2\n      mstore\n      0x20\n      add\n      0x03\n      dup3\n      add\n      dup1\n      sload\n      tag_39\n      swap1\n      tag_29\n      jump\t// in\n    tag_39:\n      dup1\n      0x1f\n      add\n      0x20\n      dup1\n      swap2\n      div\n      mul\n      0x20\n      add\n      mload(0x40)\n      swap1\n      dup2\n      add\n      0x40\n      mstore\n      dup1\n      swap3\n      swap2\n      swap1\n      dup2\n      dup2\n      mstore\n      0x20\n      add\n      dup3\n      dup1\n      sload\n      tag_40\n      swap1\n      tag_29\n      jump\t// in\n    tag_40:\n      dup1\n      iszero\n      tag_41\n      jumpi\n      dup1\n      0x1f\n      lt\n      tag_42\n      jumpi\n      0x0100\n      dup1\n      dup4\n      sload\n      div\n      mul\n      dup4\n      mstore\n      swap2\n      0x20\n      add\n      swap2\n      jump(tag_41)\n    tag_42:\n      dup3\n      add\n      swap2\n      swap1\n      0x00\n      mstore\n      keccak256(0x00, 0x20)\n      swap1\n    tag_43:\n      dup2\n      sload\n      dup2\n      mstore\n      swap1\n      0x01\n      add\n      swap1\n      0x20\n      add\n      dup1\n      dup4\n      gt\n      tag_43\n      jumpi\n      dup3\n      swap1\n      sub\n      0x1f\n      and\n      dup3\n      add\n      swap2\n    tag_41:\n      pop\n      pop\n      pop\n      pop\n      pop\n      dup2\n      mstore\n      0x20\n      add\n      0x04\n      dup3\n      add\n      dup1\n      sload\n      tag_44\n      swap1\n      tag_29\n      jump\t// in\n    tag_44:\n      dup1\n      0x1f\n      add\n      0x20\n      dup1\n      swap2\n      div\n      mul\n      0x20\n      add\n      mload(0x40)\n      swap1\n      dup2\n      add\n      0x40\n      mstore\n      dup1\n      swap3\n      swap2\n      swap1\n      dup2\n      dup2\n      mstore\n      0x20\n      add\n      dup3\n      dup1\n      sload\n      tag_45\n      swap1\n      tag_29\n      jump\t// in\n    tag_45:\n      dup1\n      iszero\n      tag_46\n      jumpi\n      dup1\n      0x1f\n      lt\n      tag_47\n      jumpi\n      0x0100\n      dup1\n      dup4\n      sload\n      div\n      mul\n      dup4\n      mstore\n      swap2\n      0x20\n      add\n      swap2\n      jump(tag_46)\n    tag_47:\n      dup3\n      add\n      swap2\n      swap1\n      0x00\n      mstore\n      keccak256(0x00, 0x20)\n      swap1\n    tag_48:\n      dup2\n      sload\n      dup2\n      mstore\n      swap1\n      0x01\n      add\n      swap1\n      0x20\n      add\n      dup1\n      dup4\n      gt\n      tag_48\n      jumpi\n      dup3\n      swap1\n      sub\n      0x1f\n      and\n      dup3\n      add\n      swap2\n    tag_46:\n      pop\n      pop\n      pop\n      pop\n      pop\n      dup2\n      mstore\n      0x20\n      add\n      0x05\n      dup3\n      add\n      dup1\n      sload\n      tag_49\n      swap1\n      tag_29\n      jump\t// in\n    tag_49:\n      dup1\n      0x1f\n      add\n      0x20\n      dup1\n      swap2\n      div\n      mul\n      0x20\n      add\n      mload(0x40)\n      swap1\n      dup2\n      add\n      0x40\n      mstore\n      dup1\n      swap3\n      swap2\n      swap1\n      dup2\n      dup2\n      mstore\n      0x20\n      add\n      dup3\n      dup1\n      sload\n      tag_50\n      swap1\n      tag_29\n      jump\t// in\n    tag_50:\n      dup1\n      iszero\n      tag_51\n      jumpi\n      dup1\n      0x1f\n      lt\n      tag_52\n      jumpi\n      0x0100\n      dup1\n      dup4\n      sload\n      div\n      mul\n      dup4\n      mstore\n      swap2\n      0x20\n      add\n      swap2\n      jump(tag_51)\n    tag_52:\n      dup3\n      add\n      swap2\n      swap1\n      0x00\n      mstore\n      keccak256(0x00, 0x20)\n      swap1\n    tag_53:\n      dup2\n      sload\n      dup2\n      mstore\n      swap1\n      0x01\n      add\n      swap1\n      0x20\n      add\n      dup1\n      dup4\n      gt\n      tag_53\n      jumpi\n      dup3\n      swap1\n      sub\n      0x1f\n      and\n      dup3\n      add\n      swap2\n    tag_51:\n      pop\n      pop\n      pop\n      pop\n      pop\n      dup2\n      mstore\n      0x20\n      add\n      0x06\n      dup3\n      add\n      sload\n      dup2\n      mstore\n      0x20\n      add\n      0x07\n      dup3\n      add\n      sload\n      dup2\n      mstore\n      pop\n      pop\n      dup2\n      mstore\n      0x20\n      add\n      swap1\n      0x01\n      add\n      swap1\n      jump(tag_25)\n    tag_26:\n      pop\n      pop\n      pop\n      pop\n      swap1\n      pop\n        /* \"Flight.sol\":1507:1676  function getFlightsOnDate(string memory time)... */\n      swap2\n      swap1\n      pop\n      jump\t// out\n        /* \"Flight.sol\":99:161  mapping(string => FlightTemplate[]) public deployedFlightsDate */\n    tag_15:\n      0x00\n      dup3\n      dup1\n      mload\n      0x20\n      dup2\n      add\n      dup3\n      add\n      dup1\n      mload\n      dup5\n      dup3\n      mstore\n      0x20\n      dup4\n      add\n      0x20\n      dup6\n      add\n      keccak256\n      dup2\n      dup4\n      mstore\n      dup1\n      swap6\n      pop\n      pop\n      pop\n      pop\n      pop\n      pop\n      dup2\n      dup2\n      sload\n      dup2\n      lt\n      tag_54\n      jumpi\n      0x00\n      dup1\n      revert\n    tag_54:\n      swap1\n      0x00\n      mstore\n      keccak256(0x00, 0x20)\n      swap1\n      0x08\n      mul\n      add\n      0x00\n      swap2\n      pop\n      swap2\n      pop\n      pop\n      dup1\n      0x00\n      add\n      0x00\n      swap1\n      sload\n      swap1\n      0x0100\n      exp\n      swap1\n      div\n      0xffffffffffffffffffffffffffffffffffffffff\n      and\n      swap1\n      dup1\n      0x01\n      add\n      dup1\n      sload\n      tag_56\n      swap1\n      tag_29\n      jump\t// in\n    tag_56:\n      dup1\n      0x1f\n      add\n      0x20\n      dup1\n      swap2\n      div\n      mul\n      0x20\n      add\n      mload(0x40)\n      swap1\n      dup2\n      add\n      0x40\n      mstore\n      dup1\n      swap3\n      swap2\n      swap1\n      dup2\n      dup2\n      mstore\n      0x20\n      add\n      dup3\n      dup1\n      sload\n      tag_57\n      swap1\n      tag_29\n      jump\t// in\n    tag_57:\n      dup1\n      iszero\n      tag_58\n      jumpi\n      dup1\n      0x1f\n      lt\n      tag_59\n      jumpi\n      0x0100\n      dup1\n      dup4\n      sload\n      div\n      mul\n      dup4\n      mstore\n      swap2\n      0x20\n      add\n      swap2\n      jump(tag_58)\n    tag_59:\n      dup3\n      add\n      swap2\n      swap1\n      0x00\n      mstore\n      keccak256(0x00, 0x20)\n      swap1\n    tag_60:\n      dup2\n      sload\n      dup2\n      mstore\n      swap1\n      0x01\n      add\n      swap1\n      0x20\n      add\n      dup1\n      dup4\n      gt\n      tag_60\n      jumpi\n      dup3\n      swap1\n      sub\n      0x1f\n      and\n      dup3\n      add\n      swap2\n    tag_58:\n      pop\n      pop\n      pop\n      pop\n      pop\n      swap1\n      dup1\n      0x02\n      add\n      dup1\n      sload\n      tag_61\n      swap1\n      tag_29\n      jump\t// in\n    tag_61:\n      dup1\n      0x1f\n      add\n      0x20\n      dup1\n      swap2\n      div\n      mul\n      0x20\n      add\n      mload(0x40)\n      swap1\n      dup2\n      add\n      0x40\n      mstore\n      dup1\n      swap3\n      swap2\n      swap1\n      dup2\n      dup2\n      mstore\n      0x20\n      add\n      dup3\n      dup1\n      sload\n      tag_62\n      swap1\n      tag_29\n      jump\t// in\n    tag_62:\n      dup1\n      iszero\n      tag_63\n      jumpi\n      dup1\n      0x1f\n      lt\n      tag_64\n      jumpi\n      0x0100\n      dup1\n      dup4\n      sload\n      div\n      mul\n      dup4\n      mstore\n      swap2\n      0x20\n      add\n      swap2\n      jump(tag_63)\n    tag_64:\n      dup3\n      add\n      swap2\n      swap1\n      0x00\n      mstore\n      keccak256(0x00, 0x20)\n      swap1\n    tag_65:\n      dup2\n      sload\n      dup2\n      mstore\n      swap1\n      0x01\n      add\n      swap1\n      0x20\n      add\n      dup1\n      dup4\n      gt\n      tag_65\n      jumpi\n      dup3\n      swap1\n      sub\n      0x1f\n      and\n      dup3\n      add\n      swap2\n    tag_63:\n      pop\n      pop\n      pop\n      pop\n      pop\n      swap1\n      dup1\n      0x03\n      add\n      dup1\n      sload\n      tag_66\n      swap1\n      tag_29\n      jump\t// in\n    tag_66:\n      dup1\n      0x1f\n      add\n      0x20\n      dup1\n      swap2\n      div\n      mul\n      0x20\n      add\n      mload(0x40)\n      swap1\n      dup2\n      add\n      0x40\n      mstore\n      dup1\n      swap3\n      swap2\n      swap1\n      dup2\n      dup2\n      mstore\n      0x20\n      add\n      dup3\n      dup1\n      sload\n      tag_67\n      swap1\n      tag_29\n      jump\t// in\n    tag_67:\n      dup1\n      iszero\n      tag_68\n      jumpi\n      dup1\n      0x1f\n      lt\n      tag_69\n      jumpi\n      0x0100\n      dup1\n      dup4\n      sload\n      div\n      mul\n      dup4\n      mstore\n      swap2\n      0x20\n      add\n      swap2\n      jump(tag_68)\n    tag_69:\n      dup3\n      add\n      swap2\n      swap1\n      0x00\n      mstore\n      keccak256(0x00, 0x20)\n      swap1\n    tag_70:\n      dup2\n      sload\n      dup2\n      mstore\n      swap1\n      0x01\n      add\n      swap1\n      0x20\n      add\n      dup1\n      dup4\n      gt\n      tag_70\n      jumpi\n      dup3\n      swap1\n      sub\n      0x1f\n      and\n      dup3\n      add\n      swap2\n    tag_68:\n      pop\n      pop\n      pop\n      pop\n      pop\n      swap1\n      dup1\n      0x04\n      add\n      dup1\n      sload\n      tag_71\n      swap1\n      tag_29\n      jump\t// in\n    tag_71:\n      dup1\n      0x1f\n      add\n      0x20\n      dup1\n      swap2\n      div\n      mul\n      0x20\n      add\n      mload(0x40)\n      swap1\n      dup2\n      add\n      0x40\n      mstore\n      dup1\n      swap3\n      swap2\n      swap1\n      dup2\n      dup2\n      mstore\n      0x20\n      add\n      dup3\n      dup1\n      sload\n      tag_72\n      swap1\n      tag_29\n      jump\t// in\n    tag_72:\n      dup1\n      iszero\n      tag_73\n      jumpi\n      dup1\n      0x1f\n      lt\n      tag_74\n      jumpi\n      0x0100\n      dup1\n      dup4\n      sload\n      div\n      mul\n      dup4\n      mstore\n      swap2\n      0x20\n      add\n      swap2\n      jump(tag_73)\n    tag_74:\n      dup3\n      add\n      swap2\n      swap1\n      0x00\n      mstore\n      keccak256(0x00, 0x20)\n      swap1\n    tag_75:\n      dup2\n      sload\n      dup2\n      mstore\n      swap1\n      0x01\n      add\n      swap1\n      0x20\n      add\n      dup1\n      dup4\n      gt\n      tag_75\n      jumpi\n      dup3\n      swap1\n      sub\n      0x1f\n      and\n      dup3\n      add\n      swap2\n    tag_73:\n      pop\n      pop\n      pop\n      pop\n      pop\n      swap1\n      dup1\n      0x05\n      add\n      dup1\n      sload\n      tag_76\n      swap1\n      tag_29\n      jump\t// in\n    tag_76:\n      dup1\n      0x1f\n      add\n      0x20\n      dup1\n      swap2\n      div\n      mul\n      0x20\n      add\n      mload(0x40)\n      swap1\n      dup2\n      add\n      0x40\n      mstore\n      dup1\n      swap3\n      swap2\n      swap1\n      dup2\n      dup2\n      mstore\n      0x20\n      add\n      dup3\n      dup1\n      sload\n      tag_77\n      swap1\n      tag_29\n      jump\t// in\n    tag_77:\n      dup1\n      iszero\n      tag_78\n      jumpi\n      dup1\n      0x1f\n      lt\n      tag_79\n      jumpi\n      0x0100\n      dup1\n      dup4\n      sload\n      div\n      mul\n      dup4\n      mstore\n      swap2\n      0x20\n      add\n      swap2\n      jump(tag_78)\n    tag_79:\n      dup3\n      add\n      swap2\n      swap1\n      0x00\n      mstore\n      keccak256(0x00, 0x20)\n      swap1\n    tag_80:\n      dup2\n      sload\n      dup2\n      mstore\n      swap1\n      0x01\n      add\n      swap1\n      0x20\n      add\n      dup1\n      dup4\n      gt\n      tag_80\n      jumpi\n      dup3\n      swap1\n      sub\n      0x1f\n      and\n      dup3\n      add\n      swap2\n    tag_78:\n      pop\n      pop\n      pop\n      pop\n      pop\n      swap1\n      dup1\n      0x06\n      add\n      sload\n      swap1\n      dup1\n      0x07\n      add\n      sload\n      swap1\n      pop\n      dup9\n      jump\t// out\n        /* \"Flight.sol\":420:1501  function createFlight(... */\n    tag_21:\n        /* \"Flight.sol\":760:777  address newFlight */\n      0x00\n        /* \"Flight.sol\":829:839  msg.sender */\n      caller\n        /* \"Flight.sol\":857:866  _flightId */\n      dup11\n        /* \"Flight.sol\":884:889  _from */\n      dup11\n        /* \"Flight.sol\":907:919  _destination */\n      dup11\n        /* \"Flight.sol\":937:945  _flyTime */\n      dup11\n        /* \"Flight.sol\":963:975  _arrivalTime */\n      dup11\n        /* \"Flight.sol\":993:1002  _capacity */\n      dup10\n        /* \"Flight.sol\":1020:1034  _businessPrice */\n      dup10\n        /* \"Flight.sol\":1052:1065  _economyPrice */\n      dup10\n        /* \"Flight.sol\":801:1079  new Flight(... */\n      mload(0x40)\n      tag_82\n      swap1\n      tag_83\n      jump\t// in\n    tag_82:\n      tag_84\n      swap10\n      swap9\n      swap8\n      swap7\n      swap6\n      swap5\n      swap4\n      swap3\n      swap2\n      swap1\n      tag_85\n      jump\t// in\n    tag_84:\n      mload(0x40)\n      dup1\n      swap2\n      sub\n      swap1\n      0x00\n      create\n      dup1\n      iszero\n      dup1\n      iszero\n      tag_86\n      jumpi\n      returndatasize\n      0x00\n      dup1\n      returndatacopy\n      revert(0x00, returndatasize)\n    tag_86:\n      pop\n        /* \"Flight.sol\":760:1089  address newFlight = address(... */\n      swap1\n      pop\n        /* \"Flight.sol\":1100:1123  FlightTemplate memory f */\n      0x00\n        /* \"Flight.sol\":1126:1440  FlightTemplate({... */\n      mload(0x40)\n      dup1\n      0x0100\n      add\n      0x40\n      mstore\n      dup1\n        /* \"Flight.sol\":1169:1178  newFlight */\n      dup4\n        /* \"Flight.sol\":1126:1440  FlightTemplate({... */\n      0xffffffffffffffffffffffffffffffffffffffff\n      and\n      dup2\n      mstore\n      0x20\n      add\n        /* \"Flight.sol\":1202:1211  _flightId */\n      dup13\n        /* \"Flight.sol\":1126:1440  FlightTemplate({... */\n      dup2\n      mstore\n      0x20\n      add\n        /* \"Flight.sol\":1231:1236  _from */\n      dup12\n        /* \"Flight.sol\":1126:1440  FlightTemplate({... */\n      dup2\n      mstore\n      0x20\n      add\n        /* \"Flight.sol\":1263:1275  _destination */\n      dup11\n        /* \"Flight.sol\":1126:1440  FlightTemplate({... */\n      dup2\n      mstore\n      0x20\n      add\n        /* \"Flight.sol\":1298:1306  _flyTime */\n      dup10\n        /* \"Flight.sol\":1126:1440  FlightTemplate({... */\n      dup2\n      mstore\n      0x20\n      add\n        /* \"Flight.sol\":1333:1345  _arrivalTime */\n      dup9\n        /* \"Flight.sol\":1126:1440  FlightTemplate({... */\n      dup2\n      mstore\n      0x20\n      add\n        /* \"Flight.sol\":1374:1388  _businessPrice */\n      dup6\n        /* \"Flight.sol\":1126:1440  FlightTemplate({... */\n      dup2\n      mstore\n      0x20\n      add\n        /* \"Flight.sol\":1416:1429  _economyPrice */\n      dup5\n        /* \"Flight.sol\":1126:1440  FlightTemplate({... */\n      dup2\n      mstore\n      pop\n        /* \"Flight.sol\":1100:1440  FlightTemplate memory f = FlightTemplate({... */\n      swap1\n      pop\n        /* \"Flight.sol\":1450:1469  deployedFlightsDate */\n      0x00\n        /* \"Flight.sol\":1470:1485  _searchableDate */\n      dup7\n        /* \"Flight.sol\":1450:1486  deployedFlightsDate[_searchableDate] */\n      mload(0x40)\n      tag_87\n      swap2\n      swap1\n      tag_24\n      jump\t// in\n    tag_87:\n      swap1\n      dup2\n      mstore\n      0x20\n      add\n      mload(0x40)\n      dup1\n      swap2\n      sub\n      swap1\n      keccak256\n        /* \"Flight.sol\":1492:1493  f */\n      dup2\n        /* \"Flight.sol\":1450:1494  deployedFlightsDate[_searchableDate].push(f) */\n      swap1\n      dup1\n      0x01\n      dup2\n      sload\n      add\n      dup1\n      dup3\n      sstore\n      dup1\n      swap2\n      pop\n      pop\n      0x01\n      swap1\n      sub\n      swap1\n      0x00\n      mstore\n      keccak256(0x00, 0x20)\n      swap1\n      0x08\n      mul\n      add\n      0x00\n      swap1\n      swap2\n      swap1\n      swap2\n      swap1\n      swap2\n      pop\n      0x00\n      dup3\n      add\n      mload\n      dup2\n      0x00\n      add\n      exp(0x0100, 0x00)\n      dup2\n      sload\n      dup2\n      0xffffffffffffffffffffffffffffffffffffffff\n      mul\n      not\n      and\n      swap1\n      dup4\n      0xffffffffffffffffffffffffffffffffffffffff\n      and\n      mul\n      or\n      swap1\n      sstore\n      pop\n      0x20\n      dup3\n      add\n      mload\n      dup2\n      0x01\n      add\n      swap1\n      dup1\n      mload\n      swap1\n      0x20\n      add\n      swap1\n      tag_89\n      swap3\n      swap2\n      swap1\n      tag_90\n      jump\t// in\n    tag_89:\n      pop\n      0x40\n      dup3\n      add\n      mload\n      dup2\n      0x02\n      add\n      swap1\n      dup1\n      mload\n      swap1\n      0x20\n      add\n      swap1\n      tag_91\n      swap3\n      swap2\n      swap1\n      tag_90\n      jump\t// in\n    tag_91:\n      pop\n      0x60\n      dup3\n      add\n      mload\n      dup2\n      0x03\n      add\n      swap1\n      dup1\n      mload\n      swap1\n      0x20\n      add\n      swap1\n      tag_92\n      swap3\n      swap2\n      swap1\n      tag_90\n      jump\t// in\n    tag_92:\n      pop\n      0x80\n      dup3\n      add\n      mload\n      dup2\n      0x04\n      add\n      swap1\n      dup1\n      mload\n      swap1\n      0x20\n      add\n      swap1\n      tag_93\n      swap3\n      swap2\n      swap1\n      tag_90\n      jump\t// in\n    tag_93:\n      pop\n      0xa0\n      dup3\n      add\n      mload\n      dup2\n      0x05\n      add\n      swap1\n      dup1\n      mload\n      swap1\n      0x20\n      add\n      swap1\n      tag_94\n      swap3\n      swap2\n      swap1\n      tag_90\n      jump\t// in\n    tag_94:\n      pop\n      0xc0\n      dup3\n      add\n      mload\n      dup2\n      0x06\n      add\n      sstore\n      0xe0\n      dup3\n      add\n      mload\n      dup2\n      0x07\n      add\n      sstore\n      pop\n      pop\n        /* \"Flight.sol\":750:1501  {... */\n      pop\n      pop\n        /* \"Flight.sol\":420:1501  function createFlight(... */\n      pop\n      pop\n      pop\n      pop\n      pop\n      pop\n      pop\n      pop\n      pop\n      jump\t// out\n    tag_83:\n      dataSize(sub_0)\n      dup1\n      dataOffset(sub_0)\n      dup4\n      codecopy\n      add\n      swap1\n      jump\t// out\n    tag_90:\n      dup3\n      dup1\n      sload\n      tag_95\n      swap1\n      tag_29\n      jump\t// in\n    tag_95:\n      swap1\n      0x00\n      mstore\n      keccak256(0x00, 0x20)\n      swap1\n      0x1f\n      add\n      0x20\n      swap1\n      div\n      dup2\n      add\n      swap3\n      dup3\n      tag_97\n      jumpi\n      0x00\n      dup6\n      sstore\n      jump(tag_96)\n    tag_97:\n      dup3\n      0x1f\n      lt\n      tag_98\n      jumpi\n      dup1\n      mload\n      not(0xff)\n      and\n      dup4\n      dup1\n      add\n      or\n      dup6\n      sstore\n      jump(tag_96)\n    tag_98:\n      dup3\n      dup1\n      add\n      0x01\n      add\n      dup6\n      sstore\n      dup3\n      iszero\n      tag_96\n      jumpi\n      swap2\n      dup3\n      add\n    tag_99:\n      dup3\n      dup2\n      gt\n      iszero\n      tag_100\n      jumpi\n      dup3\n      mload\n      dup3\n      sstore\n      swap2\n      0x20\n      add\n      swap2\n      swap1\n      0x01\n      add\n      swap1\n      jump(tag_99)\n    tag_100:\n    tag_96:\n      pop\n      swap1\n      pop\n      tag_101\n      swap2\n      swap1\n      tag_102\n      jump\t// in\n    tag_101:\n      pop\n      swap1\n      jump\t// out\n    tag_102:\n    tag_103:\n      dup1\n      dup3\n      gt\n      iszero\n      tag_104\n      jumpi\n      0x00\n      dup2\n      0x00\n      swap1\n      sstore\n      pop\n      0x01\n      add\n      jump(tag_103)\n    tag_104:\n      pop\n      swap1\n      jump\t// out\n        /* \"#utility.yul\":7:82   */\n    tag_105:\n        /* \"#utility.yul\":40:46   */\n      0x00\n        /* \"#utility.yul\":73:75   */\n      0x40\n        /* \"#utility.yul\":67:76   */\n      mload\n        /* \"#utility.yul\":57:76   */\n      swap1\n      pop\n        /* \"#utility.yul\":7:82   */\n      swap1\n      jump\t// out\n        /* \"#utility.yul\":88:205   */\n    tag_106:\n        /* \"#utility.yul\":197:198   */\n      0x00\n        /* \"#utility.yul\":194:195   */\n      dup1\n        /* \"#utility.yul\":187:199   */\n      revert\n        /* \"#utility.yul\":211:328   */\n    tag_107:\n        /* \"#utility.yul\":320:321   */\n      0x00\n        /* \"#utility.yul\":317:318   */\n      dup1\n        /* \"#utility.yul\":310:322   */\n      revert\n        /* \"#utility.yul\":334:451   */\n    tag_108:\n        /* \"#utility.yul\":443:444   */\n      0x00\n        /* \"#utility.yul\":440:441   */\n      dup1\n        /* \"#utility.yul\":433:445   */\n      revert\n        /* \"#utility.yul\":457:574   */\n    tag_109:\n        /* \"#utility.yul\":566:567   */\n      0x00\n        /* \"#utility.yul\":563:564   */\n      dup1\n        /* \"#utility.yul\":556:568   */\n      revert\n        /* \"#utility.yul\":580:682   */\n    tag_110:\n        /* \"#utility.yul\":621:627   */\n      0x00\n        /* \"#utility.yul\":672:674   */\n      0x1f\n        /* \"#utility.yul\":668:675   */\n      not\n        /* \"#utility.yul\":663:665   */\n      0x1f\n        /* \"#utility.yul\":656:661   */\n      dup4\n        /* \"#utility.yul\":652:666   */\n      add\n        /* \"#utility.yul\":648:676   */\n      and\n        /* \"#utility.yul\":638:676   */\n      swap1\n      pop\n        /* \"#utility.yul\":580:682   */\n      swap2\n      swap1\n      pop\n      jump\t// out\n        /* \"#utility.yul\":688:868   */\n    tag_111:\n        /* \"#utility.yul\":736:813   */\n      0x4e487b7100000000000000000000000000000000000000000000000000000000\n        /* \"#utility.yul\":733:734   */\n      0x00\n        /* \"#utility.yul\":726:814   */\n      mstore\n        /* \"#utility.yul\":833:837   */\n      0x41\n        /* \"#utility.yul\":830:831   */\n      0x04\n        /* \"#utility.yul\":823:838   */\n      mstore\n        /* \"#utility.yul\":857:861   */\n      0x24\n        /* \"#utility.yul\":854:855   */\n      0x00\n        /* \"#utility.yul\":847:862   */\n      revert\n        /* \"#utility.yul\":874:1155   */\n    tag_112:\n        /* \"#utility.yul\":957:984   */\n      tag_152\n        /* \"#utility.yul\":979:983   */\n      dup3\n        /* \"#utility.yul\":957:984   */\n      tag_110\n      jump\t// in\n    tag_152:\n        /* \"#utility.yul\":949:955   */\n      dup2\n        /* \"#utility.yul\":945:985   */\n      add\n        /* \"#utility.yul\":1087:1093   */\n      dup2\n        /* \"#utility.yul\":1075:1085   */\n      dup2\n        /* \"#utility.yul\":1072:1094   */\n      lt\n        /* \"#utility.yul\":1051:1069   */\n      0xffffffffffffffff\n        /* \"#utility.yul\":1039:1049   */\n      dup3\n        /* \"#utility.yul\":1036:1070   */\n      gt\n        /* \"#utility.yul\":1033:1095   */\n      or\n        /* \"#utility.yul\":1030:1118   */\n      iszero\n      tag_153\n      jumpi\n        /* \"#utility.yul\":1098:1116   */\n      tag_154\n      tag_111\n      jump\t// in\n    tag_154:\n        /* \"#utility.yul\":1030:1118   */\n    tag_153:\n        /* \"#utility.yul\":1138:1148   */\n      dup1\n        /* \"#utility.yul\":1134:1136   */\n      0x40\n        /* \"#utility.yul\":1127:1149   */\n      mstore\n        /* \"#utility.yul\":917:1155   */\n      pop\n        /* \"#utility.yul\":874:1155   */\n      pop\n      pop\n      jump\t// out\n        /* \"#utility.yul\":1161:1290   */\n    tag_113:\n        /* \"#utility.yul\":1195:1201   */\n      0x00\n        /* \"#utility.yul\":1222:1242   */\n      tag_156\n      tag_105\n      jump\t// in\n    tag_156:\n        /* \"#utility.yul\":1212:1242   */\n      swap1\n      pop\n        /* \"#utility.yul\":1251:1284   */\n      tag_157\n        /* \"#utility.yul\":1279:1283   */\n      dup3\n        /* \"#utility.yul\":1271:1277   */\n      dup3\n        /* \"#utility.yul\":1251:1284   */\n      tag_112\n      jump\t// in\n    tag_157:\n        /* \"#utility.yul\":1161:1290   */\n      swap2\n      swap1\n      pop\n      jump\t// out\n        /* \"#utility.yul\":1296:1604   */\n    tag_114:\n        /* \"#utility.yul\":1358:1362   */\n      0x00\n        /* \"#utility.yul\":1448:1466   */\n      0xffffffffffffffff\n        /* \"#utility.yul\":1440:1446   */\n      dup3\n        /* \"#utility.yul\":1437:1467   */\n      gt\n        /* \"#utility.yul\":1434:1490   */\n      iszero\n      tag_159\n      jumpi\n        /* \"#utility.yul\":1470:1488   */\n      tag_160\n      tag_111\n      jump\t// in\n    tag_160:\n        /* \"#utility.yul\":1434:1490   */\n    tag_159:\n        /* \"#utility.yul\":1508:1537   */\n      tag_161\n        /* \"#utility.yul\":1530:1536   */\n      dup3\n        /* \"#utility.yul\":1508:1537   */\n      tag_110\n      jump\t// in\n    tag_161:\n        /* \"#utility.yul\":1500:1537   */\n      swap1\n      pop\n        /* \"#utility.yul\":1592:1596   */\n      0x20\n        /* \"#utility.yul\":1586:1590   */\n      dup2\n        /* \"#utility.yul\":1582:1597   */\n      add\n        /* \"#utility.yul\":1574:1597   */\n      swap1\n      pop\n        /* \"#utility.yul\":1296:1604   */\n      swap2\n      swap1\n      pop\n      jump\t// out\n        /* \"#utility.yul\":1610:1764   */\n    tag_115:\n        /* \"#utility.yul\":1694:1700   */\n      dup3\n        /* \"#utility.yul\":1689:1692   */\n      dup2\n        /* \"#utility.yul\":1684:1687   */\n      dup4\n        /* \"#utility.yul\":1671:1701   */\n      calldatacopy\n        /* \"#utility.yul\":1756:1757   */\n      0x00\n        /* \"#utility.yul\":1747:1753   */\n      dup4\n        /* \"#utility.yul\":1742:1745   */\n      dup4\n        /* \"#utility.yul\":1738:1754   */\n      add\n        /* \"#utility.yul\":1731:1758   */\n      mstore\n        /* \"#utility.yul\":1610:1764   */\n      pop\n      pop\n      pop\n      jump\t// out\n        /* \"#utility.yul\":1770:2182   */\n    tag_116:\n        /* \"#utility.yul\":1848:1853   */\n      0x00\n        /* \"#utility.yul\":1873:1939   */\n      tag_164\n        /* \"#utility.yul\":1889:1938   */\n      tag_165\n        /* \"#utility.yul\":1931:1937   */\n      dup5\n        /* \"#utility.yul\":1889:1938   */\n      tag_114\n      jump\t// in\n    tag_165:\n        /* \"#utility.yul\":1873:1939   */\n      tag_113\n      jump\t// in\n    tag_164:\n        /* \"#utility.yul\":1864:1939   */\n      swap1\n      pop\n        /* \"#utility.yul\":1962:1968   */\n      dup3\n        /* \"#utility.yul\":1955:1960   */\n      dup2\n        /* \"#utility.yul\":1948:1969   */\n      mstore\n        /* \"#utility.yul\":2000:2004   */\n      0x20\n        /* \"#utility.yul\":1993:1998   */\n      dup2\n        /* \"#utility.yul\":1989:2005   */\n      add\n        /* \"#utility.yul\":2038:2041   */\n      dup5\n        /* \"#utility.yul\":2029:2035   */\n      dup5\n        /* \"#utility.yul\":2024:2027   */\n      dup5\n        /* \"#utility.yul\":2020:2036   */\n      add\n        /* \"#utility.yul\":2017:2042   */\n      gt\n        /* \"#utility.yul\":2014:2126   */\n      iszero\n      tag_166\n      jumpi\n        /* \"#utility.yul\":2045:2124   */\n      tag_167\n      tag_109\n      jump\t// in\n    tag_167:\n        /* \"#utility.yul\":2014:2126   */\n    tag_166:\n        /* \"#utility.yul\":2135:2176   */\n      tag_168\n        /* \"#utility.yul\":2169:2175   */\n      dup5\n        /* \"#utility.yul\":2164:2167   */\n      dup3\n        /* \"#utility.yul\":2159:2162   */\n      dup6\n        /* \"#utility.yul\":2135:2176   */\n      tag_115\n      jump\t// in\n    tag_168:\n        /* \"#utility.yul\":1854:2182   */\n      pop\n        /* \"#utility.yul\":1770:2182   */\n      swap4\n      swap3\n      pop\n      pop\n      pop\n      jump\t// out\n        /* \"#utility.yul\":2202:2542   */\n    tag_117:\n        /* \"#utility.yul\":2258:2263   */\n      0x00\n        /* \"#utility.yul\":2307:2310   */\n      dup3\n        /* \"#utility.yul\":2300:2304   */\n      0x1f\n        /* \"#utility.yul\":2292:2298   */\n      dup4\n        /* \"#utility.yul\":2288:2305   */\n      add\n        /* \"#utility.yul\":2284:2311   */\n      slt\n        /* \"#utility.yul\":2274:2396   */\n      tag_170\n      jumpi\n        /* \"#utility.yul\":2315:2394   */\n      tag_171\n      tag_108\n      jump\t// in\n    tag_171:\n        /* \"#utility.yul\":2274:2396   */\n    tag_170:\n        /* \"#utility.yul\":2432:2438   */\n      dup2\n        /* \"#utility.yul\":2419:2439   */\n      calldataload\n        /* \"#utility.yul\":2457:2536   */\n      tag_172\n        /* \"#utility.yul\":2532:2535   */\n      dup5\n        /* \"#utility.yul\":2524:2530   */\n      dup3\n        /* \"#utility.yul\":2517:2521   */\n      0x20\n        /* \"#utility.yul\":2509:2515   */\n      dup7\n        /* \"#utility.yul\":2505:2522   */\n      add\n        /* \"#utility.yul\":2457:2536   */\n      tag_116\n      jump\t// in\n    tag_172:\n        /* \"#utility.yul\":2448:2536   */\n      swap2\n      pop\n        /* \"#utility.yul\":2264:2542   */\n      pop\n        /* \"#utility.yul\":2202:2542   */\n      swap3\n      swap2\n      pop\n      pop\n      jump\t// out\n        /* \"#utility.yul\":2548:3057   */\n    tag_8:\n        /* \"#utility.yul\":2617:2623   */\n      0x00\n        /* \"#utility.yul\":2666:2668   */\n      0x20\n        /* \"#utility.yul\":2654:2663   */\n      dup3\n        /* \"#utility.yul\":2645:2652   */\n      dup5\n        /* \"#utility.yul\":2641:2664   */\n      sub\n        /* \"#utility.yul\":2637:2669   */\n      slt\n        /* \"#utility.yul\":2634:2753   */\n      iszero\n      tag_174\n      jumpi\n        /* \"#utility.yul\":2672:2751   */\n      tag_175\n      tag_106\n      jump\t// in\n    tag_175:\n        /* \"#utility.yul\":2634:2753   */\n    tag_174:\n        /* \"#utility.yul\":2820:2821   */\n      0x00\n        /* \"#utility.yul\":2809:2818   */\n      dup3\n        /* \"#utility.yul\":2805:2822   */\n      add\n        /* \"#utility.yul\":2792:2823   */\n      calldataload\n        /* \"#utility.yul\":2850:2868   */\n      0xffffffffffffffff\n        /* \"#utility.yul\":2842:2848   */\n      dup2\n        /* \"#utility.yul\":2839:2869   */\n      gt\n        /* \"#utility.yul\":2836:2953   */\n      iszero\n      tag_176\n      jumpi\n        /* \"#utility.yul\":2872:2951   */\n      tag_177\n      tag_107\n      jump\t// in\n    tag_177:\n        /* \"#utility.yul\":2836:2953   */\n    tag_176:\n        /* \"#utility.yul\":2977:3040   */\n      tag_178\n        /* \"#utility.yul\":3032:3039   */\n      dup5\n        /* \"#utility.yul\":3023:3029   */\n      dup3\n        /* \"#utility.yul\":3012:3021   */\n      dup6\n        /* \"#utility.yul\":3008:3030   */\n      add\n        /* \"#utility.yul\":2977:3040   */\n      tag_117\n      jump\t// in\n    tag_178:\n        /* \"#utility.yul\":2967:3040   */\n      swap2\n      pop\n        /* \"#utility.yul\":2763:3050   */\n      pop\n        /* \"#utility.yul\":2548:3057   */\n      swap3\n      swap2\n      pop\n      pop\n      jump\t// out\n        /* \"#utility.yul\":3063:3207   */\n    tag_118:\n        /* \"#utility.yul\":3160:3166   */\n      0x00\n        /* \"#utility.yul\":3194:3199   */\n      dup2\n        /* \"#utility.yul\":3188:3200   */\n      mload\n        /* \"#utility.yul\":3178:3200   */\n      swap1\n      pop\n        /* \"#utility.yul\":3063:3207   */\n      swap2\n      swap1\n      pop\n      jump\t// out\n        /* \"#utility.yul\":3213:3427   */\n    tag_119:\n        /* \"#utility.yul\":3342:3353   */\n      0x00\n        /* \"#utility.yul\":3376:3382   */\n      dup3\n        /* \"#utility.yul\":3371:3374   */\n      dup3\n        /* \"#utility.yul\":3364:3383   */\n      mstore\n        /* \"#utility.yul\":3416:3420   */\n      0x20\n        /* \"#utility.yul\":3411:3414   */\n      dup3\n        /* \"#utility.yul\":3407:3421   */\n      add\n        /* \"#utility.yul\":3392:3421   */\n      swap1\n      pop\n        /* \"#utility.yul\":3213:3427   */\n      swap3\n      swap2\n      pop\n      pop\n      jump\t// out\n        /* \"#utility.yul\":3433:3595   */\n    tag_120:\n        /* \"#utility.yul\":3530:3534   */\n      0x00\n        /* \"#utility.yul\":3553:3556   */\n      dup2\n        /* \"#utility.yul\":3545:3556   */\n      swap1\n      pop\n        /* \"#utility.yul\":3583:3587   */\n      0x20\n        /* \"#utility.yul\":3578:3581   */\n      dup3\n        /* \"#utility.yul\":3574:3588   */\n      add\n        /* \"#utility.yul\":3566:3588   */\n      swap1\n      pop\n        /* \"#utility.yul\":3433:3595   */\n      swap2\n      swap1\n      pop\n      jump\t// out\n        /* \"#utility.yul\":3601:3727   */\n    tag_121:\n        /* \"#utility.yul\":3638:3645   */\n      0x00\n        /* \"#utility.yul\":3678:3720   */\n      0xffffffffffffffffffffffffffffffffffffffff\n        /* \"#utility.yul\":3671:3676   */\n      dup3\n        /* \"#utility.yul\":3667:3721   */\n      and\n        /* \"#utility.yul\":3656:3721   */\n      swap1\n      pop\n        /* \"#utility.yul\":3601:3727   */\n      swap2\n      swap1\n      pop\n      jump\t// out\n        /* \"#utility.yul\":3733:3829   */\n    tag_122:\n        /* \"#utility.yul\":3770:3777   */\n      0x00\n        /* \"#utility.yul\":3799:3823   */\n      tag_184\n        /* \"#utility.yul\":3817:3822   */\n      dup3\n        /* \"#utility.yul\":3799:3823   */\n      tag_121\n      jump\t// in\n    tag_184:\n        /* \"#utility.yul\":3788:3823   */\n      swap1\n      pop\n        /* \"#utility.yul\":3733:3829   */\n      swap2\n      swap1\n      pop\n      jump\t// out\n        /* \"#utility.yul\":3835:3943   */\n    tag_123:\n        /* \"#utility.yul\":3912:3936   */\n      tag_186\n        /* \"#utility.yul\":3930:3935   */\n      dup2\n        /* \"#utility.yul\":3912:3936   */\n      tag_122\n      jump\t// in\n    tag_186:\n        /* \"#utility.yul\":3907:3910   */\n      dup3\n        /* \"#utility.yul\":3900:3937   */\n      mstore\n        /* \"#utility.yul\":3835:3943   */\n      pop\n      pop\n      jump\t// out\n        /* \"#utility.yul\":3949:4048   */\n    tag_124:\n        /* \"#utility.yul\":4001:4007   */\n      0x00\n        /* \"#utility.yul\":4035:4040   */\n      dup2\n        /* \"#utility.yul\":4029:4041   */\n      mload\n        /* \"#utility.yul\":4019:4041   */\n      swap1\n      pop\n        /* \"#utility.yul\":3949:4048   */\n      swap2\n      swap1\n      pop\n      jump\t// out\n        /* \"#utility.yul\":4054:4213   */\n    tag_125:\n        /* \"#utility.yul\":4128:4139   */\n      0x00\n        /* \"#utility.yul\":4162:4168   */\n      dup3\n        /* \"#utility.yul\":4157:4160   */\n      dup3\n        /* \"#utility.yul\":4150:4169   */\n      mstore\n        /* \"#utility.yul\":4202:4206   */\n      0x20\n        /* \"#utility.yul\":4197:4200   */\n      dup3\n        /* \"#utility.yul\":4193:4207   */\n      add\n        /* \"#utility.yul\":4178:4207   */\n      swap1\n      pop\n        /* \"#utility.yul\":4054:4213   */\n      swap3\n      swap2\n      pop\n      pop\n      jump\t// out\n        /* \"#utility.yul\":4219:4526   */\n    tag_126:\n        /* \"#utility.yul\":4287:4288   */\n      0x00\n        /* \"#utility.yul\":4297:4410   */\n    tag_190:\n        /* \"#utility.yul\":4311:4317   */\n      dup4\n        /* \"#utility.yul\":4308:4309   */\n      dup2\n        /* \"#utility.yul\":4305:4318   */\n      lt\n        /* \"#utility.yul\":4297:4410   */\n      iszero\n      tag_192\n      jumpi\n        /* \"#utility.yul\":4396:4397   */\n      dup1\n        /* \"#utility.yul\":4391:4394   */\n      dup3\n        /* \"#utility.yul\":4387:4398   */\n      add\n        /* \"#utility.yul\":4381:4399   */\n      mload\n        /* \"#utility.yul\":4377:4378   */\n      dup2\n        /* \"#utility.yul\":4372:4375   */\n      dup5\n        /* \"#utility.yul\":4368:4379   */\n      add\n        /* \"#utility.yul\":4361:4400   */\n      mstore\n        /* \"#utility.yul\":4333:4335   */\n      0x20\n        /* \"#utility.yul\":4330:4331   */\n      dup2\n        /* \"#utility.yul\":4326:4336   */\n      add\n        /* \"#utility.yul\":4321:4336   */\n      swap1\n      pop\n        /* \"#utility.yul\":4297:4410   */\n      jump(tag_190)\n    tag_192:\n        /* \"#utility.yul\":4428:4434   */\n      dup4\n        /* \"#utility.yul\":4425:4426   */\n      dup2\n        /* \"#utility.yul\":4422:4435   */\n      gt\n        /* \"#utility.yul\":4419:4520   */\n      iszero\n      tag_193\n      jumpi\n        /* \"#utility.yul\":4508:4509   */\n      0x00\n        /* \"#utility.yul\":4499:4505   */\n      dup5\n        /* \"#utility.yul\":4494:4497   */\n      dup5\n        /* \"#utility.yul\":4490:4506   */\n      add\n        /* \"#utility.yul\":4483:4510   */\n      mstore\n        /* \"#utility.yul\":4419:4520   */\n    tag_193:\n        /* \"#utility.yul\":4268:4526   */\n      pop\n        /* \"#utility.yul\":4219:4526   */\n      pop\n      pop\n      pop\n      jump\t// out\n        /* \"#utility.yul\":4532:4876   */\n    tag_127:\n        /* \"#utility.yul\":4610:4613   */\n      0x00\n        /* \"#utility.yul\":4638:4677   */\n      tag_195\n        /* \"#utility.yul\":4671:4676   */\n      dup3\n        /* \"#utility.yul\":4638:4677   */\n      tag_124\n      jump\t// in\n    tag_195:\n        /* \"#utility.yul\":4693:4754   */\n      tag_196\n        /* \"#utility.yul\":4747:4753   */\n      dup2\n        /* \"#utility.yul\":4742:4745   */\n      dup6\n        /* \"#utility.yul\":4693:4754   */\n      tag_125\n      jump\t// in\n    tag_196:\n        /* \"#utility.yul\":4686:4754   */\n      swap4\n      pop\n        /* \"#utility.yul\":4763:4815   */\n      tag_197\n        /* \"#utility.yul\":4808:4814   */\n      dup2\n        /* \"#utility.yul\":4803:4806   */\n      dup6\n        /* \"#utility.yul\":4796:4800   */\n      0x20\n        /* \"#utility.yul\":4789:4794   */\n      dup7\n        /* \"#utility.yul\":4785:4801   */\n      add\n        /* \"#utility.yul\":4763:4815   */\n      tag_126\n      jump\t// in\n    tag_197:\n        /* \"#utility.yul\":4840:4869   */\n      tag_198\n        /* \"#utility.yul\":4862:4868   */\n      dup2\n        /* \"#utility.yul\":4840:4869   */\n      tag_110\n      jump\t// in\n    tag_198:\n        /* \"#utility.yul\":4835:4838   */\n      dup5\n        /* \"#utility.yul\":4831:4870   */\n      add\n        /* \"#utility.yul\":4824:4870   */\n      swap2\n      pop\n        /* \"#utility.yul\":4614:4876   */\n      pop\n        /* \"#utility.yul\":4532:4876   */\n      swap3\n      swap2\n      pop\n      pop\n      jump\t// out\n        /* \"#utility.yul\":4882:4959   */\n    tag_128:\n        /* \"#utility.yul\":4919:4926   */\n      0x00\n        /* \"#utility.yul\":4948:4953   */\n      dup2\n        /* \"#utility.yul\":4937:4953   */\n      swap1\n      pop\n        /* \"#utility.yul\":4882:4959   */\n      swap2\n      swap1\n      pop\n      jump\t// out\n        /* \"#utility.yul\":4965:5073   */\n    tag_129:\n        /* \"#utility.yul\":5042:5066   */\n      tag_201\n        /* \"#utility.yul\":5060:5065   */\n      dup2\n        /* \"#utility.yul\":5042:5066   */\n      tag_128\n      jump\t// in\n    tag_201:\n        /* \"#utility.yul\":5037:5040   */\n      dup3\n        /* \"#utility.yul\":5030:5067   */\n      mstore\n        /* \"#utility.yul\":4965:5073   */\n      pop\n      pop\n      jump\t// out\n        /* \"#utility.yul\":5161:7143   */\n    tag_130:\n        /* \"#utility.yul\":5280:5283   */\n      0x00\n        /* \"#utility.yul\":5316:5322   */\n      0x0100\n        /* \"#utility.yul\":5311:5314   */\n      dup4\n        /* \"#utility.yul\":5307:5323   */\n      add\n        /* \"#utility.yul\":5413:5417   */\n      0x00\n        /* \"#utility.yul\":5406:5411   */\n      dup4\n        /* \"#utility.yul\":5402:5418   */\n      add\n        /* \"#utility.yul\":5396:5419   */\n      mload\n        /* \"#utility.yul\":5432:5495   */\n      tag_203\n        /* \"#utility.yul\":5489:5493   */\n      0x00\n        /* \"#utility.yul\":5484:5487   */\n      dup7\n        /* \"#utility.yul\":5480:5494   */\n      add\n        /* \"#utility.yul\":5466:5478   */\n      dup3\n        /* \"#utility.yul\":5432:5495   */\n      tag_123\n      jump\t// in\n    tag_203:\n        /* \"#utility.yul\":5333:5505   */\n      pop\n        /* \"#utility.yul\":5591:5595   */\n      0x20\n        /* \"#utility.yul\":5584:5589   */\n      dup4\n        /* \"#utility.yul\":5580:5596   */\n      add\n        /* \"#utility.yul\":5574:5597   */\n      mload\n        /* \"#utility.yul\":5644:5647   */\n      dup5\n        /* \"#utility.yul\":5638:5642   */\n      dup3\n        /* \"#utility.yul\":5634:5648   */\n      sub\n        /* \"#utility.yul\":5627:5631   */\n      0x20\n        /* \"#utility.yul\":5622:5625   */\n      dup7\n        /* \"#utility.yul\":5618:5632   */\n      add\n        /* \"#utility.yul\":5611:5649   */\n      mstore\n        /* \"#utility.yul\":5670:5743   */\n      tag_204\n        /* \"#utility.yul\":5738:5742   */\n      dup3\n        /* \"#utility.yul\":5724:5736   */\n      dup3\n        /* \"#utility.yul\":5670:5743   */\n      tag_127\n      jump\t// in\n    tag_204:\n        /* \"#utility.yul\":5662:5743   */\n      swap2\n      pop\n        /* \"#utility.yul\":5515:5754   */\n      pop\n        /* \"#utility.yul\":5836:5840   */\n      0x40\n        /* \"#utility.yul\":5829:5834   */\n      dup4\n        /* \"#utility.yul\":5825:5841   */\n      add\n        /* \"#utility.yul\":5819:5842   */\n      mload\n        /* \"#utility.yul\":5889:5892   */\n      dup5\n        /* \"#utility.yul\":5883:5887   */\n      dup3\n        /* \"#utility.yul\":5879:5893   */\n      sub\n        /* \"#utility.yul\":5872:5876   */\n      0x40\n        /* \"#utility.yul\":5867:5870   */\n      dup7\n        /* \"#utility.yul\":5863:5877   */\n      add\n        /* \"#utility.yul\":5856:5894   */\n      mstore\n        /* \"#utility.yul\":5915:5988   */\n      tag_205\n        /* \"#utility.yul\":5983:5987   */\n      dup3\n        /* \"#utility.yul\":5969:5981   */\n      dup3\n        /* \"#utility.yul\":5915:5988   */\n      tag_127\n      jump\t// in\n    tag_205:\n        /* \"#utility.yul\":5907:5988   */\n      swap2\n      pop\n        /* \"#utility.yul\":5764:5999   */\n      pop\n        /* \"#utility.yul\":6088:6092   */\n      0x60\n        /* \"#utility.yul\":6081:6086   */\n      dup4\n        /* \"#utility.yul\":6077:6093   */\n      add\n        /* \"#utility.yul\":6071:6094   */\n      mload\n        /* \"#utility.yul\":6141:6144   */\n      dup5\n        /* \"#utility.yul\":6135:6139   */\n      dup3\n        /* \"#utility.yul\":6131:6145   */\n      sub\n        /* \"#utility.yul\":6124:6128   */\n      0x60\n        /* \"#utility.yul\":6119:6122   */\n      dup7\n        /* \"#utility.yul\":6115:6129   */\n      add\n        /* \"#utility.yul\":6108:6146   */\n      mstore\n        /* \"#utility.yul\":6167:6240   */\n      tag_206\n        /* \"#utility.yul\":6235:6239   */\n      dup3\n        /* \"#utility.yul\":6221:6233   */\n      dup3\n        /* \"#utility.yul\":6167:6240   */\n      tag_127\n      jump\t// in\n    tag_206:\n        /* \"#utility.yul\":6159:6240   */\n      swap2\n      pop\n        /* \"#utility.yul\":6009:6251   */\n      pop\n        /* \"#utility.yul\":6336:6340   */\n      0x80\n        /* \"#utility.yul\":6329:6334   */\n      dup4\n        /* \"#utility.yul\":6325:6341   */\n      add\n        /* \"#utility.yul\":6319:6342   */\n      mload\n        /* \"#utility.yul\":6389:6392   */\n      dup5\n        /* \"#utility.yul\":6383:6387   */\n      dup3\n        /* \"#utility.yul\":6379:6393   */\n      sub\n        /* \"#utility.yul\":6372:6376   */\n      0x80\n        /* \"#utility.yul\":6367:6370   */\n      dup7\n        /* \"#utility.yul\":6363:6377   */\n      add\n        /* \"#utility.yul\":6356:6394   */\n      mstore\n        /* \"#utility.yul\":6415:6488   */\n      tag_207\n        /* \"#utility.yul\":6483:6487   */\n      dup3\n        /* \"#utility.yul\":6469:6481   */\n      dup3\n        /* \"#utility.yul\":6415:6488   */\n      tag_127\n      jump\t// in\n    tag_207:\n        /* \"#utility.yul\":6407:6488   */\n      swap2\n      pop\n        /* \"#utility.yul\":6261:6499   */\n      pop\n        /* \"#utility.yul\":6588:6592   */\n      0xa0\n        /* \"#utility.yul\":6581:6586   */\n      dup4\n        /* \"#utility.yul\":6577:6593   */\n      add\n        /* \"#utility.yul\":6571:6594   */\n      mload\n        /* \"#utility.yul\":6641:6644   */\n      dup5\n        /* \"#utility.yul\":6635:6639   */\n      dup3\n        /* \"#utility.yul\":6631:6645   */\n      sub\n        /* \"#utility.yul\":6624:6628   */\n      0xa0\n        /* \"#utility.yul\":6619:6622   */\n      dup7\n        /* \"#utility.yul\":6615:6629   */\n      add\n        /* \"#utility.yul\":6608:6646   */\n      mstore\n        /* \"#utility.yul\":6667:6740   */\n      tag_208\n        /* \"#utility.yul\":6735:6739   */\n      dup3\n        /* \"#utility.yul\":6721:6733   */\n      dup3\n        /* \"#utility.yul\":6667:6740   */\n      tag_127\n      jump\t// in\n    tag_208:\n        /* \"#utility.yul\":6659:6740   */\n      swap2\n      pop\n        /* \"#utility.yul\":6509:6751   */\n      pop\n        /* \"#utility.yul\":6842:6846   */\n      0xc0\n        /* \"#utility.yul\":6835:6840   */\n      dup4\n        /* \"#utility.yul\":6831:6847   */\n      add\n        /* \"#utility.yul\":6825:6848   */\n      mload\n        /* \"#utility.yul\":6861:6924   */\n      tag_209\n        /* \"#utility.yul\":6918:6922   */\n      0xc0\n        /* \"#utility.yul\":6913:6916   */\n      dup7\n        /* \"#utility.yul\":6909:6923   */\n      add\n        /* \"#utility.yul\":6895:6907   */\n      dup3\n        /* \"#utility.yul\":6861:6924   */\n      tag_129\n      jump\t// in\n    tag_209:\n        /* \"#utility.yul\":6761:6934   */\n      pop\n        /* \"#utility.yul\":7024:7028   */\n      0xe0\n        /* \"#utility.yul\":7017:7022   */\n      dup4\n        /* \"#utility.yul\":7013:7029   */\n      add\n        /* \"#utility.yul\":7007:7030   */\n      mload\n        /* \"#utility.yul\":7043:7106   */\n      tag_210\n        /* \"#utility.yul\":7100:7104   */\n      0xe0\n        /* \"#utility.yul\":7095:7098   */\n      dup7\n        /* \"#utility.yul\":7091:7105   */\n      add\n        /* \"#utility.yul\":7077:7089   */\n      dup3\n        /* \"#utility.yul\":7043:7106   */\n      tag_129\n      jump\t// in\n    tag_210:\n        /* \"#utility.yul\":6944:7116   */\n      pop\n        /* \"#utility.yul\":7133:7137   */\n      dup1\n        /* \"#utility.yul\":7126:7137   */\n      swap2\n      pop\n        /* \"#utility.yul\":5285:7143   */\n      pop\n        /* \"#utility.yul\":5161:7143   */\n      swap3\n      swap2\n      pop\n      pop\n      jump\t// out\n        /* \"#utility.yul\":7149:7425   */\n    tag_131:\n        /* \"#utility.yul\":7278:7288   */\n      0x00\n        /* \"#utility.yul\":7313:7419   */\n      tag_212\n        /* \"#utility.yul\":7415:7418   */\n      dup4\n        /* \"#utility.yul\":7407:7413   */\n      dup4\n        /* \"#utility.yul\":7313:7419   */\n      tag_130\n      jump\t// in\n    tag_212:\n        /* \"#utility.yul\":7299:7419   */\n      swap1\n      pop\n        /* \"#utility.yul\":7149:7425   */\n      swap3\n      swap2\n      pop\n      pop\n      jump\t// out\n        /* \"#utility.yul\":7431:7574   */\n    tag_132:\n        /* \"#utility.yul\":7531:7535   */\n      0x00\n        /* \"#utility.yul\":7563:7567   */\n      0x20\n        /* \"#utility.yul\":7558:7561   */\n      dup3\n        /* \"#utility.yul\":7554:7568   */\n      add\n        /* \"#utility.yul\":7546:7568   */\n      swap1\n      pop\n        /* \"#utility.yul\":7431:7574   */\n      swap2\n      swap1\n      pop\n      jump\t// out\n        /* \"#utility.yul\":7666:8817   */\n    tag_133:\n        /* \"#utility.yul\":7845:7848   */\n      0x00\n        /* \"#utility.yul\":7874:7958   */\n      tag_215\n        /* \"#utility.yul\":7952:7957   */\n      dup3\n        /* \"#utility.yul\":7874:7958   */\n      tag_118\n      jump\t// in\n    tag_215:\n        /* \"#utility.yul\":7974:8090   */\n      tag_216\n        /* \"#utility.yul\":8083:8089   */\n      dup2\n        /* \"#utility.yul\":8078:8081   */\n      dup6\n        /* \"#utility.yul\":7974:8090   */\n      tag_119\n      jump\t// in\n    tag_216:\n        /* \"#utility.yul\":7967:8090   */\n      swap4\n      pop\n        /* \"#utility.yul\":8116:8119   */\n      dup4\n        /* \"#utility.yul\":8161:8165   */\n      0x20\n        /* \"#utility.yul\":8153:8159   */\n      dup3\n        /* \"#utility.yul\":8149:8166   */\n      mul\n        /* \"#utility.yul\":8144:8147   */\n      dup6\n        /* \"#utility.yul\":8140:8167   */\n      add\n        /* \"#utility.yul\":8191:8277   */\n      tag_217\n        /* \"#utility.yul\":8271:8276   */\n      dup6\n        /* \"#utility.yul\":8191:8277   */\n      tag_120\n      jump\t// in\n    tag_217:\n        /* \"#utility.yul\":8300:8307   */\n      dup1\n        /* \"#utility.yul\":8331:8332   */\n      0x00\n        /* \"#utility.yul\":8316:8772   */\n    tag_218:\n        /* \"#utility.yul\":8341:8347   */\n      dup6\n        /* \"#utility.yul\":8338:8339   */\n      dup2\n        /* \"#utility.yul\":8335:8348   */\n      lt\n        /* \"#utility.yul\":8316:8772   */\n      iszero\n      tag_220\n      jumpi\n        /* \"#utility.yul\":8412:8421   */\n      dup5\n        /* \"#utility.yul\":8406:8410   */\n      dup5\n        /* \"#utility.yul\":8402:8422   */\n      sub\n        /* \"#utility.yul\":8397:8400   */\n      dup10\n        /* \"#utility.yul\":8390:8423   */\n      mstore\n        /* \"#utility.yul\":8463:8469   */\n      dup2\n        /* \"#utility.yul\":8457:8470   */\n      mload\n        /* \"#utility.yul\":8491:8615   */\n      tag_221\n        /* \"#utility.yul\":8610:8614   */\n      dup6\n        /* \"#utility.yul\":8595:8608   */\n      dup3\n        /* \"#utility.yul\":8491:8615   */\n      tag_131\n      jump\t// in\n    tag_221:\n        /* \"#utility.yul\":8483:8615   */\n      swap5\n      pop\n        /* \"#utility.yul\":8638:8728   */\n      tag_222\n        /* \"#utility.yul\":8721:8727   */\n      dup4\n        /* \"#utility.yul\":8638:8728   */\n      tag_132\n      jump\t// in\n    tag_222:\n        /* \"#utility.yul\":8628:8728   */\n      swap3\n      pop\n        /* \"#utility.yul\":8757:8761   */\n      0x20\n        /* \"#utility.yul\":8752:8755   */\n      dup11\n        /* \"#utility.yul\":8748:8762   */\n      add\n        /* \"#utility.yul\":8741:8762   */\n      swap10\n      pop\n        /* \"#utility.yul\":8376:8772   */\n      pop\n        /* \"#utility.yul\":8363:8364   */\n      0x01\n        /* \"#utility.yul\":8360:8361   */\n      dup2\n        /* \"#utility.yul\":8356:8365   */\n      add\n        /* \"#utility.yul\":8351:8365   */\n      swap1\n      pop\n        /* \"#utility.yul\":8316:8772   */\n      jump(tag_218)\n    tag_220:\n        /* \"#utility.yul\":8320:8334   */\n      pop\n        /* \"#utility.yul\":8788:8792   */\n      dup3\n        /* \"#utility.yul\":8781:8792   */\n      swap8\n      pop\n        /* \"#utility.yul\":8808:8811   */\n      dup8\n        /* \"#utility.yul\":8801:8811   */\n      swap6\n      pop\n        /* \"#utility.yul\":7850:8817   */\n      pop\n      pop\n      pop\n      pop\n      pop\n        /* \"#utility.yul\":7666:8817   */\n      swap3\n      swap2\n      pop\n      pop\n      jump\t// out\n        /* \"#utility.yul\":8823:9316   */\n    tag_11:\n        /* \"#utility.yul\":9026:9030   */\n      0x00\n        /* \"#utility.yul\":9064:9066   */\n      0x20\n        /* \"#utility.yul\":9053:9062   */\n      dup3\n        /* \"#utility.yul\":9049:9067   */\n      add\n        /* \"#utility.yul\":9041:9067   */\n      swap1\n      pop\n        /* \"#utility.yul\":9113:9122   */\n      dup2\n        /* \"#utility.yul\":9107:9111   */\n      dup2\n        /* \"#utility.yul\":9103:9123   */\n      sub\n        /* \"#utility.yul\":9099:9100   */\n      0x00\n        /* \"#utility.yul\":9088:9097   */\n      dup4\n        /* \"#utility.yul\":9084:9101   */\n      add\n        /* \"#utility.yul\":9077:9124   */\n      mstore\n        /* \"#utility.yul\":9141:9309   */\n      tag_224\n        /* \"#utility.yul\":9304:9308   */\n      dup2\n        /* \"#utility.yul\":9295:9301   */\n      dup5\n        /* \"#utility.yul\":9141:9309   */\n      tag_133\n      jump\t// in\n    tag_224:\n        /* \"#utility.yul\":9133:9309   */\n      swap1\n      pop\n        /* \"#utility.yul\":8823:9316   */\n      swap3\n      swap2\n      pop\n      pop\n      jump\t// out\n        /* \"#utility.yul\":9322:9444   */\n    tag_134:\n        /* \"#utility.yul\":9395:9419   */\n      tag_226\n        /* \"#utility.yul\":9413:9418   */\n      dup2\n        /* \"#utility.yul\":9395:9419   */\n      tag_128\n      jump\t// in\n    tag_226:\n        /* \"#utility.yul\":9388:9393   */\n      dup2\n        /* \"#utility.yul\":9385:9420   */\n      eq\n        /* \"#utility.yul\":9375:9438   */\n      tag_227\n      jumpi\n        /* \"#utility.yul\":9434:9435   */\n      0x00\n        /* \"#utility.yul\":9431:9432   */\n      dup1\n        /* \"#utility.yul\":9424:9436   */\n      revert\n        /* \"#utility.yul\":9375:9438   */\n    tag_227:\n        /* \"#utility.yul\":9322:9444   */\n      pop\n      jump\t// out\n        /* \"#utility.yul\":9450:9589   */\n    tag_135:\n        /* \"#utility.yul\":9496:9501   */\n      0x00\n        /* \"#utility.yul\":9534:9540   */\n      dup2\n        /* \"#utility.yul\":9521:9541   */\n      calldataload\n        /* \"#utility.yul\":9512:9541   */\n      swap1\n      pop\n        /* \"#utility.yul\":9550:9583   */\n      tag_229\n        /* \"#utility.yul\":9577:9582   */\n      dup2\n        /* \"#utility.yul\":9550:9583   */\n      tag_134\n      jump\t// in\n    tag_229:\n        /* \"#utility.yul\":9450:9589   */\n      swap3\n      swap2\n      pop\n      pop\n      jump\t// out\n        /* \"#utility.yul\":9595:10249   */\n    tag_14:\n        /* \"#utility.yul\":9673:9679   */\n      0x00\n        /* \"#utility.yul\":9681:9687   */\n      dup1\n        /* \"#utility.yul\":9730:9732   */\n      0x40\n        /* \"#utility.yul\":9718:9727   */\n      dup4\n        /* \"#utility.yul\":9709:9716   */\n      dup6\n        /* \"#utility.yul\":9705:9728   */\n      sub\n        /* \"#utility.yul\":9701:9733   */\n      slt\n        /* \"#utility.yul\":9698:9817   */\n      iszero\n      tag_231\n      jumpi\n        /* \"#utility.yul\":9736:9815   */\n      tag_232\n      tag_106\n      jump\t// in\n    tag_232:\n        /* \"#utility.yul\":9698:9817   */\n    tag_231:\n        /* \"#utility.yul\":9884:9885   */\n      0x00\n        /* \"#utility.yul\":9873:9882   */\n      dup4\n        /* \"#utility.yul\":9869:9886   */\n      add\n        /* \"#utility.yul\":9856:9887   */\n      calldataload\n        /* \"#utility.yul\":9914:9932   */\n      0xffffffffffffffff\n        /* \"#utility.yul\":9906:9912   */\n      dup2\n        /* \"#utility.yul\":9903:9933   */\n      gt\n        /* \"#utility.yul\":9900:10017   */\n      iszero\n      tag_233\n      jumpi\n        /* \"#utility.yul\":9936:10015   */\n      tag_234\n      tag_107\n      jump\t// in\n    tag_234:\n        /* \"#utility.yul\":9900:10017   */\n    tag_233:\n        /* \"#utility.yul\":10041:10104   */\n      tag_235\n        /* \"#utility.yul\":10096:10103   */\n      dup6\n        /* \"#utility.yul\":10087:10093   */\n      dup3\n        /* \"#utility.yul\":10076:10085   */\n      dup7\n        /* \"#utility.yul\":10072:10094   */\n      add\n        /* \"#utility.yul\":10041:10104   */\n      tag_117\n      jump\t// in\n    tag_235:\n        /* \"#utility.yul\":10031:10104   */\n      swap3\n      pop\n        /* \"#utility.yul\":9827:10114   */\n      pop\n        /* \"#utility.yul\":10153:10155   */\n      0x20\n        /* \"#utility.yul\":10179:10232   */\n      tag_236\n        /* \"#utility.yul\":10224:10231   */\n      dup6\n        /* \"#utility.yul\":10215:10221   */\n      dup3\n        /* \"#utility.yul\":10204:10213   */\n      dup7\n        /* \"#utility.yul\":10200:10222   */\n      add\n        /* \"#utility.yul\":10179:10232   */\n      tag_135\n      jump\t// in\n    tag_236:\n        /* \"#utility.yul\":10169:10232   */\n      swap2\n      pop\n        /* \"#utility.yul\":10124:10242   */\n      pop\n        /* \"#utility.yul\":9595:10249   */\n      swap3\n      pop\n      swap3\n      swap1\n      pop\n      jump\t// out\n        /* \"#utility.yul\":10255:10373   */\n    tag_136:\n        /* \"#utility.yul\":10342:10366   */\n      tag_238\n        /* \"#utility.yul\":10360:10365   */\n      dup2\n        /* \"#utility.yul\":10342:10366   */\n      tag_122\n      jump\t// in\n    tag_238:\n        /* \"#utility.yul\":10337:10340   */\n      dup3\n        /* \"#utility.yul\":10330:10367   */\n      mstore\n        /* \"#utility.yul\":10255:10373   */\n      pop\n      pop\n      jump\t// out\n        /* \"#utility.yul\":10379:10548   */\n    tag_137:\n        /* \"#utility.yul\":10463:10474   */\n      0x00\n        /* \"#utility.yul\":10497:10503   */\n      dup3\n        /* \"#utility.yul\":10492:10495   */\n      dup3\n        /* \"#utility.yul\":10485:10504   */\n      mstore\n        /* \"#utility.yul\":10537:10541   */\n      0x20\n        /* \"#utility.yul\":10532:10535   */\n      dup3\n        /* \"#utility.yul\":10528:10542   */\n      add\n        /* \"#utility.yul\":10513:10542   */\n      swap1\n      pop\n        /* \"#utility.yul\":10379:10548   */\n      swap3\n      swap2\n      pop\n      pop\n      jump\t// out\n        /* \"#utility.yul\":10554:10918   */\n    tag_138:\n        /* \"#utility.yul\":10642:10645   */\n      0x00\n        /* \"#utility.yul\":10670:10709   */\n      tag_241\n        /* \"#utility.yul\":10703:10708   */\n      dup3\n        /* \"#utility.yul\":10670:10709   */\n      tag_124\n      jump\t// in\n    tag_241:\n        /* \"#utility.yul\":10725:10796   */\n      tag_242\n        /* \"#utility.yul\":10789:10795   */\n      dup2\n        /* \"#utility.yul\":10784:10787   */\n      dup6\n        /* \"#utility.yul\":10725:10796   */\n      tag_137\n      jump\t// in\n    tag_242:\n        /* \"#utility.yul\":10718:10796   */\n      swap4\n      pop\n        /* \"#utility.yul\":10805:10857   */\n      tag_243\n        /* \"#utility.yul\":10850:10856   */\n      dup2\n        /* \"#utility.yul\":10845:10848   */\n      dup6\n        /* \"#utility.yul\":10838:10842   */\n      0x20\n        /* \"#utility.yul\":10831:10836   */\n      dup7\n        /* \"#utility.yul\":10827:10843   */\n      add\n        /* \"#utility.yul\":10805:10857   */\n      tag_126\n      jump\t// in\n    tag_243:\n        /* \"#utility.yul\":10882:10911   */\n      tag_244\n        /* \"#utility.yul\":10904:10910   */\n      dup2\n        /* \"#utility.yul\":10882:10911   */\n      tag_110\n      jump\t// in\n    tag_244:\n        /* \"#utility.yul\":10877:10880   */\n      dup5\n        /* \"#utility.yul\":10873:10912   */\n      add\n        /* \"#utility.yul\":10866:10912   */\n      swap2\n      pop\n        /* \"#utility.yul\":10646:10918   */\n      pop\n        /* \"#utility.yul\":10554:10918   */\n      swap3\n      swap2\n      pop\n      pop\n      jump\t// out\n        /* \"#utility.yul\":10924:11042   */\n    tag_139:\n        /* \"#utility.yul\":11011:11035   */\n      tag_246\n        /* \"#utility.yul\":11029:11034   */\n      dup2\n        /* \"#utility.yul\":11011:11035   */\n      tag_128\n      jump\t// in\n    tag_246:\n        /* \"#utility.yul\":11006:11009   */\n      dup3\n        /* \"#utility.yul\":10999:11036   */\n      mstore\n        /* \"#utility.yul\":10924:11042   */\n      pop\n      pop\n      jump\t// out\n        /* \"#utility.yul\":11048:12500   */\n    tag_17:\n        /* \"#utility.yul\":11437:11441   */\n      0x00\n        /* \"#utility.yul\":11475:11478   */\n      0x0100\n        /* \"#utility.yul\":11464:11473   */\n      dup3\n        /* \"#utility.yul\":11460:11479   */\n      add\n        /* \"#utility.yul\":11452:11479   */\n      swap1\n      pop\n        /* \"#utility.yul\":11489:11560   */\n      tag_248\n        /* \"#utility.yul\":11557:11558   */\n      0x00\n        /* \"#utility.yul\":11546:11555   */\n      dup4\n        /* \"#utility.yul\":11542:11559   */\n      add\n        /* \"#utility.yul\":11533:11539   */\n      dup12\n        /* \"#utility.yul\":11489:11560   */\n      tag_136\n      jump\t// in\n    tag_248:\n        /* \"#utility.yul\":11607:11616   */\n      dup2\n        /* \"#utility.yul\":11601:11605   */\n      dup2\n        /* \"#utility.yul\":11597:11617   */\n      sub\n        /* \"#utility.yul\":11592:11594   */\n      0x20\n        /* \"#utility.yul\":11581:11590   */\n      dup4\n        /* \"#utility.yul\":11577:11595   */\n      add\n        /* \"#utility.yul\":11570:11618   */\n      mstore\n        /* \"#utility.yul\":11635:11713   */\n      tag_249\n        /* \"#utility.yul\":11708:11712   */\n      dup2\n        /* \"#utility.yul\":11699:11705   */\n      dup11\n        /* \"#utility.yul\":11635:11713   */\n      tag_138\n      jump\t// in\n    tag_249:\n        /* \"#utility.yul\":11627:11713   */\n      swap1\n      pop\n        /* \"#utility.yul\":11760:11769   */\n      dup2\n        /* \"#utility.yul\":11754:11758   */\n      dup2\n        /* \"#utility.yul\":11750:11770   */\n      sub\n        /* \"#utility.yul\":11745:11747   */\n      0x40\n        /* \"#utility.yul\":11734:11743   */\n      dup4\n        /* \"#utility.yul\":11730:11748   */\n      add\n        /* \"#utility.yul\":11723:11771   */\n      mstore\n        /* \"#utility.yul\":11788:11866   */\n      tag_250\n        /* \"#utility.yul\":11861:11865   */\n      dup2\n        /* \"#utility.yul\":11852:11858   */\n      dup10\n        /* \"#utility.yul\":11788:11866   */\n      tag_138\n      jump\t// in\n    tag_250:\n        /* \"#utility.yul\":11780:11866   */\n      swap1\n      pop\n        /* \"#utility.yul\":11913:11922   */\n      dup2\n        /* \"#utility.yul\":11907:11911   */\n      dup2\n        /* \"#utility.yul\":11903:11923   */\n      sub\n        /* \"#utility.yul\":11898:11900   */\n      0x60\n        /* \"#utility.yul\":11887:11896   */\n      dup4\n        /* \"#utility.yul\":11883:11901   */\n      add\n        /* \"#utility.yul\":11876:11924   */\n      mstore\n        /* \"#utility.yul\":11941:12019   */\n      tag_251\n        /* \"#utility.yul\":12014:12018   */\n      dup2\n        /* \"#utility.yul\":12005:12011   */\n      dup9\n        /* \"#utility.yul\":11941:12019   */\n      tag_138\n      jump\t// in\n    tag_251:\n        /* \"#utility.yul\":11933:12019   */\n      swap1\n      pop\n        /* \"#utility.yul\":12067:12076   */\n      dup2\n        /* \"#utility.yul\":12061:12065   */\n      dup2\n        /* \"#utility.yul\":12057:12077   */\n      sub\n        /* \"#utility.yul\":12051:12054   */\n      0x80\n        /* \"#utility.yul\":12040:12049   */\n      dup4\n        /* \"#utility.yul\":12036:12055   */\n      add\n        /* \"#utility.yul\":12029:12078   */\n      mstore\n        /* \"#utility.yul\":12095:12173   */\n      tag_252\n        /* \"#utility.yul\":12168:12172   */\n      dup2\n        /* \"#utility.yul\":12159:12165   */\n      dup8\n        /* \"#utility.yul\":12095:12173   */\n      tag_138\n      jump\t// in\n    tag_252:\n        /* \"#utility.yul\":12087:12173   */\n      swap1\n      pop\n        /* \"#utility.yul\":12221:12230   */\n      dup2\n        /* \"#utility.yul\":12215:12219   */\n      dup2\n        /* \"#utility.yul\":12211:12231   */\n      sub\n        /* \"#utility.yul\":12205:12208   */\n      0xa0\n        /* \"#utility.yul\":12194:12203   */\n      dup4\n        /* \"#utility.yul\":12190:12209   */\n      add\n        /* \"#utility.yul\":12183:12232   */\n      mstore\n        /* \"#utility.yul\":12249:12327   */\n      tag_253\n        /* \"#utility.yul\":12322:12326   */\n      dup2\n        /* \"#utility.yul\":12313:12319   */\n      dup7\n        /* \"#utility.yul\":12249:12327   */\n      tag_138\n      jump\t// in\n    tag_253:\n        /* \"#utility.yul\":12241:12327   */\n      swap1\n      pop\n        /* \"#utility.yul\":12337:12410   */\n      tag_254\n        /* \"#utility.yul\":12405:12408   */\n      0xc0\n        /* \"#utility.yul\":12394:12403   */\n      dup4\n        /* \"#utility.yul\":12390:12409   */\n      add\n        /* \"#utility.yul\":12381:12387   */\n      dup6\n        /* \"#utility.yul\":12337:12410   */\n      tag_139\n      jump\t// in\n    tag_254:\n        /* \"#utility.yul\":12420:12493   */\n      tag_255\n        /* \"#utility.yul\":12488:12491   */\n      0xe0\n        /* \"#utility.yul\":12477:12486   */\n      dup4\n        /* \"#utility.yul\":12473:12492   */\n      add\n        /* \"#utility.yul\":12464:12470   */\n      dup5\n        /* \"#utility.yul\":12420:12493   */\n      tag_139\n      jump\t// in\n    tag_255:\n        /* \"#utility.yul\":11048:12500   */\n      swap10\n      swap9\n      pop\n      pop\n      pop\n      pop\n      pop\n      pop\n      pop\n      pop\n      pop\n      jump\t// out\n        /* \"#utility.yul\":12506:15081   */\n    tag_20:\n        /* \"#utility.yul\":12697:12703   */\n      0x00\n        /* \"#utility.yul\":12705:12711   */\n      dup1\n        /* \"#utility.yul\":12713:12719   */\n      0x00\n        /* \"#utility.yul\":12721:12727   */\n      dup1\n        /* \"#utility.yul\":12729:12735   */\n      0x00\n        /* \"#utility.yul\":12737:12743   */\n      dup1\n        /* \"#utility.yul\":12745:12751   */\n      0x00\n        /* \"#utility.yul\":12753:12759   */\n      dup1\n        /* \"#utility.yul\":12761:12767   */\n      0x00\n        /* \"#utility.yul\":12810:12813   */\n      0x0120\n        /* \"#utility.yul\":12798:12807   */\n      dup11\n        /* \"#utility.yul\":12789:12796   */\n      dup13\n        /* \"#utility.yul\":12785:12808   */\n      sub\n        /* \"#utility.yul\":12781:12814   */\n      slt\n        /* \"#utility.yul\":12778:12898   */\n      iszero\n      tag_257\n      jumpi\n        /* \"#utility.yul\":12817:12896   */\n      tag_258\n      tag_106\n      jump\t// in\n    tag_258:\n        /* \"#utility.yul\":12778:12898   */\n    tag_257:\n        /* \"#utility.yul\":12965:12966   */\n      0x00\n        /* \"#utility.yul\":12954:12963   */\n      dup11\n        /* \"#utility.yul\":12950:12967   */\n      add\n        /* \"#utility.yul\":12937:12968   */\n      calldataload\n        /* \"#utility.yul\":12995:13013   */\n      0xffffffffffffffff\n        /* \"#utility.yul\":12987:12993   */\n      dup2\n        /* \"#utility.yul\":12984:13014   */\n      gt\n        /* \"#utility.yul\":12981:13098   */\n      iszero\n      tag_259\n      jumpi\n        /* \"#utility.yul\":13017:13096   */\n      tag_260\n      tag_107\n      jump\t// in\n    tag_260:\n        /* \"#utility.yul\":12981:13098   */\n    tag_259:\n        /* \"#utility.yul\":13122:13185   */\n      tag_261\n        /* \"#utility.yul\":13177:13184   */\n      dup13\n        /* \"#utility.yul\":13168:13174   */\n      dup3\n        /* \"#utility.yul\":13157:13166   */\n      dup14\n        /* \"#utility.yul\":13153:13175   */\n      add\n        /* \"#utility.yul\":13122:13185   */\n      tag_117\n      jump\t// in\n    tag_261:\n        /* \"#utility.yul\":13112:13185   */\n      swap10\n      pop\n        /* \"#utility.yul\":12908:13195   */\n      pop\n        /* \"#utility.yul\":13262:13264   */\n      0x20\n        /* \"#utility.yul\":13251:13260   */\n      dup11\n        /* \"#utility.yul\":13247:13265   */\n      add\n        /* \"#utility.yul\":13234:13266   */\n      calldataload\n        /* \"#utility.yul\":13293:13311   */\n      0xffffffffffffffff\n        /* \"#utility.yul\":13285:13291   */\n      dup2\n        /* \"#utility.yul\":13282:13312   */\n      gt\n        /* \"#utility.yul\":13279:13396   */\n      iszero\n      tag_262\n      jumpi\n        /* \"#utility.yul\":13315:13394   */\n      tag_263\n      tag_107\n      jump\t// in\n    tag_263:\n        /* \"#utility.yul\":13279:13396   */\n    tag_262:\n        /* \"#utility.yul\":13420:13483   */\n      tag_264\n        /* \"#utility.yul\":13475:13482   */\n      dup13\n        /* \"#utility.yul\":13466:13472   */\n      dup3\n        /* \"#utility.yul\":13455:13464   */\n      dup14\n        /* \"#utility.yul\":13451:13473   */\n      add\n        /* \"#utility.yul\":13420:13483   */\n      tag_117\n      jump\t// in\n    tag_264:\n        /* \"#utility.yul\":13410:13483   */\n      swap9\n      pop\n        /* \"#utility.yul\":13205:13493   */\n      pop\n        /* \"#utility.yul\":13560:13562   */\n      0x40\n        /* \"#utility.yul\":13549:13558   */\n      dup11\n        /* \"#utility.yul\":13545:13563   */\n      add\n        /* \"#utility.yul\":13532:13564   */\n      calldataload\n        /* \"#utility.yul\":13591:13609   */\n      0xffffffffffffffff\n        /* \"#utility.yul\":13583:13589   */\n      dup2\n        /* \"#utility.yul\":13580:13610   */\n      gt\n        /* \"#utility.yul\":13577:13694   */\n      iszero\n      tag_265\n      jumpi\n        /* \"#utility.yul\":13613:13692   */\n      tag_266\n      tag_107\n      jump\t// in\n    tag_266:\n        /* \"#utility.yul\":13577:13694   */\n    tag_265:\n        /* \"#utility.yul\":13718:13781   */\n      tag_267\n        /* \"#utility.yul\":13773:13780   */\n      dup13\n        /* \"#utility.yul\":13764:13770   */\n      dup3\n        /* \"#utility.yul\":13753:13762   */\n      dup14\n        /* \"#utility.yul\":13749:13771   */\n      add\n        /* \"#utility.yul\":13718:13781   */\n      tag_117\n      jump\t// in\n    tag_267:\n        /* \"#utility.yul\":13708:13781   */\n      swap8\n      pop\n        /* \"#utility.yul\":13503:13791   */\n      pop\n        /* \"#utility.yul\":13858:13860   */\n      0x60\n        /* \"#utility.yul\":13847:13856   */\n      dup11\n        /* \"#utility.yul\":13843:13861   */\n      add\n        /* \"#utility.yul\":13830:13862   */\n      calldataload\n        /* \"#utility.yul\":13889:13907   */\n      0xffffffffffffffff\n        /* \"#utility.yul\":13881:13887   */\n      dup2\n        /* \"#utility.yul\":13878:13908   */\n      gt\n        /* \"#utility.yul\":13875:13992   */\n      iszero\n      tag_268\n      jumpi\n        /* \"#utility.yul\":13911:13990   */\n      tag_269\n      tag_107\n      jump\t// in\n    tag_269:\n        /* \"#utility.yul\":13875:13992   */\n    tag_268:\n        /* \"#utility.yul\":14016:14079   */\n      tag_270\n        /* \"#utility.yul\":14071:14078   */\n      dup13\n        /* \"#utility.yul\":14062:14068   */\n      dup3\n        /* \"#utility.yul\":14051:14060   */\n      dup14\n        /* \"#utility.yul\":14047:14069   */\n      add\n        /* \"#utility.yul\":14016:14079   */\n      tag_117\n      jump\t// in\n    tag_270:\n        /* \"#utility.yul\":14006:14079   */\n      swap7\n      pop\n        /* \"#utility.yul\":13801:14089   */\n      pop\n        /* \"#utility.yul\":14156:14159   */\n      0x80\n        /* \"#utility.yul\":14145:14154   */\n      dup11\n        /* \"#utility.yul\":14141:14160   */\n      add\n        /* \"#utility.yul\":14128:14161   */\n      calldataload\n        /* \"#utility.yul\":14188:14206   */\n      0xffffffffffffffff\n        /* \"#utility.yul\":14180:14186   */\n      dup2\n        /* \"#utility.yul\":14177:14207   */\n      gt\n        /* \"#utility.yul\":14174:14291   */\n      iszero\n      tag_271\n      jumpi\n        /* \"#utility.yul\":14210:14289   */\n      tag_272\n      tag_107\n      jump\t// in\n    tag_272:\n        /* \"#utility.yul\":14174:14291   */\n    tag_271:\n        /* \"#utility.yul\":14315:14378   */\n      tag_273\n        /* \"#utility.yul\":14370:14377   */\n      dup13\n        /* \"#utility.yul\":14361:14367   */\n      dup3\n        /* \"#utility.yul\":14350:14359   */\n      dup14\n        /* \"#utility.yul\":14346:14368   */\n      add\n        /* \"#utility.yul\":14315:14378   */\n      tag_117\n      jump\t// in\n    tag_273:\n        /* \"#utility.yul\":14305:14378   */\n      swap6\n      pop\n        /* \"#utility.yul\":14099:14388   */\n      pop\n        /* \"#utility.yul\":14455:14458   */\n      0xa0\n        /* \"#utility.yul\":14444:14453   */\n      dup11\n        /* \"#utility.yul\":14440:14459   */\n      add\n        /* \"#utility.yul\":14427:14460   */\n      calldataload\n        /* \"#utility.yul\":14487:14505   */\n      0xffffffffffffffff\n        /* \"#utility.yul\":14479:14485   */\n      dup2\n        /* \"#utility.yul\":14476:14506   */\n      gt\n        /* \"#utility.yul\":14473:14590   */\n      iszero\n      tag_274\n      jumpi\n        /* \"#utility.yul\":14509:14588   */\n      tag_275\n      tag_107\n      jump\t// in\n    tag_275:\n        /* \"#utility.yul\":14473:14590   */\n    tag_274:\n        /* \"#utility.yul\":14614:14677   */\n      tag_276\n        /* \"#utility.yul\":14669:14676   */\n      dup13\n        /* \"#utility.yul\":14660:14666   */\n      dup3\n        /* \"#utility.yul\":14649:14658   */\n      dup14\n        /* \"#utility.yul\":14645:14667   */\n      add\n        /* \"#utility.yul\":14614:14677   */\n      tag_117\n      jump\t// in\n    tag_276:\n        /* \"#utility.yul\":14604:14677   */\n      swap5\n      pop\n        /* \"#utility.yul\":14398:14687   */\n      pop\n        /* \"#utility.yul\":14726:14729   */\n      0xc0\n        /* \"#utility.yul\":14753:14806   */\n      tag_277\n        /* \"#utility.yul\":14798:14805   */\n      dup13\n        /* \"#utility.yul\":14789:14795   */\n      dup3\n        /* \"#utility.yul\":14778:14787   */\n      dup14\n        /* \"#utility.yul\":14774:14796   */\n      add\n        /* \"#utility.yul\":14753:14806   */\n      tag_135\n      jump\t// in\n    tag_277:\n        /* \"#utility.yul\":14743:14806   */\n      swap4\n      pop\n        /* \"#utility.yul\":14697:14816   */\n      pop\n        /* \"#utility.yul\":14855:14858   */\n      0xe0\n        /* \"#utility.yul\":14882:14935   */\n      tag_278\n        /* \"#utility.yul\":14927:14934   */\n      dup13\n        /* \"#utility.yul\":14918:14924   */\n      dup3\n        /* \"#utility.yul\":14907:14916   */\n      dup14\n        /* \"#utility.yul\":14903:14925   */\n      add\n        /* \"#utility.yul\":14882:14935   */\n      tag_135\n      jump\t// in\n    tag_278:\n        /* \"#utility.yul\":14872:14935   */\n      swap3\n      pop\n        /* \"#utility.yul\":14826:14945   */\n      pop\n        /* \"#utility.yul\":14984:14987   */\n      0x0100\n        /* \"#utility.yul\":15011:15064   */\n      tag_279\n        /* \"#utility.yul\":15056:15063   */\n      dup13\n        /* \"#utility.yul\":15047:15053   */\n      dup3\n        /* \"#utility.yul\":15036:15045   */\n      dup14\n        /* \"#utility.yul\":15032:15054   */\n      add\n        /* \"#utility.yul\":15011:15064   */\n      tag_135\n      jump\t// in\n    tag_279:\n        /* \"#utility.yul\":15001:15064   */\n      swap2\n      pop\n        /* \"#utility.yul\":14955:15074   */\n      pop\n        /* \"#utility.yul\":12506:15081   */\n      swap3\n      swap6\n      swap9\n      pop\n      swap3\n      swap6\n      swap9\n      pop\n      swap3\n      swap6\n      swap9\n      jump\t// out\n        /* \"#utility.yul\":15087:15235   */\n    tag_140:\n        /* \"#utility.yul\":15189:15200   */\n      0x00\n        /* \"#utility.yul\":15226:15229   */\n      dup2\n        /* \"#utility.yul\":15211:15229   */\n      swap1\n      pop\n        /* \"#utility.yul\":15087:15235   */\n      swap3\n      swap2\n      pop\n      pop\n      jump\t// out\n        /* \"#utility.yul\":15241:15618   */\n    tag_141:\n        /* \"#utility.yul\":15347:15350   */\n      0x00\n        /* \"#utility.yul\":15375:15414   */\n      tag_282\n        /* \"#utility.yul\":15408:15413   */\n      dup3\n        /* \"#utility.yul\":15375:15414   */\n      tag_124\n      jump\t// in\n    tag_282:\n        /* \"#utility.yul\":15430:15519   */\n      tag_283\n        /* \"#utility.yul\":15512:15518   */\n      dup2\n        /* \"#utility.yul\":15507:15510   */\n      dup6\n        /* \"#utility.yul\":15430:15519   */\n      tag_140\n      jump\t// in\n    tag_283:\n        /* \"#utility.yul\":15423:15519   */\n      swap4\n      pop\n        /* \"#utility.yul\":15528:15580   */\n      tag_284\n        /* \"#utility.yul\":15573:15579   */\n      dup2\n        /* \"#utility.yul\":15568:15571   */\n      dup6\n        /* \"#utility.yul\":15561:15565   */\n      0x20\n        /* \"#utility.yul\":15554:15559   */\n      dup7\n        /* \"#utility.yul\":15550:15566   */\n      add\n        /* \"#utility.yul\":15528:15580   */\n      tag_126\n      jump\t// in\n    tag_284:\n        /* \"#utility.yul\":15605:15611   */\n      dup1\n        /* \"#utility.yul\":15600:15603   */\n      dup5\n        /* \"#utility.yul\":15596:15612   */\n      add\n        /* \"#utility.yul\":15589:15612   */\n      swap2\n      pop\n        /* \"#utility.yul\":15351:15618   */\n      pop\n        /* \"#utility.yul\":15241:15618   */\n      swap3\n      swap2\n      pop\n      pop\n      jump\t// out\n        /* \"#utility.yul\":15624:15899   */\n    tag_24:\n        /* \"#utility.yul\":15756:15759   */\n      0x00\n        /* \"#utility.yul\":15778:15873   */\n      tag_286\n        /* \"#utility.yul\":15869:15872   */\n      dup3\n        /* \"#utility.yul\":15860:15866   */\n      dup5\n        /* \"#utility.yul\":15778:15873   */\n      tag_141\n      jump\t// in\n    tag_286:\n        /* \"#utility.yul\":15771:15873   */\n      swap2\n      pop\n        /* \"#utility.yul\":15890:15893   */\n      dup2\n        /* \"#utility.yul\":15883:15893   */\n      swap1\n      pop\n        /* \"#utility.yul\":15624:15899   */\n      swap3\n      swap2\n      pop\n      pop\n      jump\t// out\n        /* \"#utility.yul\":15905:16085   */\n    tag_142:\n        /* \"#utility.yul\":15953:16030   */\n      0x4e487b7100000000000000000000000000000000000000000000000000000000\n        /* \"#utility.yul\":15950:15951   */\n      0x00\n        /* \"#utility.yul\":15943:16031   */\n      mstore\n        /* \"#utility.yul\":16050:16054   */\n      0x22\n        /* \"#utility.yul\":16047:16048   */\n      0x04\n        /* \"#utility.yul\":16040:16055   */\n      mstore\n        /* \"#utility.yul\":16074:16078   */\n      0x24\n        /* \"#utility.yul\":16071:16072   */\n      0x00\n        /* \"#utility.yul\":16064:16079   */\n      revert\n        /* \"#utility.yul\":16091:16411   */\n    tag_29:\n        /* \"#utility.yul\":16135:16141   */\n      0x00\n        /* \"#utility.yul\":16172:16173   */\n      0x02\n        /* \"#utility.yul\":16166:16170   */\n      dup3\n        /* \"#utility.yul\":16162:16174   */\n      div\n        /* \"#utility.yul\":16152:16174   */\n      swap1\n      pop\n        /* \"#utility.yul\":16219:16220   */\n      0x01\n        /* \"#utility.yul\":16213:16217   */\n      dup3\n        /* \"#utility.yul\":16209:16221   */\n      and\n        /* \"#utility.yul\":16240:16258   */\n      dup1\n        /* \"#utility.yul\":16230:16311   */\n      tag_289\n      jumpi\n        /* \"#utility.yul\":16296:16300   */\n      0x7f\n        /* \"#utility.yul\":16288:16294   */\n      dup3\n        /* \"#utility.yul\":16284:16301   */\n      and\n        /* \"#utility.yul\":16274:16301   */\n      swap2\n      pop\n        /* \"#utility.yul\":16230:16311   */\n    tag_289:\n        /* \"#utility.yul\":16358:16360   */\n      0x20\n        /* \"#utility.yul\":16350:16356   */\n      dup3\n        /* \"#utility.yul\":16347:16361   */\n      lt\n        /* \"#utility.yul\":16327:16345   */\n      dup2\n        /* \"#utility.yul\":16324:16362   */\n      eq\n        /* \"#utility.yul\":16321:16405   */\n      iszero\n      tag_290\n      jumpi\n        /* \"#utility.yul\":16377:16395   */\n      tag_291\n      tag_142\n      jump\t// in\n    tag_291:\n        /* \"#utility.yul\":16321:16405   */\n    tag_290:\n        /* \"#utility.yul\":16142:16411   */\n      pop\n        /* \"#utility.yul\":16091:16411   */\n      swap2\n      swap1\n      pop\n      jump\t// out\n        /* \"#utility.yul\":16417:17980   */\n    tag_85:\n        /* \"#utility.yul\":16834:16838   */\n      0x00\n        /* \"#utility.yul\":16872:16875   */\n      0x0120\n        /* \"#utility.yul\":16861:16870   */\n      dup3\n        /* \"#utility.yul\":16857:16876   */\n      add\n        /* \"#utility.yul\":16849:16876   */\n      swap1\n      pop\n        /* \"#utility.yul\":16886:16957   */\n      tag_293\n        /* \"#utility.yul\":16954:16955   */\n      0x00\n        /* \"#utility.yul\":16943:16952   */\n      dup4\n        /* \"#utility.yul\":16939:16956   */\n      add\n        /* \"#utility.yul\":16930:16936   */\n      dup13\n        /* \"#utility.yul\":16886:16957   */\n      tag_136\n      jump\t// in\n    tag_293:\n        /* \"#utility.yul\":17004:17013   */\n      dup2\n        /* \"#utility.yul\":16998:17002   */\n      dup2\n        /* \"#utility.yul\":16994:17014   */\n      sub\n        /* \"#utility.yul\":16989:16991   */\n      0x20\n        /* \"#utility.yul\":16978:16987   */\n      dup4\n        /* \"#utility.yul\":16974:16992   */\n      add\n        /* \"#utility.yul\":16967:17015   */\n      mstore\n        /* \"#utility.yul\":17032:17110   */\n      tag_294\n        /* \"#utility.yul\":17105:17109   */\n      dup2\n        /* \"#utility.yul\":17096:17102   */\n      dup12\n        /* \"#utility.yul\":17032:17110   */\n      tag_138\n      jump\t// in\n    tag_294:\n        /* \"#utility.yul\":17024:17110   */\n      swap1\n      pop\n        /* \"#utility.yul\":17157:17166   */\n      dup2\n        /* \"#utility.yul\":17151:17155   */\n      dup2\n        /* \"#utility.yul\":17147:17167   */\n      sub\n        /* \"#utility.yul\":17142:17144   */\n      0x40\n        /* \"#utility.yul\":17131:17140   */\n      dup4\n        /* \"#utility.yul\":17127:17145   */\n      add\n        /* \"#utility.yul\":17120:17168   */\n      mstore\n        /* \"#utility.yul\":17185:17263   */\n      tag_295\n        /* \"#utility.yul\":17258:17262   */\n      dup2\n        /* \"#utility.yul\":17249:17255   */\n      dup11\n        /* \"#utility.yul\":17185:17263   */\n      tag_138\n      jump\t// in\n    tag_295:\n        /* \"#utility.yul\":17177:17263   */\n      swap1\n      pop\n        /* \"#utility.yul\":17310:17319   */\n      dup2\n        /* \"#utility.yul\":17304:17308   */\n      dup2\n        /* \"#utility.yul\":17300:17320   */\n      sub\n        /* \"#utility.yul\":17295:17297   */\n      0x60\n        /* \"#utility.yul\":17284:17293   */\n      dup4\n        /* \"#utility.yul\":17280:17298   */\n      add\n        /* \"#utility.yul\":17273:17321   */\n      mstore\n        /* \"#utility.yul\":17338:17416   */\n      tag_296\n        /* \"#utility.yul\":17411:17415   */\n      dup2\n        /* \"#utility.yul\":17402:17408   */\n      dup10\n        /* \"#utility.yul\":17338:17416   */\n      tag_138\n      jump\t// in\n    tag_296:\n        /* \"#utility.yul\":17330:17416   */\n      swap1\n      pop\n        /* \"#utility.yul\":17464:17473   */\n      dup2\n        /* \"#utility.yul\":17458:17462   */\n      dup2\n        /* \"#utility.yul\":17454:17474   */\n      sub\n        /* \"#utility.yul\":17448:17451   */\n      0x80\n        /* \"#utility.yul\":17437:17446   */\n      dup4\n        /* \"#utility.yul\":17433:17452   */\n      add\n        /* \"#utility.yul\":17426:17475   */\n      mstore\n        /* \"#utility.yul\":17492:17570   */\n      tag_297\n        /* \"#utility.yul\":17565:17569   */\n      dup2\n        /* \"#utility.yul\":17556:17562   */\n      dup9\n        /* \"#utility.yul\":17492:17570   */\n      tag_138\n      jump\t// in\n    tag_297:\n        /* \"#utility.yul\":17484:17570   */\n      swap1\n      pop\n        /* \"#utility.yul\":17618:17627   */\n      dup2\n        /* \"#utility.yul\":17612:17616   */\n      dup2\n        /* \"#utility.yul\":17608:17628   */\n      sub\n        /* \"#utility.yul\":17602:17605   */\n      0xa0\n        /* \"#utility.yul\":17591:17600   */\n      dup4\n        /* \"#utility.yul\":17587:17606   */\n      add\n        /* \"#utility.yul\":17580:17629   */\n      mstore\n        /* \"#utility.yul\":17646:17724   */\n      tag_298\n        /* \"#utility.yul\":17719:17723   */\n      dup2\n        /* \"#utility.yul\":17710:17716   */\n      dup8\n        /* \"#utility.yul\":17646:17724   */\n      tag_138\n      jump\t// in\n    tag_298:\n        /* \"#utility.yul\":17638:17724   */\n      swap1\n      pop\n        /* \"#utility.yul\":17734:17807   */\n      tag_299\n        /* \"#utility.yul\":17802:17805   */\n      0xc0\n        /* \"#utility.yul\":17791:17800   */\n      dup4\n        /* \"#utility.yul\":17787:17806   */\n      add\n        /* \"#utility.yul\":17778:17784   */\n      dup7\n        /* \"#utility.yul\":17734:17807   */\n      tag_139\n      jump\t// in\n    tag_299:\n        /* \"#utility.yul\":17817:17890   */\n      tag_300\n        /* \"#utility.yul\":17885:17888   */\n      0xe0\n        /* \"#utility.yul\":17874:17883   */\n      dup4\n        /* \"#utility.yul\":17870:17889   */\n      add\n        /* \"#utility.yul\":17861:17867   */\n      dup6\n        /* \"#utility.yul\":17817:17890   */\n      tag_139\n      jump\t// in\n    tag_300:\n        /* \"#utility.yul\":17900:17973   */\n      tag_301\n        /* \"#utility.yul\":17968:17971   */\n      0x0100\n        /* \"#utility.yul\":17957:17966   */\n      dup4\n        /* \"#utility.yul\":17953:17972   */\n      add\n        /* \"#utility.yul\":17944:17950   */\n      dup5\n        /* \"#utility.yul\":17900:17973   */\n      tag_139\n      jump\t// in\n    tag_301:\n        /* \"#utility.yul\":16417:17980   */\n      swap11\n      swap10\n      pop\n      pop\n      pop\n      pop\n      pop\n      pop\n      pop\n      pop\n      pop\n      pop\n      jump\t// out\n    stop\n\n    sub_0: assembly {\n            /* \"Flight.sol\":1680:4442  contract Flight {... */\n          mstore(0x40, 0x80)\n            /* \"Flight.sol\":2175:2774  constructor(... */\n          callvalue\n          dup1\n          iszero\n          tag_1\n          jumpi\n          0x00\n          dup1\n          revert\n        tag_1:\n          pop\n          mload(0x40)\n          sub(codesize, bytecodeSize)\n          dup1\n          bytecodeSize\n          dup4\n          codecopy\n          dup2\n          dup2\n          add\n          0x40\n          mstore\n          dup2\n          add\n          swap1\n          tag_2\n          swap2\n          swap1\n          tag_3\n          jump\t// in\n        tag_2:\n            /* \"Flight.sol\":2500:2507  creator */\n          dup9\n            /* \"Flight.sol\":2484:2497  flightManager */\n          0x07\n          0x00\n            /* \"Flight.sol\":2484:2507  flightManager = creator */\n          0x0100\n          exp\n          dup2\n          sload\n          dup2\n          0xffffffffffffffffffffffffffffffffffffffff\n          mul\n          not\n          and\n          swap1\n          dup4\n          0xffffffffffffffffffffffffffffffffffffffff\n          and\n          mul\n          or\n          swap1\n          sstore\n          pop\n            /* \"Flight.sol\":2528:2537  _flightId */\n          dup8\n            /* \"Flight.sol\":2517:2525  flightId */\n          0x00\n            /* \"Flight.sol\":2517:2537  flightId = _flightId */\n          swap1\n          dup1\n          mload\n          swap1\n          0x20\n          add\n          swap1\n          tag_6\n          swap3\n          swap2\n          swap1\n          tag_7\n          jump\t// in\n        tag_6:\n          pop\n            /* \"Flight.sol\":2554:2559  _from */\n          dup7\n            /* \"Flight.sol\":2547:2551  from */\n          0x01\n            /* \"Flight.sol\":2547:2559  from = _from */\n          swap1\n          dup1\n          mload\n          swap1\n          0x20\n          add\n          swap1\n          tag_8\n          swap3\n          swap2\n          swap1\n          tag_7\n          jump\t// in\n        tag_8:\n          pop\n            /* \"Flight.sol\":2583:2595  _destination */\n          dup6\n            /* \"Flight.sol\":2569:2580  destination */\n          0x02\n            /* \"Flight.sol\":2569:2595  destination = _destination */\n          swap1\n          dup1\n          mload\n          swap1\n          0x20\n          add\n          swap1\n          tag_9\n          swap3\n          swap2\n          swap1\n          tag_7\n          jump\t// in\n        tag_9:\n          pop\n            /* \"Flight.sol\":2615:2623  _flyTime */\n          dup5\n            /* \"Flight.sol\":2605:2612  flyTime */\n          0x03\n            /* \"Flight.sol\":2605:2623  flyTime = _flyTime */\n          swap1\n          dup1\n          mload\n          swap1\n          0x20\n          add\n          swap1\n          tag_10\n          swap3\n          swap2\n          swap1\n          tag_7\n          jump\t// in\n        tag_10:\n          pop\n            /* \"Flight.sol\":2647:2659  _arrivalTime */\n          dup4\n            /* \"Flight.sol\":2633:2644  arrivalTime */\n          0x04\n            /* \"Flight.sol\":2633:2659  arrivalTime = _arrivalTime */\n          swap1\n          dup1\n          mload\n          swap1\n          0x20\n          add\n          swap1\n          tag_11\n          swap3\n          swap2\n          swap1\n          tag_7\n          jump\t// in\n        tag_11:\n          pop\n            /* \"Flight.sol\":2680:2689  _capacity */\n          dup3\n            /* \"Flight.sol\":2669:2677  capacity */\n          0x08\n            /* \"Flight.sol\":2669:2689  capacity = _capacity */\n          dup2\n          swap1\n          sstore\n          pop\n            /* \"Flight.sol\":2715:2729  _businessPrice */\n          dup2\n            /* \"Flight.sol\":2699:2712  businessPrice */\n          0x05\n            /* \"Flight.sol\":2699:2729  businessPrice = _businessPrice */\n          dup2\n          swap1\n          sstore\n          pop\n            /* \"Flight.sol\":2754:2767  _economyPrice */\n          dup1\n            /* \"Flight.sol\":2739:2751  economyPrice */\n          0x06\n            /* \"Flight.sol\":2739:2767  economyPrice = _economyPrice */\n          dup2\n          swap1\n          sstore\n          pop\n            /* \"Flight.sol\":2175:2774  constructor(... */\n          pop\n          pop\n          pop\n          pop\n          pop\n          pop\n          pop\n          pop\n          pop\n            /* \"Flight.sol\":1680:4442  contract Flight {... */\n          jump(tag_12)\n        tag_7:\n          dup3\n          dup1\n          sload\n          tag_13\n          swap1\n          tag_14\n          jump\t// in\n        tag_13:\n          swap1\n          0x00\n          mstore\n          keccak256(0x00, 0x20)\n          swap1\n          0x1f\n          add\n          0x20\n          swap1\n          div\n          dup2\n          add\n          swap3\n          dup3\n          tag_16\n          jumpi\n          0x00\n          dup6\n          sstore\n          jump(tag_15)\n        tag_16:\n          dup3\n          0x1f\n          lt\n          tag_17\n          jumpi\n          dup1\n          mload\n          not(0xff)\n          and\n          dup4\n          dup1\n          add\n          or\n          dup6\n          sstore\n          jump(tag_15)\n        tag_17:\n          dup3\n          dup1\n          add\n          0x01\n          add\n          dup6\n          sstore\n          dup3\n          iszero\n          tag_15\n          jumpi\n          swap2\n          dup3\n          add\n        tag_18:\n          dup3\n          dup2\n          gt\n          iszero\n          tag_19\n          jumpi\n          dup3\n          mload\n          dup3\n          sstore\n          swap2\n          0x20\n          add\n          swap2\n          swap1\n          0x01\n          add\n          swap1\n          jump(tag_18)\n        tag_19:\n        tag_15:\n          pop\n          swap1\n          pop\n          tag_20\n          swap2\n          swap1\n          tag_21\n          jump\t// in\n        tag_20:\n          pop\n          swap1\n          jump\t// out\n        tag_21:\n        tag_22:\n          dup1\n          dup3\n          gt\n          iszero\n          tag_23\n          jumpi\n          0x00\n          dup2\n          0x00\n          swap1\n          sstore\n          pop\n          0x01\n          add\n          jump(tag_22)\n        tag_23:\n          pop\n          swap1\n          jump\t// out\n            /* \"#utility.yul\":7:82   */\n        tag_24:\n            /* \"#utility.yul\":40:46   */\n          0x00\n            /* \"#utility.yul\":73:75   */\n          0x40\n            /* \"#utility.yul\":67:76   */\n          mload\n            /* \"#utility.yul\":57:76   */\n          swap1\n          pop\n            /* \"#utility.yul\":7:82   */\n          swap1\n          jump\t// out\n            /* \"#utility.yul\":88:205   */\n        tag_25:\n            /* \"#utility.yul\":197:198   */\n          0x00\n            /* \"#utility.yul\":194:195   */\n          dup1\n            /* \"#utility.yul\":187:199   */\n          revert\n            /* \"#utility.yul\":211:328   */\n        tag_26:\n            /* \"#utility.yul\":320:321   */\n          0x00\n            /* \"#utility.yul\":317:318   */\n          dup1\n            /* \"#utility.yul\":310:322   */\n          revert\n            /* \"#utility.yul\":334:460   */\n        tag_27:\n            /* \"#utility.yul\":371:378   */\n          0x00\n            /* \"#utility.yul\":411:453   */\n          0xffffffffffffffffffffffffffffffffffffffff\n            /* \"#utility.yul\":404:409   */\n          dup3\n            /* \"#utility.yul\":400:454   */\n          and\n            /* \"#utility.yul\":389:454   */\n          swap1\n          pop\n            /* \"#utility.yul\":334:460   */\n          swap2\n          swap1\n          pop\n          jump\t// out\n            /* \"#utility.yul\":466:562   */\n        tag_28:\n            /* \"#utility.yul\":503:510   */\n          0x00\n            /* \"#utility.yul\":532:556   */\n          tag_51\n            /* \"#utility.yul\":550:555   */\n          dup3\n            /* \"#utility.yul\":532:556   */\n          tag_27\n          jump\t// in\n        tag_51:\n            /* \"#utility.yul\":521:556   */\n          swap1\n          pop\n            /* \"#utility.yul\":466:562   */\n          swap2\n          swap1\n          pop\n          jump\t// out\n            /* \"#utility.yul\":568:690   */\n        tag_29:\n            /* \"#utility.yul\":641:665   */\n          tag_53\n            /* \"#utility.yul\":659:664   */\n          dup2\n            /* \"#utility.yul\":641:665   */\n          tag_28\n          jump\t// in\n        tag_53:\n            /* \"#utility.yul\":634:639   */\n          dup2\n            /* \"#utility.yul\":631:666   */\n          eq\n            /* \"#utility.yul\":621:684   */\n          tag_54\n          jumpi\n            /* \"#utility.yul\":680:681   */\n          0x00\n            /* \"#utility.yul\":677:678   */\n          dup1\n            /* \"#utility.yul\":670:682   */\n          revert\n            /* \"#utility.yul\":621:684   */\n        tag_54:\n            /* \"#utility.yul\":568:690   */\n          pop\n          jump\t// out\n            /* \"#utility.yul\":696:839   */\n        tag_30:\n            /* \"#utility.yul\":753:758   */\n          0x00\n            /* \"#utility.yul\":784:790   */\n          dup2\n            /* \"#utility.yul\":778:791   */\n          mload\n            /* \"#utility.yul\":769:791   */\n          swap1\n          pop\n            /* \"#utility.yul\":800:833   */\n          tag_56\n            /* \"#utility.yul\":827:832   */\n          dup2\n            /* \"#utility.yul\":800:833   */\n          tag_29\n          jump\t// in\n        tag_56:\n            /* \"#utility.yul\":696:839   */\n          swap3\n          swap2\n          pop\n          pop\n          jump\t// out\n            /* \"#utility.yul\":845:962   */\n        tag_31:\n            /* \"#utility.yul\":954:955   */\n          0x00\n            /* \"#utility.yul\":951:952   */\n          dup1\n            /* \"#utility.yul\":944:956   */\n          revert\n            /* \"#utility.yul\":968:1085   */\n        tag_32:\n            /* \"#utility.yul\":1077:1078   */\n          0x00\n            /* \"#utility.yul\":1074:1075   */\n          dup1\n            /* \"#utility.yul\":1067:1079   */\n          revert\n            /* \"#utility.yul\":1091:1193   */\n        tag_33:\n            /* \"#utility.yul\":1132:1138   */\n          0x00\n            /* \"#utility.yul\":1183:1185   */\n          0x1f\n            /* \"#utility.yul\":1179:1186   */\n          not\n            /* \"#utility.yul\":1174:1176   */\n          0x1f\n            /* \"#utility.yul\":1167:1172   */\n          dup4\n            /* \"#utility.yul\":1163:1177   */\n          add\n            /* \"#utility.yul\":1159:1187   */\n          and\n            /* \"#utility.yul\":1149:1187   */\n          swap1\n          pop\n            /* \"#utility.yul\":1091:1193   */\n          swap2\n          swap1\n          pop\n          jump\t// out\n            /* \"#utility.yul\":1199:1379   */\n        tag_34:\n            /* \"#utility.yul\":1247:1324   */\n          0x4e487b7100000000000000000000000000000000000000000000000000000000\n            /* \"#utility.yul\":1244:1245   */\n          0x00\n            /* \"#utility.yul\":1237:1325   */\n          mstore\n            /* \"#utility.yul\":1344:1348   */\n          0x41\n            /* \"#utility.yul\":1341:1342   */\n          0x04\n            /* \"#utility.yul\":1334:1349   */\n          mstore\n            /* \"#utility.yul\":1368:1372   */\n          0x24\n            /* \"#utility.yul\":1365:1366   */\n          0x00\n            /* \"#utility.yul\":1358:1373   */\n          revert\n            /* \"#utility.yul\":1385:1666   */\n        tag_35:\n            /* \"#utility.yul\":1468:1495   */\n          tag_62\n            /* \"#utility.yul\":1490:1494   */\n          dup3\n            /* \"#utility.yul\":1468:1495   */\n          tag_33\n          jump\t// in\n        tag_62:\n            /* \"#utility.yul\":1460:1466   */\n          dup2\n            /* \"#utility.yul\":1456:1496   */\n          add\n            /* \"#utility.yul\":1598:1604   */\n          dup2\n            /* \"#utility.yul\":1586:1596   */\n          dup2\n            /* \"#utility.yul\":1583:1605   */\n          lt\n            /* \"#utility.yul\":1562:1580   */\n          0xffffffffffffffff\n            /* \"#utility.yul\":1550:1560   */\n          dup3\n            /* \"#utility.yul\":1547:1581   */\n          gt\n            /* \"#utility.yul\":1544:1606   */\n          or\n            /* \"#utility.yul\":1541:1629   */\n          iszero\n          tag_63\n          jumpi\n            /* \"#utility.yul\":1609:1627   */\n          tag_64\n          tag_34\n          jump\t// in\n        tag_64:\n            /* \"#utility.yul\":1541:1629   */\n        tag_63:\n            /* \"#utility.yul\":1649:1659   */\n          dup1\n            /* \"#utility.yul\":1645:1647   */\n          0x40\n            /* \"#utility.yul\":1638:1660   */\n          mstore\n            /* \"#utility.yul\":1428:1666   */\n          pop\n            /* \"#utility.yul\":1385:1666   */\n          pop\n          pop\n          jump\t// out\n            /* \"#utility.yul\":1672:1801   */\n        tag_36:\n            /* \"#utility.yul\":1706:1712   */\n          0x00\n            /* \"#utility.yul\":1733:1753   */\n          tag_66\n          tag_24\n          jump\t// in\n        tag_66:\n            /* \"#utility.yul\":1723:1753   */\n          swap1\n          pop\n            /* \"#utility.yul\":1762:1795   */\n          tag_67\n            /* \"#utility.yul\":1790:1794   */\n          dup3\n            /* \"#utility.yul\":1782:1788   */\n          dup3\n            /* \"#utility.yul\":1762:1795   */\n          tag_35\n          jump\t// in\n        tag_67:\n            /* \"#utility.yul\":1672:1801   */\n          swap2\n          swap1\n          pop\n          jump\t// out\n            /* \"#utility.yul\":1807:2115   */\n        tag_37:\n            /* \"#utility.yul\":1869:1873   */\n          0x00\n            /* \"#utility.yul\":1959:1977   */\n          0xffffffffffffffff\n            /* \"#utility.yul\":1951:1957   */\n          dup3\n            /* \"#utility.yul\":1948:1978   */\n          gt\n            /* \"#utility.yul\":1945:2001   */\n          iszero\n          tag_69\n          jumpi\n            /* \"#utility.yul\":1981:1999   */\n          tag_70\n          tag_34\n          jump\t// in\n        tag_70:\n            /* \"#utility.yul\":1945:2001   */\n        tag_69:\n            /* \"#utility.yul\":2019:2048   */\n          tag_71\n            /* \"#utility.yul\":2041:2047   */\n          dup3\n            /* \"#utility.yul\":2019:2048   */\n          tag_33\n          jump\t// in\n        tag_71:\n            /* \"#utility.yul\":2011:2048   */\n          swap1\n          pop\n            /* \"#utility.yul\":2103:2107   */\n          0x20\n            /* \"#utility.yul\":2097:2101   */\n          dup2\n            /* \"#utility.yul\":2093:2108   */\n          add\n            /* \"#utility.yul\":2085:2108   */\n          swap1\n          pop\n            /* \"#utility.yul\":1807:2115   */\n          swap2\n          swap1\n          pop\n          jump\t// out\n            /* \"#utility.yul\":2121:2428   */\n        tag_38:\n            /* \"#utility.yul\":2189:2190   */\n          0x00\n            /* \"#utility.yul\":2199:2312   */\n        tag_73:\n            /* \"#utility.yul\":2213:2219   */\n          dup4\n            /* \"#utility.yul\":2210:2211   */\n          dup2\n            /* \"#utility.yul\":2207:2220   */\n          lt\n            /* \"#utility.yul\":2199:2312   */\n          iszero\n          tag_75\n          jumpi\n            /* \"#utility.yul\":2298:2299   */\n          dup1\n            /* \"#utility.yul\":2293:2296   */\n          dup3\n            /* \"#utility.yul\":2289:2300   */\n          add\n            /* \"#utility.yul\":2283:2301   */\n          mload\n            /* \"#utility.yul\":2279:2280   */\n          dup2\n            /* \"#utility.yul\":2274:2277   */\n          dup5\n            /* \"#utility.yul\":2270:2281   */\n          add\n            /* \"#utility.yul\":2263:2302   */\n          mstore\n            /* \"#utility.yul\":2235:2237   */\n          0x20\n            /* \"#utility.yul\":2232:2233   */\n          dup2\n            /* \"#utility.yul\":2228:2238   */\n          add\n            /* \"#utility.yul\":2223:2238   */\n          swap1\n          pop\n            /* \"#utility.yul\":2199:2312   */\n          jump(tag_73)\n        tag_75:\n            /* \"#utility.yul\":2330:2336   */\n          dup4\n            /* \"#utility.yul\":2327:2328   */\n          dup2\n            /* \"#utility.yul\":2324:2337   */\n          gt\n            /* \"#utility.yul\":2321:2422   */\n          iszero\n          tag_76\n          jumpi\n            /* \"#utility.yul\":2410:2411   */\n          0x00\n            /* \"#utility.yul\":2401:2407   */\n          dup5\n            /* \"#utility.yul\":2396:2399   */\n          dup5\n            /* \"#utility.yul\":2392:2408   */\n          add\n            /* \"#utility.yul\":2385:2412   */\n          mstore\n            /* \"#utility.yul\":2321:2422   */\n        tag_76:\n            /* \"#utility.yul\":2170:2428   */\n          pop\n            /* \"#utility.yul\":2121:2428   */\n          pop\n          pop\n          pop\n          jump\t// out\n            /* \"#utility.yul\":2434:2855   */\n        tag_39:\n            /* \"#utility.yul\":2523:2528   */\n          0x00\n            /* \"#utility.yul\":2548:2614   */\n          tag_78\n            /* \"#utility.yul\":2564:2613   */\n          tag_79\n            /* \"#utility.yul\":2606:2612   */\n          dup5\n            /* \"#utility.yul\":2564:2613   */\n          tag_37\n          jump\t// in\n        tag_79:\n            /* \"#utility.yul\":2548:2614   */\n          tag_36\n          jump\t// in\n        tag_78:\n            /* \"#utility.yul\":2539:2614   */\n          swap1\n          pop\n            /* \"#utility.yul\":2637:2643   */\n          dup3\n            /* \"#utility.yul\":2630:2635   */\n          dup2\n            /* \"#utility.yul\":2623:2644   */\n          mstore\n            /* \"#utility.yul\":2675:2679   */\n          0x20\n            /* \"#utility.yul\":2668:2673   */\n          dup2\n            /* \"#utility.yul\":2664:2680   */\n          add\n            /* \"#utility.yul\":2713:2716   */\n          dup5\n            /* \"#utility.yul\":2704:2710   */\n          dup5\n            /* \"#utility.yul\":2699:2702   */\n          dup5\n            /* \"#utility.yul\":2695:2711   */\n          add\n            /* \"#utility.yul\":2692:2717   */\n          gt\n            /* \"#utility.yul\":2689:2801   */\n          iszero\n          tag_80\n          jumpi\n            /* \"#utility.yul\":2720:2799   */\n          tag_81\n          tag_32\n          jump\t// in\n        tag_81:\n            /* \"#utility.yul\":2689:2801   */\n        tag_80:\n            /* \"#utility.yul\":2810:2849   */\n          tag_82\n            /* \"#utility.yul\":2842:2848   */\n          dup5\n            /* \"#utility.yul\":2837:2840   */\n          dup3\n            /* \"#utility.yul\":2832:2835   */\n          dup6\n            /* \"#utility.yul\":2810:2849   */\n          tag_38\n          jump\t// in\n        tag_82:\n            /* \"#utility.yul\":2529:2855   */\n          pop\n            /* \"#utility.yul\":2434:2855   */\n          swap4\n          swap3\n          pop\n          pop\n          pop\n          jump\t// out\n            /* \"#utility.yul\":2875:3230   */\n        tag_40:\n            /* \"#utility.yul\":2942:2947   */\n          0x00\n            /* \"#utility.yul\":2991:2994   */\n          dup3\n            /* \"#utility.yul\":2984:2988   */\n          0x1f\n            /* \"#utility.yul\":2976:2982   */\n          dup4\n            /* \"#utility.yul\":2972:2989   */\n          add\n            /* \"#utility.yul\":2968:2995   */\n          slt\n            /* \"#utility.yul\":2958:3080   */\n          tag_84\n          jumpi\n            /* \"#utility.yul\":2999:3078   */\n          tag_85\n          tag_31\n          jump\t// in\n        tag_85:\n            /* \"#utility.yul\":2958:3080   */\n        tag_84:\n            /* \"#utility.yul\":3109:3115   */\n          dup2\n            /* \"#utility.yul\":3103:3116   */\n          mload\n            /* \"#utility.yul\":3134:3224   */\n          tag_86\n            /* \"#utility.yul\":3220:3223   */\n          dup5\n            /* \"#utility.yul\":3212:3218   */\n          dup3\n            /* \"#utility.yul\":3205:3209   */\n          0x20\n            /* \"#utility.yul\":3197:3203   */\n          dup7\n            /* \"#utility.yul\":3193:3210   */\n          add\n            /* \"#utility.yul\":3134:3224   */\n          tag_39\n          jump\t// in\n        tag_86:\n            /* \"#utility.yul\":3125:3224   */\n          swap2\n          pop\n            /* \"#utility.yul\":2948:3230   */\n          pop\n            /* \"#utility.yul\":2875:3230   */\n          swap3\n          swap2\n          pop\n          pop\n          jump\t// out\n            /* \"#utility.yul\":3236:3313   */\n        tag_41:\n            /* \"#utility.yul\":3273:3280   */\n          0x00\n            /* \"#utility.yul\":3302:3307   */\n          dup2\n            /* \"#utility.yul\":3291:3307   */\n          swap1\n          pop\n            /* \"#utility.yul\":3236:3313   */\n          swap2\n          swap1\n          pop\n          jump\t// out\n            /* \"#utility.yul\":3319:3441   */\n        tag_42:\n            /* \"#utility.yul\":3392:3416   */\n          tag_89\n            /* \"#utility.yul\":3410:3415   */\n          dup2\n            /* \"#utility.yul\":3392:3416   */\n          tag_41\n          jump\t// in\n        tag_89:\n            /* \"#utility.yul\":3385:3390   */\n          dup2\n            /* \"#utility.yul\":3382:3417   */\n          eq\n            /* \"#utility.yul\":3372:3435   */\n          tag_90\n          jumpi\n            /* \"#utility.yul\":3431:3432   */\n          0x00\n            /* \"#utility.yul\":3428:3429   */\n          dup1\n            /* \"#utility.yul\":3421:3433   */\n          revert\n            /* \"#utility.yul\":3372:3435   */\n        tag_90:\n            /* \"#utility.yul\":3319:3441   */\n          pop\n          jump\t// out\n            /* \"#utility.yul\":3447:3590   */\n        tag_43:\n            /* \"#utility.yul\":3504:3509   */\n          0x00\n            /* \"#utility.yul\":3535:3541   */\n          dup2\n            /* \"#utility.yul\":3529:3542   */\n          mload\n            /* \"#utility.yul\":3520:3542   */\n          swap1\n          pop\n            /* \"#utility.yul\":3551:3584   */\n          tag_92\n            /* \"#utility.yul\":3578:3583   */\n          dup2\n            /* \"#utility.yul\":3551:3584   */\n          tag_42\n          jump\t// in\n        tag_92:\n            /* \"#utility.yul\":3447:3590   */\n          swap3\n          swap2\n          pop\n          pop\n          jump\t// out\n            /* \"#utility.yul\":3596:6066   */\n        tag_3:\n            /* \"#utility.yul\":3788:3794   */\n          0x00\n            /* \"#utility.yul\":3796:3802   */\n          dup1\n            /* \"#utility.yul\":3804:3810   */\n          0x00\n            /* \"#utility.yul\":3812:3818   */\n          dup1\n            /* \"#utility.yul\":3820:3826   */\n          0x00\n            /* \"#utility.yul\":3828:3834   */\n          dup1\n            /* \"#utility.yul\":3836:3842   */\n          0x00\n            /* \"#utility.yul\":3844:3850   */\n          dup1\n            /* \"#utility.yul\":3852:3858   */\n          0x00\n            /* \"#utility.yul\":3901:3904   */\n          0x0120\n            /* \"#utility.yul\":3889:3898   */\n          dup11\n            /* \"#utility.yul\":3880:3887   */\n          dup13\n            /* \"#utility.yul\":3876:3899   */\n          sub\n            /* \"#utility.yul\":3872:3905   */\n          slt\n            /* \"#utility.yul\":3869:3989   */\n          iszero\n          tag_94\n          jumpi\n            /* \"#utility.yul\":3908:3987   */\n          tag_95\n          tag_25\n          jump\t// in\n        tag_95:\n            /* \"#utility.yul\":3869:3989   */\n        tag_94:\n            /* \"#utility.yul\":4028:4029   */\n          0x00\n            /* \"#utility.yul\":4053:4117   */\n          tag_96\n            /* \"#utility.yul\":4109:4116   */\n          dup13\n            /* \"#utility.yul\":4100:4106   */\n          dup3\n            /* \"#utility.yul\":4089:4098   */\n          dup14\n            /* \"#utility.yul\":4085:4107   */\n          add\n            /* \"#utility.yul\":4053:4117   */\n          tag_30\n          jump\t// in\n        tag_96:\n            /* \"#utility.yul\":4043:4117   */\n          swap10\n          pop\n            /* \"#utility.yul\":3999:4127   */\n          pop\n            /* \"#utility.yul\":4187:4189   */\n          0x20\n            /* \"#utility.yul\":4176:4185   */\n          dup11\n            /* \"#utility.yul\":4172:4190   */\n          add\n            /* \"#utility.yul\":4166:4191   */\n          mload\n            /* \"#utility.yul\":4218:4236   */\n          0xffffffffffffffff\n            /* \"#utility.yul\":4210:4216   */\n          dup2\n            /* \"#utility.yul\":4207:4237   */\n          gt\n            /* \"#utility.yul\":4204:4321   */\n          iszero\n          tag_97\n          jumpi\n            /* \"#utility.yul\":4240:4319   */\n          tag_98\n          tag_26\n          jump\t// in\n        tag_98:\n            /* \"#utility.yul\":4204:4321   */\n        tag_97:\n            /* \"#utility.yul\":4345:4419   */\n          tag_99\n            /* \"#utility.yul\":4411:4418   */\n          dup13\n            /* \"#utility.yul\":4402:4408   */\n          dup3\n            /* \"#utility.yul\":4391:4400   */\n          dup14\n            /* \"#utility.yul\":4387:4409   */\n          add\n            /* \"#utility.yul\":4345:4419   */\n          tag_40\n          jump\t// in\n        tag_99:\n            /* \"#utility.yul\":4335:4419   */\n          swap9\n          pop\n            /* \"#utility.yul\":4137:4429   */\n          pop\n            /* \"#utility.yul\":4489:4491   */\n          0x40\n            /* \"#utility.yul\":4478:4487   */\n          dup11\n            /* \"#utility.yul\":4474:4492   */\n          add\n            /* \"#utility.yul\":4468:4493   */\n          mload\n            /* \"#utility.yul\":4520:4538   */\n          0xffffffffffffffff\n            /* \"#utility.yul\":4512:4518   */\n          dup2\n            /* \"#utility.yul\":4509:4539   */\n          gt\n            /* \"#utility.yul\":4506:4623   */\n          iszero\n          tag_100\n          jumpi\n            /* \"#utility.yul\":4542:4621   */\n          tag_101\n          tag_26\n          jump\t// in\n        tag_101:\n            /* \"#utility.yul\":4506:4623   */\n        tag_100:\n            /* \"#utility.yul\":4647:4721   */\n          tag_102\n            /* \"#utility.yul\":4713:4720   */\n          dup13\n            /* \"#utility.yul\":4704:4710   */\n          dup3\n            /* \"#utility.yul\":4693:4702   */\n          dup14\n            /* \"#utility.yul\":4689:4711   */\n          add\n            /* \"#utility.yul\":4647:4721   */\n          tag_40\n          jump\t// in\n        tag_102:\n            /* \"#utility.yul\":4637:4721   */\n          swap8\n          pop\n            /* \"#utility.yul\":4439:4731   */\n          pop\n            /* \"#utility.yul\":4791:4793   */\n          0x60\n            /* \"#utility.yul\":4780:4789   */\n          dup11\n            /* \"#utility.yul\":4776:4794   */\n          add\n            /* \"#utility.yul\":4770:4795   */\n          mload\n            /* \"#utility.yul\":4822:4840   */\n          0xffffffffffffffff\n            /* \"#utility.yul\":4814:4820   */\n          dup2\n            /* \"#utility.yul\":4811:4841   */\n          gt\n            /* \"#utility.yul\":4808:4925   */\n          iszero\n          tag_103\n          jumpi\n            /* \"#utility.yul\":4844:4923   */\n          tag_104\n          tag_26\n          jump\t// in\n        tag_104:\n            /* \"#utility.yul\":4808:4925   */\n        tag_103:\n            /* \"#utility.yul\":4949:5023   */\n          tag_105\n            /* \"#utility.yul\":5015:5022   */\n          dup13\n            /* \"#utility.yul\":5006:5012   */\n          dup3\n            /* \"#utility.yul\":4995:5004   */\n          dup14\n            /* \"#utility.yul\":4991:5013   */\n          add\n            /* \"#utility.yul\":4949:5023   */\n          tag_40\n          jump\t// in\n        tag_105:\n            /* \"#utility.yul\":4939:5023   */\n          swap7\n          pop\n            /* \"#utility.yul\":4741:5033   */\n          pop\n            /* \"#utility.yul\":5093:5096   */\n          0x80\n            /* \"#utility.yul\":5082:5091   */\n          dup11\n            /* \"#utility.yul\":5078:5097   */\n          add\n            /* \"#utility.yul\":5072:5098   */\n          mload\n            /* \"#utility.yul\":5125:5143   */\n          0xffffffffffffffff\n            /* \"#utility.yul\":5117:5123   */\n          dup2\n            /* \"#utility.yul\":5114:5144   */\n          gt\n            /* \"#utility.yul\":5111:5228   */\n          iszero\n          tag_106\n          jumpi\n            /* \"#utility.yul\":5147:5226   */\n          tag_107\n          tag_26\n          jump\t// in\n        tag_107:\n            /* \"#utility.yul\":5111:5228   */\n        tag_106:\n            /* \"#utility.yul\":5252:5326   */\n          tag_108\n            /* \"#utility.yul\":5318:5325   */\n          dup13\n            /* \"#utility.yul\":5309:5315   */\n          dup3\n            /* \"#utility.yul\":5298:5307   */\n          dup14\n            /* \"#utility.yul\":5294:5316   */\n          add\n            /* \"#utility.yul\":5252:5326   */\n          tag_40\n          jump\t// in\n        tag_108:\n            /* \"#utility.yul\":5242:5326   */\n          swap6\n          pop\n            /* \"#utility.yul\":5043:5336   */\n          pop\n            /* \"#utility.yul\":5396:5399   */\n          0xa0\n            /* \"#utility.yul\":5385:5394   */\n          dup11\n            /* \"#utility.yul\":5381:5400   */\n          add\n            /* \"#utility.yul\":5375:5401   */\n          mload\n            /* \"#utility.yul\":5428:5446   */\n          0xffffffffffffffff\n            /* \"#utility.yul\":5420:5426   */\n          dup2\n            /* \"#utility.yul\":5417:5447   */\n          gt\n            /* \"#utility.yul\":5414:5531   */\n          iszero\n          tag_109\n          jumpi\n            /* \"#utility.yul\":5450:5529   */\n          tag_110\n          tag_26\n          jump\t// in\n        tag_110:\n            /* \"#utility.yul\":5414:5531   */\n        tag_109:\n            /* \"#utility.yul\":5555:5629   */\n          tag_111\n            /* \"#utility.yul\":5621:5628   */\n          dup13\n            /* \"#utility.yul\":5612:5618   */\n          dup3\n            /* \"#utility.yul\":5601:5610   */\n          dup14\n            /* \"#utility.yul\":5597:5619   */\n          add\n            /* \"#utility.yul\":5555:5629   */\n          tag_40\n          jump\t// in\n        tag_111:\n            /* \"#utility.yul\":5545:5629   */\n          swap5\n          pop\n            /* \"#utility.yul\":5346:5639   */\n          pop\n            /* \"#utility.yul\":5678:5681   */\n          0xc0\n            /* \"#utility.yul\":5705:5769   */\n          tag_112\n            /* \"#utility.yul\":5761:5768   */\n          dup13\n            /* \"#utility.yul\":5752:5758   */\n          dup3\n            /* \"#utility.yul\":5741:5750   */\n          dup14\n            /* \"#utility.yul\":5737:5759   */\n          add\n            /* \"#utility.yul\":5705:5769   */\n          tag_43\n          jump\t// in\n        tag_112:\n            /* \"#utility.yul\":5695:5769   */\n          swap4\n          pop\n            /* \"#utility.yul\":5649:5779   */\n          pop\n            /* \"#utility.yul\":5818:5821   */\n          0xe0\n            /* \"#utility.yul\":5845:5909   */\n          tag_113\n            /* \"#utility.yul\":5901:5908   */\n          dup13\n            /* \"#utility.yul\":5892:5898   */\n          dup3\n            /* \"#utility.yul\":5881:5890   */\n          dup14\n            /* \"#utility.yul\":5877:5899   */\n          add\n            /* \"#utility.yul\":5845:5909   */\n          tag_43\n          jump\t// in\n        tag_113:\n            /* \"#utility.yul\":5835:5909   */\n          swap3\n          pop\n            /* \"#utility.yul\":5789:5919   */\n          pop\n            /* \"#utility.yul\":5958:5961   */\n          0x0100\n            /* \"#utility.yul\":5985:6049   */\n          tag_114\n            /* \"#utility.yul\":6041:6048   */\n          dup13\n            /* \"#utility.yul\":6032:6038   */\n          dup3\n            /* \"#utility.yul\":6021:6030   */\n          dup14\n            /* \"#utility.yul\":6017:6039   */\n          add\n            /* \"#utility.yul\":5985:6049   */\n          tag_43\n          jump\t// in\n        tag_114:\n            /* \"#utility.yul\":5975:6049   */\n          swap2\n          pop\n            /* \"#utility.yul\":5929:6059   */\n          pop\n            /* \"#utility.yul\":3596:6066   */\n          swap3\n          swap6\n          swap9\n          pop\n          swap3\n          swap6\n          swap9\n          pop\n          swap3\n          swap6\n          swap9\n          jump\t// out\n            /* \"#utility.yul\":6072:6252   */\n        tag_44:\n            /* \"#utility.yul\":6120:6197   */\n          0x4e487b7100000000000000000000000000000000000000000000000000000000\n            /* \"#utility.yul\":6117:6118   */\n          0x00\n            /* \"#utility.yul\":6110:6198   */\n          mstore\n            /* \"#utility.yul\":6217:6221   */\n          0x22\n            /* \"#utility.yul\":6214:6215   */\n          0x04\n            /* \"#utility.yul\":6207:6222   */\n          mstore\n            /* \"#utility.yul\":6241:6245   */\n          0x24\n            /* \"#utility.yul\":6238:6239   */\n          0x00\n            /* \"#utility.yul\":6231:6246   */\n          revert\n            /* \"#utility.yul\":6258:6578   */\n        tag_14:\n            /* \"#utility.yul\":6302:6308   */\n          0x00\n            /* \"#utility.yul\":6339:6340   */\n          0x02\n            /* \"#utility.yul\":6333:6337   */\n          dup3\n            /* \"#utility.yul\":6329:6341   */\n          div\n            /* \"#utility.yul\":6319:6341   */\n          swap1\n          pop\n            /* \"#utility.yul\":6386:6387   */\n          0x01\n            /* \"#utility.yul\":6380:6384   */\n          dup3\n            /* \"#utility.yul\":6376:6388   */\n          and\n            /* \"#utility.yul\":6407:6425   */\n          dup1\n            /* \"#utility.yul\":6397:6478   */\n          tag_117\n          jumpi\n            /* \"#utility.yul\":6463:6467   */\n          0x7f\n            /* \"#utility.yul\":6455:6461   */\n          dup3\n            /* \"#utility.yul\":6451:6468   */\n          and\n            /* \"#utility.yul\":6441:6468   */\n          swap2\n          pop\n            /* \"#utility.yul\":6397:6478   */\n        tag_117:\n            /* \"#utility.yul\":6525:6527   */\n          0x20\n            /* \"#utility.yul\":6517:6523   */\n          dup3\n            /* \"#utility.yul\":6514:6528   */\n          lt\n            /* \"#utility.yul\":6494:6512   */\n          dup2\n            /* \"#utility.yul\":6491:6529   */\n          eq\n            /* \"#utility.yul\":6488:6572   */\n          iszero\n          tag_118\n          jumpi\n            /* \"#utility.yul\":6544:6562   */\n          tag_119\n          tag_44\n          jump\t// in\n        tag_119:\n            /* \"#utility.yul\":6488:6572   */\n        tag_118:\n            /* \"#utility.yul\":6309:6578   */\n          pop\n            /* \"#utility.yul\":6258:6578   */\n          swap2\n          swap1\n          pop\n          jump\t// out\n            /* \"Flight.sol\":1680:4442  contract Flight {... */\n        tag_12:\n          dataSize(sub_0)\n          dup1\n          dataOffset(sub_0)\n          0x00\n          codecopy\n          0x00\n          return\n        stop\n\n        sub_0: assembly {\n                /* \"Flight.sol\":1680:4442  contract Flight {... */\n              mstore(0x40, 0x80)\n              jumpi(tag_1, lt(calldatasize, 0x04))\n              shr(0xe0, calldataload(0x00))\n              dup1\n              0x6f68f544\n              gt\n              tag_11\n              jumpi\n              dup1\n              0x6f68f544\n              eq\n              tag_6\n              jumpi\n              dup1\n              0x7f6c8482\n              eq\n              tag_7\n              jumpi\n              dup1\n              0xb99b48f0\n              eq\n              tag_8\n              jumpi\n              dup1\n              0xc40000d4\n              eq\n              tag_9\n              jumpi\n              dup1\n              0xcb4591f6\n              eq\n              tag_10\n              jumpi\n              jump(tag_1)\n            tag_11:\n              dup1\n              0x31629134\n              eq\n              tag_2\n              jumpi\n              dup1\n              0x4cdcdccb\n              eq\n              tag_3\n              jumpi\n              dup1\n              0x5cfc1a51\n              eq\n              tag_4\n              jumpi\n              dup1\n              0x6ac23fdc\n              eq\n              tag_5\n              jumpi\n            tag_1:\n              0x00\n              dup1\n              revert\n                /* \"Flight.sol\":4146:4440  function getFlightInfo()... */\n            tag_2:\n              callvalue\n              dup1\n              iszero\n              tag_12\n              jumpi\n              0x00\n              dup1\n              revert\n            tag_12:\n              pop\n              tag_13\n              tag_14\n              jump\t// in\n            tag_13:\n              mload(0x40)\n              tag_15\n              swap6\n              swap5\n              swap4\n              swap3\n              swap2\n              swap1\n              tag_16\n              jump\t// in\n            tag_15:\n              mload(0x40)\n              dup1\n              swap2\n              sub\n              swap1\n              return\n                /* \"Flight.sol\":2780:3360  function buyBusinessTicket(... */\n            tag_3:\n              tag_17\n              0x04\n              dup1\n              calldatasize\n              sub\n              dup2\n              add\n              swap1\n              tag_18\n              swap2\n              swap1\n              tag_19\n              jump\t// in\n            tag_18:\n              tag_20\n              jump\t// in\n            tag_17:\n              stop\n                /* \"Flight.sol\":2056:2079  uint256 public capacity */\n            tag_4:\n              callvalue\n              dup1\n              iszero\n              tag_21\n              jumpi\n              0x00\n              dup1\n              revert\n            tag_21:\n              pop\n              tag_22\n              tag_23\n              jump\t// in\n            tag_22:\n              mload(0x40)\n              tag_24\n              swap2\n              swap1\n              tag_25\n              jump\t// in\n            tag_24:\n              mload(0x40)\n              dup1\n              swap2\n              sub\n              swap1\n              return\n                /* \"Flight.sol\":4040:4140  function getPassengers() public view returns (Passenger[] memory) {... */\n            tag_5:\n              callvalue\n              dup1\n              iszero\n              tag_26\n              jumpi\n              0x00\n              dup1\n              revert\n            tag_26:\n              pop\n              tag_27\n              tag_28\n              jump\t// in\n            tag_27:\n              mload(0x40)\n              tag_29\n              swap2\n              swap1\n              tag_30\n              jump\t// in\n            tag_29:\n              mload(0x40)\n              dup1\n              swap2\n              sub\n              swap1\n              return\n                /* \"Flight.sol\":2139:2168  Passenger[] public passengers */\n            tag_6:\n              callvalue\n              dup1\n              iszero\n              tag_31\n              jumpi\n              0x00\n              dup1\n              revert\n            tag_31:\n              pop\n              tag_32\n              0x04\n              dup1\n              calldatasize\n              sub\n              dup2\n              add\n              swap1\n              tag_33\n              swap2\n              swap1\n              tag_34\n              jump\t// in\n            tag_33:\n              tag_35\n              jump\t// in\n            tag_32:\n              mload(0x40)\n              tag_36\n              swap6\n              swap5\n              swap4\n              swap3\n              swap2\n              swap1\n              tag_37\n              jump\t// in\n            tag_36:\n              mload(0x40)\n              dup1\n              swap2\n              sub\n              swap1\n              return\n                /* \"Flight.sol\":2085:2133  mapping(address => string) public passengerClass */\n            tag_7:\n              callvalue\n              dup1\n              iszero\n              tag_38\n              jumpi\n              0x00\n              dup1\n              revert\n            tag_38:\n              pop\n              tag_39\n              0x04\n              dup1\n              calldatasize\n              sub\n              dup2\n              add\n              swap1\n              tag_40\n              swap2\n              swap1\n              tag_41\n              jump\t// in\n            tag_40:\n              tag_42\n              jump\t// in\n            tag_39:\n              mload(0x40)\n              tag_43\n              swap2\n              swap1\n              tag_44\n              jump\t// in\n            tag_43:\n              mload(0x40)\n              dup1\n              swap2\n              sub\n              swap1\n              return\n                /* \"Flight.sol\":3366:3943  function buyEconomyTicket(... */\n            tag_8:\n              tag_45\n              0x04\n              dup1\n              calldatasize\n              sub\n              dup2\n              add\n              swap1\n              tag_46\n              swap2\n              swap1\n              tag_19\n              jump\t// in\n            tag_46:\n              tag_47\n              jump\t// in\n            tag_45:\n              stop\n                /* \"Flight.sol\":3949:4034  function getCapacity() public view returns (uint256) {... */\n            tag_9:\n              callvalue\n              dup1\n              iszero\n              tag_48\n              jumpi\n              0x00\n              dup1\n              revert\n            tag_48:\n              pop\n              tag_49\n              tag_50\n              jump\t// in\n            tag_49:\n              mload(0x40)\n              tag_51\n              swap2\n              swap1\n              tag_25\n              jump\t// in\n            tag_51:\n              mload(0x40)\n              dup1\n              swap2\n              sub\n              swap1\n              return\n                /* \"Flight.sol\":2022:2050  address public flightManager */\n            tag_10:\n              callvalue\n              dup1\n              iszero\n              tag_52\n              jumpi\n              0x00\n              dup1\n              revert\n            tag_52:\n              pop\n              tag_53\n              tag_54\n              jump\t// in\n            tag_53:\n              mload(0x40)\n              tag_55\n              swap2\n              swap1\n              tag_56\n              jump\t// in\n            tag_55:\n              mload(0x40)\n              dup1\n              swap2\n              sub\n              swap1\n              return\n                /* \"Flight.sol\":4146:4440  function getFlightInfo()... */\n            tag_14:\n                /* \"Flight.sol\":4229:4242  string memory */\n              0x60\n                /* \"Flight.sol\":4256:4269  string memory */\n              dup1\n                /* \"Flight.sol\":4283:4296  string memory */\n              0x60\n                /* \"Flight.sol\":4310:4323  string memory */\n              dup1\n                /* \"Flight.sol\":4337:4350  string memory */\n              0x60\n                /* \"Flight.sol\":4383:4391  flightId */\n              0x00\n                /* \"Flight.sol\":4393:4397  from */\n              0x01\n                /* \"Flight.sol\":4399:4410  destination */\n              0x02\n                /* \"Flight.sol\":4412:4419  flyTime */\n              0x03\n                /* \"Flight.sol\":4421:4432  arrivalTime */\n              0x04\n                /* \"Flight.sol\":4375:4433  return (flightId, from, destination, flyTime, arrivalTime) */\n              dup5\n              dup1\n              sload\n              tag_58\n              swap1\n              tag_59\n              jump\t// in\n            tag_58:\n              dup1\n              0x1f\n              add\n              0x20\n              dup1\n              swap2\n              div\n              mul\n              0x20\n              add\n              mload(0x40)\n              swap1\n              dup2\n              add\n              0x40\n              mstore\n              dup1\n              swap3\n              swap2\n              swap1\n              dup2\n              dup2\n              mstore\n              0x20\n              add\n              dup3\n              dup1\n              sload\n              tag_60\n              swap1\n              tag_59\n              jump\t// in\n            tag_60:\n              dup1\n              iszero\n              tag_61\n              jumpi\n              dup1\n              0x1f\n              lt\n              tag_62\n              jumpi\n              0x0100\n              dup1\n              dup4\n              sload\n              div\n              mul\n              dup4\n              mstore\n              swap2\n              0x20\n              add\n              swap2\n              jump(tag_61)\n            tag_62:\n              dup3\n              add\n              swap2\n              swap1\n              0x00\n              mstore\n              keccak256(0x00, 0x20)\n              swap1\n            tag_63:\n              dup2\n              sload\n              dup2\n              mstore\n              swap1\n              0x01\n              add\n              swap1\n              0x20\n              add\n              dup1\n              dup4\n              gt\n              tag_63\n              jumpi\n              dup3\n              swap1\n              sub\n              0x1f\n              and\n              dup3\n              add\n              swap2\n            tag_61:\n              pop\n              pop\n              pop\n              pop\n              pop\n              swap5\n              pop\n              dup4\n              dup1\n              sload\n              tag_64\n              swap1\n              tag_59\n              jump\t// in\n            tag_64:\n              dup1\n              0x1f\n              add\n              0x20\n              dup1\n              swap2\n              div\n              mul\n              0x20\n              add\n              mload(0x40)\n              swap1\n              dup2\n              add\n              0x40\n              mstore\n              dup1\n              swap3\n              swap2\n              swap1\n              dup2\n              dup2\n              mstore\n              0x20\n              add\n              dup3\n              dup1\n              sload\n              tag_65\n              swap1\n              tag_59\n              jump\t// in\n            tag_65:\n              dup1\n              iszero\n              tag_66\n              jumpi\n              dup1\n              0x1f\n              lt\n              tag_67\n              jumpi\n              0x0100\n              dup1\n              dup4\n              sload\n              div\n              mul\n              dup4\n              mstore\n              swap2\n              0x20\n              add\n              swap2\n              jump(tag_66)\n            tag_67:\n              dup3\n              add\n              swap2\n              swap1\n              0x00\n              mstore\n              keccak256(0x00, 0x20)\n              swap1\n            tag_68:\n              dup2\n              sload\n              dup2\n              mstore\n              swap1\n              0x01\n              add\n              swap1\n              0x20\n              add\n              dup1\n              dup4\n              gt\n              tag_68\n              jumpi\n              dup3\n              swap1\n              sub\n              0x1f\n              and\n              dup3\n              add\n              swap2\n            tag_66:\n              pop\n              pop\n              pop\n              pop\n              pop\n              swap4\n              pop\n              dup3\n              dup1\n              sload\n              tag_69\n              swap1\n              tag_59\n              jump\t// in\n            tag_69:\n              dup1\n              0x1f\n              add\n              0x20\n              dup1\n              swap2\n              div\n              mul\n              0x20\n              add\n              mload(0x40)\n              swap1\n              dup2\n              add\n              0x40\n              mstore\n              dup1\n              swap3\n              swap2\n              swap1\n              dup2\n              dup2\n              mstore\n              0x20\n              add\n              dup3\n              dup1\n              sload\n              tag_70\n              swap1\n              tag_59\n              jump\t// in\n            tag_70:\n              dup1\n              iszero\n              tag_71\n              jumpi\n              dup1\n              0x1f\n              lt\n              tag_72\n              jumpi\n              0x0100\n              dup1\n              dup4\n              sload\n              div\n              mul\n              dup4\n              mstore\n              swap2\n              0x20\n              add\n              swap2\n              jump(tag_71)\n            tag_72:\n              dup3\n              add\n              swap2\n              swap1\n              0x00\n              mstore\n              keccak256(0x00, 0x20)\n              swap1\n            tag_73:\n              dup2\n              sload\n              dup2\n              mstore\n              swap1\n              0x01\n              add\n              swap1\n              0x20\n              add\n              dup1\n              dup4\n              gt\n              tag_73\n              jumpi\n              dup3\n              swap1\n              sub\n              0x1f\n              and\n              dup3\n              add\n              swap2\n            tag_71:\n              pop\n              pop\n              pop\n              pop\n              pop\n              swap3\n              pop\n              dup2\n              dup1\n              sload\n              tag_74\n              swap1\n              tag_59\n              jump\t// in\n            tag_74:\n              dup1\n              0x1f\n              add\n              0x20\n              dup1\n              swap2\n              div\n              mul\n              0x20\n              add\n              mload(0x40)\n              swap1\n              dup2\n              add\n              0x40\n              mstore\n              dup1\n              swap3\n              swap2\n              swap1\n              dup2\n              dup2\n              mstore\n              0x20\n              add\n              dup3\n              dup1\n              sload\n              tag_75\n              swap1\n              tag_59\n              jump\t// in\n            tag_75:\n              dup1\n              iszero\n              tag_76\n              jumpi\n              dup1\n              0x1f\n              lt\n              tag_77\n              jumpi\n              0x0100\n              dup1\n              dup4\n              sload\n              div\n              mul\n              dup4\n              mstore\n              swap2\n              0x20\n              add\n              swap2\n              jump(tag_76)\n            tag_77:\n              dup3\n              add\n              swap2\n              swap1\n              0x00\n              mstore\n              keccak256(0x00, 0x20)\n              swap1\n            tag_78:\n              dup2\n              sload\n              dup2\n              mstore\n              swap1\n              0x01\n              add\n              swap1\n              0x20\n              add\n              dup1\n              dup4\n              gt\n              tag_78\n              jumpi\n              dup3\n              swap1\n              sub\n              0x1f\n              and\n              dup3\n              add\n              swap2\n            tag_76:\n              pop\n              pop\n              pop\n              pop\n              pop\n              swap2\n              pop\n              dup1\n              dup1\n              sload\n              tag_79\n              swap1\n              tag_59\n              jump\t// in\n            tag_79:\n              dup1\n              0x1f\n              add\n              0x20\n              dup1\n              swap2\n              div\n              mul\n              0x20\n              add\n              mload(0x40)\n              swap1\n              dup2\n              add\n              0x40\n              mstore\n              dup1\n              swap3\n              swap2\n              swap1\n              dup2\n              dup2\n              mstore\n              0x20\n              add\n              dup3\n              dup1\n              sload\n              tag_80\n              swap1\n              tag_59\n              jump\t// in\n            tag_80:\n              dup1\n              iszero\n              tag_81\n              jumpi\n              dup1\n              0x1f\n              lt\n              tag_82\n              jumpi\n              0x0100\n              dup1\n              dup4\n              sload\n              div\n              mul\n              dup4\n              mstore\n              swap2\n              0x20\n              add\n              swap2\n              jump(tag_81)\n            tag_82:\n              dup3\n              add\n              swap2\n              swap1\n              0x00\n              mstore\n              keccak256(0x00, 0x20)\n              swap1\n            tag_83:\n              dup2\n              sload\n              dup2\n              mstore\n              swap1\n              0x01\n              add\n              swap1\n              0x20\n              add\n              dup1\n              dup4\n              gt\n              tag_83\n              jumpi\n              dup3\n              swap1\n              sub\n              0x1f\n              and\n              dup3\n              add\n              swap2\n            tag_81:\n              pop\n              pop\n              pop\n              pop\n              pop\n              swap1\n              pop\n              swap5\n              pop\n              swap5\n              pop\n              swap5\n              pop\n              swap5\n              pop\n              swap5\n              pop\n                /* \"Flight.sol\":4146:4440  function getFlightInfo()... */\n              swap1\n              swap2\n              swap3\n              swap4\n              swap5\n              jump\t// out\n                /* \"Flight.sol\":2780:3360  function buyBusinessTicket(... */\n            tag_20:\n                /* \"Flight.sol\":2956:2969  businessPrice */\n              sload(0x05)\n                /* \"Flight.sol\":2943:2952  msg.value */\n              callvalue\n                /* \"Flight.sol\":2943:2969  msg.value == businessPrice */\n              eq\n                /* \"Flight.sol\":2935:2970  require(msg.value == businessPrice) */\n              tag_85\n              jumpi\n              0x00\n              dup1\n              revert\n            tag_85:\n                /* \"Flight.sol\":2999:3000  0 */\n              0x00\n                /* \"Flight.sol\":2988:2996  capacity */\n              sload(0x08)\n                /* \"Flight.sol\":2988:3000  capacity > 0 */\n              gt\n                /* \"Flight.sol\":2980:3001  require(capacity > 0) */\n              tag_86\n              jumpi\n              0x00\n              dup1\n              revert\n            tag_86:\n                /* \"Flight.sol\":3011:3040  Passenger memory newPassenger */\n              0x00\n                /* \"Flight.sol\":3043:3245  Passenger({... */\n              mload(0x40)\n              dup1\n              0xa0\n              add\n              0x40\n              mstore\n              dup1\n                /* \"Flight.sol\":3079:3089  msg.sender */\n              caller\n                /* \"Flight.sol\":3043:3245  Passenger({... */\n              0xffffffffffffffffffffffffffffffffffffffff\n              and\n              dup2\n              mstore\n              0x20\n              add\n                /* \"Flight.sol\":3109:3113  name */\n              dup6\n                /* \"Flight.sol\":3043:3245  Passenger({... */\n              dup2\n              mstore\n              0x20\n              add\n                /* \"Flight.sol\":3136:3143  surname */\n              dup5\n                /* \"Flight.sol\":3043:3245  Passenger({... */\n              dup2\n              mstore\n              0x20\n              add\n                /* \"Flight.sol\":3173:3187  passportNumber */\n              dup4\n                /* \"Flight.sol\":3043:3245  Passenger({... */\n              dup2\n              mstore\n              0x20\n              add\n                /* \"Flight.sol\":3233:3234  1 */\n              0x01\n                /* \"Flight.sol\":3213:3223  passengers */\n              0x0a\n                /* \"Flight.sol\":3213:3230  passengers.length */\n              dup1\n              sload\n              swap1\n              pop\n                /* \"Flight.sol\":3213:3234  passengers.length + 1 */\n              tag_87\n              swap2\n              swap1\n              tag_88\n              jump\t// in\n            tag_87:\n                /* \"Flight.sol\":3043:3245  Passenger({... */\n              dup2\n              mstore\n              pop\n                /* \"Flight.sol\":3011:3245  Passenger memory newPassenger = Passenger({... */\n              swap1\n              pop\n                /* \"Flight.sol\":3255:3265  passengers */\n              0x0a\n                /* \"Flight.sol\":3271:3283  newPassenger */\n              dup2\n                /* \"Flight.sol\":3255:3284  passengers.push(newPassenger) */\n              swap1\n              dup1\n              0x01\n              dup2\n              sload\n              add\n              dup1\n              dup3\n              sstore\n              dup1\n              swap2\n              pop\n              pop\n              0x01\n              swap1\n              sub\n              swap1\n              0x00\n              mstore\n              keccak256(0x00, 0x20)\n              swap1\n              0x05\n              mul\n              add\n              0x00\n              swap1\n              swap2\n              swap1\n              swap2\n              swap1\n              swap2\n              pop\n              0x00\n              dup3\n              add\n              mload\n              dup2\n              0x00\n              add\n              exp(0x0100, 0x00)\n              dup2\n              sload\n              dup2\n              0xffffffffffffffffffffffffffffffffffffffff\n              mul\n              not\n              and\n              swap1\n              dup4\n              0xffffffffffffffffffffffffffffffffffffffff\n              and\n              mul\n              or\n              swap1\n              sstore\n              pop\n              0x20\n              dup3\n              add\n              mload\n              dup2\n              0x01\n              add\n              swap1\n              dup1\n              mload\n              swap1\n              0x20\n              add\n              swap1\n              tag_90\n              swap3\n              swap2\n              swap1\n              tag_91\n              jump\t// in\n            tag_90:\n              pop\n              0x40\n              dup3\n              add\n              mload\n              dup2\n              0x02\n              add\n              swap1\n              dup1\n              mload\n              swap1\n              0x20\n              add\n              swap1\n              tag_92\n              swap3\n              swap2\n              swap1\n              tag_91\n              jump\t// in\n            tag_92:\n              pop\n              0x60\n              dup3\n              add\n              mload\n              dup2\n              0x03\n              add\n              swap1\n              dup1\n              mload\n              swap1\n              0x20\n              add\n              swap1\n              tag_93\n              swap3\n              swap2\n              swap1\n              tag_91\n              jump\t// in\n            tag_93:\n              pop\n              0x80\n              dup3\n              add\n              mload\n              dup2\n              0x04\n              add\n              sstore\n              pop\n              pop\n                /* \"Flight.sol\":3294:3333  passengerClass[msg.sender] = \"business\" */\n              mload(0x40)\n              dup1\n              0x40\n              add\n              0x40\n              mstore\n              dup1\n              0x08\n              dup2\n              mstore\n              0x20\n              add\n              0x627573696e657373000000000000000000000000000000000000000000000000\n              dup2\n              mstore\n              pop\n                /* \"Flight.sol\":3294:3308  passengerClass */\n              0x09\n                /* \"Flight.sol\":3294:3320  passengerClass[msg.sender] */\n              0x00\n                /* \"Flight.sol\":3309:3319  msg.sender */\n              caller\n                /* \"Flight.sol\":3294:3320  passengerClass[msg.sender] */\n              0xffffffffffffffffffffffffffffffffffffffff\n              and\n              0xffffffffffffffffffffffffffffffffffffffff\n              and\n              dup2\n              mstore\n              0x20\n              add\n              swap1\n              dup2\n              mstore\n              0x20\n              add\n              0x00\n              keccak256\n                /* \"Flight.sol\":3294:3333  passengerClass[msg.sender] = \"business\" */\n              swap1\n              dup1\n              mload\n              swap1\n              0x20\n              add\n              swap1\n              tag_94\n              swap3\n              swap2\n              swap1\n              tag_91\n              jump\t// in\n            tag_94:\n              pop\n                /* \"Flight.sol\":3343:3351  capacity */\n              0x08\n              0x00\n                /* \"Flight.sol\":3343:3353  capacity-- */\n              dup2\n              sload\n              dup1\n              swap3\n              swap2\n              swap1\n              tag_95\n              swap1\n              tag_96\n              jump\t// in\n            tag_95:\n              swap2\n              swap1\n              pop\n              sstore\n              pop\n                /* \"Flight.sol\":2925:3360  {... */\n              pop\n                /* \"Flight.sol\":2780:3360  function buyBusinessTicket(... */\n              pop\n              pop\n              pop\n              jump\t// out\n                /* \"Flight.sol\":2056:2079  uint256 public capacity */\n            tag_23:\n              sload(0x08)\n              dup2\n              jump\t// out\n                /* \"Flight.sol\":4040:4140  function getPassengers() public view returns (Passenger[] memory) {... */\n            tag_28:\n                /* \"Flight.sol\":4086:4104  Passenger[] memory */\n              0x60\n                /* \"Flight.sol\":4123:4133  passengers */\n              0x0a\n                /* \"Flight.sol\":4116:4133  return passengers */\n              dup1\n              sload\n              dup1\n              0x20\n              mul\n              0x20\n              add\n              mload(0x40)\n              swap1\n              dup2\n              add\n              0x40\n              mstore\n              dup1\n              swap3\n              swap2\n              swap1\n              dup2\n              dup2\n              mstore\n              0x20\n              add\n              0x00\n              swap1\n            tag_98:\n              dup3\n              dup3\n              lt\n              iszero\n              tag_99\n              jumpi\n              dup4\n              dup3\n              swap1\n              0x00\n              mstore\n              keccak256(0x00, 0x20)\n              swap1\n              0x05\n              mul\n              add\n              mload(0x40)\n              dup1\n              0xa0\n              add\n              0x40\n              mstore\n              swap1\n              dup2\n              0x00\n              dup3\n              add\n              0x00\n              swap1\n              sload\n              swap1\n              0x0100\n              exp\n              swap1\n              div\n              0xffffffffffffffffffffffffffffffffffffffff\n              and\n              0xffffffffffffffffffffffffffffffffffffffff\n              and\n              0xffffffffffffffffffffffffffffffffffffffff\n              and\n              dup2\n              mstore\n              0x20\n              add\n              0x01\n              dup3\n              add\n              dup1\n              sload\n              tag_101\n              swap1\n              tag_59\n              jump\t// in\n            tag_101:\n              dup1\n              0x1f\n              add\n              0x20\n              dup1\n              swap2\n              div\n              mul\n              0x20\n              add\n              mload(0x40)\n              swap1\n              dup2\n              add\n              0x40\n              mstore\n              dup1\n              swap3\n              swap2\n              swap1\n              dup2\n              dup2\n              mstore\n              0x20\n              add\n              dup3\n              dup1\n              sload\n              tag_102\n              swap1\n              tag_59\n              jump\t// in\n            tag_102:\n              dup1\n              iszero\n              tag_103\n              jumpi\n              dup1\n              0x1f\n              lt\n              tag_104\n              jumpi\n              0x0100\n              dup1\n              dup4\n              sload\n              div\n              mul\n              dup4\n              mstore\n              swap2\n              0x20\n              add\n              swap2\n              jump(tag_103)\n            tag_104:\n              dup3\n              add\n              swap2\n              swap1\n              0x00\n              mstore\n              keccak256(0x00, 0x20)\n              swap1\n            tag_105:\n              dup2\n              sload\n              dup2\n              mstore\n              swap1\n              0x01\n              add\n              swap1\n              0x20\n              add\n              dup1\n              dup4\n              gt\n              tag_105\n              jumpi\n              dup3\n              swap1\n              sub\n              0x1f\n              and\n              dup3\n              add\n              swap2\n            tag_103:\n              pop\n              pop\n              pop\n              pop\n              pop\n              dup2\n              mstore\n              0x20\n              add\n              0x02\n              dup3\n              add\n              dup1\n              sload\n              tag_106\n              swap1\n              tag_59\n              jump\t// in\n            tag_106:\n              dup1\n              0x1f\n              add\n              0x20\n              dup1\n              swap2\n              div\n              mul\n              0x20\n              add\n              mload(0x40)\n              swap1\n              dup2\n              add\n              0x40\n              mstore\n              dup1\n              swap3\n              swap2\n              swap1\n              dup2\n              dup2\n              mstore\n              0x20\n              add\n              dup3\n              dup1\n              sload\n              tag_107\n              swap1\n              tag_59\n              jump\t// in\n            tag_107:\n              dup1\n              iszero\n              tag_108\n              jumpi\n              dup1\n              0x1f\n              lt\n              tag_109\n              jumpi\n              0x0100\n              dup1\n              dup4\n              sload\n              div\n              mul\n              dup4\n              mstore\n              swap2\n              0x20\n              add\n              swap2\n              jump(tag_108)\n            tag_109:\n              dup3\n              add\n              swap2\n              swap1\n              0x00\n              mstore\n              keccak256(0x00, 0x20)\n              swap1\n            tag_110:\n              dup2\n              sload\n              dup2\n              mstore\n              swap1\n              0x01\n              add\n              swap1\n              0x20\n              add\n              dup1\n              dup4\n              gt\n              tag_110\n              jumpi\n              dup3\n              swap1\n              sub\n              0x1f\n              and\n              dup3\n              add\n              swap2\n            tag_108:\n              pop\n              pop\n              pop\n              pop\n              pop\n              dup2\n              mstore\n              0x20\n              add\n              0x03\n              dup3\n              add\n              dup1\n              sload\n              tag_111\n              swap1\n              tag_59\n              jump\t// in\n            tag_111:\n              dup1\n              0x1f\n              add\n              0x20\n              dup1\n              swap2\n              div\n              mul\n              0x20\n              add\n              mload(0x40)\n              swap1\n              dup2\n              add\n              0x40\n              mstore\n              dup1\n              swap3\n              swap2\n              swap1\n              dup2\n              dup2\n              mstore\n              0x20\n              add\n              dup3\n              dup1\n              sload\n              tag_112\n              swap1\n              tag_59\n              jump\t// in\n            tag_112:\n              dup1\n              iszero\n              tag_113\n              jumpi\n              dup1\n              0x1f\n              lt\n              tag_114\n              jumpi\n              0x0100\n              dup1\n              dup4\n              sload\n              div\n              mul\n              dup4\n              mstore\n              swap2\n              0x20\n              add\n              swap2\n              jump(tag_113)\n            tag_114:\n              dup3\n              add\n              swap2\n              swap1\n              0x00\n              mstore\n              keccak256(0x00, 0x20)\n              swap1\n            tag_115:\n              dup2\n              sload\n              dup2\n              mstore\n              swap1\n              0x01\n              add\n              swap1\n              0x20\n              add\n              dup1\n              dup4\n              gt\n              tag_115\n              jumpi\n              dup3\n              swap1\n              sub\n              0x1f\n              and\n              dup3\n              add\n              swap2\n            tag_113:\n              pop\n              pop\n              pop\n              pop\n              pop\n              dup2\n              mstore\n              0x20\n              add\n              0x04\n              dup3\n              add\n              sload\n              dup2\n              mstore\n              pop\n              pop\n              dup2\n              mstore\n              0x20\n              add\n              swap1\n              0x01\n              add\n              swap1\n              jump(tag_98)\n            tag_99:\n              pop\n              pop\n              pop\n              pop\n              swap1\n              pop\n                /* \"Flight.sol\":4040:4140  function getPassengers() public view returns (Passenger[] memory) {... */\n              swap1\n              jump\t// out\n                /* \"Flight.sol\":2139:2168  Passenger[] public passengers */\n            tag_35:\n              0x0a\n              dup2\n              dup2\n              sload\n              dup2\n              lt\n              tag_116\n              jumpi\n              0x00\n              dup1\n              revert\n            tag_116:\n              swap1\n              0x00\n              mstore\n              keccak256(0x00, 0x20)\n              swap1\n              0x05\n              mul\n              add\n              0x00\n              swap2\n              pop\n              swap1\n              pop\n              dup1\n              0x00\n              add\n              0x00\n              swap1\n              sload\n              swap1\n              0x0100\n              exp\n              swap1\n              div\n              0xffffffffffffffffffffffffffffffffffffffff\n              and\n              swap1\n              dup1\n              0x01\n              add\n              dup1\n              sload\n              tag_118\n              swap1\n              tag_59\n              jump\t// in\n            tag_118:\n              dup1\n              0x1f\n              add\n              0x20\n              dup1\n              swap2\n              div\n              mul\n              0x20\n              add\n              mload(0x40)\n              swap1\n              dup2\n              add\n              0x40\n              mstore\n              dup1\n              swap3\n              swap2\n              swap1\n              dup2\n              dup2\n              mstore\n              0x20\n              add\n              dup3\n              dup1\n              sload\n              tag_119\n              swap1\n              tag_59\n              jump\t// in\n            tag_119:\n              dup1\n              iszero\n              tag_120\n              jumpi\n              dup1\n              0x1f\n              lt\n              tag_121\n              jumpi\n              0x0100\n              dup1\n              dup4\n              sload\n              div\n              mul\n              dup4\n              mstore\n              swap2\n              0x20\n              add\n              swap2\n              jump(tag_120)\n            tag_121:\n              dup3\n              add\n              swap2\n              swap1\n              0x00\n              mstore\n              keccak256(0x00, 0x20)\n              swap1\n            tag_122:\n              dup2\n              sload\n              dup2\n              mstore\n              swap1\n              0x01\n              add\n              swap1\n              0x20\n              add\n              dup1\n              dup4\n              gt\n              tag_122\n              jumpi\n              dup3\n              swap1\n              sub\n              0x1f\n              and\n              dup3\n              add\n              swap2\n            tag_120:\n              pop\n              pop\n              pop\n              pop\n              pop\n              swap1\n              dup1\n              0x02\n              add\n              dup1\n              sload\n              tag_123\n              swap1\n              tag_59\n              jump\t// in\n            tag_123:\n              dup1\n              0x1f\n              add\n              0x20\n              dup1\n              swap2\n              div\n              mul\n              0x20\n              add\n              mload(0x40)\n              swap1\n              dup2\n              add\n              0x40\n              mstore\n              dup1\n              swap3\n              swap2\n              swap1\n              dup2\n              dup2\n              mstore\n              0x20\n              add\n              dup3\n              dup1\n              sload\n              tag_124\n              swap1\n              tag_59\n              jump\t// in\n            tag_124:\n              dup1\n              iszero\n              tag_125\n              jumpi\n              dup1\n              0x1f\n              lt\n              tag_126\n              jumpi\n              0x0100\n              dup1\n              dup4\n              sload\n              div\n              mul\n              dup4\n              mstore\n              swap2\n              0x20\n              add\n              swap2\n              jump(tag_125)\n            tag_126:\n              dup3\n              add\n              swap2\n              swap1\n              0x00\n              mstore\n              keccak256(0x00, 0x20)\n              swap1\n            tag_127:\n              dup2\n              sload\n              dup2\n              mstore\n              swap1\n              0x01\n              add\n              swap1\n              0x20\n              add\n              dup1\n              dup4\n              gt\n              tag_127\n              jumpi\n              dup3\n              swap1\n              sub\n              0x1f\n              and\n              dup3\n              add\n              swap2\n            tag_125:\n              pop\n              pop\n              pop\n              pop\n              pop\n              swap1\n              dup1\n              0x03\n              add\n              dup1\n              sload\n              tag_128\n              swap1\n              tag_59\n              jump\t// in\n            tag_128:\n              dup1\n              0x1f\n              add\n              0x20\n              dup1\n              swap2\n              div\n              mul\n              0x20\n              add\n              mload(0x40)\n              swap1\n              dup2\n              add\n              0x40\n              mstore\n              dup1\n              swap3\n              swap2\n              swap1\n              dup2\n              dup2\n              mstore\n              0x20\n              add\n              dup3\n              dup1\n              sload\n              tag_129\n              swap1\n              tag_59\n              jump\t// in\n            tag_129:\n              dup1\n              iszero\n              tag_130\n              jumpi\n              dup1\n              0x1f\n              lt\n              tag_131\n              jumpi\n              0x0100\n              dup1\n              dup4\n              sload\n              div\n              mul\n              dup4\n              mstore\n              swap2\n              0x20\n              add\n              swap2\n              jump(tag_130)\n            tag_131:\n              dup3\n              add\n              swap2\n              swap1\n              0x00\n              mstore\n              keccak256(0x00, 0x20)\n              swap1\n            tag_132:\n              dup2\n              sload\n              dup2\n              mstore\n              swap1\n              0x01\n              add\n              swap1\n              0x20\n              add\n              dup1\n              dup4\n              gt\n              tag_132\n              jumpi\n              dup3\n              swap1\n              sub\n              0x1f\n              and\n              dup3\n              add\n              swap2\n            tag_130:\n              pop\n              pop\n              pop\n              pop\n              pop\n              swap1\n              dup1\n              0x04\n              add\n              sload\n              swap1\n              pop\n              dup6\n              jump\t// out\n                /* \"Flight.sol\":2085:2133  mapping(address => string) public passengerClass */\n            tag_42:\n              mstore(0x20, 0x09)\n              dup1\n              0x00\n              mstore\n              keccak256(0x00, 0x40)\n              0x00\n              swap2\n              pop\n              swap1\n              pop\n              dup1\n              sload\n              tag_133\n              swap1\n              tag_59\n              jump\t// in\n            tag_133:\n              dup1\n              0x1f\n              add\n              0x20\n              dup1\n              swap2\n              div\n              mul\n              0x20\n              add\n              mload(0x40)\n              swap1\n              dup2\n              add\n              0x40\n              mstore\n              dup1\n              swap3\n              swap2\n              swap1\n              dup2\n              dup2\n              mstore\n              0x20\n              add\n              dup3\n              dup1\n              sload\n              tag_134\n              swap1\n              tag_59\n              jump\t// in\n            tag_134:\n              dup1\n              iszero\n              tag_135\n              jumpi\n              dup1\n              0x1f\n              lt\n              tag_136\n              jumpi\n              0x0100\n              dup1\n              dup4\n              sload\n              div\n              mul\n              dup4\n              mstore\n              swap2\n              0x20\n              add\n              swap2\n              jump(tag_135)\n            tag_136:\n              dup3\n              add\n              swap2\n              swap1\n              0x00\n              mstore\n              keccak256(0x00, 0x20)\n              swap1\n            tag_137:\n              dup2\n              sload\n              dup2\n              mstore\n              swap1\n              0x01\n              add\n              swap1\n              0x20\n              add\n              dup1\n              dup4\n              gt\n              tag_137\n              jumpi\n              dup3\n              swap1\n              sub\n              0x1f\n              and\n              dup3\n              add\n              swap2\n            tag_135:\n              pop\n              pop\n              pop\n              pop\n              pop\n              dup2\n              jump\t// out\n                /* \"Flight.sol\":3366:3943  function buyEconomyTicket(... */\n            tag_47:\n                /* \"Flight.sol\":3541:3553  economyPrice */\n              sload(0x06)\n                /* \"Flight.sol\":3528:3537  msg.value */\n              callvalue\n                /* \"Flight.sol\":3528:3553  msg.value == economyPrice */\n              eq\n                /* \"Flight.sol\":3520:3554  require(msg.value == economyPrice) */\n              tag_139\n              jumpi\n              0x00\n              dup1\n              revert\n            tag_139:\n                /* \"Flight.sol\":3583:3584  0 */\n              0x00\n                /* \"Flight.sol\":3572:3580  capacity */\n              sload(0x08)\n                /* \"Flight.sol\":3572:3584  capacity > 0 */\n              gt\n                /* \"Flight.sol\":3564:3585  require(capacity > 0) */\n              tag_140\n              jumpi\n              0x00\n              dup1\n              revert\n            tag_140:\n                /* \"Flight.sol\":3595:3624  Passenger memory newPassenger */\n              0x00\n                /* \"Flight.sol\":3627:3829  Passenger({... */\n              mload(0x40)\n              dup1\n              0xa0\n              add\n              0x40\n              mstore\n              dup1\n                /* \"Flight.sol\":3663:3673  msg.sender */\n              caller\n                /* \"Flight.sol\":3627:3829  Passenger({... */\n              0xffffffffffffffffffffffffffffffffffffffff\n              and\n              dup2\n              mstore\n              0x20\n              add\n                /* \"Flight.sol\":3693:3697  name */\n              dup6\n                /* \"Flight.sol\":3627:3829  Passenger({... */\n              dup2\n              mstore\n              0x20\n              add\n                /* \"Flight.sol\":3720:3727  surname */\n              dup5\n                /* \"Flight.sol\":3627:3829  Passenger({... */\n              dup2\n              mstore\n              0x20\n              add\n                /* \"Flight.sol\":3757:3771  passportNumber */\n              dup4\n                /* \"Flight.sol\":3627:3829  Passenger({... */\n              dup2\n              mstore\n              0x20\n              add\n                /* \"Flight.sol\":3817:3818  1 */\n              0x01\n                /* \"Flight.sol\":3797:3807  passengers */\n              0x0a\n                /* \"Flight.sol\":3797:3814  passengers.length */\n              dup1\n              sload\n              swap1\n              pop\n                /* \"Flight.sol\":3797:3818  passengers.length + 1 */\n              tag_141\n              swap2\n              swap1\n              tag_88\n              jump\t// in\n            tag_141:\n                /* \"Flight.sol\":3627:3829  Passenger({... */\n              dup2\n              mstore\n              pop\n                /* \"Flight.sol\":3595:3829  Passenger memory newPassenger = Passenger({... */\n              swap1\n              pop\n                /* \"Flight.sol\":3839:3849  passengers */\n              0x0a\n                /* \"Flight.sol\":3855:3867  newPassenger */\n              dup2\n                /* \"Flight.sol\":3839:3868  passengers.push(newPassenger) */\n              swap1\n              dup1\n              0x01\n              dup2\n              sload\n              add\n              dup1\n              dup3\n              sstore\n              dup1\n              swap2\n              pop\n              pop\n              0x01\n              swap1\n              sub\n              swap1\n              0x00\n              mstore\n              keccak256(0x00, 0x20)\n              swap1\n              0x05\n              mul\n              add\n              0x00\n              swap1\n              swap2\n              swap1\n              swap2\n              swap1\n              swap2\n              pop\n              0x00\n              dup3\n              add\n              mload\n              dup2\n              0x00\n              add\n              exp(0x0100, 0x00)\n              dup2\n              sload\n              dup2\n              0xffffffffffffffffffffffffffffffffffffffff\n              mul\n              not\n              and\n              swap1\n              dup4\n              0xffffffffffffffffffffffffffffffffffffffff\n              and\n              mul\n              or\n              swap1\n              sstore\n              pop\n              0x20\n              dup3\n              add\n              mload\n              dup2\n              0x01\n              add\n              swap1\n              dup1\n              mload\n              swap1\n              0x20\n              add\n              swap1\n              tag_143\n              swap3\n              swap2\n              swap1\n              tag_91\n              jump\t// in\n            tag_143:\n              pop\n              0x40\n              dup3\n              add\n              mload\n              dup2\n              0x02\n              add\n              swap1\n              dup1\n              mload\n              swap1\n              0x20\n              add\n              swap1\n              tag_144\n              swap3\n              swap2\n              swap1\n              tag_91\n              jump\t// in\n            tag_144:\n              pop\n              0x60\n              dup3\n              add\n              mload\n              dup2\n              0x03\n              add\n              swap1\n              dup1\n              mload\n              swap1\n              0x20\n              add\n              swap1\n              tag_145\n              swap3\n              swap2\n              swap1\n              tag_91\n              jump\t// in\n            tag_145:\n              pop\n              0x80\n              dup3\n              add\n              mload\n              dup2\n              0x04\n              add\n              sstore\n              pop\n              pop\n                /* \"Flight.sol\":3878:3916  passengerClass[msg.sender] = \"economy\" */\n              mload(0x40)\n              dup1\n              0x40\n              add\n              0x40\n              mstore\n              dup1\n              0x07\n              dup2\n              mstore\n              0x20\n              add\n              0x65636f6e6f6d7900000000000000000000000000000000000000000000000000\n              dup2\n              mstore\n              pop\n                /* \"Flight.sol\":3878:3892  passengerClass */\n              0x09\n                /* \"Flight.sol\":3878:3904  passengerClass[msg.sender] */\n              0x00\n                /* \"Flight.sol\":3893:3903  msg.sender */\n              caller\n                /* \"Flight.sol\":3878:3904  passengerClass[msg.sender] */\n              0xffffffffffffffffffffffffffffffffffffffff\n              and\n              0xffffffffffffffffffffffffffffffffffffffff\n              and\n              dup2\n              mstore\n              0x20\n              add\n              swap1\n              dup2\n              mstore\n              0x20\n              add\n              0x00\n              keccak256\n                /* \"Flight.sol\":3878:3916  passengerClass[msg.sender] = \"economy\" */\n              swap1\n              dup1\n              mload\n              swap1\n              0x20\n              add\n              swap1\n              tag_146\n              swap3\n              swap2\n              swap1\n              tag_91\n              jump\t// in\n            tag_146:\n              pop\n                /* \"Flight.sol\":3926:3934  capacity */\n              0x08\n              0x00\n                /* \"Flight.sol\":3926:3936  capacity-- */\n              dup2\n              sload\n              dup1\n              swap3\n              swap2\n              swap1\n              tag_147\n              swap1\n              tag_96\n              jump\t// in\n            tag_147:\n              swap2\n              swap1\n              pop\n              sstore\n              pop\n                /* \"Flight.sol\":3510:3943  {... */\n              pop\n                /* \"Flight.sol\":3366:3943  function buyEconomyTicket(... */\n              pop\n              pop\n              pop\n              jump\t// out\n                /* \"Flight.sol\":3949:4034  function getCapacity() public view returns (uint256) {... */\n            tag_50:\n                /* \"Flight.sol\":3993:4000  uint256 */\n              0x00\n                /* \"Flight.sol\":4019:4027  capacity */\n              sload(0x08)\n                /* \"Flight.sol\":4012:4027  return capacity */\n              swap1\n              pop\n                /* \"Flight.sol\":3949:4034  function getCapacity() public view returns (uint256) {... */\n              swap1\n              jump\t// out\n                /* \"Flight.sol\":2022:2050  address public flightManager */\n            tag_54:\n              0x07\n              0x00\n              swap1\n              sload\n              swap1\n              0x0100\n              exp\n              swap1\n              div\n              0xffffffffffffffffffffffffffffffffffffffff\n              and\n              dup2\n              jump\t// out\n            tag_91:\n              dup3\n              dup1\n              sload\n              tag_149\n              swap1\n              tag_59\n              jump\t// in\n            tag_149:\n              swap1\n              0x00\n              mstore\n              keccak256(0x00, 0x20)\n              swap1\n              0x1f\n              add\n              0x20\n              swap1\n              div\n              dup2\n              add\n              swap3\n              dup3\n              tag_151\n              jumpi\n              0x00\n              dup6\n              sstore\n              jump(tag_150)\n            tag_151:\n              dup3\n              0x1f\n              lt\n              tag_152\n              jumpi\n              dup1\n              mload\n              not(0xff)\n              and\n              dup4\n              dup1\n              add\n              or\n              dup6\n              sstore\n              jump(tag_150)\n            tag_152:\n              dup3\n              dup1\n              add\n              0x01\n              add\n              dup6\n              sstore\n              dup3\n              iszero\n              tag_150\n              jumpi\n              swap2\n              dup3\n              add\n            tag_153:\n              dup3\n              dup2\n              gt\n              iszero\n              tag_154\n              jumpi\n              dup3\n              mload\n              dup3\n              sstore\n              swap2\n              0x20\n              add\n              swap2\n              swap1\n              0x01\n              add\n              swap1\n              jump(tag_153)\n            tag_154:\n            tag_150:\n              pop\n              swap1\n              pop\n              tag_155\n              swap2\n              swap1\n              tag_156\n              jump\t// in\n            tag_155:\n              pop\n              swap1\n              jump\t// out\n            tag_156:\n            tag_157:\n              dup1\n              dup3\n              gt\n              iszero\n              tag_158\n              jumpi\n              0x00\n              dup2\n              0x00\n              swap1\n              sstore\n              pop\n              0x01\n              add\n              jump(tag_157)\n            tag_158:\n              pop\n              swap1\n              jump\t// out\n                /* \"#utility.yul\":7:106   */\n            tag_159:\n                /* \"#utility.yul\":59:65   */\n              0x00\n                /* \"#utility.yul\":93:98   */\n              dup2\n                /* \"#utility.yul\":87:99   */\n              mload\n                /* \"#utility.yul\":77:99   */\n              swap1\n              pop\n                /* \"#utility.yul\":7:106   */\n              swap2\n              swap1\n              pop\n              jump\t// out\n                /* \"#utility.yul\":112:281   */\n            tag_160:\n                /* \"#utility.yul\":196:207   */\n              0x00\n                /* \"#utility.yul\":230:236   */\n              dup3\n                /* \"#utility.yul\":225:228   */\n              dup3\n                /* \"#utility.yul\":218:237   */\n              mstore\n                /* \"#utility.yul\":270:274   */\n              0x20\n                /* \"#utility.yul\":265:268   */\n              dup3\n                /* \"#utility.yul\":261:275   */\n              add\n                /* \"#utility.yul\":246:275   */\n              swap1\n              pop\n                /* \"#utility.yul\":112:281   */\n              swap3\n              swap2\n              pop\n              pop\n              jump\t// out\n                /* \"#utility.yul\":287:594   */\n            tag_161:\n                /* \"#utility.yul\":355:356   */\n              0x00\n                /* \"#utility.yul\":365:478   */\n            tag_202:\n                /* \"#utility.yul\":379:385   */\n              dup4\n                /* \"#utility.yul\":376:377   */\n              dup2\n                /* \"#utility.yul\":373:386   */\n              lt\n                /* \"#utility.yul\":365:478   */\n              iszero\n              tag_204\n              jumpi\n                /* \"#utility.yul\":464:465   */\n              dup1\n                /* \"#utility.yul\":459:462   */\n              dup3\n                /* \"#utility.yul\":455:466   */\n              add\n                /* \"#utility.yul\":449:467   */\n              mload\n                /* \"#utility.yul\":445:446   */\n              dup2\n                /* \"#utility.yul\":440:443   */\n              dup5\n                /* \"#utility.yul\":436:447   */\n              add\n                /* \"#utility.yul\":429:468   */\n              mstore\n                /* \"#utility.yul\":401:403   */\n              0x20\n                /* \"#utility.yul\":398:399   */\n              dup2\n                /* \"#utility.yul\":394:404   */\n              add\n                /* \"#utility.yul\":389:404   */\n              swap1\n              pop\n                /* \"#utility.yul\":365:478   */\n              jump(tag_202)\n            tag_204:\n                /* \"#utility.yul\":496:502   */\n              dup4\n                /* \"#utility.yul\":493:494   */\n              dup2\n                /* \"#utility.yul\":490:503   */\n              gt\n                /* \"#utility.yul\":487:588   */\n              iszero\n              tag_205\n              jumpi\n                /* \"#utility.yul\":576:577   */\n              0x00\n                /* \"#utility.yul\":567:573   */\n              dup5\n                /* \"#utility.yul\":562:565   */\n              dup5\n                /* \"#utility.yul\":558:574   */\n              add\n                /* \"#utility.yul\":551:578   */\n              mstore\n                /* \"#utility.yul\":487:588   */\n            tag_205:\n                /* \"#utility.yul\":336:594   */\n              pop\n                /* \"#utility.yul\":287:594   */\n              pop\n              pop\n              pop\n              jump\t// out\n                /* \"#utility.yul\":600:702   */\n            tag_162:\n                /* \"#utility.yul\":641:647   */\n              0x00\n                /* \"#utility.yul\":692:694   */\n              0x1f\n                /* \"#utility.yul\":688:695   */\n              not\n                /* \"#utility.yul\":683:685   */\n              0x1f\n                /* \"#utility.yul\":676:681   */\n              dup4\n                /* \"#utility.yul\":672:686   */\n              add\n                /* \"#utility.yul\":668:696   */\n              and\n                /* \"#utility.yul\":658:696   */\n              swap1\n              pop\n                /* \"#utility.yul\":600:702   */\n              swap2\n              swap1\n              pop\n              jump\t// out\n                /* \"#utility.yul\":708:1072   */\n            tag_163:\n                /* \"#utility.yul\":796:799   */\n              0x00\n                /* \"#utility.yul\":824:863   */\n              tag_208\n                /* \"#utility.yul\":857:862   */\n              dup3\n                /* \"#utility.yul\":824:863   */\n              tag_159\n              jump\t// in\n            tag_208:\n                /* \"#utility.yul\":879:950   */\n              tag_209\n                /* \"#utility.yul\":943:949   */\n              dup2\n                /* \"#utility.yul\":938:941   */\n              dup6\n                /* \"#utility.yul\":879:950   */\n              tag_160\n              jump\t// in\n            tag_209:\n                /* \"#utility.yul\":872:950   */\n              swap4\n              pop\n                /* \"#utility.yul\":959:1011   */\n              tag_210\n                /* \"#utility.yul\":1004:1010   */\n              dup2\n                /* \"#utility.yul\":999:1002   */\n              dup6\n                /* \"#utility.yul\":992:996   */\n              0x20\n                /* \"#utility.yul\":985:990   */\n              dup7\n                /* \"#utility.yul\":981:997   */\n              add\n                /* \"#utility.yul\":959:1011   */\n              tag_161\n              jump\t// in\n            tag_210:\n                /* \"#utility.yul\":1036:1065   */\n              tag_211\n                /* \"#utility.yul\":1058:1064   */\n              dup2\n                /* \"#utility.yul\":1036:1065   */\n              tag_162\n              jump\t// in\n            tag_211:\n                /* \"#utility.yul\":1031:1034   */\n              dup5\n                /* \"#utility.yul\":1027:1066   */\n              add\n                /* \"#utility.yul\":1020:1066   */\n              swap2\n              pop\n                /* \"#utility.yul\":800:1072   */\n              pop\n                /* \"#utility.yul\":708:1072   */\n              swap3\n              swap2\n              pop\n              pop\n              jump\t// out\n                /* \"#utility.yul\":1078:2197   */\n            tag_16:\n                /* \"#utility.yul\":1383:1387   */\n              0x00\n                /* \"#utility.yul\":1421:1424   */\n              0xa0\n                /* \"#utility.yul\":1410:1419   */\n              dup3\n                /* \"#utility.yul\":1406:1425   */\n              add\n                /* \"#utility.yul\":1398:1425   */\n              swap1\n              pop\n                /* \"#utility.yul\":1471:1480   */\n              dup2\n                /* \"#utility.yul\":1465:1469   */\n              dup2\n                /* \"#utility.yul\":1461:1481   */\n              sub\n                /* \"#utility.yul\":1457:1458   */\n              0x00\n                /* \"#utility.yul\":1446:1455   */\n              dup4\n                /* \"#utility.yul\":1442:1459   */\n              add\n                /* \"#utility.yul\":1435:1482   */\n              mstore\n                /* \"#utility.yul\":1499:1577   */\n              tag_213\n                /* \"#utility.yul\":1572:1576   */\n              dup2\n                /* \"#utility.yul\":1563:1569   */\n              dup9\n                /* \"#utility.yul\":1499:1577   */\n              tag_163\n              jump\t// in\n            tag_213:\n                /* \"#utility.yul\":1491:1577   */\n              swap1\n              pop\n                /* \"#utility.yul\":1624:1633   */\n              dup2\n                /* \"#utility.yul\":1618:1622   */\n              dup2\n                /* \"#utility.yul\":1614:1634   */\n              sub\n                /* \"#utility.yul\":1609:1611   */\n              0x20\n                /* \"#utility.yul\":1598:1607   */\n              dup4\n                /* \"#utility.yul\":1594:1612   */\n              add\n                /* \"#utility.yul\":1587:1635   */\n              mstore\n                /* \"#utility.yul\":1652:1730   */\n              tag_214\n                /* \"#utility.yul\":1725:1729   */\n              dup2\n                /* \"#utility.yul\":1716:1722   */\n              dup8\n                /* \"#utility.yul\":1652:1730   */\n              tag_163\n              jump\t// in\n            tag_214:\n                /* \"#utility.yul\":1644:1730   */\n              swap1\n              pop\n                /* \"#utility.yul\":1777:1786   */\n              dup2\n                /* \"#utility.yul\":1771:1775   */\n              dup2\n                /* \"#utility.yul\":1767:1787   */\n              sub\n                /* \"#utility.yul\":1762:1764   */\n              0x40\n                /* \"#utility.yul\":1751:1760   */\n              dup4\n                /* \"#utility.yul\":1747:1765   */\n              add\n                /* \"#utility.yul\":1740:1788   */\n              mstore\n                /* \"#utility.yul\":1805:1883   */\n              tag_215\n                /* \"#utility.yul\":1878:1882   */\n              dup2\n                /* \"#utility.yul\":1869:1875   */\n              dup7\n                /* \"#utility.yul\":1805:1883   */\n              tag_163\n              jump\t// in\n            tag_215:\n                /* \"#utility.yul\":1797:1883   */\n              swap1\n              pop\n                /* \"#utility.yul\":1930:1939   */\n              dup2\n                /* \"#utility.yul\":1924:1928   */\n              dup2\n                /* \"#utility.yul\":1920:1940   */\n              sub\n                /* \"#utility.yul\":1915:1917   */\n              0x60\n                /* \"#utility.yul\":1904:1913   */\n              dup4\n                /* \"#utility.yul\":1900:1918   */\n              add\n                /* \"#utility.yul\":1893:1941   */\n              mstore\n                /* \"#utility.yul\":1958:2036   */\n              tag_216\n                /* \"#utility.yul\":2031:2035   */\n              dup2\n                /* \"#utility.yul\":2022:2028   */\n              dup6\n                /* \"#utility.yul\":1958:2036   */\n              tag_163\n              jump\t// in\n            tag_216:\n                /* \"#utility.yul\":1950:2036   */\n              swap1\n              pop\n                /* \"#utility.yul\":2084:2093   */\n              dup2\n                /* \"#utility.yul\":2078:2082   */\n              dup2\n                /* \"#utility.yul\":2074:2094   */\n              sub\n                /* \"#utility.yul\":2068:2071   */\n              0x80\n                /* \"#utility.yul\":2057:2066   */\n              dup4\n                /* \"#utility.yul\":2053:2072   */\n              add\n                /* \"#utility.yul\":2046:2095   */\n              mstore\n                /* \"#utility.yul\":2112:2190   */\n              tag_217\n                /* \"#utility.yul\":2185:2189   */\n              dup2\n                /* \"#utility.yul\":2176:2182   */\n              dup5\n                /* \"#utility.yul\":2112:2190   */\n              tag_163\n              jump\t// in\n            tag_217:\n                /* \"#utility.yul\":2104:2190   */\n              swap1\n              pop\n                /* \"#utility.yul\":1078:2197   */\n              swap7\n              swap6\n              pop\n              pop\n              pop\n              pop\n              pop\n              pop\n              jump\t// out\n                /* \"#utility.yul\":2203:2278   */\n            tag_164:\n                /* \"#utility.yul\":2236:2242   */\n              0x00\n                /* \"#utility.yul\":2269:2271   */\n              0x40\n                /* \"#utility.yul\":2263:2272   */\n              mload\n                /* \"#utility.yul\":2253:2272   */\n              swap1\n              pop\n                /* \"#utility.yul\":2203:2278   */\n              swap1\n              jump\t// out\n                /* \"#utility.yul\":2284:2401   */\n            tag_165:\n                /* \"#utility.yul\":2393:2394   */\n              0x00\n                /* \"#utility.yul\":2390:2391   */\n              dup1\n                /* \"#utility.yul\":2383:2395   */\n              revert\n                /* \"#utility.yul\":2407:2524   */\n            tag_166:\n                /* \"#utility.yul\":2516:2517   */\n              0x00\n                /* \"#utility.yul\":2513:2514   */\n              dup1\n                /* \"#utility.yul\":2506:2518   */\n              revert\n                /* \"#utility.yul\":2530:2647   */\n            tag_167:\n                /* \"#utility.yul\":2639:2640   */\n              0x00\n                /* \"#utility.yul\":2636:2637   */\n              dup1\n                /* \"#utility.yul\":2629:2641   */\n              revert\n                /* \"#utility.yul\":2653:2770   */\n            tag_168:\n                /* \"#utility.yul\":2762:2763   */\n              0x00\n                /* \"#utility.yul\":2759:2760   */\n              dup1\n                /* \"#utility.yul\":2752:2764   */\n              revert\n                /* \"#utility.yul\":2776:2956   */\n            tag_169:\n                /* \"#utility.yul\":2824:2901   */\n              0x4e487b7100000000000000000000000000000000000000000000000000000000\n                /* \"#utility.yul\":2821:2822   */\n              0x00\n                /* \"#utility.yul\":2814:2902   */\n              mstore\n                /* \"#utility.yul\":2921:2925   */\n              0x41\n                /* \"#utility.yul\":2918:2919   */\n              0x04\n                /* \"#utility.yul\":2911:2926   */\n              mstore\n                /* \"#utility.yul\":2945:2949   */\n              0x24\n                /* \"#utility.yul\":2942:2943   */\n              0x00\n                /* \"#utility.yul\":2935:2950   */\n              revert\n                /* \"#utility.yul\":2962:3243   */\n            tag_170:\n                /* \"#utility.yul\":3045:3072   */\n              tag_225\n                /* \"#utility.yul\":3067:3071   */\n              dup3\n                /* \"#utility.yul\":3045:3072   */\n              tag_162\n              jump\t// in\n            tag_225:\n                /* \"#utility.yul\":3037:3043   */\n              dup2\n                /* \"#utility.yul\":3033:3073   */\n              add\n                /* \"#utility.yul\":3175:3181   */\n              dup2\n                /* \"#utility.yul\":3163:3173   */\n              dup2\n                /* \"#utility.yul\":3160:3182   */\n              lt\n                /* \"#utility.yul\":3139:3157   */\n              0xffffffffffffffff\n                /* \"#utility.yul\":3127:3137   */\n              dup3\n                /* \"#utility.yul\":3124:3158   */\n              gt\n                /* \"#utility.yul\":3121:3183   */\n              or\n                /* \"#utility.yul\":3118:3206   */\n              iszero\n              tag_226\n              jumpi\n                /* \"#utility.yul\":3186:3204   */\n              tag_227\n              tag_169\n              jump\t// in\n            tag_227:\n                /* \"#utility.yul\":3118:3206   */\n            tag_226:\n                /* \"#utility.yul\":3226:3236   */\n              dup1\n                /* \"#utility.yul\":3222:3224   */\n              0x40\n                /* \"#utility.yul\":3215:3237   */\n              mstore\n                /* \"#utility.yul\":3005:3243   */\n              pop\n                /* \"#utility.yul\":2962:3243   */\n              pop\n              pop\n              jump\t// out\n                /* \"#utility.yul\":3249:3378   */\n            tag_171:\n                /* \"#utility.yul\":3283:3289   */\n              0x00\n                /* \"#utility.yul\":3310:3330   */\n              tag_229\n              tag_164\n              jump\t// in\n            tag_229:\n                /* \"#utility.yul\":3300:3330   */\n              swap1\n              pop\n                /* \"#utility.yul\":3339:3372   */\n              tag_230\n                /* \"#utility.yul\":3367:3371   */\n              dup3\n                /* \"#utility.yul\":3359:3365   */\n              dup3\n                /* \"#utility.yul\":3339:3372   */\n              tag_170\n              jump\t// in\n            tag_230:\n                /* \"#utility.yul\":3249:3378   */\n              swap2\n              swap1\n              pop\n              jump\t// out\n                /* \"#utility.yul\":3384:3692   */\n            tag_172:\n                /* \"#utility.yul\":3446:3450   */\n              0x00\n                /* \"#utility.yul\":3536:3554   */\n              0xffffffffffffffff\n                /* \"#utility.yul\":3528:3534   */\n              dup3\n                /* \"#utility.yul\":3525:3555   */\n              gt\n                /* \"#utility.yul\":3522:3578   */\n              iszero\n              tag_232\n              jumpi\n                /* \"#utility.yul\":3558:3576   */\n              tag_233\n              tag_169\n              jump\t// in\n            tag_233:\n                /* \"#utility.yul\":3522:3578   */\n            tag_232:\n                /* \"#utility.yul\":3596:3625   */\n              tag_234\n                /* \"#utility.yul\":3618:3624   */\n              dup3\n                /* \"#utility.yul\":3596:3625   */\n              tag_162\n              jump\t// in\n            tag_234:\n                /* \"#utility.yul\":3588:3625   */\n              swap1\n              pop\n                /* \"#utility.yul\":3680:3684   */\n              0x20\n                /* \"#utility.yul\":3674:3678   */\n              dup2\n                /* \"#utility.yul\":3670:3685   */\n              add\n                /* \"#utility.yul\":3662:3685   */\n              swap1\n              pop\n                /* \"#utility.yul\":3384:3692   */\n              swap2\n              swap1\n              pop\n              jump\t// out\n                /* \"#utility.yul\":3698:3852   */\n            tag_173:\n                /* \"#utility.yul\":3782:3788   */\n              dup3\n                /* \"#utility.yul\":3777:3780   */\n              dup2\n                /* \"#utility.yul\":3772:3775   */\n              dup4\n                /* \"#utility.yul\":3759:3789   */\n              calldatacopy\n                /* \"#utility.yul\":3844:3845   */\n              0x00\n                /* \"#utility.yul\":3835:3841   */\n              dup4\n                /* \"#utility.yul\":3830:3833   */\n              dup4\n                /* \"#utility.yul\":3826:3842   */\n              add\n                /* \"#utility.yul\":3819:3846   */\n              mstore\n                /* \"#utility.yul\":3698:3852   */\n              pop\n              pop\n              pop\n              jump\t// out\n                /* \"#utility.yul\":3858:4270   */\n            tag_174:\n                /* \"#utility.yul\":3936:3941   */\n              0x00\n                /* \"#utility.yul\":3961:4027   */\n              tag_237\n                /* \"#utility.yul\":3977:4026   */\n              tag_238\n                /* \"#utility.yul\":4019:4025   */\n              dup5\n                /* \"#utility.yul\":3977:4026   */\n              tag_172\n              jump\t// in\n            tag_238:\n                /* \"#utility.yul\":3961:4027   */\n              tag_171\n              jump\t// in\n            tag_237:\n                /* \"#utility.yul\":3952:4027   */\n              swap1\n              pop\n                /* \"#utility.yul\":4050:4056   */\n              dup3\n                /* \"#utility.yul\":4043:4048   */\n              dup2\n                /* \"#utility.yul\":4036:4057   */\n              mstore\n                /* \"#utility.yul\":4088:4092   */\n              0x20\n                /* \"#utility.yul\":4081:4086   */\n              dup2\n                /* \"#utility.yul\":4077:4093   */\n              add\n                /* \"#utility.yul\":4126:4129   */\n              dup5\n                /* \"#utility.yul\":4117:4123   */\n              dup5\n                /* \"#utility.yul\":4112:4115   */\n              dup5\n                /* \"#utility.yul\":4108:4124   */\n              add\n                /* \"#utility.yul\":4105:4130   */\n              gt\n                /* \"#utility.yul\":4102:4214   */\n              iszero\n              tag_239\n              jumpi\n                /* \"#utility.yul\":4133:4212   */\n              tag_240\n              tag_168\n              jump\t// in\n            tag_240:\n                /* \"#utility.yul\":4102:4214   */\n            tag_239:\n                /* \"#utility.yul\":4223:4264   */\n              tag_241\n                /* \"#utility.yul\":4257:4263   */\n              dup5\n                /* \"#utility.yul\":4252:4255   */\n              dup3\n                /* \"#utility.yul\":4247:4250   */\n              dup6\n                /* \"#utility.yul\":4223:4264   */\n              tag_173\n              jump\t// in\n            tag_241:\n                /* \"#utility.yul\":3942:4270   */\n              pop\n                /* \"#utility.yul\":3858:4270   */\n              swap4\n              swap3\n              pop\n              pop\n              pop\n              jump\t// out\n                /* \"#utility.yul\":4290:4630   */\n            tag_175:\n                /* \"#utility.yul\":4346:4351   */\n              0x00\n                /* \"#utility.yul\":4395:4398   */\n              dup3\n                /* \"#utility.yul\":4388:4392   */\n              0x1f\n                /* \"#utility.yul\":4380:4386   */\n              dup4\n                /* \"#utility.yul\":4376:4393   */\n              add\n                /* \"#utility.yul\":4372:4399   */\n              slt\n                /* \"#utility.yul\":4362:4484   */\n              tag_243\n              jumpi\n                /* \"#utility.yul\":4403:4482   */\n              tag_244\n              tag_167\n              jump\t// in\n            tag_244:\n                /* \"#utility.yul\":4362:4484   */\n            tag_243:\n                /* \"#utility.yul\":4520:4526   */\n              dup2\n                /* \"#utility.yul\":4507:4527   */\n              calldataload\n                /* \"#utility.yul\":4545:4624   */\n              tag_245\n                /* \"#utility.yul\":4620:4623   */\n              dup5\n                /* \"#utility.yul\":4612:4618   */\n              dup3\n                /* \"#utility.yul\":4605:4609   */\n              0x20\n                /* \"#utility.yul\":4597:4603   */\n              dup7\n                /* \"#utility.yul\":4593:4610   */\n              add\n                /* \"#utility.yul\":4545:4624   */\n              tag_174\n              jump\t// in\n            tag_245:\n                /* \"#utility.yul\":4536:4624   */\n              swap2\n              pop\n                /* \"#utility.yul\":4352:4630   */\n              pop\n                /* \"#utility.yul\":4290:4630   */\n              swap3\n              swap2\n              pop\n              pop\n              jump\t// out\n                /* \"#utility.yul\":4636:5795   */\n            tag_19:\n                /* \"#utility.yul\":4743:4749   */\n              0x00\n                /* \"#utility.yul\":4751:4757   */\n              dup1\n                /* \"#utility.yul\":4759:4765   */\n              0x00\n                /* \"#utility.yul\":4808:4810   */\n              0x60\n                /* \"#utility.yul\":4796:4805   */\n              dup5\n                /* \"#utility.yul\":4787:4794   */\n              dup7\n                /* \"#utility.yul\":4783:4806   */\n              sub\n                /* \"#utility.yul\":4779:4811   */\n              slt\n                /* \"#utility.yul\":4776:4895   */\n              iszero\n              tag_247\n              jumpi\n                /* \"#utility.yul\":4814:4893   */\n              tag_248\n              tag_165\n              jump\t// in\n            tag_248:\n                /* \"#utility.yul\":4776:4895   */\n            tag_247:\n                /* \"#utility.yul\":4962:4963   */\n              0x00\n                /* \"#utility.yul\":4951:4960   */\n              dup5\n                /* \"#utility.yul\":4947:4964   */\n              add\n                /* \"#utility.yul\":4934:4965   */\n              calldataload\n                /* \"#utility.yul\":4992:5010   */\n              0xffffffffffffffff\n                /* \"#utility.yul\":4984:4990   */\n              dup2\n                /* \"#utility.yul\":4981:5011   */\n              gt\n                /* \"#utility.yul\":4978:5095   */\n              iszero\n              tag_249\n              jumpi\n                /* \"#utility.yul\":5014:5093   */\n              tag_250\n              tag_166\n              jump\t// in\n            tag_250:\n                /* \"#utility.yul\":4978:5095   */\n            tag_249:\n                /* \"#utility.yul\":5119:5182   */\n              tag_251\n                /* \"#utility.yul\":5174:5181   */\n              dup7\n                /* \"#utility.yul\":5165:5171   */\n              dup3\n                /* \"#utility.yul\":5154:5163   */\n              dup8\n                /* \"#utility.yul\":5150:5172   */\n              add\n                /* \"#utility.yul\":5119:5182   */\n              tag_175\n              jump\t// in\n            tag_251:\n                /* \"#utility.yul\":5109:5182   */\n              swap4\n              pop\n                /* \"#utility.yul\":4905:5192   */\n              pop\n                /* \"#utility.yul\":5259:5261   */\n              0x20\n                /* \"#utility.yul\":5248:5257   */\n              dup5\n                /* \"#utility.yul\":5244:5262   */\n              add\n                /* \"#utility.yul\":5231:5263   */\n              calldataload\n                /* \"#utility.yul\":5290:5308   */\n              0xffffffffffffffff\n                /* \"#utility.yul\":5282:5288   */\n              dup2\n                /* \"#utility.yul\":5279:5309   */\n              gt\n                /* \"#utility.yul\":5276:5393   */\n              iszero\n              tag_252\n              jumpi\n                /* \"#utility.yul\":5312:5391   */\n              tag_253\n              tag_166\n              jump\t// in\n            tag_253:\n                /* \"#utility.yul\":5276:5393   */\n            tag_252:\n                /* \"#utility.yul\":5417:5480   */\n              tag_254\n                /* \"#utility.yul\":5472:5479   */\n              dup7\n                /* \"#utility.yul\":5463:5469   */\n              dup3\n                /* \"#utility.yul\":5452:5461   */\n              dup8\n                /* \"#utility.yul\":5448:5470   */\n              add\n                /* \"#utility.yul\":5417:5480   */\n              tag_175\n              jump\t// in\n            tag_254:\n                /* \"#utility.yul\":5407:5480   */\n              swap3\n              pop\n                /* \"#utility.yul\":5202:5490   */\n              pop\n                /* \"#utility.yul\":5557:5559   */\n              0x40\n                /* \"#utility.yul\":5546:5555   */\n              dup5\n                /* \"#utility.yul\":5542:5560   */\n              add\n                /* \"#utility.yul\":5529:5561   */\n              calldataload\n                /* \"#utility.yul\":5588:5606   */\n              0xffffffffffffffff\n                /* \"#utility.yul\":5580:5586   */\n              dup2\n                /* \"#utility.yul\":5577:5607   */\n              gt\n                /* \"#utility.yul\":5574:5691   */\n              iszero\n              tag_255\n              jumpi\n                /* \"#utility.yul\":5610:5689   */\n              tag_256\n              tag_166\n              jump\t// in\n            tag_256:\n                /* \"#utility.yul\":5574:5691   */\n            tag_255:\n                /* \"#utility.yul\":5715:5778   */\n              tag_257\n                /* \"#utility.yul\":5770:5777   */\n              dup7\n                /* \"#utility.yul\":5761:5767   */\n              dup3\n                /* \"#utility.yul\":5750:5759   */\n              dup8\n                /* \"#utility.yul\":5746:5768   */\n              add\n                /* \"#utility.yul\":5715:5778   */\n              tag_175\n              jump\t// in\n            tag_257:\n                /* \"#utility.yul\":5705:5778   */\n              swap2\n              pop\n                /* \"#utility.yul\":5500:5788   */\n              pop\n                /* \"#utility.yul\":4636:5795   */\n              swap3\n              pop\n              swap3\n              pop\n              swap3\n              jump\t// out\n                /* \"#utility.yul\":5801:5878   */\n            tag_176:\n                /* \"#utility.yul\":5838:5845   */\n              0x00\n                /* \"#utility.yul\":5867:5872   */\n              dup2\n                /* \"#utility.yul\":5856:5872   */\n              swap1\n              pop\n                /* \"#utility.yul\":5801:5878   */\n              swap2\n              swap1\n              pop\n              jump\t// out\n                /* \"#utility.yul\":5884:6002   */\n            tag_177:\n                /* \"#utility.yul\":5971:5995   */\n              tag_260\n                /* \"#utility.yul\":5989:5994   */\n              dup2\n                /* \"#utility.yul\":5971:5995   */\n              tag_176\n              jump\t// in\n            tag_260:\n                /* \"#utility.yul\":5966:5969   */\n              dup3\n                /* \"#utility.yul\":5959:5996   */\n              mstore\n                /* \"#utility.yul\":5884:6002   */\n              pop\n              pop\n              jump\t// out\n                /* \"#utility.yul\":6008:6230   */\n            tag_25:\n                /* \"#utility.yul\":6101:6105   */\n              0x00\n                /* \"#utility.yul\":6139:6141   */\n              0x20\n                /* \"#utility.yul\":6128:6137   */\n              dup3\n                /* \"#utility.yul\":6124:6142   */\n              add\n                /* \"#utility.yul\":6116:6142   */\n              swap1\n              pop\n                /* \"#utility.yul\":6152:6223   */\n              tag_262\n                /* \"#utility.yul\":6220:6221   */\n              0x00\n                /* \"#utility.yul\":6209:6218   */\n              dup4\n                /* \"#utility.yul\":6205:6222   */\n              add\n                /* \"#utility.yul\":6196:6202   */\n              dup5\n                /* \"#utility.yul\":6152:6223   */\n              tag_177\n              jump\t// in\n            tag_262:\n                /* \"#utility.yul\":6008:6230   */\n              swap3\n              swap2\n              pop\n              pop\n              jump\t// out\n                /* \"#utility.yul\":6236:6376   */\n            tag_178:\n                /* \"#utility.yul\":6329:6335   */\n              0x00\n                /* \"#utility.yul\":6363:6368   */\n              dup2\n                /* \"#utility.yul\":6357:6369   */\n              mload\n                /* \"#utility.yul\":6347:6369   */\n              swap1\n              pop\n                /* \"#utility.yul\":6236:6376   */\n              swap2\n              swap1\n              pop\n              jump\t// out\n                /* \"#utility.yul\":6382:6592   */\n            tag_179:\n                /* \"#utility.yul\":6507:6518   */\n              0x00\n                /* \"#utility.yul\":6541:6547   */\n              dup3\n                /* \"#utility.yul\":6536:6539   */\n              dup3\n                /* \"#utility.yul\":6529:6548   */\n              mstore\n                /* \"#utility.yul\":6581:6585   */\n              0x20\n                /* \"#utility.yul\":6576:6579   */\n              dup3\n                /* \"#utility.yul\":6572:6586   */\n              add\n                /* \"#utility.yul\":6557:6586   */\n              swap1\n              pop\n                /* \"#utility.yul\":6382:6592   */\n              swap3\n              swap2\n              pop\n              pop\n              jump\t// out\n                /* \"#utility.yul\":6598:6756   */\n            tag_180:\n                /* \"#utility.yul\":6691:6695   */\n              0x00\n                /* \"#utility.yul\":6714:6717   */\n              dup2\n                /* \"#utility.yul\":6706:6717   */\n              swap1\n              pop\n                /* \"#utility.yul\":6744:6748   */\n              0x20\n                /* \"#utility.yul\":6739:6742   */\n              dup3\n                /* \"#utility.yul\":6735:6749   */\n              add\n                /* \"#utility.yul\":6727:6749   */\n              swap1\n              pop\n                /* \"#utility.yul\":6598:6756   */\n              swap2\n              swap1\n              pop\n              jump\t// out\n                /* \"#utility.yul\":6762:6888   */\n            tag_181:\n                /* \"#utility.yul\":6799:6806   */\n              0x00\n                /* \"#utility.yul\":6839:6881   */\n              0xffffffffffffffffffffffffffffffffffffffff\n                /* \"#utility.yul\":6832:6837   */\n              dup3\n                /* \"#utility.yul\":6828:6882   */\n              and\n                /* \"#utility.yul\":6817:6882   */\n              swap1\n              pop\n                /* \"#utility.yul\":6762:6888   */\n              swap2\n              swap1\n              pop\n              jump\t// out\n                /* \"#utility.yul\":6894:6990   */\n            tag_182:\n                /* \"#utility.yul\":6931:6938   */\n              0x00\n                /* \"#utility.yul\":6960:6984   */\n              tag_268\n                /* \"#utility.yul\":6978:6983   */\n              dup3\n                /* \"#utility.yul\":6960:6984   */\n              tag_181\n              jump\t// in\n            tag_268:\n                /* \"#utility.yul\":6949:6984   */\n              swap1\n              pop\n                /* \"#utility.yul\":6894:6990   */\n              swap2\n              swap1\n              pop\n              jump\t// out\n                /* \"#utility.yul\":6996:7104   */\n            tag_183:\n                /* \"#utility.yul\":7073:7097   */\n              tag_270\n                /* \"#utility.yul\":7091:7096   */\n              dup2\n                /* \"#utility.yul\":7073:7097   */\n              tag_182\n              jump\t// in\n            tag_270:\n                /* \"#utility.yul\":7068:7071   */\n              dup3\n                /* \"#utility.yul\":7061:7098   */\n              mstore\n                /* \"#utility.yul\":6996:7104   */\n              pop\n              pop\n              jump\t// out\n                /* \"#utility.yul\":7110:7269   */\n            tag_184:\n                /* \"#utility.yul\":7184:7195   */\n              0x00\n                /* \"#utility.yul\":7218:7224   */\n              dup3\n                /* \"#utility.yul\":7213:7216   */\n              dup3\n                /* \"#utility.yul\":7206:7225   */\n              mstore\n                /* \"#utility.yul\":7258:7262   */\n              0x20\n                /* \"#utility.yul\":7253:7256   */\n              dup3\n                /* \"#utility.yul\":7249:7263   */\n              add\n                /* \"#utility.yul\":7234:7263   */\n              swap1\n              pop\n                /* \"#utility.yul\":7110:7269   */\n              swap3\n              swap2\n              pop\n              pop\n              jump\t// out\n                /* \"#utility.yul\":7275:7619   */\n            tag_185:\n                /* \"#utility.yul\":7353:7356   */\n              0x00\n                /* \"#utility.yul\":7381:7420   */\n              tag_273\n                /* \"#utility.yul\":7414:7419   */\n              dup3\n                /* \"#utility.yul\":7381:7420   */\n              tag_159\n              jump\t// in\n            tag_273:\n                /* \"#utility.yul\":7436:7497   */\n              tag_274\n                /* \"#utility.yul\":7490:7496   */\n              dup2\n                /* \"#utility.yul\":7485:7488   */\n              dup6\n                /* \"#utility.yul\":7436:7497   */\n              tag_184\n              jump\t// in\n            tag_274:\n                /* \"#utility.yul\":7429:7497   */\n              swap4\n              pop\n                /* \"#utility.yul\":7506:7558   */\n              tag_275\n                /* \"#utility.yul\":7551:7557   */\n              dup2\n                /* \"#utility.yul\":7546:7549   */\n              dup6\n                /* \"#utility.yul\":7539:7543   */\n              0x20\n                /* \"#utility.yul\":7532:7537   */\n              dup7\n                /* \"#utility.yul\":7528:7544   */\n              add\n                /* \"#utility.yul\":7506:7558   */\n              tag_161\n              jump\t// in\n            tag_275:\n                /* \"#utility.yul\":7583:7612   */\n              tag_276\n                /* \"#utility.yul\":7605:7611   */\n              dup2\n                /* \"#utility.yul\":7583:7612   */\n              tag_162\n              jump\t// in\n            tag_276:\n                /* \"#utility.yul\":7578:7581   */\n              dup5\n                /* \"#utility.yul\":7574:7613   */\n              add\n                /* \"#utility.yul\":7567:7613   */\n              swap2\n              pop\n                /* \"#utility.yul\":7357:7619   */\n              pop\n                /* \"#utility.yul\":7275:7619   */\n              swap3\n              swap2\n              pop\n              pop\n              jump\t// out\n                /* \"#utility.yul\":7625:7733   */\n            tag_186:\n                /* \"#utility.yul\":7702:7726   */\n              tag_278\n                /* \"#utility.yul\":7720:7725   */\n              dup2\n                /* \"#utility.yul\":7702:7726   */\n              tag_176\n              jump\t// in\n            tag_278:\n                /* \"#utility.yul\":7697:7700   */\n              dup3\n                /* \"#utility.yul\":7690:7727   */\n              mstore\n                /* \"#utility.yul\":7625:7733   */\n              pop\n              pop\n              jump\t// out\n                /* \"#utility.yul\":7797:9084   */\n            tag_187:\n                /* \"#utility.yul\":7908:7911   */\n              0x00\n                /* \"#utility.yul\":7944:7948   */\n              0xa0\n                /* \"#utility.yul\":7939:7942   */\n              dup4\n                /* \"#utility.yul\":7935:7949   */\n              add\n                /* \"#utility.yul\":8037:8041   */\n              0x00\n                /* \"#utility.yul\":8030:8035   */\n              dup4\n                /* \"#utility.yul\":8026:8042   */\n              add\n                /* \"#utility.yul\":8020:8043   */\n              mload\n                /* \"#utility.yul\":8056:8119   */\n              tag_280\n                /* \"#utility.yul\":8113:8117   */\n              0x00\n                /* \"#utility.yul\":8108:8111   */\n              dup7\n                /* \"#utility.yul\":8104:8118   */\n              add\n                /* \"#utility.yul\":8090:8102   */\n              dup3\n                /* \"#utility.yul\":8056:8119   */\n              tag_183\n              jump\t// in\n            tag_280:\n                /* \"#utility.yul\":7959:8129   */\n              pop\n                /* \"#utility.yul\":8211:8215   */\n              0x20\n                /* \"#utility.yul\":8204:8209   */\n              dup4\n                /* \"#utility.yul\":8200:8216   */\n              add\n                /* \"#utility.yul\":8194:8217   */\n              mload\n                /* \"#utility.yul\":8264:8267   */\n              dup5\n                /* \"#utility.yul\":8258:8262   */\n              dup3\n                /* \"#utility.yul\":8254:8268   */\n              sub\n                /* \"#utility.yul\":8247:8251   */\n              0x20\n                /* \"#utility.yul\":8242:8245   */\n              dup7\n                /* \"#utility.yul\":8238:8252   */\n              add\n                /* \"#utility.yul\":8231:8269   */\n              mstore\n                /* \"#utility.yul\":8290:8363   */\n              tag_281\n                /* \"#utility.yul\":8358:8362   */\n              dup3\n                /* \"#utility.yul\":8344:8356   */\n              dup3\n                /* \"#utility.yul\":8290:8363   */\n              tag_185\n              jump\t// in\n            tag_281:\n                /* \"#utility.yul\":8282:8363   */\n              swap2\n              pop\n                /* \"#utility.yul\":8139:8374   */\n              pop\n                /* \"#utility.yul\":8459:8463   */\n              0x40\n                /* \"#utility.yul\":8452:8457   */\n              dup4\n                /* \"#utility.yul\":8448:8464   */\n              add\n                /* \"#utility.yul\":8442:8465   */\n              mload\n                /* \"#utility.yul\":8512:8515   */\n              dup5\n                /* \"#utility.yul\":8506:8510   */\n              dup3\n                /* \"#utility.yul\":8502:8516   */\n              sub\n                /* \"#utility.yul\":8495:8499   */\n              0x40\n                /* \"#utility.yul\":8490:8493   */\n              dup7\n                /* \"#utility.yul\":8486:8500   */\n              add\n                /* \"#utility.yul\":8479:8517   */\n              mstore\n                /* \"#utility.yul\":8538:8611   */\n              tag_282\n                /* \"#utility.yul\":8606:8610   */\n              dup3\n                /* \"#utility.yul\":8592:8604   */\n              dup3\n                /* \"#utility.yul\":8538:8611   */\n              tag_185\n              jump\t// in\n            tag_282:\n                /* \"#utility.yul\":8530:8611   */\n              swap2\n              pop\n                /* \"#utility.yul\":8384:8622   */\n              pop\n                /* \"#utility.yul\":8714:8718   */\n              0x60\n                /* \"#utility.yul\":8707:8712   */\n              dup4\n                /* \"#utility.yul\":8703:8719   */\n              add\n                /* \"#utility.yul\":8697:8720   */\n              mload\n                /* \"#utility.yul\":8767:8770   */\n              dup5\n                /* \"#utility.yul\":8761:8765   */\n              dup3\n                /* \"#utility.yul\":8757:8771   */\n              sub\n                /* \"#utility.yul\":8750:8754   */\n              0x60\n                /* \"#utility.yul\":8745:8748   */\n              dup7\n                /* \"#utility.yul\":8741:8755   */\n              add\n                /* \"#utility.yul\":8734:8772   */\n              mstore\n                /* \"#utility.yul\":8793:8866   */\n              tag_283\n                /* \"#utility.yul\":8861:8865   */\n              dup3\n                /* \"#utility.yul\":8847:8859   */\n              dup3\n                /* \"#utility.yul\":8793:8866   */\n              tag_185\n              jump\t// in\n            tag_283:\n                /* \"#utility.yul\":8785:8866   */\n              swap2\n              pop\n                /* \"#utility.yul\":8632:8877   */\n              pop\n                /* \"#utility.yul\":8965:8969   */\n              0x80\n                /* \"#utility.yul\":8958:8963   */\n              dup4\n                /* \"#utility.yul\":8954:8970   */\n              add\n                /* \"#utility.yul\":8948:8971   */\n              mload\n                /* \"#utility.yul\":8984:9047   */\n              tag_284\n                /* \"#utility.yul\":9041:9045   */\n              0x80\n                /* \"#utility.yul\":9036:9039   */\n              dup7\n                /* \"#utility.yul\":9032:9046   */\n              add\n                /* \"#utility.yul\":9018:9030   */\n              dup3\n                /* \"#utility.yul\":8984:9047   */\n              tag_186\n              jump\t// in\n            tag_284:\n                /* \"#utility.yul\":8887:9057   */\n              pop\n                /* \"#utility.yul\":9074:9078   */\n              dup1\n                /* \"#utility.yul\":9067:9078   */\n              swap2\n              pop\n                /* \"#utility.yul\":7913:9084   */\n              pop\n                /* \"#utility.yul\":7797:9084   */\n              swap3\n              swap2\n              pop\n              pop\n              jump\t// out\n                /* \"#utility.yul\":9090:9350   */\n            tag_188:\n                /* \"#utility.yul\":9211:9221   */\n              0x00\n                /* \"#utility.yul\":9246:9344   */\n              tag_286\n                /* \"#utility.yul\":9340:9343   */\n              dup4\n                /* \"#utility.yul\":9332:9338   */\n              dup4\n                /* \"#utility.yul\":9246:9344   */\n              tag_187\n              jump\t// in\n            tag_286:\n                /* \"#utility.yul\":9232:9344   */\n              swap1\n              pop\n                /* \"#utility.yul\":9090:9350   */\n              swap3\n              swap2\n              pop\n              pop\n              jump\t// out\n                /* \"#utility.yul\":9356:9495   */\n            tag_189:\n                /* \"#utility.yul\":9452:9456   */\n              0x00\n                /* \"#utility.yul\":9484:9488   */\n              0x20\n                /* \"#utility.yul\":9479:9482   */\n              dup3\n                /* \"#utility.yul\":9475:9489   */\n              add\n                /* \"#utility.yul\":9467:9489   */\n              swap1\n              pop\n                /* \"#utility.yul\":9356:9495   */\n              swap2\n              swap1\n              pop\n              jump\t// out\n                /* \"#utility.yul\":9563:10682   */\n            tag_190:\n                /* \"#utility.yul\":9734:9737   */\n              0x00\n                /* \"#utility.yul\":9763:9843   */\n              tag_289\n                /* \"#utility.yul\":9837:9842   */\n              dup3\n                /* \"#utility.yul\":9763:9843   */\n              tag_178\n              jump\t// in\n            tag_289:\n                /* \"#utility.yul\":9859:9971   */\n              tag_290\n                /* \"#utility.yul\":9964:9970   */\n              dup2\n                /* \"#utility.yul\":9959:9962   */\n              dup6\n                /* \"#utility.yul\":9859:9971   */\n              tag_179\n              jump\t// in\n            tag_290:\n                /* \"#utility.yul\":9852:9971   */\n              swap4\n              pop\n                /* \"#utility.yul\":9997:10000   */\n              dup4\n                /* \"#utility.yul\":10042:10046   */\n              0x20\n                /* \"#utility.yul\":10034:10040   */\n              dup3\n                /* \"#utility.yul\":10030:10047   */\n              mul\n                /* \"#utility.yul\":10025:10028   */\n              dup6\n                /* \"#utility.yul\":10021:10048   */\n              add\n                /* \"#utility.yul\":10072:10154   */\n              tag_291\n                /* \"#utility.yul\":10148:10153   */\n              dup6\n                /* \"#utility.yul\":10072:10154   */\n              tag_180\n              jump\t// in\n            tag_291:\n                /* \"#utility.yul\":10177:10184   */\n              dup1\n                /* \"#utility.yul\":10208:10209   */\n              0x00\n                /* \"#utility.yul\":10193:10637   */\n            tag_292:\n                /* \"#utility.yul\":10218:10224   */\n              dup6\n                /* \"#utility.yul\":10215:10216   */\n              dup2\n                /* \"#utility.yul\":10212:10225   */\n              lt\n                /* \"#utility.yul\":10193:10637   */\n              iszero\n              tag_294\n              jumpi\n                /* \"#utility.yul\":10289:10298   */\n              dup5\n                /* \"#utility.yul\":10283:10287   */\n              dup5\n                /* \"#utility.yul\":10279:10299   */\n              sub\n                /* \"#utility.yul\":10274:10277   */\n              dup10\n                /* \"#utility.yul\":10267:10300   */\n              mstore\n                /* \"#utility.yul\":10340:10346   */\n              dup2\n                /* \"#utility.yul\":10334:10347   */\n              mload\n                /* \"#utility.yul\":10368:10484   */\n              tag_295\n                /* \"#utility.yul\":10479:10483   */\n              dup6\n                /* \"#utility.yul\":10464:10477   */\n              dup3\n                /* \"#utility.yul\":10368:10484   */\n              tag_188\n              jump\t// in\n            tag_295:\n                /* \"#utility.yul\":10360:10484   */\n              swap5\n              pop\n                /* \"#utility.yul\":10507:10593   */\n              tag_296\n                /* \"#utility.yul\":10586:10592   */\n              dup4\n                /* \"#utility.yul\":10507:10593   */\n              tag_189\n              jump\t// in\n            tag_296:\n                /* \"#utility.yul\":10497:10593   */\n              swap3\n              pop\n                /* \"#utility.yul\":10622:10626   */\n              0x20\n                /* \"#utility.yul\":10617:10620   */\n              dup11\n                /* \"#utility.yul\":10613:10627   */\n              add\n                /* \"#utility.yul\":10606:10627   */\n              swap10\n              pop\n                /* \"#utility.yul\":10253:10637   */\n              pop\n                /* \"#utility.yul\":10240:10241   */\n              0x01\n                /* \"#utility.yul\":10237:10238   */\n              dup2\n                /* \"#utility.yul\":10233:10242   */\n              add\n                /* \"#utility.yul\":10228:10242   */\n              swap1\n              pop\n                /* \"#utility.yul\":10193:10637   */\n              jump(tag_292)\n            tag_294:\n                /* \"#utility.yul\":10197:10211   */\n              pop\n                /* \"#utility.yul\":10653:10657   */\n              dup3\n                /* \"#utility.yul\":10646:10657   */\n              swap8\n              pop\n                /* \"#utility.yul\":10673:10676   */\n              dup8\n                /* \"#utility.yul\":10666:10676   */\n              swap6\n              pop\n                /* \"#utility.yul\":9739:10682   */\n              pop\n              pop\n              pop\n              pop\n              pop\n                /* \"#utility.yul\":9563:10682   */\n              swap3\n              swap2\n              pop\n              pop\n              jump\t// out\n                /* \"#utility.yul\":10688:11165   */\n            tag_30:\n                /* \"#utility.yul\":10883:10887   */\n              0x00\n                /* \"#utility.yul\":10921:10923   */\n              0x20\n                /* \"#utility.yul\":10910:10919   */\n              dup3\n                /* \"#utility.yul\":10906:10924   */\n              add\n                /* \"#utility.yul\":10898:10924   */\n              swap1\n              pop\n                /* \"#utility.yul\":10970:10979   */\n              dup2\n                /* \"#utility.yul\":10964:10968   */\n              dup2\n                /* \"#utility.yul\":10960:10980   */\n              sub\n                /* \"#utility.yul\":10956:10957   */\n              0x00\n                /* \"#utility.yul\":10945:10954   */\n              dup4\n                /* \"#utility.yul\":10941:10958   */\n              add\n                /* \"#utility.yul\":10934:10981   */\n              mstore\n                /* \"#utility.yul\":10998:11158   */\n              tag_298\n                /* \"#utility.yul\":11153:11157   */\n              dup2\n                /* \"#utility.yul\":11144:11150   */\n              dup5\n                /* \"#utility.yul\":10998:11158   */\n              tag_190\n              jump\t// in\n            tag_298:\n                /* \"#utility.yul\":10990:11158   */\n              swap1\n              pop\n                /* \"#utility.yul\":10688:11165   */\n              swap3\n              swap2\n              pop\n              pop\n              jump\t// out\n                /* \"#utility.yul\":11171:11293   */\n            tag_191:\n                /* \"#utility.yul\":11244:11268   */\n              tag_300\n                /* \"#utility.yul\":11262:11267   */\n              dup2\n                /* \"#utility.yul\":11244:11268   */\n              tag_176\n              jump\t// in\n            tag_300:\n                /* \"#utility.yul\":11237:11242   */\n              dup2\n                /* \"#utility.yul\":11234:11269   */\n              eq\n                /* \"#utility.yul\":11224:11287   */\n              tag_301\n              jumpi\n                /* \"#utility.yul\":11283:11284   */\n              0x00\n                /* \"#utility.yul\":11280:11281   */\n              dup1\n                /* \"#utility.yul\":11273:11285   */\n              revert\n                /* \"#utility.yul\":11224:11287   */\n            tag_301:\n                /* \"#utility.yul\":11171:11293   */\n              pop\n              jump\t// out\n                /* \"#utility.yul\":11299:11438   */\n            tag_192:\n                /* \"#utility.yul\":11345:11350   */\n              0x00\n                /* \"#utility.yul\":11383:11389   */\n              dup2\n                /* \"#utility.yul\":11370:11390   */\n              calldataload\n                /* \"#utility.yul\":11361:11390   */\n              swap1\n              pop\n                /* \"#utility.yul\":11399:11432   */\n              tag_303\n                /* \"#utility.yul\":11426:11431   */\n              dup2\n                /* \"#utility.yul\":11399:11432   */\n              tag_191\n              jump\t// in\n            tag_303:\n                /* \"#utility.yul\":11299:11438   */\n              swap3\n              swap2\n              pop\n              pop\n              jump\t// out\n                /* \"#utility.yul\":11444:11773   */\n            tag_34:\n                /* \"#utility.yul\":11503:11509   */\n              0x00\n                /* \"#utility.yul\":11552:11554   */\n              0x20\n                /* \"#utility.yul\":11540:11549   */\n              dup3\n                /* \"#utility.yul\":11531:11538   */\n              dup5\n                /* \"#utility.yul\":11527:11550   */\n              sub\n                /* \"#utility.yul\":11523:11555   */\n              slt\n                /* \"#utility.yul\":11520:11639   */\n              iszero\n              tag_305\n              jumpi\n                /* \"#utility.yul\":11558:11637   */\n              tag_306\n              tag_165\n              jump\t// in\n            tag_306:\n                /* \"#utility.yul\":11520:11639   */\n            tag_305:\n                /* \"#utility.yul\":11678:11679   */\n              0x00\n                /* \"#utility.yul\":11703:11756   */\n              tag_307\n                /* \"#utility.yul\":11748:11755   */\n              dup5\n                /* \"#utility.yul\":11739:11745   */\n              dup3\n                /* \"#utility.yul\":11728:11737   */\n              dup6\n                /* \"#utility.yul\":11724:11746   */\n              add\n                /* \"#utility.yul\":11703:11756   */\n              tag_192\n              jump\t// in\n            tag_307:\n                /* \"#utility.yul\":11693:11756   */\n              swap2\n              pop\n                /* \"#utility.yul\":11649:11766   */\n              pop\n                /* \"#utility.yul\":11444:11773   */\n              swap3\n              swap2\n              pop\n              pop\n              jump\t// out\n                /* \"#utility.yul\":11779:11897   */\n            tag_193:\n                /* \"#utility.yul\":11866:11890   */\n              tag_309\n                /* \"#utility.yul\":11884:11889   */\n              dup2\n                /* \"#utility.yul\":11866:11890   */\n              tag_182\n              jump\t// in\n            tag_309:\n                /* \"#utility.yul\":11861:11864   */\n              dup3\n                /* \"#utility.yul\":11854:11891   */\n              mstore\n                /* \"#utility.yul\":11779:11897   */\n              pop\n              pop\n              jump\t// out\n                /* \"#utility.yul\":11903:12840   */\n            tag_37:\n                /* \"#utility.yul\":12168:12172   */\n              0x00\n                /* \"#utility.yul\":12206:12209   */\n              0xa0\n                /* \"#utility.yul\":12195:12204   */\n              dup3\n                /* \"#utility.yul\":12191:12210   */\n              add\n                /* \"#utility.yul\":12183:12210   */\n              swap1\n              pop\n                /* \"#utility.yul\":12220:12291   */\n              tag_311\n                /* \"#utility.yul\":12288:12289   */\n              0x00\n                /* \"#utility.yul\":12277:12286   */\n              dup4\n                /* \"#utility.yul\":12273:12290   */\n              add\n                /* \"#utility.yul\":12264:12270   */\n              dup9\n                /* \"#utility.yul\":12220:12291   */\n              tag_193\n              jump\t// in\n            tag_311:\n                /* \"#utility.yul\":12338:12347   */\n              dup2\n                /* \"#utility.yul\":12332:12336   */\n              dup2\n                /* \"#utility.yul\":12328:12348   */\n              sub\n                /* \"#utility.yul\":12323:12325   */\n              0x20\n                /* \"#utility.yul\":12312:12321   */\n              dup4\n                /* \"#utility.yul\":12308:12326   */\n              add\n                /* \"#utility.yul\":12301:12349   */\n              mstore\n                /* \"#utility.yul\":12366:12444   */\n              tag_312\n                /* \"#utility.yul\":12439:12443   */\n              dup2\n                /* \"#utility.yul\":12430:12436   */\n              dup8\n                /* \"#utility.yul\":12366:12444   */\n              tag_163\n              jump\t// in\n            tag_312:\n                /* \"#utility.yul\":12358:12444   */\n              swap1\n              pop\n                /* \"#utility.yul\":12491:12500   */\n              dup2\n                /* \"#utility.yul\":12485:12489   */\n              dup2\n                /* \"#utility.yul\":12481:12501   */\n              sub\n                /* \"#utility.yul\":12476:12478   */\n              0x40\n                /* \"#utility.yul\":12465:12474   */\n              dup4\n                /* \"#utility.yul\":12461:12479   */\n              add\n                /* \"#utility.yul\":12454:12502   */\n              mstore\n                /* \"#utility.yul\":12519:12597   */\n              tag_313\n                /* \"#utility.yul\":12592:12596   */\n              dup2\n                /* \"#utility.yul\":12583:12589   */\n              dup7\n                /* \"#utility.yul\":12519:12597   */\n              tag_163\n              jump\t// in\n            tag_313:\n                /* \"#utility.yul\":12511:12597   */\n              swap1\n              pop\n                /* \"#utility.yul\":12644:12653   */\n              dup2\n                /* \"#utility.yul\":12638:12642   */\n              dup2\n                /* \"#utility.yul\":12634:12654   */\n              sub\n                /* \"#utility.yul\":12629:12631   */\n              0x60\n                /* \"#utility.yul\":12618:12627   */\n              dup4\n                /* \"#utility.yul\":12614:12632   */\n              add\n                /* \"#utility.yul\":12607:12655   */\n              mstore\n                /* \"#utility.yul\":12672:12750   */\n              tag_314\n                /* \"#utility.yul\":12745:12749   */\n              dup2\n                /* \"#utility.yul\":12736:12742   */\n              dup6\n                /* \"#utility.yul\":12672:12750   */\n              tag_163\n              jump\t// in\n            tag_314:\n                /* \"#utility.yul\":12664:12750   */\n              swap1\n              pop\n                /* \"#utility.yul\":12760:12833   */\n              tag_315\n                /* \"#utility.yul\":12828:12831   */\n              0x80\n                /* \"#utility.yul\":12817:12826   */\n              dup4\n                /* \"#utility.yul\":12813:12832   */\n              add\n                /* \"#utility.yul\":12804:12810   */\n              dup5\n                /* \"#utility.yul\":12760:12833   */\n              tag_177\n              jump\t// in\n            tag_315:\n                /* \"#utility.yul\":11903:12840   */\n              swap7\n              swap6\n              pop\n              pop\n              pop\n              pop\n              pop\n              pop\n              jump\t// out\n                /* \"#utility.yul\":12846:12968   */\n            tag_194:\n                /* \"#utility.yul\":12919:12943   */\n              tag_317\n                /* \"#utility.yul\":12937:12942   */\n              dup2\n                /* \"#utility.yul\":12919:12943   */\n              tag_182\n              jump\t// in\n            tag_317:\n                /* \"#utility.yul\":12912:12917   */\n              dup2\n                /* \"#utility.yul\":12909:12944   */\n              eq\n                /* \"#utility.yul\":12899:12962   */\n              tag_318\n              jumpi\n                /* \"#utility.yul\":12958:12959   */\n              0x00\n                /* \"#utility.yul\":12955:12956   */\n              dup1\n                /* \"#utility.yul\":12948:12960   */\n              revert\n                /* \"#utility.yul\":12899:12962   */\n            tag_318:\n                /* \"#utility.yul\":12846:12968   */\n              pop\n              jump\t// out\n                /* \"#utility.yul\":12974:13113   */\n            tag_195:\n                /* \"#utility.yul\":13020:13025   */\n              0x00\n                /* \"#utility.yul\":13058:13064   */\n              dup2\n                /* \"#utility.yul\":13045:13065   */\n              calldataload\n                /* \"#utility.yul\":13036:13065   */\n              swap1\n              pop\n                /* \"#utility.yul\":13074:13107   */\n              tag_320\n                /* \"#utility.yul\":13101:13106   */\n              dup2\n                /* \"#utility.yul\":13074:13107   */\n              tag_194\n              jump\t// in\n            tag_320:\n                /* \"#utility.yul\":12974:13113   */\n              swap3\n              swap2\n              pop\n              pop\n              jump\t// out\n                /* \"#utility.yul\":13119:13448   */\n            tag_41:\n                /* \"#utility.yul\":13178:13184   */\n              0x00\n                /* \"#utility.yul\":13227:13229   */\n              0x20\n                /* \"#utility.yul\":13215:13224   */\n              dup3\n                /* \"#utility.yul\":13206:13213   */\n              dup5\n                /* \"#utility.yul\":13202:13225   */\n              sub\n                /* \"#utility.yul\":13198:13230   */\n              slt\n                /* \"#utility.yul\":13195:13314   */\n              iszero\n              tag_322\n              jumpi\n                /* \"#utility.yul\":13233:13312   */\n              tag_323\n              tag_165\n              jump\t// in\n            tag_323:\n                /* \"#utility.yul\":13195:13314   */\n            tag_322:\n                /* \"#utility.yul\":13353:13354   */\n              0x00\n                /* \"#utility.yul\":13378:13431   */\n              tag_324\n                /* \"#utility.yul\":13423:13430   */\n              dup5\n                /* \"#utility.yul\":13414:13420   */\n              dup3\n                /* \"#utility.yul\":13403:13412   */\n              dup6\n                /* \"#utility.yul\":13399:13421   */\n              add\n                /* \"#utility.yul\":13378:13431   */\n              tag_195\n              jump\t// in\n            tag_324:\n                /* \"#utility.yul\":13368:13431   */\n              swap2\n              pop\n                /* \"#utility.yul\":13324:13441   */\n              pop\n                /* \"#utility.yul\":13119:13448   */\n              swap3\n              swap2\n              pop\n              pop\n              jump\t// out\n                /* \"#utility.yul\":13454:13767   */\n            tag_44:\n                /* \"#utility.yul\":13567:13571   */\n              0x00\n                /* \"#utility.yul\":13605:13607   */\n              0x20\n                /* \"#utility.yul\":13594:13603   */\n              dup3\n                /* \"#utility.yul\":13590:13608   */\n              add\n                /* \"#utility.yul\":13582:13608   */\n              swap1\n              pop\n                /* \"#utility.yul\":13654:13663   */\n              dup2\n                /* \"#utility.yul\":13648:13652   */\n              dup2\n                /* \"#utility.yul\":13644:13664   */\n              sub\n                /* \"#utility.yul\":13640:13641   */\n              0x00\n                /* \"#utility.yul\":13629:13638   */\n              dup4\n                /* \"#utility.yul\":13625:13642   */\n              add\n                /* \"#utility.yul\":13618:13665   */\n              mstore\n                /* \"#utility.yul\":13682:13760   */\n              tag_326\n                /* \"#utility.yul\":13755:13759   */\n              dup2\n                /* \"#utility.yul\":13746:13752   */\n              dup5\n                /* \"#utility.yul\":13682:13760   */\n              tag_163\n              jump\t// in\n            tag_326:\n                /* \"#utility.yul\":13674:13760   */\n              swap1\n              pop\n                /* \"#utility.yul\":13454:13767   */\n              swap3\n              swap2\n              pop\n              pop\n              jump\t// out\n                /* \"#utility.yul\":13773:13995   */\n            tag_56:\n                /* \"#utility.yul\":13866:13870   */\n              0x00\n                /* \"#utility.yul\":13904:13906   */\n              0x20\n                /* \"#utility.yul\":13893:13902   */\n              dup3\n                /* \"#utility.yul\":13889:13907   */\n              add\n                /* \"#utility.yul\":13881:13907   */\n              swap1\n              pop\n                /* \"#utility.yul\":13917:13988   */\n              tag_328\n                /* \"#utility.yul\":13985:13986   */\n              0x00\n                /* \"#utility.yul\":13974:13983   */\n              dup4\n                /* \"#utility.yul\":13970:13987   */\n              add\n                /* \"#utility.yul\":13961:13967   */\n              dup5\n                /* \"#utility.yul\":13917:13988   */\n              tag_193\n              jump\t// in\n            tag_328:\n                /* \"#utility.yul\":13773:13995   */\n              swap3\n              swap2\n              pop\n              pop\n              jump\t// out\n                /* \"#utility.yul\":14001:14181   */\n            tag_196:\n                /* \"#utility.yul\":14049:14126   */\n              0x4e487b7100000000000000000000000000000000000000000000000000000000\n                /* \"#utility.yul\":14046:14047   */\n              0x00\n                /* \"#utility.yul\":14039:14127   */\n              mstore\n                /* \"#utility.yul\":14146:14150   */\n              0x22\n                /* \"#utility.yul\":14143:14144   */\n              0x04\n                /* \"#utility.yul\":14136:14151   */\n              mstore\n                /* \"#utility.yul\":14170:14174   */\n              0x24\n                /* \"#utility.yul\":14167:14168   */\n              0x00\n                /* \"#utility.yul\":14160:14175   */\n              revert\n                /* \"#utility.yul\":14187:14507   */\n            tag_59:\n                /* \"#utility.yul\":14231:14237   */\n              0x00\n                /* \"#utility.yul\":14268:14269   */\n              0x02\n                /* \"#utility.yul\":14262:14266   */\n              dup3\n                /* \"#utility.yul\":14258:14270   */\n              div\n                /* \"#utility.yul\":14248:14270   */\n              swap1\n              pop\n                /* \"#utility.yul\":14315:14316   */\n              0x01\n                /* \"#utility.yul\":14309:14313   */\n              dup3\n                /* \"#utility.yul\":14305:14317   */\n              and\n                /* \"#utility.yul\":14336:14354   */\n              dup1\n                /* \"#utility.yul\":14326:14407   */\n              tag_331\n              jumpi\n                /* \"#utility.yul\":14392:14396   */\n              0x7f\n                /* \"#utility.yul\":14384:14390   */\n              dup3\n                /* \"#utility.yul\":14380:14397   */\n              and\n                /* \"#utility.yul\":14370:14397   */\n              swap2\n              pop\n                /* \"#utility.yul\":14326:14407   */\n            tag_331:\n                /* \"#utility.yul\":14454:14456   */\n              0x20\n                /* \"#utility.yul\":14446:14452   */\n              dup3\n                /* \"#utility.yul\":14443:14457   */\n              lt\n                /* \"#utility.yul\":14423:14441   */\n              dup2\n                /* \"#utility.yul\":14420:14458   */\n              eq\n                /* \"#utility.yul\":14417:14501   */\n              iszero\n              tag_332\n              jumpi\n                /* \"#utility.yul\":14473:14491   */\n              tag_333\n              tag_196\n              jump\t// in\n            tag_333:\n                /* \"#utility.yul\":14417:14501   */\n            tag_332:\n                /* \"#utility.yul\":14238:14507   */\n              pop\n                /* \"#utility.yul\":14187:14507   */\n              swap2\n              swap1\n              pop\n              jump\t// out\n                /* \"#utility.yul\":14513:14693   */\n            tag_197:\n                /* \"#utility.yul\":14561:14638   */\n              0x4e487b7100000000000000000000000000000000000000000000000000000000\n                /* \"#utility.yul\":14558:14559   */\n              0x00\n                /* \"#utility.yul\":14551:14639   */\n              mstore\n                /* \"#utility.yul\":14658:14662   */\n              0x11\n                /* \"#utility.yul\":14655:14656   */\n              0x04\n                /* \"#utility.yul\":14648:14663   */\n              mstore\n                /* \"#utility.yul\":14682:14686   */\n              0x24\n                /* \"#utility.yul\":14679:14680   */\n              0x00\n                /* \"#utility.yul\":14672:14687   */\n              revert\n                /* \"#utility.yul\":14699:15004   */\n            tag_88:\n                /* \"#utility.yul\":14739:14742   */\n              0x00\n                /* \"#utility.yul\":14758:14778   */\n              tag_336\n                /* \"#utility.yul\":14776:14777   */\n              dup3\n                /* \"#utility.yul\":14758:14778   */\n              tag_176\n              jump\t// in\n            tag_336:\n                /* \"#utility.yul\":14753:14778   */\n              swap2\n              pop\n                /* \"#utility.yul\":14792:14812   */\n              tag_337\n                /* \"#utility.yul\":14810:14811   */\n              dup4\n                /* \"#utility.yul\":14792:14812   */\n              tag_176\n              jump\t// in\n            tag_337:\n                /* \"#utility.yul\":14787:14812   */\n              swap3\n              pop\n                /* \"#utility.yul\":14946:14947   */\n              dup3\n                /* \"#utility.yul\":14878:14944   */\n              0xffffffffffffffffffffffffffffffffffffffffffffffffffffffffffffffff\n                /* \"#utility.yul\":14874:14948   */\n              sub\n                /* \"#utility.yul\":14871:14872   */\n              dup3\n                /* \"#utility.yul\":14868:14949   */\n              gt\n                /* \"#utility.yul\":14865:14972   */\n              iszero\n              tag_338\n              jumpi\n                /* \"#utility.yul\":14952:14970   */\n              tag_339\n              tag_197\n              jump\t// in\n            tag_339:\n                /* \"#utility.yul\":14865:14972   */\n            tag_338:\n                /* \"#utility.yul\":14996:14997   */\n              dup3\n                /* \"#utility.yul\":14993:14994   */\n              dup3\n                /* \"#utility.yul\":14989:14998   */\n              add\n                /* \"#utility.yul\":14982:14998   */\n              swap1\n              pop\n                /* \"#utility.yul\":14699:15004   */\n              swap3\n              swap2\n              pop\n              pop\n              jump\t// out\n                /* \"#utility.yul\":15010:15181   */\n            tag_96:\n                /* \"#utility.yul\":15049:15052   */\n              0x00\n                /* \"#utility.yul\":15072:15096   */\n              tag_341\n                /* \"#utility.yul\":15090:15095   */\n              dup3\n                /* \"#utility.yul\":15072:15096   */\n              tag_176\n              jump\t// in\n            tag_341:\n                /* \"#utility.yul\":15063:15096   */\n              swap2\n              pop\n                /* \"#utility.yul\":15118:15122   */\n              0x00\n                /* \"#utility.yul\":15111:15116   */\n              dup3\n                /* \"#utility.yul\":15108:15123   */\n              eq\n                /* \"#utility.yul\":15105:15146   */\n              iszero\n              tag_342\n              jumpi\n                /* \"#utility.yul\":15126:15144   */\n              tag_343\n              tag_197\n              jump\t// in\n            tag_343:\n                /* \"#utility.yul\":15105:15146   */\n            tag_342:\n                /* \"#utility.yul\":15173:15174   */\n              0x01\n                /* \"#utility.yul\":15166:15171   */\n              dup3\n                /* \"#utility.yul\":15162:15175   */\n              sub\n                /* \"#utility.yul\":15155:15175   */\n              swap1\n              pop\n                /* \"#utility.yul\":15010:15181   */\n              swap2\n              swap1\n              pop\n              jump\t// out\n\n            auxdata: 0xa2646970667358221220efceb3da4038e9be035fae3aabcf1bf84d7373087d7c77ee6ac6973a9b615f1a64736f6c634300080b0033\n        }\n    }\n\n    auxdata: 0xa26469706673582212201f78edbe117804a91a81001b00f326e0f16042cd5932e82df438c243706e9f3164736f6c634300080b0033\n}\n","bytecode":{"linkReferences":{},"object":"608060405234801561001057600080fd5b50613112806100206000396000f3fe60806040523480156200001157600080fd5b5060043610620000465760003560e01c80630a9ce09c146200004b5780639106e0de1462000081578063cc9085e514620000be575b600080fd5b62000069600480360381019062000063919062000c5c565b620000de565b60405162000078919062000f4c565b60405180910390f35b6200009f600480360381019062000099919062000fa1565b620004cc565b604051620000b59897969594939291906200107b565b60405180910390f35b620000dc6004803603810190620000d691906200112c565b62000838565b005b6060600082604051620000f2919062001307565b9081526020016040518091039020805480602002602001604051908101604052809291908181526020016000905b82821015620004c15783829060005260206000209060080201604051806101000160405290816000820160009054906101000a900473ffffffffffffffffffffffffffffffffffffffff1673ffffffffffffffffffffffffffffffffffffffff1673ffffffffffffffffffffffffffffffffffffffff168152602001600182018054620001ad906200134f565b80601f0160208091040260200160405190810160405280929190818152602001828054620001db906200134f565b80156200022c5780601f1062000200576101008083540402835291602001916200022c565b820191906000526020600020905b8154815290600101906020018083116200020e57829003601f168201915b5050505050815260200160028201805462000247906200134f565b80601f016020809104026020016040519081016040528092919081815260200182805462000275906200134f565b8015620002c65780601f106200029a57610100808354040283529160200191620002c6565b820191906000526020600020905b815481529060010190602001808311620002a857829003601f168201915b50505050508152602001600382018054620002e1906200134f565b80601f01602080910402602001604051908101604052809291908181526020018280546200030f906200134f565b8015620003605780601f10620003345761010080835404028352916020019162000360565b820191906000526020600020905b8154815290600101906020018083116200034257829003601f168201915b505050505081526020016004820180546200037b906200134f565b80601f0160208091040260200160405190810160405280929190818152602001828054620003a9906200134f565b8015620003fa5780601f10620003ce57610100808354040283529160200191620003fa565b820191906000526020600020905b815481529060010190602001808311620003dc57829003601f168201915b5050505050815260200160058201805462000415906200134f565b80601f016020809104026020016040519081016040528092919081815260200182805462000443906200134f565b8015620004945780601f10620004685761010080835404028352916020019162000494565b820191906000526020600020905b8154815290600101906020018083116200047657829003601f168201915b50505050508152602001600682015481526020016007820154815250508152602001906001019062000120565b505050509050919050565b6000828051602081018201805184825260208301602085012081835280955050505050508181548110620004ff57600080fd5b9060005260206000209060080201600091509150508060000160009054906101000a900473ffffffffffffffffffffffffffffffffffffffff16908060010180546200054b906200134f565b80601f016020809104026020016040519081016040528092919081815260200182805462000579906200134f565b8015620005ca5780601f106200059e57610100808354040283529160200191620005ca565b820191906000526020600020905b815481529060010190602001808311620005ac57829003601f168201915b505050505090806002018054620005e1906200134f565b80601f01602080910402602001604051908101604052809291908181526020018280546200060f906200134f565b8015620006605780601f10620006345761010080835404028352916020019162000660565b820191906000526020600020905b8154815290600101906020018083116200064257829003601f168201915b50505050509080600301805462000677906200134f565b80601f0160208091040260200160405190810160405280929190818152602001828054620006a5906200134f565b8015620006f65780601f10620006ca57610100808354040283529160200191620006f6565b820191906000526020600020905b815481529060010190602001808311620006d857829003601f168201915b5050505050908060040180546200070d906200134f565b80601f01602080910402602001604051908101604052809291908181526020018280546200073b906200134f565b80156200078c5780601f1062000760576101008083540402835291602001916200078c565b820191906000526020600020905b8154815290600101906020018083116200076e57829003601f168201915b505050505090806005018054620007a3906200134f565b80601f0160208091040260200160405190810160405280929190818152602001828054620007d1906200134f565b8015620008225780601f10620007f65761010080835404028352916020019162000822565b820191906000526020600020905b8154815290600101906020018083116200080457829003601f168201915b5050505050908060060154908060070154905088565b6000338a8a8a8a8a898989604051620008519062000a28565b620008659998979695949392919062001385565b604051809103906000f08015801562000882573d6000803e3d6000fd5b50905060006040518061010001604052808373ffffffffffffffffffffffffffffffffffffffff1681526020018c81526020018b81526020018a8152602001898152602001888152602001858152602001848152509050600086604051620008eb919062001307565b908152602001604051809103902081908060018154018082558091505060019003906000526020600020906008020160009091909190915060008201518160000160006101000a81548173ffffffffffffffffffffffffffffffffffffffff021916908373ffffffffffffffffffffffffffffffffffffffff16021790555060208201518160010190805190602001906200098892919062000a36565b506040820151816002019080519060200190620009a792919062000a36565b506060820151816003019080519060200190620009c692919062000a36565b506080820151816004019080519060200190620009e592919062000a36565b5060a082015181600501908051906020019062000a0492919062000a36565b5060c0820151816006015560e0820151816007015550505050505050505050505050565b611c95806200144883390190565b82805462000a44906200134f565b90600052602060002090601f01602090048101928262000a68576000855562000ab4565b82601f1062000a8357805160ff191683800117855562000ab4565b8280016001018555821562000ab4579182015b8281111562000ab357825182559160200191906001019062000a96565b5b50905062000ac3919062000ac7565b5090565b5b8082111562000ae257600081600090555060010162000ac8565b5090565b6000604051905090565b600080fd5b600080fd5b600080fd5b600080fd5b6000601f19601f8301169050919050565b7f4e487b7100000000000000000000000000000000000000000000000000000000600052604160045260246000fd5b62000b4f8262000b04565b810181811067ffffffffffffffff8211171562000b715762000b7062000b15565b5b80604052505050565b600062000b8662000ae6565b905062000b94828262000b44565b919050565b600067ffffffffffffffff82111562000bb75762000bb662000b15565b5b62000bc28262000b04565b9050602081019050919050565b82818337600083830152505050565b600062000bf562000bef8462000b99565b62000b7a565b90508281526020810184848401111562000c145762000c1362000aff565b5b62000c2184828562000bcf565b509392505050565b600082601f83011262000c415762000c4062000afa565b5b813562000c5384826020860162000bde565b91505092915050565b60006020828403121562000c755762000c7462000af0565b5b600082013567ffffffffffffffff81111562000c965762000c9562000af5565b5b62000ca48482850162000c29565b91505092915050565b600081519050919050565b600082825260208201905092915050565b6000819050602082019050919050565b600073ffffffffffffffffffffffffffffffffffffffff82169050919050565b600062000d068262000cd9565b9050919050565b62000d188162000cf9565b82525050565b600081519050919050565b600082825260208201905092915050565b60005b8381101562000d5a57808201518184015260208101905062000d3d565b8381111562000d6a576000848401525b50505050565b600062000d7d8262000d1e565b62000d89818562000d29565b935062000d9b81856020860162000d3a565b62000da68162000b04565b840191505092915050565b6000819050919050565b62000dc68162000db1565b82525050565b60006101008301600083015162000de7600086018262000d0d565b506020830151848203602086015262000e01828262000d70565b9150506040830151848203604086015262000e1d828262000d70565b9150506060830151848203606086015262000e39828262000d70565b9150506080830151848203608086015262000e55828262000d70565b91505060a083015184820360a086015262000e71828262000d70565b91505060c083015162000e8860c086018262000dbb565b5060e083015162000e9d60e086018262000dbb565b508091505092915050565b600062000eb6838362000dcc565b905092915050565b6000602082019050919050565b600062000ed88262000cad565b62000ee4818562000cb8565b93508360208202850162000ef88562000cc9565b8060005b8581101562000f3a578484038952815162000f18858262000ea8565b945062000f258362000ebe565b925060208a0199505060018101905062000efc565b50829750879550505050505092915050565b6000602082019050818103600083015262000f68818462000ecb565b905092915050565b62000f7b8162000db1565b811462000f8757600080fd5b50565b60008135905062000f9b8162000f70565b92915050565b6000806040838503121562000fbb5762000fba62000af0565b5b600083013567ffffffffffffffff81111562000fdc5762000fdb62000af5565b5b62000fea8582860162000c29565b925050602062000ffd8582860162000f8a565b9150509250929050565b620010128162000cf9565b82525050565b600082825260208201905092915050565b6000620010368262000d1e565b62001042818562001018565b93506200105481856020860162000d3a565b6200105f8162000b04565b840191505092915050565b620010758162000db1565b82525050565b60006101008201905062001093600083018b62001007565b8181036020830152620010a7818a62001029565b90508181036040830152620010bd818962001029565b90508181036060830152620010d3818862001029565b90508181036080830152620010e9818762001029565b905081810360a0830152620010ff818662001029565b90506200111060c08301856200106a565b6200111f60e08301846200106a565b9998505050505050505050565b60008060008060008060008060006101208a8c03121562001152576200115162000af0565b5b60008a013567ffffffffffffffff81111562001173576200117262000af5565b5b620011818c828d0162000c29565b99505060208a013567ffffffffffffffff811115620011a557620011a462000af5565b5b620011b38c828d0162000c29565b98505060408a013567ffffffffffffffff811115620011d757620011d662000af5565b5b620011e58c828d0162000c29565b97505060608a013567ffffffffffffffff81111562001209576200120862000af5565b5b620012178c828d0162000c29565b96505060808a013567ffffffffffffffff8111156200123b576200123a62000af5565b5b620012498c828d0162000c29565b95505060a08a013567ffffffffffffffff8111156200126d576200126c62000af5565b5b6200127b8c828d0162000c29565b94505060c06200128e8c828d0162000f8a565b93505060e0620012a18c828d0162000f8a565b925050610100620012b58c828d0162000f8a565b9150509295985092959850929598565b600081905092915050565b6000620012dd8262000d1e565b620012e98185620012c5565b9350620012fb81856020860162000d3a565b80840191505092915050565b6000620013158284620012d0565b915081905092915050565b7f4e487b7100000000000000000000000000000000000000000000000000000000600052602260045260246000fd5b600060028204905060018216806200136857607f821691505b602082108114156200137f576200137e62001320565b5b50919050565b6000610120820190506200139d600083018c62001007565b8181036020830152620013b1818b62001029565b90508181036040830152620013c7818a62001029565b90508181036060830152620013dd818962001029565b90508181036080830152620013f3818862001029565b905081810360a083015262001409818762001029565b90506200141a60c08301866200106a565b6200142960e08301856200106a565b620014396101008301846200106a565b9a995050505050505050505056fe60806040523480156200001157600080fd5b5060405162001c9538038062001c95833981810160405281019062000037919062000406565b88600760006101000a81548173ffffffffffffffffffffffffffffffffffffffff021916908373ffffffffffffffffffffffffffffffffffffffff16021790555087600090805190602001906200009092919062000119565b508660019080519060200190620000a992919062000119565b508560029080519060200190620000c292919062000119565b508460039080519060200190620000db92919062000119565b508360049080519060200190620000f492919062000119565b50826008819055508160058190555080600681905550505050505050505050620005e5565b8280546200012790620005af565b90600052602060002090601f0160209004810192826200014b576000855562000197565b82601f106200016657805160ff191683800117855562000197565b8280016001018555821562000197579182015b828111156200019657825182559160200191906001019062000179565b5b509050620001a69190620001aa565b5090565b5b80821115620001c5576000816000905550600101620001ab565b5090565b6000604051905090565b600080fd5b600080fd5b600073ffffffffffffffffffffffffffffffffffffffff82169050919050565b60006200020a82620001dd565b9050919050565b6200021c81620001fd565b81146200022857600080fd5b50565b6000815190506200023c8162000211565b92915050565b600080fd5b600080fd5b6000601f19601f8301169050919050565b7f4e487b7100000000000000000000000000000000000000000000000000000000600052604160045260246000fd5b62000297826200024c565b810181811067ffffffffffffffff82111715620002b957620002b86200025d565b5b80604052505050565b6000620002ce620001c9565b9050620002dc82826200028c565b919050565b600067ffffffffffffffff821115620002ff57620002fe6200025d565b5b6200030a826200024c565b9050602081019050919050565b60005b83811015620003375780820151818401526020810190506200031a565b8381111562000347576000848401525b50505050565b6000620003646200035e84620002e1565b620002c2565b90508281526020810184848401111562000383576200038262000247565b5b6200039084828562000317565b509392505050565b600082601f830112620003b057620003af62000242565b5b8151620003c28482602086016200034d565b91505092915050565b6000819050919050565b620003e081620003cb565b8114620003ec57600080fd5b50565b6000815190506200040081620003d5565b92915050565b60008060008060008060008060006101208a8c0312156200042c576200042b620001d3565b5b60006200043c8c828d016200022b565b99505060208a015167ffffffffffffffff81111562000460576200045f620001d8565b5b6200046e8c828d0162000398565b98505060408a015167ffffffffffffffff811115620004925762000491620001d8565b5b620004a08c828d0162000398565b97505060608a015167ffffffffffffffff811115620004c457620004c3620001d8565b5b620004d28c828d0162000398565b96505060808a015167ffffffffffffffff811115620004f657620004f5620001d8565b5b620005048c828d0162000398565b95505060a08a015167ffffffffffffffff811115620005285762000527620001d8565b5b620005368c828d0162000398565b94505060c0620005498c828d01620003ef565b93505060e06200055c8c828d01620003ef565b925050610100620005708c828d01620003ef565b9150509295985092959850929598565b7f4e487b7100000000000000000000000000000000000000000000000000000000600052602260045260246000fd5b60006002820490506001821680620005c857607f821691505b60208210811415620005df57620005de62000580565b5b50919050565b6116a080620005f56000396000f3fe6080604052600436106100865760003560e01c80636f68f544116100595780636f68f5441461012c5780637f6c84821461016d578063b99b48f0146101aa578063c40000d4146101c6578063cb4591f6146101f157610086565b8063316291341461008b5780634cdcdccb146100ba5780635cfc1a51146100d65780636ac23fdc14610101575b600080fd5b34801561009757600080fd5b506100a061021c565b6040516100b1959493929190610f58565b60405180910390f35b6100d460048036038101906100cf9190611117565b6104fb565b005b3480156100e257600080fd5b506100eb6106e7565b6040516100f891906111d7565b60405180910390f35b34801561010d57600080fd5b506101166106ed565b60405161012391906113d2565b60405180910390f35b34801561013857600080fd5b50610153600480360381019061014e9190611420565b610962565b60405161016495949392919061145c565b60405180910390f35b34801561017957600080fd5b50610194600480360381019061018f91906114f0565b610b60565b6040516101a1919061151d565b60405180910390f35b6101c460048036038101906101bf9190611117565b610c00565b005b3480156101d257600080fd5b506101db610dec565b6040516101e891906111d7565b60405180910390f35b3480156101fd57600080fd5b50610206610df6565b604051610213919061153f565b60405180910390f35b60608060608060606000600160026003600484805461023a90611589565b80601f016020809104026020016040519081016040528092919081815260200182805461026690611589565b80156102b35780601f10610288576101008083540402835291602001916102b3565b820191906000526020600020905b81548152906001019060200180831161029657829003601f168201915b505050505094508380546102c690611589565b80601f01602080910402602001604051908101604052809291908181526020018280546102f290611589565b801561033f5780601f106103145761010080835404028352916020019161033f565b820191906000526020600020905b81548152906001019060200180831161032257829003601f168201915b5050505050935082805461035290611589565b80601f016020809104026020016040519081016040528092919081815260200182805461037e90611589565b80156103cb5780601f106103a0576101008083540402835291602001916103cb565b820191906000526020600020905b8154815290600101906020018083116103ae57829003601f168201915b505050505092508180546103de90611589565b80601f016020809104026020016040519081016040528092919081815260200182805461040a90611589565b80156104575780601f1061042c57610100808354040283529160200191610457565b820191906000526020600020905b81548152906001019060200180831161043a57829003601f168201915b5050505050915080805461046a90611589565b80601f016020809104026020016040519081016040528092919081815260200182805461049690611589565b80156104e35780601f106104b8576101008083540402835291602001916104e3565b820191906000526020600020905b8154815290600101906020018083116104c657829003601f168201915b50505050509050945094509450945094509091929394565b600554341461050957600080fd5b60006008541161051857600080fd5b60006040518060a001604052803373ffffffffffffffffffffffffffffffffffffffff1681526020018581526020018481526020018381526020016001600a8054905061056591906115ea565b8152509050600a81908060018154018082558091505060019003906000526020600020906005020160009091909190915060008201518160000160006101000a81548173ffffffffffffffffffffffffffffffffffffffff021916908373ffffffffffffffffffffffffffffffffffffffff16021790555060208201518160010190805190602001906105f9929190610e1c565b506040820151816002019080519060200190610616929190610e1c565b506060820151816003019080519060200190610633929190610e1c565b506080820151816004015550506040518060400160405280600881526020017f627573696e657373000000000000000000000000000000000000000000000000815250600960003373ffffffffffffffffffffffffffffffffffffffff1673ffffffffffffffffffffffffffffffffffffffff16815260200190815260200160002090805190602001906106c8929190610e1c565b50600860008154809291906106dc90611640565b919050555050505050565b60085481565b6060600a805480602002602001604051908101604052809291908181526020016000905b8282101561095957838290600052602060002090600502016040518060a00160405290816000820160009054906101000a900473ffffffffffffffffffffffffffffffffffffffff1673ffffffffffffffffffffffffffffffffffffffff1673ffffffffffffffffffffffffffffffffffffffff16815260200160018201805461079a90611589565b80601f01602080910402602001604051908101604052809291908181526020018280546107c690611589565b80156108135780601f106107e857610100808354040283529160200191610813565b820191906000526020600020905b8154815290600101906020018083116107f657829003601f168201915b5050505050815260200160028201805461082c90611589565b80601f016020809104026020016040519081016040528092919081815260200182805461085890611589565b80156108a55780601f1061087a576101008083540402835291602001916108a5565b820191906000526020600020905b81548152906001019060200180831161088857829003601f168201915b505050505081526020016003820180546108be90611589565b80601f01602080910402602001604051908101604052809291908181526020018280546108ea90611589565b80156109375780601f1061090c57610100808354040283529160200191610937565b820191906000526020600020905b81548152906001019060200180831161091a57829003601f168201915b5050505050815260200160048201548152505081526020019060010190610711565b50505050905090565b600a818154811061097257600080fd5b90600052602060002090600502016000915090508060000160009054906101000a900473ffffffffffffffffffffffffffffffffffffffff16908060010180546109bb90611589565b80601f01602080910402602001604051908101604052809291908181526020018280546109e790611589565b8015610a345780601f10610a0957610100808354040283529160200191610a34565b820191906000526020600020905b815481529060010190602001808311610a1757829003601f168201915b505050505090806002018054610a4990611589565b80601f0160208091040260200160405190810160405280929190818152602001828054610a7590611589565b8015610ac25780601f10610a9757610100808354040283529160200191610ac2565b820191906000526020600020905b815481529060010190602001808311610aa557829003601f168201915b505050505090806003018054610ad790611589565b80601f0160208091040260200160405190810160405280929190818152602001828054610b0390611589565b8015610b505780601f10610b2557610100808354040283529160200191610b50565b820191906000526020600020905b815481529060010190602001808311610b3357829003601f168201915b5050505050908060040154905085565b60096020528060005260406000206000915090508054610b7f90611589565b80601f0160208091040260200160405190810160405280929190818152602001828054610bab90611589565b8015610bf85780601f10610bcd57610100808354040283529160200191610bf8565b820191906000526020600020905b815481529060010190602001808311610bdb57829003601f168201915b505050505081565b6006543414610c0e57600080fd5b600060085411610c1d57600080fd5b60006040518060a001604052803373ffffffffffffffffffffffffffffffffffffffff1681526020018581526020018481526020018381526020016001600a80549050610c6a91906115ea565b8152509050600a81908060018154018082558091505060019003906000526020600020906005020160009091909190915060008201518160000160006101000a81548173ffffffffffffffffffffffffffffffffffffffff021916908373ffffffffffffffffffffffffffffffffffffffff1602179055506020820151816001019080519060200190610cfe929190610e1c565b506040820151816002019080519060200190610d1b929190610e1c565b506060820151816003019080519060200190610d38929190610e1c565b506080820151816004015550506040518060400160405280600781526020017f65636f6e6f6d7900000000000000000000000000000000000000000000000000815250600960003373ffffffffffffffffffffffffffffffffffffffff1673ffffffffffffffffffffffffffffffffffffffff1681526020019081526020016000209080519060200190610dcd929190610e1c565b5060086000815480929190610de190611640565b919050555050505050565b6000600854905090565b600760009054906101000a900473ffffffffffffffffffffffffffffffffffffffff1681565b828054610e2890611589565b90600052602060002090601f016020900481019282610e4a5760008555610e91565b82601f10610e6357805160ff1916838001178555610e91565b82800160010185558215610e91579182015b82811115610e90578251825591602001919060010190610e75565b5b509050610e9e9190610ea2565b5090565b5b80821115610ebb576000816000905550600101610ea3565b5090565b600081519050919050565b600082825260208201905092915050565b60005b83811015610ef9578082015181840152602081019050610ede565b83811115610f08576000848401525b50505050565b6000601f19601f8301169050919050565b6000610f2a82610ebf565b610f348185610eca565b9350610f44818560208601610edb565b610f4d81610f0e565b840191505092915050565b600060a0820190508181036000830152610f728188610f1f565b90508181036020830152610f868187610f1f565b90508181036040830152610f9a8186610f1f565b90508181036060830152610fae8185610f1f565b90508181036080830152610fc28184610f1f565b90509695505050505050565b6000604051905090565b600080fd5b600080fd5b600080fd5b600080fd5b7f4e487b7100000000000000000000000000000000000000000000000000000000600052604160045260246000fd5b61102482610f0e565b810181811067ffffffffffffffff8211171561104357611042610fec565b5b80604052505050565b6000611056610fce565b9050611062828261101b565b919050565b600067ffffffffffffffff82111561108257611081610fec565b5b61108b82610f0e565b9050602081019050919050565b82818337600083830152505050565b60006110ba6110b584611067565b61104c565b9050828152602081018484840111156110d6576110d5610fe7565b5b6110e1848285611098565b509392505050565b600082601f8301126110fe576110fd610fe2565b5b813561110e8482602086016110a7565b91505092915050565b6000806000606084860312156111305761112f610fd8565b5b600084013567ffffffffffffffff81111561114e5761114d610fdd565b5b61115a868287016110e9565b935050602084013567ffffffffffffffff81111561117b5761117a610fdd565b5b611187868287016110e9565b925050604084013567ffffffffffffffff8111156111a8576111a7610fdd565b5b6111b4868287016110e9565b9150509250925092565b6000819050919050565b6111d1816111be565b82525050565b60006020820190506111ec60008301846111c8565b92915050565b600081519050919050565b600082825260208201905092915050565b6000819050602082019050919050565b600073ffffffffffffffffffffffffffffffffffffffff82169050919050565b60006112498261121e565b9050919050565b6112598161123e565b82525050565b600082825260208201905092915050565b600061127b82610ebf565b611285818561125f565b9350611295818560208601610edb565b61129e81610f0e565b840191505092915050565b6112b2816111be565b82525050565b600060a0830160008301516112d06000860182611250565b50602083015184820360208601526112e88282611270565b915050604083015184820360408601526113028282611270565b9150506060830151848203606086015261131c8282611270565b915050608083015161133160808601826112a9565b508091505092915050565b600061134883836112b8565b905092915050565b6000602082019050919050565b6000611368826111f2565b61137281856111fd565b9350836020820285016113848561120e565b8060005b858110156113c057848403895281516113a1858261133c565b94506113ac83611350565b925060208a01995050600181019050611388565b50829750879550505050505092915050565b600060208201905081810360008301526113ec818461135d565b905092915050565b6113fd816111be565b811461140857600080fd5b50565b60008135905061141a816113f4565b92915050565b60006020828403121561143657611435610fd8565b5b60006114448482850161140b565b91505092915050565b6114568161123e565b82525050565b600060a082019050611471600083018861144d565b81810360208301526114838187610f1f565b905081810360408301526114978186610f1f565b905081810360608301526114ab8185610f1f565b90506114ba60808301846111c8565b9695505050505050565b6114cd8161123e565b81146114d857600080fd5b50565b6000813590506114ea816114c4565b92915050565b60006020828403121561150657611505610fd8565b5b6000611514848285016114db565b91505092915050565b600060208201905081810360008301526115378184610f1f565b905092915050565b6000602082019050611554600083018461144d565b92915050565b7f4e487b7100000000000000000000000000000000000000000000000000000000600052602260045260246000fd5b600060028204905060018216806115a157607f821691505b602082108114156115b5576115b461155a565b5b50919050565b7f4e487b7100000000000000000000000000000000000000000000000000000000600052601160045260246000fd5b60006115f5826111be565b9150611600836111be565b9250827fffffffffffffffffffffffffffffffffffffffffffffffffffffffffffffffff03821115611635576116346115bb565b5b828201905092915050565b600061164b826111be565b9150600082141561165f5761165e6115bb565b5b60018203905091905056fea2646970667358221220efceb3da4038e9be035fae3aabcf1bf84d7373087d7c77ee6ac6973a9b615f1a64736f6c634300080b0033a26469706673582212201f78edbe117804a91a81001b00f326e0f16042cd5932e82df438c243706e9f3164736f6c634300080b0033","opcodes":"PUSH1 0x80 PUSH1 0x40 MSTORE CALLVALUE DUP1 ISZERO PUSH2 0x10 JUMPI PUSH1 0x0 DUP1 REVERT JUMPDEST POP PUSH2 0x3112 DUP1 PUSH2 0x20 PUSH1 0x0 CODECOPY PUSH1 0x0 RETURN INVALID PUSH1 0x80 PUSH1 0x40 MSTORE CALLVALUE DUP1 ISZERO PUSH3 0x11 JUMPI PUSH1 0x0 DUP1 REVERT JUMPDEST POP PUSH1 0x4 CALLDATASIZE LT PUSH3 0x46 JUMPI PUSH1 0x0 CALLDATALOAD PUSH1 0xE0 SHR DUP1 PUSH4 0xA9CE09C EQ PUSH3 0x4B JUMPI DUP1 PUSH4 0x9106E0DE EQ PUSH3 0x81 JUMPI DUP1 PUSH4 0xCC9085E5 EQ PUSH3 0xBE JUMPI JUMPDEST PUSH1 0x0 DUP1 REVERT JUMPDEST PUSH3 0x69 PUSH1 0x4 DUP1 CALLDATASIZE SUB DUP2 ADD SWAP1 PUSH3 0x63 SWAP2 SWAP1 PUSH3 0xC5C JUMP JUMPDEST PUSH3 0xDE JUMP JUMPDEST PUSH1 0x40 MLOAD PUSH3 0x78 SWAP2 SWAP1 PUSH3 0xF4C JUMP JUMPDEST PUSH1 0x40 MLOAD DUP1 SWAP2 SUB SWAP1 RETURN JUMPDEST PUSH3 0x9F PUSH1 0x4 DUP1 CALLDATASIZE SUB DUP2 ADD SWAP1 PUSH3 0x99 SWAP2 SWAP1 PUSH3 0xFA1 JUMP JUMPDEST PUSH3 0x4CC JUMP JUMPDEST PUSH1 0x40 MLOAD PUSH3 0xB5 SWAP9 SWAP8 SWAP7 SWAP6 SWAP5 SWAP4 SWAP3 SWAP2 SWAP1 PUSH3 0x107B JUMP JUMPDEST PUSH1 0x40 MLOAD DUP1 SWAP2 SUB SWAP1 RETURN JUMPDEST PUSH3 0xDC PUSH1 0x4 DUP1 CALLDATASIZE SUB DUP2 ADD SWAP1 PUSH3 0xD6 SWAP2 SWAP1 PUSH3 0x112C JUMP JUMPDEST PUSH3 0x838 JUMP JUMPDEST STOP JUMPDEST PUSH1 0x60 PUSH1 0x0 DUP3 PUSH1 0x40 MLOAD PUSH3 0xF2 SWAP2 SWAP1 PUSH3 0x1307 JUMP JUMPDEST SWAP1 DUP2 MSTORE PUSH1 0x20 ADD PUSH1 0x40 MLOAD DUP1 SWAP2 SUB SWAP1 KECCAK256 DUP1 SLOAD DUP1 PUSH1 0x20 MUL PUSH1 0x20 ADD PUSH1 0x40 MLOAD SWAP1 DUP2 ADD PUSH1 0x40 MSTORE DUP1 SWAP3 SWAP2 SWAP1 DUP2 DUP2 MSTORE PUSH1 0x20 ADD PUSH1 0x0 SWAP1 JUMPDEST DUP3 DUP3 LT ISZERO PUSH3 0x4C1 JUMPI DUP4 DUP3 SWAP1 PUSH1 0x0 MSTORE PUSH1 0x20 PUSH1 0x0 KECCAK256 SWAP1 PUSH1 0x8 MUL ADD PUSH1 0x40 MLOAD DUP1 PUSH2 0x100 ADD PUSH1 0x40 MSTORE SWAP1 DUP2 PUSH1 0x0 DUP3 ADD PUSH1 0x0 SWAP1 SLOAD SWAP1 PUSH2 0x100 EXP SWAP1 DIV PUSH20 0xFFFFFFFFFFFFFFFFFFFFFFFFFFFFFFFFFFFFFFFF AND PUSH20 0xFFFFFFFFFFFFFFFFFFFFFFFFFFFFFFFFFFFFFFFF AND PUSH20 0xFFFFFFFFFFFFFFFFFFFFFFFFFFFFFFFFFFFFFFFF AND DUP2 MSTORE PUSH1 0x20 ADD PUSH1 0x1 DUP3 ADD DUP1 SLOAD PUSH3 0x1AD SWAP1 PUSH3 0x134F JUMP JUMPDEST DUP1 PUSH1 0x1F ADD PUSH1 0x20 DUP1 SWAP2 DIV MUL PUSH1 0x20 ADD PUSH1 0x40 MLOAD SWAP1 DUP2 ADD PUSH1 0x40 MSTORE DUP1 SWAP3 SWAP2 SWAP1 DUP2 DUP2 MSTORE PUSH1 0x20 ADD DUP3 DUP1 SLOAD PUSH3 0x1DB SWAP1 PUSH3 0x134F JUMP JUMPDEST DUP1 ISZERO PUSH3 0x22C JUMPI DUP1 PUSH1 0x1F LT PUSH3 0x200 JUMPI PUSH2 0x100 DUP1 DUP4 SLOAD DIV MUL DUP4 MSTORE SWAP2 PUSH1 0x20 ADD SWAP2 PUSH3 0x22C JUMP JUMPDEST DUP3 ADD SWAP2 SWAP1 PUSH1 0x0 MSTORE PUSH1 0x20 PUSH1 0x0 KECCAK256 SWAP1 JUMPDEST DUP2 SLOAD DUP2 MSTORE SWAP1 PUSH1 0x1 ADD SWAP1 PUSH1 0x20 ADD DUP1 DUP4 GT PUSH3 0x20E JUMPI DUP3 SWAP1 SUB PUSH1 0x1F AND DUP3 ADD SWAP2 JUMPDEST POP POP POP POP POP DUP2 MSTORE PUSH1 0x20 ADD PUSH1 0x2 DUP3 ADD DUP1 SLOAD PUSH3 0x247 SWAP1 PUSH3 0x134F JUMP JUMPDEST DUP1 PUSH1 0x1F ADD PUSH1 0x20 DUP1 SWAP2 DIV MUL PUSH1 0x20 ADD PUSH1 0x40 MLOAD SWAP1 DUP2 ADD PUSH1 0x40 MSTORE DUP1 SWAP3 SWAP2 SWAP1 DUP2 DUP2 MSTORE PUSH1 0x20 ADD DUP3 DUP1 SLOAD PUSH3 0x275 SWAP1 PUSH3 0x134F JUMP JUMPDEST DUP1 ISZERO PUSH3 0x2C6 JUMPI DUP1 PUSH1 0x1F LT PUSH3 0x29A JUMPI PUSH2 0x100 DUP1 DUP4 SLOAD DIV MUL DUP4 MSTORE SWAP2 PUSH1 0x20 ADD SWAP2 PUSH3 0x2C6 JUMP JUMPDEST DUP3 ADD SWAP2 SWAP1 PUSH1 0x0 MSTORE PUSH1 0x20 PUSH1 0x0 KECCAK256 SWAP1 JUMPDEST DUP2 SLOAD DUP2 MSTORE SWAP1 PUSH1 0x1 ADD SWAP1 PUSH1 0x20 ADD DUP1 DUP4 GT PUSH3 0x2A8 JUMPI DUP3 SWAP1 SUB PUSH1 0x1F AND DUP3 ADD SWAP2 JUMPDEST POP POP POP POP POP DUP2 MSTORE PUSH1 0x20 ADD PUSH1 0x3 DUP3 ADD DUP1 SLOAD PUSH3 0x2E1 SWAP1 PUSH3 0x134F JUMP JUMPDEST DUP1 PUSH1 0x1F ADD PUSH1 0x20 DUP1 SWAP2 DIV MUL PUSH1 0x20 ADD PUSH1 0x40 MLOAD SWAP1 DUP2 ADD PUSH1 0x40 MSTORE DUP1 SWAP3 SWAP2 SWAP1 DUP2 DUP2 MSTORE PUSH1 0x20 ADD DUP3 DUP1 SLOAD PUSH3 0x30F SWAP1 PUSH3 0x134F JUMP JUMPDEST DUP1 ISZERO PUSH3 0x360 JUMPI DUP1 PUSH1 0x1F LT PUSH3 0x334 JUMPI PUSH2 0x100 DUP1 DUP4 SLOAD DIV MUL DUP4 MSTORE SWAP2 PUSH1 0x20 ADD SWAP2 PUSH3 0x360 JUMP JUMPDEST DUP3 ADD SWAP2 SWAP1 PUSH1 0x0 MSTORE PUSH1 0x20 PUSH1 0x0 KECCAK256 SWAP1 JUMPDEST DUP2 SLOAD DUP2 MSTORE SWAP1 PUSH1 0x1 ADD SWAP1 PUSH1 0x20 ADD DUP1 DUP4 GT PUSH3 0x342 JUMPI DUP3 SWAP1 SUB PUSH1 0x1F AND DUP3 ADD SWAP2 JUMPDEST POP POP POP POP POP DUP2 MSTORE PUSH1 0x20 ADD PUSH1 0x4 DUP3 ADD DUP1 SLOAD PUSH3 0x37B SWAP1 PUSH3 0x134F JUMP JUMPDEST DUP1 PUSH1 0x1F ADD PUSH1 0x20 DUP1 SWAP2 DIV MUL PUSH1 0x20 ADD PUSH1 0x40 MLOAD SWAP1 DUP2 ADD PUSH1 0x40 MSTORE DUP1 SWAP3 SWAP2 SWAP1 DUP2 DUP2 MSTORE PUSH1 0x20 ADD DUP3 DUP1 SLOAD PUSH3 0x3A9 SWAP1 PUSH3 0x134F JUMP JUMPDEST DUP1 ISZERO PUSH3 0x3FA JUMPI DUP1 PUSH1 0x1F LT PUSH3 0x3CE JUMPI PUSH2 0x100 DUP1 DUP4 SLOAD DIV MUL DUP4 MSTORE SWAP2 PUSH1 0x20 ADD SWAP2 PUSH3 0x3FA JUMP JUMPDEST DUP3 ADD SWAP2 SWAP1 PUSH1 0x0 MSTORE PUSH1 0x20 PUSH1 0x0 KECCAK256 SWAP1 JUMPDEST DUP2 SLOAD DUP2 MSTORE SWAP1 PUSH1 0x1 ADD SWAP1 PUSH1 0x20 ADD DUP1 DUP4 GT PUSH3 0x3DC JUMPI DUP3 SWAP1 SUB PUSH1 0x1F AND DUP3 ADD SWAP2 JUMPDEST POP POP POP POP POP DUP2 MSTORE PUSH1 0x20 ADD PUSH1 0x5 DUP3 ADD DUP1 SLOAD PUSH3 0x415 SWAP1 PUSH3 0x134F JUMP JUMPDEST DUP1 PUSH1 0x1F ADD PUSH1 0x20 DUP1 SWAP2 DIV MUL PUSH1 0x20 ADD PUSH1 0x40 MLOAD SWAP1 DUP2 ADD PUSH1 0x40 MSTORE DUP1 SWAP3 SWAP2 SWAP1 DUP2 DUP2 MSTORE PUSH1 0x20 ADD DUP3 DUP1 SLOAD PUSH3 0x443 SWAP1 PUSH3 0x134F JUMP JUMPDEST DUP1 ISZERO PUSH3 0x494 JUMPI DUP1 PUSH1 0x1F LT PUSH3 0x468 JUMPI PUSH2 0x100 DUP1 DUP4 SLOAD DIV MUL DUP4 MSTORE SWAP2 PUSH1 0x20 ADD SWAP2 PUSH3 0x494 JUMP JUMPDEST DUP3 ADD SWAP2 SWAP1 PUSH1 0x0 MSTORE PUSH1 0x20 PUSH1 0x0 KECCAK256 SWAP1 JUMPDEST DUP2 SLOAD DUP2 MSTORE SWAP1 PUSH1 0x1 ADD SWAP1 PUSH1 0x20 ADD DUP1 DUP4 GT PUSH3 0x476 JUMPI DUP3 SWAP1 SUB PUSH1 0x1F AND DUP3 ADD SWAP2 JUMPDEST POP POP POP POP POP DUP2 MSTORE PUSH1 0x20 ADD PUSH1 0x6 DUP3 ADD SLOAD DUP2 MSTORE PUSH1 0x20 ADD PUSH1 0x7 DUP3 ADD SLOAD DUP2 MSTORE POP POP DUP2 MSTORE PUSH1 0x20 ADD SWAP1 PUSH1 0x1 ADD SWAP1 PUSH3 0x120 JUMP JUMPDEST POP POP POP POP SWAP1 POP SWAP2 SWAP1 POP JUMP JUMPDEST PUSH1 0x0 DUP3 DUP1 MLOAD PUSH1 0x20 DUP2 ADD DUP3 ADD DUP1 MLOAD DUP5 DUP3 MSTORE PUSH1 0x20 DUP4 ADD PUSH1 0x20 DUP6 ADD KECCAK256 DUP2 DUP4 MSTORE DUP1 SWAP6 POP POP POP POP POP POP DUP2 DUP2 SLOAD DUP2 LT PUSH3 0x4FF JUMPI PUSH1 0x0 DUP1 REVERT JUMPDEST SWAP1 PUSH1 0x0 MSTORE PUSH1 0x20 PUSH1 0x0 KECCAK256 SWAP1 PUSH1 0x8 MUL ADD PUSH1 0x0 SWAP2 POP SWAP2 POP POP DUP1 PUSH1 0x0 ADD PUSH1 0x0 SWAP1 SLOAD SWAP1 PUSH2 0x100 EXP SWAP1 DIV PUSH20 0xFFFFFFFFFFFFFFFFFFFFFFFFFFFFFFFFFFFFFFFF AND SWAP1 DUP1 PUSH1 0x1 ADD DUP1 SLOAD PUSH3 0x54B SWAP1 PUSH3 0x134F JUMP JUMPDEST DUP1 PUSH1 0x1F ADD PUSH1 0x20 DUP1 SWAP2 DIV MUL PUSH1 0x20 ADD PUSH1 0x40 MLOAD SWAP1 DUP2 ADD PUSH1 0x40 MSTORE DUP1 SWAP3 SWAP2 SWAP1 DUP2 DUP2 MSTORE PUSH1 0x20 ADD DUP3 DUP1 SLOAD PUSH3 0x579 SWAP1 PUSH3 0x134F JUMP JUMPDEST DUP1 ISZERO PUSH3 0x5CA JUMPI DUP1 PUSH1 0x1F LT PUSH3 0x59E JUMPI PUSH2 0x100 DUP1 DUP4 SLOAD DIV MUL DUP4 MSTORE SWAP2 PUSH1 0x20 ADD SWAP2 PUSH3 0x5CA JUMP JUMPDEST DUP3 ADD SWAP2 SWAP1 PUSH1 0x0 MSTORE PUSH1 0x20 PUSH1 0x0 KECCAK256 SWAP1 JUMPDEST DUP2 SLOAD DUP2 MSTORE SWAP1 PUSH1 0x1 ADD SWAP1 PUSH1 0x20 ADD DUP1 DUP4 GT PUSH3 0x5AC JUMPI DUP3 SWAP1 SUB PUSH1 0x1F AND DUP3 ADD SWAP2 JUMPDEST POP POP POP POP POP SWAP1 DUP1 PUSH1 0x2 ADD DUP1 SLOAD PUSH3 0x5E1 SWAP1 PUSH3 0x134F JUMP JUMPDEST DUP1 PUSH1 0x1F ADD PUSH1 0x20 DUP1 SWAP2 DIV MUL PUSH1 0x20 ADD PUSH1 0x40 MLOAD SWAP1 DUP2 ADD PUSH1 0x40 MSTORE DUP1 SWAP3 SWAP2 SWAP1 DUP2 DUP2 MSTORE PUSH1 0x20 ADD DUP3 DUP1 SLOAD PUSH3 0x60F SWAP1 PUSH3 0x134F JUMP JUMPDEST DUP1 ISZERO PUSH3 0x660 JUMPI DUP1 PUSH1 0x1F LT PUSH3 0x634 JUMPI PUSH2 0x100 DUP1 DUP4 SLOAD DIV MUL DUP4 MSTORE SWAP2 PUSH1 0x20 ADD SWAP2 PUSH3 0x660 JUMP JUMPDEST DUP3 ADD SWAP2 SWAP1 PUSH1 0x0 MSTORE PUSH1 0x20 PUSH1 0x0 KECCAK256 SWAP1 JUMPDEST DUP2 SLOAD DUP2 MSTORE SWAP1 PUSH1 0x1 ADD SWAP1 PUSH1 0x20 ADD DUP1 DUP4 GT PUSH3 0x642 JUMPI DUP3 SWAP1 SUB PUSH1 0x1F AND DUP3 ADD SWAP2 JUMPDEST POP POP POP POP POP SWAP1 DUP1 PUSH1 0x3 ADD DUP1 SLOAD PUSH3 0x677 SWAP1 PUSH3 0x134F JUMP JUMPDEST DUP1 PUSH1 0x1F ADD PUSH1 0x20 DUP1 SWAP2 DIV MUL PUSH1 0x20 ADD PUSH1 0x40 MLOAD SWAP1 DUP2 ADD PUSH1 0x40 MSTORE DUP1 SWAP3 SWAP2 SWAP1 DUP2 DUP2 MSTORE PUSH1 0x20 ADD DUP3 DUP1 SLOAD PUSH3 0x6A5 SWAP1 PUSH3 0x134F JUMP JUMPDEST DUP1 ISZERO PUSH3 0x6F6 JUMPI DUP1 PUSH1 0x1F LT PUSH3 0x6CA JUMPI PUSH2 0x100 DUP1 DUP4 SLOAD DIV MUL DUP4 MSTORE SWAP2 PUSH1 0x20 ADD SWAP2 PUSH3 0x6F6 JUMP JUMPDEST DUP3 ADD SWAP2 SWAP1 PUSH1 0x0 MSTORE PUSH1 0x20 PUSH1 0x0 KECCAK256 SWAP1 JUMPDEST DUP2 SLOAD DUP2 MSTORE SWAP1 PUSH1 0x1 ADD SWAP1 PUSH1 0x20 ADD DUP1 DUP4 GT PUSH3 0x6D8 JUMPI DUP3 SWAP1 SUB PUSH1 0x1F AND DUP3 ADD SWAP2 JUMPDEST POP POP POP POP POP SWAP1 DUP1 PUSH1 0x4 ADD DUP1 SLOAD PUSH3 0x70D SWAP1 PUSH3 0x134F JUMP JUMPDEST DUP1 PUSH1 0x1F ADD PUSH1 0x20 DUP1 SWAP2 DIV MUL PUSH1 0x20 ADD PUSH1 0x40 MLOAD SWAP1 DUP2 ADD PUSH1 0x40 MSTORE DUP1 SWAP3 SWAP2 SWAP1 DUP2 DUP2 MSTORE PUSH1 0x20 ADD DUP3 DUP1 SLOAD PUSH3 0x73B SWAP1 PUSH3 0x134F JUMP JUMPDEST DUP1 ISZERO PUSH3 0x78C JUMPI DUP1 PUSH1 0x1F LT PUSH3 0x760 JUMPI PUSH2 0x100 DUP1 DUP4 SLOAD DIV MUL DUP4 MSTORE SWAP2 PUSH1 0x20 ADD SWAP2 PUSH3 0x78C JUMP JUMPDEST DUP3 ADD SWAP2 SWAP1 PUSH1 0x0 MSTORE PUSH1 0x20 PUSH1 0x0 KECCAK256 SWAP1 JUMPDEST DUP2 SLOAD DUP2 MSTORE SWAP1 PUSH1 0x1 ADD SWAP1 PUSH1 0x20 ADD DUP1 DUP4 GT PUSH3 0x76E JUMPI DUP3 SWAP1 SUB PUSH1 0x1F AND DUP3 ADD SWAP2 JUMPDEST POP POP POP POP POP SWAP1 DUP1 PUSH1 0x5 ADD DUP1 SLOAD PUSH3 0x7A3 SWAP1 PUSH3 0x134F JUMP JUMPDEST DUP1 PUSH1 0x1F ADD PUSH1 0x20 DUP1 SWAP2 DIV MUL PUSH1 0x20 ADD PUSH1 0x40 MLOAD SWAP1 DUP2 ADD PUSH1 0x40 MSTORE DUP1 SWAP3 SWAP2 SWAP1 DUP2 DUP2 MSTORE PUSH1 0x20 ADD DUP3 DUP1 SLOAD PUSH3 0x7D1 SWAP1 PUSH3 0x134F JUMP JUMPDEST DUP1 ISZERO PUSH3 0x822 JUMPI DUP1 PUSH1 0x1F LT PUSH3 0x7F6 JUMPI PUSH2 0x100 DUP1 DUP4 SLOAD DIV MUL DUP4 MSTORE SWAP2 PUSH1 0x20 ADD SWAP2 PUSH3 0x822 JUMP JUMPDEST DUP3 ADD SWAP2 SWAP1 PUSH1 0x0 MSTORE PUSH1 0x20 PUSH1 0x0 KECCAK256 SWAP1 JUMPDEST DUP2 SLOAD DUP2 MSTORE SWAP1 PUSH1 0x1 ADD SWAP1 PUSH1 0x20 ADD DUP1 DUP4 GT PUSH3 0x804 JUMPI DUP3 SWAP1 SUB PUSH1 0x1F AND DUP3 ADD SWAP2 JUMPDEST POP POP POP POP POP SWAP1 DUP1 PUSH1 0x6 ADD SLOAD SWAP1 DUP1 PUSH1 0x7 ADD SLOAD SWAP1 POP DUP9 JUMP JUMPDEST PUSH1 0x0 CALLER DUP11 DUP11 DUP11 DUP11 DUP11 DUP10 DUP10 DUP10 PUSH1 0x40 MLOAD PUSH3 0x851 SWAP1 PUSH3 0xA28 JUMP JUMPDEST PUSH3 0x865 SWAP10 SWAP9 SWAP8 SWAP7 SWAP6 SWAP5 SWAP4 SWAP3 SWAP2 SWAP1 PUSH3 0x1385 JUMP JUMPDEST PUSH1 0x40 MLOAD DUP1 SWAP2 SUB SWAP1 PUSH1 0x0 CREATE DUP1 ISZERO DUP1 ISZERO PUSH3 0x882 JUMPI RETURNDATASIZE PUSH1 0x0 DUP1 RETURNDATACOPY RETURNDATASIZE PUSH1 0x0 REVERT JUMPDEST POP SWAP1 POP PUSH1 0x0 PUSH1 0x40 MLOAD DUP1 PUSH2 0x100 ADD PUSH1 0x40 MSTORE DUP1 DUP4 PUSH20 0xFFFFFFFFFFFFFFFFFFFFFFFFFFFFFFFFFFFFFFFF AND DUP2 MSTORE PUSH1 0x20 ADD DUP13 DUP2 MSTORE PUSH1 0x20 ADD DUP12 DUP2 MSTORE PUSH1 0x20 ADD DUP11 DUP2 MSTORE PUSH1 0x20 ADD DUP10 DUP2 MSTORE PUSH1 0x20 ADD DUP9 DUP2 MSTORE PUSH1 0x20 ADD DUP6 DUP2 MSTORE PUSH1 0x20 ADD DUP5 DUP2 MSTORE POP SWAP1 POP PUSH1 0x0 DUP7 PUSH1 0x40 MLOAD PUSH3 0x8EB SWAP2 SWAP1 PUSH3 0x1307 JUMP JUMPDEST SWAP1 DUP2 MSTORE PUSH1 0x20 ADD PUSH1 0x40 MLOAD DUP1 SWAP2 SUB SWAP1 KECCAK256 DUP2 SWAP1 DUP1 PUSH1 0x1 DUP2 SLOAD ADD DUP1 DUP3 SSTORE DUP1 SWAP2 POP POP PUSH1 0x1 SWAP1 SUB SWAP1 PUSH1 0x0 MSTORE PUSH1 0x20 PUSH1 0x0 KECCAK256 SWAP1 PUSH1 0x8 MUL ADD PUSH1 0x0 SWAP1 SWAP2 SWAP1 SWAP2 SWAP1 SWAP2 POP PUSH1 0x0 DUP3 ADD MLOAD DUP2 PUSH1 0x0 ADD PUSH1 0x0 PUSH2 0x100 EXP DUP2 SLOAD DUP2 PUSH20 0xFFFFFFFFFFFFFFFFFFFFFFFFFFFFFFFFFFFFFFFF MUL NOT AND SWAP1 DUP4 PUSH20 0xFFFFFFFFFFFFFFFFFFFFFFFFFFFFFFFFFFFFFFFF AND MUL OR SWAP1 SSTORE POP PUSH1 0x20 DUP3 ADD MLOAD DUP2 PUSH1 0x1 ADD SWAP1 DUP1 MLOAD SWAP1 PUSH1 0x20 ADD SWAP1 PUSH3 0x988 SWAP3 SWAP2 SWAP1 PUSH3 0xA36 JUMP JUMPDEST POP PUSH1 0x40 DUP3 ADD MLOAD DUP2 PUSH1 0x2 ADD SWAP1 DUP1 MLOAD SWAP1 PUSH1 0x20 ADD SWAP1 PUSH3 0x9A7 SWAP3 SWAP2 SWAP1 PUSH3 0xA36 JUMP JUMPDEST POP PUSH1 0x60 DUP3 ADD MLOAD DUP2 PUSH1 0x3 ADD SWAP1 DUP1 MLOAD SWAP1 PUSH1 0x20 ADD SWAP1 PUSH3 0x9C6 SWAP3 SWAP2 SWAP1 PUSH3 0xA36 JUMP JUMPDEST POP PUSH1 0x80 DUP3 ADD MLOAD DUP2 PUSH1 0x4 ADD SWAP1 DUP1 MLOAD SWAP1 PUSH1 0x20 ADD SWAP1 PUSH3 0x9E5 SWAP3 SWAP2 SWAP1 PUSH3 0xA36 JUMP JUMPDEST POP PUSH1 0xA0 DUP3 ADD MLOAD DUP2 PUSH1 0x5 ADD SWAP1 DUP1 MLOAD SWAP1 PUSH1 0x20 ADD SWAP1 PUSH3 0xA04 SWAP3 SWAP2 SWAP1 PUSH3 0xA36 JUMP JUMPDEST POP PUSH1 0xC0 DUP3 ADD MLOAD DUP2 PUSH1 0x6 ADD SSTORE PUSH1 0xE0 DUP3 ADD MLOAD DUP2 PUSH1 0x7 ADD SSTORE POP POP POP POP POP POP POP POP POP POP POP POP POP JUMP JUMPDEST PUSH2 0x1C95 DUP1 PUSH3 0x1448 DUP4 CODECOPY ADD SWAP1 JUMP JUMPDEST DUP3 DUP1 SLOAD PUSH3 0xA44 SWAP1 PUSH3 0x134F JUMP JUMPDEST SWAP1 PUSH1 0x0 MSTORE PUSH1 0x20 PUSH1 0x0 KECCAK256 SWAP1 PUSH1 0x1F ADD PUSH1 0x20 SWAP1 DIV DUP2 ADD SWAP3 DUP3 PUSH3 0xA68 JUMPI PUSH1 0x0 DUP6 SSTORE PUSH3 0xAB4 JUMP JUMPDEST DUP3 PUSH1 0x1F LT PUSH3 0xA83 JUMPI DUP1 MLOAD PUSH1 0xFF NOT AND DUP4 DUP1 ADD OR DUP6 SSTORE PUSH3 0xAB4 JUMP JUMPDEST DUP3 DUP1 ADD PUSH1 0x1 ADD DUP6 SSTORE DUP3 ISZERO PUSH3 0xAB4 JUMPI SWAP2 DUP3 ADD JUMPDEST DUP3 DUP2 GT ISZERO PUSH3 0xAB3 JUMPI DUP3 MLOAD DUP3 SSTORE SWAP2 PUSH1 0x20 ADD SWAP2 SWAP1 PUSH1 0x1 ADD SWAP1 PUSH3 0xA96 JUMP JUMPDEST JUMPDEST POP SWAP1 POP PUSH3 0xAC3 SWAP2 SWAP1 PUSH3 0xAC7 JUMP JUMPDEST POP SWAP1 JUMP JUMPDEST JUMPDEST DUP1 DUP3 GT ISZERO PUSH3 0xAE2 JUMPI PUSH1 0x0 DUP2 PUSH1 0x0 SWAP1 SSTORE POP PUSH1 0x1 ADD PUSH3 0xAC8 JUMP JUMPDEST POP SWAP1 JUMP JUMPDEST PUSH1 0x0 PUSH1 0x40 MLOAD SWAP1 POP SWAP1 JUMP JUMPDEST PUSH1 0x0 DUP1 REVERT JUMPDEST PUSH1 0x0 DUP1 REVERT JUMPDEST PUSH1 0x0 DUP1 REVERT JUMPDEST PUSH1 0x0 DUP1 REVERT JUMPDEST PUSH1 0x0 PUSH1 0x1F NOT PUSH1 0x1F DUP4 ADD AND SWAP1 POP SWAP2 SWAP1 POP JUMP JUMPDEST PUSH32 0x4E487B7100000000000000000000000000000000000000000000000000000000 PUSH1 0x0 MSTORE PUSH1 0x41 PUSH1 0x4 MSTORE PUSH1 0x24 PUSH1 0x0 REVERT JUMPDEST PUSH3 0xB4F DUP3 PUSH3 0xB04 JUMP JUMPDEST DUP2 ADD DUP2 DUP2 LT PUSH8 0xFFFFFFFFFFFFFFFF DUP3 GT OR ISZERO PUSH3 0xB71 JUMPI PUSH3 0xB70 PUSH3 0xB15 JUMP JUMPDEST JUMPDEST DUP1 PUSH1 0x40 MSTORE POP POP POP JUMP JUMPDEST PUSH1 0x0 PUSH3 0xB86 PUSH3 0xAE6 JUMP JUMPDEST SWAP1 POP PUSH3 0xB94 DUP3 DUP3 PUSH3 0xB44 JUMP JUMPDEST SWAP2 SWAP1 POP JUMP JUMPDEST PUSH1 0x0 PUSH8 0xFFFFFFFFFFFFFFFF DUP3 GT ISZERO PUSH3 0xBB7 JUMPI PUSH3 0xBB6 PUSH3 0xB15 JUMP JUMPDEST JUMPDEST PUSH3 0xBC2 DUP3 PUSH3 0xB04 JUMP JUMPDEST SWAP1 POP PUSH1 0x20 DUP2 ADD SWAP1 POP SWAP2 SWAP1 POP JUMP JUMPDEST DUP3 DUP2 DUP4 CALLDATACOPY PUSH1 0x0 DUP4 DUP4 ADD MSTORE POP POP POP JUMP JUMPDEST PUSH1 0x0 PUSH3 0xBF5 PUSH3 0xBEF DUP5 PUSH3 0xB99 JUMP JUMPDEST PUSH3 0xB7A JUMP JUMPDEST SWAP1 POP DUP3 DUP2 MSTORE PUSH1 0x20 DUP2 ADD DUP5 DUP5 DUP5 ADD GT ISZERO PUSH3 0xC14 JUMPI PUSH3 0xC13 PUSH3 0xAFF JUMP JUMPDEST JUMPDEST PUSH3 0xC21 DUP5 DUP3 DUP6 PUSH3 0xBCF JUMP JUMPDEST POP SWAP4 SWAP3 POP POP POP JUMP JUMPDEST PUSH1 0x0 DUP3 PUSH1 0x1F DUP4 ADD SLT PUSH3 0xC41 JUMPI PUSH3 0xC40 PUSH3 0xAFA JUMP JUMPDEST JUMPDEST DUP2 CALLDATALOAD PUSH3 0xC53 DUP5 DUP3 PUSH1 0x20 DUP7 ADD PUSH3 0xBDE JUMP JUMPDEST SWAP2 POP POP SWAP3 SWAP2 POP POP JUMP JUMPDEST PUSH1 0x0 PUSH1 0x20 DUP3 DUP5 SUB SLT ISZERO PUSH3 0xC75 JUMPI PUSH3 0xC74 PUSH3 0xAF0 JUMP JUMPDEST JUMPDEST PUSH1 0x0 DUP3 ADD CALLDATALOAD PUSH8 0xFFFFFFFFFFFFFFFF DUP2 GT ISZERO PUSH3 0xC96 JUMPI PUSH3 0xC95 PUSH3 0xAF5 JUMP JUMPDEST JUMPDEST PUSH3 0xCA4 DUP5 DUP3 DUP6 ADD PUSH3 0xC29 JUMP JUMPDEST SWAP2 POP POP SWAP3 SWAP2 POP POP JUMP JUMPDEST PUSH1 0x0 DUP2 MLOAD SWAP1 POP SWAP2 SWAP1 POP JUMP JUMPDEST PUSH1 0x0 DUP3 DUP3 MSTORE PUSH1 0x20 DUP3 ADD SWAP1 POP SWAP3 SWAP2 POP POP JUMP JUMPDEST PUSH1 0x0 DUP2 SWAP1 POP PUSH1 0x20 DUP3 ADD SWAP1 POP SWAP2 SWAP1 POP JUMP JUMPDEST PUSH1 0x0 PUSH20 0xFFFFFFFFFFFFFFFFFFFFFFFFFFFFFFFFFFFFFFFF DUP3 AND SWAP1 POP SWAP2 SWAP1 POP JUMP JUMPDEST PUSH1 0x0 PUSH3 0xD06 DUP3 PUSH3 0xCD9 JUMP JUMPDEST SWAP1 POP SWAP2 SWAP1 POP JUMP JUMPDEST PUSH3 0xD18 DUP2 PUSH3 0xCF9 JUMP JUMPDEST DUP3 MSTORE POP POP JUMP JUMPDEST PUSH1 0x0 DUP2 MLOAD SWAP1 POP SWAP2 SWAP1 POP JUMP JUMPDEST PUSH1 0x0 DUP3 DUP3 MSTORE PUSH1 0x20 DUP3 ADD SWAP1 POP SWAP3 SWAP2 POP POP JUMP JUMPDEST PUSH1 0x0 JUMPDEST DUP4 DUP2 LT ISZERO PUSH3 0xD5A JUMPI DUP1 DUP3 ADD MLOAD DUP2 DUP5 ADD MSTORE PUSH1 0x20 DUP2 ADD SWAP1 POP PUSH3 0xD3D JUMP JUMPDEST DUP4 DUP2 GT ISZERO PUSH3 0xD6A JUMPI PUSH1 0x0 DUP5 DUP5 ADD MSTORE JUMPDEST POP POP POP POP JUMP JUMPDEST PUSH1 0x0 PUSH3 0xD7D DUP3 PUSH3 0xD1E JUMP JUMPDEST PUSH3 0xD89 DUP2 DUP6 PUSH3 0xD29 JUMP JUMPDEST SWAP4 POP PUSH3 0xD9B DUP2 DUP6 PUSH1 0x20 DUP7 ADD PUSH3 0xD3A JUMP JUMPDEST PUSH3 0xDA6 DUP2 PUSH3 0xB04 JUMP JUMPDEST DUP5 ADD SWAP2 POP POP SWAP3 SWAP2 POP POP JUMP JUMPDEST PUSH1 0x0 DUP2 SWAP1 POP SWAP2 SWAP1 POP JUMP JUMPDEST PUSH3 0xDC6 DUP2 PUSH3 0xDB1 JUMP JUMPDEST DUP3 MSTORE POP POP JUMP JUMPDEST PUSH1 0x0 PUSH2 0x100 DUP4 ADD PUSH1 0x0 DUP4 ADD MLOAD PUSH3 0xDE7 PUSH1 0x0 DUP7 ADD DUP3 PUSH3 0xD0D JUMP JUMPDEST POP PUSH1 0x20 DUP4 ADD MLOAD DUP5 DUP3 SUB PUSH1 0x20 DUP7 ADD MSTORE PUSH3 0xE01 DUP3 DUP3 PUSH3 0xD70 JUMP JUMPDEST SWAP2 POP POP PUSH1 0x40 DUP4 ADD MLOAD DUP5 DUP3 SUB PUSH1 0x40 DUP7 ADD MSTORE PUSH3 0xE1D DUP3 DUP3 PUSH3 0xD70 JUMP JUMPDEST SWAP2 POP POP PUSH1 0x60 DUP4 ADD MLOAD DUP5 DUP3 SUB PUSH1 0x60 DUP7 ADD MSTORE PUSH3 0xE39 DUP3 DUP3 PUSH3 0xD70 JUMP JUMPDEST SWAP2 POP POP PUSH1 0x80 DUP4 ADD MLOAD DUP5 DUP3 SUB PUSH1 0x80 DUP7 ADD MSTORE PUSH3 0xE55 DUP3 DUP3 PUSH3 0xD70 JUMP JUMPDEST SWAP2 POP POP PUSH1 0xA0 DUP4 ADD MLOAD DUP5 DUP3 SUB PUSH1 0xA0 DUP7 ADD MSTORE PUSH3 0xE71 DUP3 DUP3 PUSH3 0xD70 JUMP JUMPDEST SWAP2 POP POP PUSH1 0xC0 DUP4 ADD MLOAD PUSH3 0xE88 PUSH1 0xC0 DUP7 ADD DUP3 PUSH3 0xDBB JUMP JUMPDEST POP PUSH1 0xE0 DUP4 ADD MLOAD PUSH3 0xE9D PUSH1 0xE0 DUP7 ADD DUP3 PUSH3 0xDBB JUMP JUMPDEST POP DUP1 SWAP2 POP POP SWAP3 SWAP2 POP POP JUMP JUMPDEST PUSH1 0x0 PUSH3 0xEB6 DUP4 DUP4 PUSH3 0xDCC JUMP JUMPDEST SWAP1 POP SWAP3 SWAP2 POP POP JUMP JUMPDEST PUSH1 0x0 PUSH1 0x20 DUP3 ADD SWAP1 POP SWAP2 SWAP1 POP JUMP JUMPDEST PUSH1 0x0 PUSH3 0xED8 DUP3 PUSH3 0xCAD JUMP JUMPDEST PUSH3 0xEE4 DUP2 DUP6 PUSH3 0xCB8 JUMP JUMPDEST SWAP4 POP DUP4 PUSH1 0x20 DUP3 MUL DUP6 ADD PUSH3 0xEF8 DUP6 PUSH3 0xCC9 JUMP JUMPDEST DUP1 PUSH1 0x0 JUMPDEST DUP6 DUP2 LT ISZERO PUSH3 0xF3A JUMPI DUP5 DUP5 SUB DUP10 MSTORE DUP2 MLOAD PUSH3 0xF18 DUP6 DUP3 PUSH3 0xEA8 JUMP JUMPDEST SWAP5 POP PUSH3 0xF25 DUP4 PUSH3 0xEBE JUMP JUMPDEST SWAP3 POP PUSH1 0x20 DUP11 ADD SWAP10 POP POP PUSH1 0x1 DUP2 ADD SWAP1 POP PUSH3 0xEFC JUMP JUMPDEST POP DUP3 SWAP8 POP DUP8 SWAP6 POP POP POP POP POP POP SWAP3 SWAP2 POP POP JUMP JUMPDEST PUSH1 0x0 PUSH1 0x20 DUP3 ADD SWAP1 POP DUP2 DUP2 SUB PUSH1 0x0 DUP4 ADD MSTORE PUSH3 0xF68 DUP2 DUP5 PUSH3 0xECB JUMP JUMPDEST SWAP1 POP SWAP3 SWAP2 POP POP JUMP JUMPDEST PUSH3 0xF7B DUP2 PUSH3 0xDB1 JUMP JUMPDEST DUP2 EQ PUSH3 0xF87 JUMPI PUSH1 0x0 DUP1 REVERT JUMPDEST POP JUMP JUMPDEST PUSH1 0x0 DUP2 CALLDATALOAD SWAP1 POP PUSH3 0xF9B DUP2 PUSH3 0xF70 JUMP JUMPDEST SWAP3 SWAP2 POP POP JUMP JUMPDEST PUSH1 0x0 DUP1 PUSH1 0x40 DUP4 DUP6 SUB SLT ISZERO PUSH3 0xFBB JUMPI PUSH3 0xFBA PUSH3 0xAF0 JUMP JUMPDEST JUMPDEST PUSH1 0x0 DUP4 ADD CALLDATALOAD PUSH8 0xFFFFFFFFFFFFFFFF DUP2 GT ISZERO PUSH3 0xFDC JUMPI PUSH3 0xFDB PUSH3 0xAF5 JUMP JUMPDEST JUMPDEST PUSH3 0xFEA DUP6 DUP3 DUP7 ADD PUSH3 0xC29 JUMP JUMPDEST SWAP3 POP POP PUSH1 0x20 PUSH3 0xFFD DUP6 DUP3 DUP7 ADD PUSH3 0xF8A JUMP JUMPDEST SWAP2 POP POP SWAP3 POP SWAP3 SWAP1 POP JUMP JUMPDEST PUSH3 0x1012 DUP2 PUSH3 0xCF9 JUMP JUMPDEST DUP3 MSTORE POP POP JUMP JUMPDEST PUSH1 0x0 DUP3 DUP3 MSTORE PUSH1 0x20 DUP3 ADD SWAP1 POP SWAP3 SWAP2 POP POP JUMP JUMPDEST PUSH1 0x0 PUSH3 0x1036 DUP3 PUSH3 0xD1E JUMP JUMPDEST PUSH3 0x1042 DUP2 DUP6 PUSH3 0x1018 JUMP JUMPDEST SWAP4 POP PUSH3 0x1054 DUP2 DUP6 PUSH1 0x20 DUP7 ADD PUSH3 0xD3A JUMP JUMPDEST PUSH3 0x105F DUP2 PUSH3 0xB04 JUMP JUMPDEST DUP5 ADD SWAP2 POP POP SWAP3 SWAP2 POP POP JUMP JUMPDEST PUSH3 0x1075 DUP2 PUSH3 0xDB1 JUMP JUMPDEST DUP3 MSTORE POP POP JUMP JUMPDEST PUSH1 0x0 PUSH2 0x100 DUP3 ADD SWAP1 POP PUSH3 0x1093 PUSH1 0x0 DUP4 ADD DUP12 PUSH3 0x1007 JUMP JUMPDEST DUP2 DUP2 SUB PUSH1 0x20 DUP4 ADD MSTORE PUSH3 0x10A7 DUP2 DUP11 PUSH3 0x1029 JUMP JUMPDEST SWAP1 POP DUP2 DUP2 SUB PUSH1 0x40 DUP4 ADD MSTORE PUSH3 0x10BD DUP2 DUP10 PUSH3 0x1029 JUMP JUMPDEST SWAP1 POP DUP2 DUP2 SUB PUSH1 0x60 DUP4 ADD MSTORE PUSH3 0x10D3 DUP2 DUP9 PUSH3 0x1029 JUMP JUMPDEST SWAP1 POP DUP2 DUP2 SUB PUSH1 0x80 DUP4 ADD MSTORE PUSH3 0x10E9 DUP2 DUP8 PUSH3 0x1029 JUMP JUMPDEST SWAP1 POP DUP2 DUP2 SUB PUSH1 0xA0 DUP4 ADD MSTORE PUSH3 0x10FF DUP2 DUP7 PUSH3 0x1029 JUMP JUMPDEST SWAP1 POP PUSH3 0x1110 PUSH1 0xC0 DUP4 ADD DUP6 PUSH3 0x106A JUMP JUMPDEST PUSH3 0x111F PUSH1 0xE0 DUP4 ADD DUP5 PUSH3 0x106A JUMP JUMPDEST SWAP10 SWAP9 POP POP POP POP POP POP POP POP POP JUMP JUMPDEST PUSH1 0x0 DUP1 PUSH1 0x0 DUP1 PUSH1 0x0 DUP1 PUSH1 0x0 DUP1 PUSH1 0x0 PUSH2 0x120 DUP11 DUP13 SUB SLT ISZERO PUSH3 0x1152 JUMPI PUSH3 0x1151 PUSH3 0xAF0 JUMP JUMPDEST JUMPDEST PUSH1 0x0 DUP11 ADD CALLDATALOAD PUSH8 0xFFFFFFFFFFFFFFFF DUP2 GT ISZERO PUSH3 0x1173 JUMPI PUSH3 0x1172 PUSH3 0xAF5 JUMP JUMPDEST JUMPDEST PUSH3 0x1181 DUP13 DUP3 DUP14 ADD PUSH3 0xC29 JUMP JUMPDEST SWAP10 POP POP PUSH1 0x20 DUP11 ADD CALLDATALOAD PUSH8 0xFFFFFFFFFFFFFFFF DUP2 GT ISZERO PUSH3 0x11A5 JUMPI PUSH3 0x11A4 PUSH3 0xAF5 JUMP JUMPDEST JUMPDEST PUSH3 0x11B3 DUP13 DUP3 DUP14 ADD PUSH3 0xC29 JUMP JUMPDEST SWAP9 POP POP PUSH1 0x40 DUP11 ADD CALLDATALOAD PUSH8 0xFFFFFFFFFFFFFFFF DUP2 GT ISZERO PUSH3 0x11D7 JUMPI PUSH3 0x11D6 PUSH3 0xAF5 JUMP JUMPDEST JUMPDEST PUSH3 0x11E5 DUP13 DUP3 DUP14 ADD PUSH3 0xC29 JUMP JUMPDEST SWAP8 POP POP PUSH1 0x60 DUP11 ADD CALLDATALOAD PUSH8 0xFFFFFFFFFFFFFFFF DUP2 GT ISZERO PUSH3 0x1209 JUMPI PUSH3 0x1208 PUSH3 0xAF5 JUMP JUMPDEST JUMPDEST PUSH3 0x1217 DUP13 DUP3 DUP14 ADD PUSH3 0xC29 JUMP JUMPDEST SWAP7 POP POP PUSH1 0x80 DUP11 ADD CALLDATALOAD PUSH8 0xFFFFFFFFFFFFFFFF DUP2 GT ISZERO PUSH3 0x123B JUMPI PUSH3 0x123A PUSH3 0xAF5 JUMP JUMPDEST JUMPDEST PUSH3 0x1249 DUP13 DUP3 DUP14 ADD PUSH3 0xC29 JUMP JUMPDEST SWAP6 POP POP PUSH1 0xA0 DUP11 ADD CALLDATALOAD PUSH8 0xFFFFFFFFFFFFFFFF DUP2 GT ISZERO PUSH3 0x126D JUMPI PUSH3 0x126C PUSH3 0xAF5 JUMP JUMPDEST JUMPDEST PUSH3 0x127B DUP13 DUP3 DUP14 ADD PUSH3 0xC29 JUMP JUMPDEST SWAP5 POP POP PUSH1 0xC0 PUSH3 0x128E DUP13 DUP3 DUP14 ADD PUSH3 0xF8A JUMP JUMPDEST SWAP4 POP POP PUSH1 0xE0 PUSH3 0x12A1 DUP13 DUP3 DUP14 ADD PUSH3 0xF8A JUMP JUMPDEST SWAP3 POP POP PUSH2 0x100 PUSH3 0x12B5 DUP13 DUP3 DUP14 ADD PUSH3 0xF8A JUMP JUMPDEST SWAP2 POP POP SWAP3 SWAP6 SWAP9 POP SWAP3 SWAP6 SWAP9 POP SWAP3 SWAP6 SWAP9 JUMP JUMPDEST PUSH1 0x0 DUP2 SWAP1 POP SWAP3 SWAP2 POP POP JUMP JUMPDEST PUSH1 0x0 PUSH3 0x12DD DUP3 PUSH3 0xD1E JUMP JUMPDEST PUSH3 0x12E9 DUP2 DUP6 PUSH3 0x12C5 JUMP JUMPDEST SWAP4 POP PUSH3 0x12FB DUP2 DUP6 PUSH1 0x20 DUP7 ADD PUSH3 0xD3A JUMP JUMPDEST DUP1 DUP5 ADD SWAP2 POP POP SWAP3 SWAP2 POP POP JUMP JUMPDEST PUSH1 0x0 PUSH3 0x1315 DUP3 DUP5 PUSH3 0x12D0 JUMP JUMPDEST SWAP2 POP DUP2 SWAP1 POP SWAP3 SWAP2 POP POP JUMP JUMPDEST PUSH32 0x4E487B7100000000000000000000000000000000000000000000000000000000 PUSH1 0x0 MSTORE PUSH1 0x22 PUSH1 0x4 MSTORE PUSH1 0x24 PUSH1 0x0 REVERT JUMPDEST PUSH1 0x0 PUSH1 0x2 DUP3 DIV SWAP1 POP PUSH1 0x1 DUP3 AND DUP1 PUSH3 0x1368 JUMPI PUSH1 0x7F DUP3 AND SWAP2 POP JUMPDEST PUSH1 0x20 DUP3 LT DUP2 EQ ISZERO PUSH3 0x137F JUMPI PUSH3 0x137E PUSH3 0x1320 JUMP JUMPDEST JUMPDEST POP SWAP2 SWAP1 POP JUMP JUMPDEST PUSH1 0x0 PUSH2 0x120 DUP3 ADD SWAP1 POP PUSH3 0x139D PUSH1 0x0 DUP4 ADD DUP13 PUSH3 0x1007 JUMP JUMPDEST DUP2 DUP2 SUB PUSH1 0x20 DUP4 ADD MSTORE PUSH3 0x13B1 DUP2 DUP12 PUSH3 0x1029 JUMP JUMPDEST SWAP1 POP DUP2 DUP2 SUB PUSH1 0x40 DUP4 ADD MSTORE PUSH3 0x13C7 DUP2 DUP11 PUSH3 0x1029 JUMP JUMPDEST SWAP1 POP DUP2 DUP2 SUB PUSH1 0x60 DUP4 ADD MSTORE PUSH3 0x13DD DUP2 DUP10 PUSH3 0x1029 JUMP JUMPDEST SWAP1 POP DUP2 DUP2 SUB PUSH1 0x80 DUP4 ADD MSTORE PUSH3 0x13F3 DUP2 DUP9 PUSH3 0x1029 JUMP JUMPDEST SWAP1 POP DUP2 DUP2 SUB PUSH1 0xA0 DUP4 ADD MSTORE PUSH3 0x1409 DUP2 DUP8 PUSH3 0x1029 JUMP JUMPDEST SWAP1 POP PUSH3 0x141A PUSH1 0xC0 DUP4 ADD DUP7 PUSH3 0x106A JUMP JUMPDEST PUSH3 0x1429 PUSH1 0xE0 DUP4 ADD DUP6 PUSH3 0x106A JUMP JUMPDEST PUSH3 0x1439 PUSH2 0x100 DUP4 ADD DUP5 PUSH3 0x106A JUMP JUMPDEST SWAP11 SWAP10 POP POP POP POP POP POP POP POP POP POP JUMP INVALID PUSH1 0x80 PUSH1 0x40 MSTORE CALLVALUE DUP1 ISZERO PUSH3 0x11 JUMPI PUSH1 0x0 DUP1 REVERT JUMPDEST POP PUSH1 0x40 MLOAD PUSH3 0x1C95 CODESIZE SUB DUP1 PUSH3 0x1C95 DUP4 CODECOPY DUP2 DUP2 ADD PUSH1 0x40 MSTORE DUP2 ADD SWAP1 PUSH3 0x37 SWAP2 SWAP1 PUSH3 0x406 JUMP JUMPDEST DUP9 PUSH1 0x7 PUSH1 0x0 PUSH2 0x100 EXP DUP2 SLOAD DUP2 PUSH20 0xFFFFFFFFFFFFFFFFFFFFFFFFFFFFFFFFFFFFFFFF MUL NOT AND SWAP1 DUP4 PUSH20 0xFFFFFFFFFFFFFFFFFFFFFFFFFFFFFFFFFFFFFFFF AND MUL OR SWAP1 SSTORE POP DUP8 PUSH1 0x0 SWAP1 DUP1 MLOAD SWAP1 PUSH1 0x20 ADD SWAP1 PUSH3 0x90 SWAP3 SWAP2 SWAP1 PUSH3 0x119 JUMP JUMPDEST POP DUP7 PUSH1 0x1 SWAP1 DUP1 MLOAD SWAP1 PUSH1 0x20 ADD SWAP1 PUSH3 0xA9 SWAP3 SWAP2 SWAP1 PUSH3 0x119 JUMP JUMPDEST POP DUP6 PUSH1 0x2 SWAP1 DUP1 MLOAD SWAP1 PUSH1 0x20 ADD SWAP1 PUSH3 0xC2 SWAP3 SWAP2 SWAP1 PUSH3 0x119 JUMP JUMPDEST POP DUP5 PUSH1 0x3 SWAP1 DUP1 MLOAD SWAP1 PUSH1 0x20 ADD SWAP1 PUSH3 0xDB SWAP3 SWAP2 SWAP1 PUSH3 0x119 JUMP JUMPDEST POP DUP4 PUSH1 0x4 SWAP1 DUP1 MLOAD SWAP1 PUSH1 0x20 ADD SWAP1 PUSH3 0xF4 SWAP3 SWAP2 SWAP1 PUSH3 0x119 JUMP JUMPDEST POP DUP3 PUSH1 0x8 DUP2 SWAP1 SSTORE POP DUP2 PUSH1 0x5 DUP2 SWAP1 SSTORE POP DUP1 PUSH1 0x6 DUP2 SWAP1 SSTORE POP POP POP POP POP POP POP POP POP POP PUSH3 0x5E5 JUMP JUMPDEST DUP3 DUP1 SLOAD PUSH3 0x127 SWAP1 PUSH3 0x5AF JUMP JUMPDEST SWAP1 PUSH1 0x0 MSTORE PUSH1 0x20 PUSH1 0x0 KECCAK256 SWAP1 PUSH1 0x1F ADD PUSH1 0x20 SWAP1 DIV DUP2 ADD SWAP3 DUP3 PUSH3 0x14B JUMPI PUSH1 0x0 DUP6 SSTORE PUSH3 0x197 JUMP JUMPDEST DUP3 PUSH1 0x1F LT PUSH3 0x166 JUMPI DUP1 MLOAD PUSH1 0xFF NOT AND DUP4 DUP1 ADD OR DUP6 SSTORE PUSH3 0x197 JUMP JUMPDEST DUP3 DUP1 ADD PUSH1 0x1 ADD DUP6 SSTORE DUP3 ISZERO PUSH3 0x197 JUMPI SWAP2 DUP3 ADD JUMPDEST DUP3 DUP2 GT ISZERO PUSH3 0x196 JUMPI DUP3 MLOAD DUP3 SSTORE SWAP2 PUSH1 0x20 ADD SWAP2 SWAP1 PUSH1 0x1 ADD SWAP1 PUSH3 0x179 JUMP JUMPDEST JUMPDEST POP SWAP1 POP PUSH3 0x1A6 SWAP2 SWAP1 PUSH3 0x1AA JUMP JUMPDEST POP SWAP1 JUMP JUMPDEST JUMPDEST DUP1 DUP3 GT ISZERO PUSH3 0x1C5 JUMPI PUSH1 0x0 DUP2 PUSH1 0x0 SWAP1 SSTORE POP PUSH1 0x1 ADD PUSH3 0x1AB JUMP JUMPDEST POP SWAP1 JUMP JUMPDEST PUSH1 0x0 PUSH1 0x40 MLOAD SWAP1 POP SWAP1 JUMP JUMPDEST PUSH1 0x0 DUP1 REVERT JUMPDEST PUSH1 0x0 DUP1 REVERT JUMPDEST PUSH1 0x0 PUSH20 0xFFFFFFFFFFFFFFFFFFFFFFFFFFFFFFFFFFFFFFFF DUP3 AND SWAP1 POP SWAP2 SWAP1 POP JUMP JUMPDEST PUSH1 0x0 PUSH3 0x20A DUP3 PUSH3 0x1DD JUMP JUMPDEST SWAP1 POP SWAP2 SWAP1 POP JUMP JUMPDEST PUSH3 0x21C DUP2 PUSH3 0x1FD JUMP JUMPDEST DUP2 EQ PUSH3 0x228 JUMPI PUSH1 0x0 DUP1 REVERT JUMPDEST POP JUMP JUMPDEST PUSH1 0x0 DUP2 MLOAD SWAP1 POP PUSH3 0x23C DUP2 PUSH3 0x211 JUMP JUMPDEST SWAP3 SWAP2 POP POP JUMP JUMPDEST PUSH1 0x0 DUP1 REVERT JUMPDEST PUSH1 0x0 DUP1 REVERT JUMPDEST PUSH1 0x0 PUSH1 0x1F NOT PUSH1 0x1F DUP4 ADD AND SWAP1 POP SWAP2 SWAP1 POP JUMP JUMPDEST PUSH32 0x4E487B7100000000000000000000000000000000000000000000000000000000 PUSH1 0x0 MSTORE PUSH1 0x41 PUSH1 0x4 MSTORE PUSH1 0x24 PUSH1 0x0 REVERT JUMPDEST PUSH3 0x297 DUP3 PUSH3 0x24C JUMP JUMPDEST DUP2 ADD DUP2 DUP2 LT PUSH8 0xFFFFFFFFFFFFFFFF DUP3 GT OR ISZERO PUSH3 0x2B9 JUMPI PUSH3 0x2B8 PUSH3 0x25D JUMP JUMPDEST JUMPDEST DUP1 PUSH1 0x40 MSTORE POP POP POP JUMP JUMPDEST PUSH1 0x0 PUSH3 0x2CE PUSH3 0x1C9 JUMP JUMPDEST SWAP1 POP PUSH3 0x2DC DUP3 DUP3 PUSH3 0x28C JUMP JUMPDEST SWAP2 SWAP1 POP JUMP JUMPDEST PUSH1 0x0 PUSH8 0xFFFFFFFFFFFFFFFF DUP3 GT ISZERO PUSH3 0x2FF JUMPI PUSH3 0x2FE PUSH3 0x25D JUMP JUMPDEST JUMPDEST PUSH3 0x30A DUP3 PUSH3 0x24C JUMP JUMPDEST SWAP1 POP PUSH1 0x20 DUP2 ADD SWAP1 POP SWAP2 SWAP1 POP JUMP JUMPDEST PUSH1 0x0 JUMPDEST DUP4 DUP2 LT ISZERO PUSH3 0x337 JUMPI DUP1 DUP3 ADD MLOAD DUP2 DUP5 ADD MSTORE PUSH1 0x20 DUP2 ADD SWAP1 POP PUSH3 0x31A JUMP JUMPDEST DUP4 DUP2 GT ISZERO PUSH3 0x347 JUMPI PUSH1 0x0 DUP5 DUP5 ADD MSTORE JUMPDEST POP POP POP POP JUMP JUMPDEST PUSH1 0x0 PUSH3 0x364 PUSH3 0x35E DUP5 PUSH3 0x2E1 JUMP JUMPDEST PUSH3 0x2C2 JUMP JUMPDEST SWAP1 POP DUP3 DUP2 MSTORE PUSH1 0x20 DUP2 ADD DUP5 DUP5 DUP5 ADD GT ISZERO PUSH3 0x383 JUMPI PUSH3 0x382 PUSH3 0x247 JUMP JUMPDEST JUMPDEST PUSH3 0x390 DUP5 DUP3 DUP6 PUSH3 0x317 JUMP JUMPDEST POP SWAP4 SWAP3 POP POP POP JUMP JUMPDEST PUSH1 0x0 DUP3 PUSH1 0x1F DUP4 ADD SLT PUSH3 0x3B0 JUMPI PUSH3 0x3AF PUSH3 0x242 JUMP JUMPDEST JUMPDEST DUP2 MLOAD PUSH3 0x3C2 DUP5 DUP3 PUSH1 0x20 DUP7 ADD PUSH3 0x34D JUMP JUMPDEST SWAP2 POP POP SWAP3 SWAP2 POP POP JUMP JUMPDEST PUSH1 0x0 DUP2 SWAP1 POP SWAP2 SWAP1 POP JUMP JUMPDEST PUSH3 0x3E0 DUP2 PUSH3 0x3CB JUMP JUMPDEST DUP2 EQ PUSH3 0x3EC JUMPI PUSH1 0x0 DUP1 REVERT JUMPDEST POP JUMP JUMPDEST PUSH1 0x0 DUP2 MLOAD SWAP1 POP PUSH3 0x400 DUP2 PUSH3 0x3D5 JUMP JUMPDEST SWAP3 SWAP2 POP POP JUMP JUMPDEST PUSH1 0x0 DUP1 PUSH1 0x0 DUP1 PUSH1 0x0 DUP1 PUSH1 0x0 DUP1 PUSH1 0x0 PUSH2 0x120 DUP11 DUP13 SUB SLT ISZERO PUSH3 0x42C JUMPI PUSH3 0x42B PUSH3 0x1D3 JUMP JUMPDEST JUMPDEST PUSH1 0x0 PUSH3 0x43C DUP13 DUP3 DUP14 ADD PUSH3 0x22B JUMP JUMPDEST SWAP10 POP POP PUSH1 0x20 DUP11 ADD MLOAD PUSH8 0xFFFFFFFFFFFFFFFF DUP2 GT ISZERO PUSH3 0x460 JUMPI PUSH3 0x45F PUSH3 0x1D8 JUMP JUMPDEST JUMPDEST PUSH3 0x46E DUP13 DUP3 DUP14 ADD PUSH3 0x398 JUMP JUMPDEST SWAP9 POP POP PUSH1 0x40 DUP11 ADD MLOAD PUSH8 0xFFFFFFFFFFFFFFFF DUP2 GT ISZERO PUSH3 0x492 JUMPI PUSH3 0x491 PUSH3 0x1D8 JUMP JUMPDEST JUMPDEST PUSH3 0x4A0 DUP13 DUP3 DUP14 ADD PUSH3 0x398 JUMP JUMPDEST SWAP8 POP POP PUSH1 0x60 DUP11 ADD MLOAD PUSH8 0xFFFFFFFFFFFFFFFF DUP2 GT ISZERO PUSH3 0x4C4 JUMPI PUSH3 0x4C3 PUSH3 0x1D8 JUMP JUMPDEST JUMPDEST PUSH3 0x4D2 DUP13 DUP3 DUP14 ADD PUSH3 0x398 JUMP JUMPDEST SWAP7 POP POP PUSH1 0x80 DUP11 ADD MLOAD PUSH8 0xFFFFFFFFFFFFFFFF DUP2 GT ISZERO PUSH3 0x4F6 JUMPI PUSH3 0x4F5 PUSH3 0x1D8 JUMP JUMPDEST JUMPDEST PUSH3 0x504 DUP13 DUP3 DUP14 ADD PUSH3 0x398 JUMP JUMPDEST SWAP6 POP POP PUSH1 0xA0 DUP11 ADD MLOAD PUSH8 0xFFFFFFFFFFFFFFFF DUP2 GT ISZERO PUSH3 0x528 JUMPI PUSH3 0x527 PUSH3 0x1D8 JUMP JUMPDEST JUMPDEST PUSH3 0x536 DUP13 DUP3 DUP14 ADD PUSH3 0x398 JUMP JUMPDEST SWAP5 POP POP PUSH1 0xC0 PUSH3 0x549 DUP13 DUP3 DUP14 ADD PUSH3 0x3EF JUMP JUMPDEST SWAP4 POP POP PUSH1 0xE0 PUSH3 0x55C DUP13 DUP3 DUP14 ADD PUSH3 0x3EF JUMP JUMPDEST SWAP3 POP POP PUSH2 0x100 PUSH3 0x570 DUP13 DUP3 DUP14 ADD PUSH3 0x3EF JUMP JUMPDEST SWAP2 POP POP SWAP3 SWAP6 SWAP9 POP SWAP3 SWAP6 SWAP9 POP SWAP3 SWAP6 SWAP9 JUMP JUMPDEST PUSH32 0x4E487B7100000000000000000000000000000000000000000000000000000000 PUSH1 0x0 MSTORE PUSH1 0x22 PUSH1 0x4 MSTORE PUSH1 0x24 PUSH1 0x0 REVERT JUMPDEST PUSH1 0x0 PUSH1 0x2 DUP3 DIV SWAP1 POP PUSH1 0x1 DUP3 AND DUP1 PUSH3 0x5C8 JUMPI PUSH1 0x7F DUP3 AND SWAP2 POP JUMPDEST PUSH1 0x20 DUP3 LT DUP2 EQ ISZERO PUSH3 0x5DF JUMPI PUSH3 0x5DE PUSH3 0x580 JUMP JUMPDEST JUMPDEST POP SWAP2 SWAP1 POP JUMP JUMPDEST PUSH2 0x16A0 DUP1 PUSH3 0x5F5 PUSH1 0x0 CODECOPY PUSH1 0x0 RETURN INVALID PUSH1 0x80 PUSH1 0x40 MSTORE PUSH1 0x4 CALLDATASIZE LT PUSH2 0x86 JUMPI PUSH1 0x0 CALLDATALOAD PUSH1 0xE0 SHR DUP1 PUSH4 0x6F68F544 GT PUSH2 0x59 JUMPI DUP1 PUSH4 0x6F68F544 EQ PUSH2 0x12C JUMPI DUP1 PUSH4 0x7F6C8482 EQ PUSH2 0x16D JUMPI DUP1 PUSH4 0xB99B48F0 EQ PUSH2 0x1AA JUMPI DUP1 PUSH4 0xC40000D4 EQ PUSH2 0x1C6 JUMPI DUP1 PUSH4 0xCB4591F6 EQ PUSH2 0x1F1 JUMPI PUSH2 0x86 JUMP JUMPDEST DUP1 PUSH4 0x31629134 EQ PUSH2 0x8B JUMPI DUP1 PUSH4 0x4CDCDCCB EQ PUSH2 0xBA JUMPI DUP1 PUSH4 0x5CFC1A51 EQ PUSH2 0xD6 JUMPI DUP1 PUSH4 0x6AC23FDC EQ PUSH2 0x101 JUMPI JUMPDEST PUSH1 0x0 DUP1 REVERT JUMPDEST CALLVALUE DUP1 ISZERO PUSH2 0x97 JUMPI PUSH1 0x0 DUP1 REVERT JUMPDEST POP PUSH2 0xA0 PUSH2 0x21C JUMP JUMPDEST PUSH1 0x40 MLOAD PUSH2 0xB1 SWAP6 SWAP5 SWAP4 SWAP3 SWAP2 SWAP1 PUSH2 0xF58 JUMP JUMPDEST PUSH1 0x40 MLOAD DUP1 SWAP2 SUB SWAP1 RETURN JUMPDEST PUSH2 0xD4 PUSH1 0x4 DUP1 CALLDATASIZE SUB DUP2 ADD SWAP1 PUSH2 0xCF SWAP2 SWAP1 PUSH2 0x1117 JUMP JUMPDEST PUSH2 0x4FB JUMP JUMPDEST STOP JUMPDEST CALLVALUE DUP1 ISZERO PUSH2 0xE2 JUMPI PUSH1 0x0 DUP1 REVERT JUMPDEST POP PUSH2 0xEB PUSH2 0x6E7 JUMP JUMPDEST PUSH1 0x40 MLOAD PUSH2 0xF8 SWAP2 SWAP1 PUSH2 0x11D7 JUMP JUMPDEST PUSH1 0x40 MLOAD DUP1 SWAP2 SUB SWAP1 RETURN JUMPDEST CALLVALUE DUP1 ISZERO PUSH2 0x10D JUMPI PUSH1 0x0 DUP1 REVERT JUMPDEST POP PUSH2 0x116 PUSH2 0x6ED JUMP JUMPDEST PUSH1 0x40 MLOAD PUSH2 0x123 SWAP2 SWAP1 PUSH2 0x13D2 JUMP JUMPDEST PUSH1 0x40 MLOAD DUP1 SWAP2 SUB SWAP1 RETURN JUMPDEST CALLVALUE DUP1 ISZERO PUSH2 0x138 JUMPI PUSH1 0x0 DUP1 REVERT JUMPDEST POP PUSH2 0x153 PUSH1 0x4 DUP1 CALLDATASIZE SUB DUP2 ADD SWAP1 PUSH2 0x14E SWAP2 SWAP1 PUSH2 0x1420 JUMP JUMPDEST PUSH2 0x962 JUMP JUMPDEST PUSH1 0x40 MLOAD PUSH2 0x164 SWAP6 SWAP5 SWAP4 SWAP3 SWAP2 SWAP1 PUSH2 0x145C JUMP JUMPDEST PUSH1 0x40 MLOAD DUP1 SWAP2 SUB SWAP1 RETURN JUMPDEST CALLVALUE DUP1 ISZERO PUSH2 0x179 JUMPI PUSH1 0x0 DUP1 REVERT JUMPDEST POP PUSH2 0x194 PUSH1 0x4 DUP1 CALLDATASIZE SUB DUP2 ADD SWAP1 PUSH2 0x18F SWAP2 SWAP1 PUSH2 0x14F0 JUMP JUMPDEST PUSH2 0xB60 JUMP JUMPDEST PUSH1 0x40 MLOAD PUSH2 0x1A1 SWAP2 SWAP1 PUSH2 0x151D JUMP JUMPDEST PUSH1 0x40 MLOAD DUP1 SWAP2 SUB SWAP1 RETURN JUMPDEST PUSH2 0x1C4 PUSH1 0x4 DUP1 CALLDATASIZE SUB DUP2 ADD SWAP1 PUSH2 0x1BF SWAP2 SWAP1 PUSH2 0x1117 JUMP JUMPDEST PUSH2 0xC00 JUMP JUMPDEST STOP JUMPDEST CALLVALUE DUP1 ISZERO PUSH2 0x1D2 JUMPI PUSH1 0x0 DUP1 REVERT JUMPDEST POP PUSH2 0x1DB PUSH2 0xDEC JUMP JUMPDEST PUSH1 0x40 MLOAD PUSH2 0x1E8 SWAP2 SWAP1 PUSH2 0x11D7 JUMP JUMPDEST PUSH1 0x40 MLOAD DUP1 SWAP2 SUB SWAP1 RETURN JUMPDEST CALLVALUE DUP1 ISZERO PUSH2 0x1FD JUMPI PUSH1 0x0 DUP1 REVERT JUMPDEST POP PUSH2 0x206 PUSH2 0xDF6 JUMP JUMPDEST PUSH1 0x40 MLOAD PUSH2 0x213 SWAP2 SWAP1 PUSH2 0x153F JUMP JUMPDEST PUSH1 0x40 MLOAD DUP1 SWAP2 SUB SWAP1 RETURN JUMPDEST PUSH1 0x60 DUP1 PUSH1 0x60 DUP1 PUSH1 0x60 PUSH1 0x0 PUSH1 0x1 PUSH1 0x2 PUSH1 0x3 PUSH1 0x4 DUP5 DUP1 SLOAD PUSH2 0x23A SWAP1 PUSH2 0x1589 JUMP JUMPDEST DUP1 PUSH1 0x1F ADD PUSH1 0x20 DUP1 SWAP2 DIV MUL PUSH1 0x20 ADD PUSH1 0x40 MLOAD SWAP1 DUP2 ADD PUSH1 0x40 MSTORE DUP1 SWAP3 SWAP2 SWAP1 DUP2 DUP2 MSTORE PUSH1 0x20 ADD DUP3 DUP1 SLOAD PUSH2 0x266 SWAP1 PUSH2 0x1589 JUMP JUMPDEST DUP1 ISZERO PUSH2 0x2B3 JUMPI DUP1 PUSH1 0x1F LT PUSH2 0x288 JUMPI PUSH2 0x100 DUP1 DUP4 SLOAD DIV MUL DUP4 MSTORE SWAP2 PUSH1 0x20 ADD SWAP2 PUSH2 0x2B3 JUMP JUMPDEST DUP3 ADD SWAP2 SWAP1 PUSH1 0x0 MSTORE PUSH1 0x20 PUSH1 0x0 KECCAK256 SWAP1 JUMPDEST DUP2 SLOAD DUP2 MSTORE SWAP1 PUSH1 0x1 ADD SWAP1 PUSH1 0x20 ADD DUP1 DUP4 GT PUSH2 0x296 JUMPI DUP3 SWAP1 SUB PUSH1 0x1F AND DUP3 ADD SWAP2 JUMPDEST POP POP POP POP POP SWAP5 POP DUP4 DUP1 SLOAD PUSH2 0x2C6 SWAP1 PUSH2 0x1589 JUMP JUMPDEST DUP1 PUSH1 0x1F ADD PUSH1 0x20 DUP1 SWAP2 DIV MUL PUSH1 0x20 ADD PUSH1 0x40 MLOAD SWAP1 DUP2 ADD PUSH1 0x40 MSTORE DUP1 SWAP3 SWAP2 SWAP1 DUP2 DUP2 MSTORE PUSH1 0x20 ADD DUP3 DUP1 SLOAD PUSH2 0x2F2 SWAP1 PUSH2 0x1589 JUMP JUMPDEST DUP1 ISZERO PUSH2 0x33F JUMPI DUP1 PUSH1 0x1F LT PUSH2 0x314 JUMPI PUSH2 0x100 DUP1 DUP4 SLOAD DIV MUL DUP4 MSTORE SWAP2 PUSH1 0x20 ADD SWAP2 PUSH2 0x33F JUMP JUMPDEST DUP3 ADD SWAP2 SWAP1 PUSH1 0x0 MSTORE PUSH1 0x20 PUSH1 0x0 KECCAK256 SWAP1 JUMPDEST DUP2 SLOAD DUP2 MSTORE SWAP1 PUSH1 0x1 ADD SWAP1 PUSH1 0x20 ADD DUP1 DUP4 GT PUSH2 0x322 JUMPI DUP3 SWAP1 SUB PUSH1 0x1F AND DUP3 ADD SWAP2 JUMPDEST POP POP POP POP POP SWAP4 POP DUP3 DUP1 SLOAD PUSH2 0x352 SWAP1 PUSH2 0x1589 JUMP JUMPDEST DUP1 PUSH1 0x1F ADD PUSH1 0x20 DUP1 SWAP2 DIV MUL PUSH1 0x20 ADD PUSH1 0x40 MLOAD SWAP1 DUP2 ADD PUSH1 0x40 MSTORE DUP1 SWAP3 SWAP2 SWAP1 DUP2 DUP2 MSTORE PUSH1 0x20 ADD DUP3 DUP1 SLOAD PUSH2 0x37E SWAP1 PUSH2 0x1589 JUMP JUMPDEST DUP1 ISZERO PUSH2 0x3CB JUMPI DUP1 PUSH1 0x1F LT PUSH2 0x3A0 JUMPI PUSH2 0x100 DUP1 DUP4 SLOAD DIV MUL DUP4 MSTORE SWAP2 PUSH1 0x20 ADD SWAP2 PUSH2 0x3CB JUMP JUMPDEST DUP3 ADD SWAP2 SWAP1 PUSH1 0x0 MSTORE PUSH1 0x20 PUSH1 0x0 KECCAK256 SWAP1 JUMPDEST DUP2 SLOAD DUP2 MSTORE SWAP1 PUSH1 0x1 ADD SWAP1 PUSH1 0x20 ADD DUP1 DUP4 GT PUSH2 0x3AE JUMPI DUP3 SWAP1 SUB PUSH1 0x1F AND DUP3 ADD SWAP2 JUMPDEST POP POP POP POP POP SWAP3 POP DUP2 DUP1 SLOAD PUSH2 0x3DE SWAP1 PUSH2 0x1589 JUMP JUMPDEST DUP1 PUSH1 0x1F ADD PUSH1 0x20 DUP1 SWAP2 DIV MUL PUSH1 0x20 ADD PUSH1 0x40 MLOAD SWAP1 DUP2 ADD PUSH1 0x40 MSTORE DUP1 SWAP3 SWAP2 SWAP1 DUP2 DUP2 MSTORE PUSH1 0x20 ADD DUP3 DUP1 SLOAD PUSH2 0x40A SWAP1 PUSH2 0x1589 JUMP JUMPDEST DUP1 ISZERO PUSH2 0x457 JUMPI DUP1 PUSH1 0x1F LT PUSH2 0x42C JUMPI PUSH2 0x100 DUP1 DUP4 SLOAD DIV MUL DUP4 MSTORE SWAP2 PUSH1 0x20 ADD SWAP2 PUSH2 0x457 JUMP JUMPDEST DUP3 ADD SWAP2 SWAP1 PUSH1 0x0 MSTORE PUSH1 0x20 PUSH1 0x0 KECCAK256 SWAP1 JUMPDEST DUP2 SLOAD DUP2 MSTORE SWAP1 PUSH1 0x1 ADD SWAP1 PUSH1 0x20 ADD DUP1 DUP4 GT PUSH2 0x43A JUMPI DUP3 SWAP1 SUB PUSH1 0x1F AND DUP3 ADD SWAP2 JUMPDEST POP POP POP POP POP SWAP2 POP DUP1 DUP1 SLOAD PUSH2 0x46A SWAP1 PUSH2 0x1589 JUMP JUMPDEST DUP1 PUSH1 0x1F ADD PUSH1 0x20 DUP1 SWAP2 DIV MUL PUSH1 0x20 ADD PUSH1 0x40 MLOAD SWAP1 DUP2 ADD PUSH1 0x40 MSTORE DUP1 SWAP3 SWAP2 SWAP1 DUP2 DUP2 MSTORE PUSH1 0x20 ADD DUP3 DUP1 SLOAD PUSH2 0x496 SWAP1 PUSH2 0x1589 JUMP JUMPDEST DUP1 ISZERO PUSH2 0x4E3 JUMPI DUP1 PUSH1 0x1F LT PUSH2 0x4B8 JUMPI PUSH2 0x100 DUP1 DUP4 SLOAD DIV MUL DUP4 MSTORE SWAP2 PUSH1 0x20 ADD SWAP2 PUSH2 0x4E3 JUMP JUMPDEST DUP3 ADD SWAP2 SWAP1 PUSH1 0x0 MSTORE PUSH1 0x20 PUSH1 0x0 KECCAK256 SWAP1 JUMPDEST DUP2 SLOAD DUP2 MSTORE SWAP1 PUSH1 0x1 ADD SWAP1 PUSH1 0x20 ADD DUP1 DUP4 GT PUSH2 0x4C6 JUMPI DUP3 SWAP1 SUB PUSH1 0x1F AND DUP3 ADD SWAP2 JUMPDEST POP POP POP POP POP SWAP1 POP SWAP5 POP SWAP5 POP SWAP5 POP SWAP5 POP SWAP5 POP SWAP1 SWAP2 SWAP3 SWAP4 SWAP5 JUMP JUMPDEST PUSH1 0x5 SLOAD CALLVALUE EQ PUSH2 0x509 JUMPI PUSH1 0x0 DUP1 REVERT JUMPDEST PUSH1 0x0 PUSH1 0x8 SLOAD GT PUSH2 0x518 JUMPI PUSH1 0x0 DUP1 REVERT JUMPDEST PUSH1 0x0 PUSH1 0x40 MLOAD DUP1 PUSH1 0xA0 ADD PUSH1 0x40 MSTORE DUP1 CALLER PUSH20 0xFFFFFFFFFFFFFFFFFFFFFFFFFFFFFFFFFFFFFFFF AND DUP2 MSTORE PUSH1 0x20 ADD DUP6 DUP2 MSTORE PUSH1 0x20 ADD DUP5 DUP2 MSTORE PUSH1 0x20 ADD DUP4 DUP2 MSTORE PUSH1 0x20 ADD PUSH1 0x1 PUSH1 0xA DUP1 SLOAD SWAP1 POP PUSH2 0x565 SWAP2 SWAP1 PUSH2 0x15EA JUMP JUMPDEST DUP2 MSTORE POP SWAP1 POP PUSH1 0xA DUP2 SWAP1 DUP1 PUSH1 0x1 DUP2 SLOAD ADD DUP1 DUP3 SSTORE DUP1 SWAP2 POP POP PUSH1 0x1 SWAP1 SUB SWAP1 PUSH1 0x0 MSTORE PUSH1 0x20 PUSH1 0x0 KECCAK256 SWAP1 PUSH1 0x5 MUL ADD PUSH1 0x0 SWAP1 SWAP2 SWAP1 SWAP2 SWAP1 SWAP2 POP PUSH1 0x0 DUP3 ADD MLOAD DUP2 PUSH1 0x0 ADD PUSH1 0x0 PUSH2 0x100 EXP DUP2 SLOAD DUP2 PUSH20 0xFFFFFFFFFFFFFFFFFFFFFFFFFFFFFFFFFFFFFFFF MUL NOT AND SWAP1 DUP4 PUSH20 0xFFFFFFFFFFFFFFFFFFFFFFFFFFFFFFFFFFFFFFFF AND MUL OR SWAP1 SSTORE POP PUSH1 0x20 DUP3 ADD MLOAD DUP2 PUSH1 0x1 ADD SWAP1 DUP1 MLOAD SWAP1 PUSH1 0x20 ADD SWAP1 PUSH2 0x5F9 SWAP3 SWAP2 SWAP1 PUSH2 0xE1C JUMP JUMPDEST POP PUSH1 0x40 DUP3 ADD MLOAD DUP2 PUSH1 0x2 ADD SWAP1 DUP1 MLOAD SWAP1 PUSH1 0x20 ADD SWAP1 PUSH2 0x616 SWAP3 SWAP2 SWAP1 PUSH2 0xE1C JUMP JUMPDEST POP PUSH1 0x60 DUP3 ADD MLOAD DUP2 PUSH1 0x3 ADD SWAP1 DUP1 MLOAD SWAP1 PUSH1 0x20 ADD SWAP1 PUSH2 0x633 SWAP3 SWAP2 SWAP1 PUSH2 0xE1C JUMP JUMPDEST POP PUSH1 0x80 DUP3 ADD MLOAD DUP2 PUSH1 0x4 ADD SSTORE POP POP PUSH1 0x40 MLOAD DUP1 PUSH1 0x40 ADD PUSH1 0x40 MSTORE DUP1 PUSH1 0x8 DUP2 MSTORE PUSH1 0x20 ADD PUSH32 0x627573696E657373000000000000000000000000000000000000000000000000 DUP2 MSTORE POP PUSH1 0x9 PUSH1 0x0 CALLER PUSH20 0xFFFFFFFFFFFFFFFFFFFFFFFFFFFFFFFFFFFFFFFF AND PUSH20 0xFFFFFFFFFFFFFFFFFFFFFFFFFFFFFFFFFFFFFFFF AND DUP2 MSTORE PUSH1 0x20 ADD SWAP1 DUP2 MSTORE PUSH1 0x20 ADD PUSH1 0x0 KECCAK256 SWAP1 DUP1 MLOAD SWAP1 PUSH1 0x20 ADD SWAP1 PUSH2 0x6C8 SWAP3 SWAP2 SWAP1 PUSH2 0xE1C JUMP JUMPDEST POP PUSH1 0x8 PUSH1 0x0 DUP2 SLOAD DUP1 SWAP3 SWAP2 SWAP1 PUSH2 0x6DC SWAP1 PUSH2 0x1640 JUMP JUMPDEST SWAP2 SWAP1 POP SSTORE POP POP POP POP POP JUMP JUMPDEST PUSH1 0x8 SLOAD DUP2 JUMP JUMPDEST PUSH1 0x60 PUSH1 0xA DUP1 SLOAD DUP1 PUSH1 0x20 MUL PUSH1 0x20 ADD PUSH1 0x40 MLOAD SWAP1 DUP2 ADD PUSH1 0x40 MSTORE DUP1 SWAP3 SWAP2 SWAP1 DUP2 DUP2 MSTORE PUSH1 0x20 ADD PUSH1 0x0 SWAP1 JUMPDEST DUP3 DUP3 LT ISZERO PUSH2 0x959 JUMPI DUP4 DUP3 SWAP1 PUSH1 0x0 MSTORE PUSH1 0x20 PUSH1 0x0 KECCAK256 SWAP1 PUSH1 0x5 MUL ADD PUSH1 0x40 MLOAD DUP1 PUSH1 0xA0 ADD PUSH1 0x40 MSTORE SWAP1 DUP2 PUSH1 0x0 DUP3 ADD PUSH1 0x0 SWAP1 SLOAD SWAP1 PUSH2 0x100 EXP SWAP1 DIV PUSH20 0xFFFFFFFFFFFFFFFFFFFFFFFFFFFFFFFFFFFFFFFF AND PUSH20 0xFFFFFFFFFFFFFFFFFFFFFFFFFFFFFFFFFFFFFFFF AND PUSH20 0xFFFFFFFFFFFFFFFFFFFFFFFFFFFFFFFFFFFFFFFF AND DUP2 MSTORE PUSH1 0x20 ADD PUSH1 0x1 DUP3 ADD DUP1 SLOAD PUSH2 0x79A SWAP1 PUSH2 0x1589 JUMP JUMPDEST DUP1 PUSH1 0x1F ADD PUSH1 0x20 DUP1 SWAP2 DIV MUL PUSH1 0x20 ADD PUSH1 0x40 MLOAD SWAP1 DUP2 ADD PUSH1 0x40 MSTORE DUP1 SWAP3 SWAP2 SWAP1 DUP2 DUP2 MSTORE PUSH1 0x20 ADD DUP3 DUP1 SLOAD PUSH2 0x7C6 SWAP1 PUSH2 0x1589 JUMP JUMPDEST DUP1 ISZERO PUSH2 0x813 JUMPI DUP1 PUSH1 0x1F LT PUSH2 0x7E8 JUMPI PUSH2 0x100 DUP1 DUP4 SLOAD DIV MUL DUP4 MSTORE SWAP2 PUSH1 0x20 ADD SWAP2 PUSH2 0x813 JUMP JUMPDEST DUP3 ADD SWAP2 SWAP1 PUSH1 0x0 MSTORE PUSH1 0x20 PUSH1 0x0 KECCAK256 SWAP1 JUMPDEST DUP2 SLOAD DUP2 MSTORE SWAP1 PUSH1 0x1 ADD SWAP1 PUSH1 0x20 ADD DUP1 DUP4 GT PUSH2 0x7F6 JUMPI DUP3 SWAP1 SUB PUSH1 0x1F AND DUP3 ADD SWAP2 JUMPDEST POP POP POP POP POP DUP2 MSTORE PUSH1 0x20 ADD PUSH1 0x2 DUP3 ADD DUP1 SLOAD PUSH2 0x82C SWAP1 PUSH2 0x1589 JUMP JUMPDEST DUP1 PUSH1 0x1F ADD PUSH1 0x20 DUP1 SWAP2 DIV MUL PUSH1 0x20 ADD PUSH1 0x40 MLOAD SWAP1 DUP2 ADD PUSH1 0x40 MSTORE DUP1 SWAP3 SWAP2 SWAP1 DUP2 DUP2 MSTORE PUSH1 0x20 ADD DUP3 DUP1 SLOAD PUSH2 0x858 SWAP1 PUSH2 0x1589 JUMP JUMPDEST DUP1 ISZERO PUSH2 0x8A5 JUMPI DUP1 PUSH1 0x1F LT PUSH2 0x87A JUMPI PUSH2 0x100 DUP1 DUP4 SLOAD DIV MUL DUP4 MSTORE SWAP2 PUSH1 0x20 ADD SWAP2 PUSH2 0x8A5 JUMP JUMPDEST DUP3 ADD SWAP2 SWAP1 PUSH1 0x0 MSTORE PUSH1 0x20 PUSH1 0x0 KECCAK256 SWAP1 JUMPDEST DUP2 SLOAD DUP2 MSTORE SWAP1 PUSH1 0x1 ADD SWAP1 PUSH1 0x20 ADD DUP1 DUP4 GT PUSH2 0x888 JUMPI DUP3 SWAP1 SUB PUSH1 0x1F AND DUP3 ADD SWAP2 JUMPDEST POP POP POP POP POP DUP2 MSTORE PUSH1 0x20 ADD PUSH1 0x3 DUP3 ADD DUP1 SLOAD PUSH2 0x8BE SWAP1 PUSH2 0x1589 JUMP JUMPDEST DUP1 PUSH1 0x1F ADD PUSH1 0x20 DUP1 SWAP2 DIV MUL PUSH1 0x20 ADD PUSH1 0x40 MLOAD SWAP1 DUP2 ADD PUSH1 0x40 MSTORE DUP1 SWAP3 SWAP2 SWAP1 DUP2 DUP2 MSTORE PUSH1 0x20 ADD DUP3 DUP1 SLOAD PUSH2 0x8EA SWAP1 PUSH2 0x1589 JUMP JUMPDEST DUP1 ISZERO PUSH2 0x937 JUMPI DUP1 PUSH1 0x1F LT PUSH2 0x90C JUMPI PUSH2 0x100 DUP1 DUP4 SLOAD DIV MUL DUP4 MSTORE SWAP2 PUSH1 0x20 ADD SWAP2 PUSH2 0x937 JUMP JUMPDEST DUP3 ADD SWAP2 SWAP1 PUSH1 0x0 MSTORE PUSH1 0x20 PUSH1 0x0 KECCAK256 SWAP1 JUMPDEST DUP2 SLOAD DUP2 MSTORE SWAP1 PUSH1 0x1 ADD SWAP1 PUSH1 0x20 ADD DUP1 DUP4 GT PUSH2 0x91A JUMPI DUP3 SWAP1 SUB PUSH1 0x1F AND DUP3 ADD SWAP2 JUMPDEST POP POP POP POP POP DUP2 MSTORE PUSH1 0x20 ADD PUSH1 0x4 DUP3 ADD SLOAD DUP2 MSTORE POP POP DUP2 MSTORE PUSH1 0x20 ADD SWAP1 PUSH1 0x1 ADD SWAP1 PUSH2 0x711 JUMP JUMPDEST POP POP POP POP SWAP1 POP SWAP1 JUMP JUMPDEST PUSH1 0xA DUP2 DUP2 SLOAD DUP2 LT PUSH2 0x972 JUMPI PUSH1 0x0 DUP1 REVERT JUMPDEST SWAP1 PUSH1 0x0 MSTORE PUSH1 0x20 PUSH1 0x0 KECCAK256 SWAP1 PUSH1 0x5 MUL ADD PUSH1 0x0 SWAP2 POP SWAP1 POP DUP1 PUSH1 0x0 ADD PUSH1 0x0 SWAP1 SLOAD SWAP1 PUSH2 0x100 EXP SWAP1 DIV PUSH20 0xFFFFFFFFFFFFFFFFFFFFFFFFFFFFFFFFFFFFFFFF AND SWAP1 DUP1 PUSH1 0x1 ADD DUP1 SLOAD PUSH2 0x9BB SWAP1 PUSH2 0x1589 JUMP JUMPDEST DUP1 PUSH1 0x1F ADD PUSH1 0x20 DUP1 SWAP2 DIV MUL PUSH1 0x20 ADD PUSH1 0x40 MLOAD SWAP1 DUP2 ADD PUSH1 0x40 MSTORE DUP1 SWAP3 SWAP2 SWAP1 DUP2 DUP2 MSTORE PUSH1 0x20 ADD DUP3 DUP1 SLOAD PUSH2 0x9E7 SWAP1 PUSH2 0x1589 JUMP JUMPDEST DUP1 ISZERO PUSH2 0xA34 JUMPI DUP1 PUSH1 0x1F LT PUSH2 0xA09 JUMPI PUSH2 0x100 DUP1 DUP4 SLOAD DIV MUL DUP4 MSTORE SWAP2 PUSH1 0x20 ADD SWAP2 PUSH2 0xA34 JUMP JUMPDEST DUP3 ADD SWAP2 SWAP1 PUSH1 0x0 MSTORE PUSH1 0x20 PUSH1 0x0 KECCAK256 SWAP1 JUMPDEST DUP2 SLOAD DUP2 MSTORE SWAP1 PUSH1 0x1 ADD SWAP1 PUSH1 0x20 ADD DUP1 DUP4 GT PUSH2 0xA17 JUMPI DUP3 SWAP1 SUB PUSH1 0x1F AND DUP3 ADD SWAP2 JUMPDEST POP POP POP POP POP SWAP1 DUP1 PUSH1 0x2 ADD DUP1 SLOAD PUSH2 0xA49 SWAP1 PUSH2 0x1589 JUMP JUMPDEST DUP1 PUSH1 0x1F ADD PUSH1 0x20 DUP1 SWAP2 DIV MUL PUSH1 0x20 ADD PUSH1 0x40 MLOAD SWAP1 DUP2 ADD PUSH1 0x40 MSTORE DUP1 SWAP3 SWAP2 SWAP1 DUP2 DUP2 MSTORE PUSH1 0x20 ADD DUP3 DUP1 SLOAD PUSH2 0xA75 SWAP1 PUSH2 0x1589 JUMP JUMPDEST DUP1 ISZERO PUSH2 0xAC2 JUMPI DUP1 PUSH1 0x1F LT PUSH2 0xA97 JUMPI PUSH2 0x100 DUP1 DUP4 SLOAD DIV MUL DUP4 MSTORE SWAP2 PUSH1 0x20 ADD SWAP2 PUSH2 0xAC2 JUMP JUMPDEST DUP3 ADD SWAP2 SWAP1 PUSH1 0x0 MSTORE PUSH1 0x20 PUSH1 0x0 KECCAK256 SWAP1 JUMPDEST DUP2 SLOAD DUP2 MSTORE SWAP1 PUSH1 0x1 ADD SWAP1 PUSH1 0x20 ADD DUP1 DUP4 GT PUSH2 0xAA5 JUMPI DUP3 SWAP1 SUB PUSH1 0x1F AND DUP3 ADD SWAP2 JUMPDEST POP POP POP POP POP SWAP1 DUP1 PUSH1 0x3 ADD DUP1 SLOAD PUSH2 0xAD7 SWAP1 PUSH2 0x1589 JUMP JUMPDEST DUP1 PUSH1 0x1F ADD PUSH1 0x20 DUP1 SWAP2 DIV MUL PUSH1 0x20 ADD PUSH1 0x40 MLOAD SWAP1 DUP2 ADD PUSH1 0x40 MSTORE DUP1 SWAP3 SWAP2 SWAP1 DUP2 DUP2 MSTORE PUSH1 0x20 ADD DUP3 DUP1 SLOAD PUSH2 0xB03 SWAP1 PUSH2 0x1589 JUMP JUMPDEST DUP1 ISZERO PUSH2 0xB50 JUMPI DUP1 PUSH1 0x1F LT PUSH2 0xB25 JUMPI PUSH2 0x100 DUP1 DUP4 SLOAD DIV MUL DUP4 MSTORE SWAP2 PUSH1 0x20 ADD SWAP2 PUSH2 0xB50 JUMP JUMPDEST DUP3 ADD SWAP2 SWAP1 PUSH1 0x0 MSTORE PUSH1 0x20 PUSH1 0x0 KECCAK256 SWAP1 JUMPDEST DUP2 SLOAD DUP2 MSTORE SWAP1 PUSH1 0x1 ADD SWAP1 PUSH1 0x20 ADD DUP1 DUP4 GT PUSH2 0xB33 JUMPI DUP3 SWAP1 SUB PUSH1 0x1F AND DUP3 ADD SWAP2 JUMPDEST POP POP POP POP POP SWAP1 DUP1 PUSH1 0x4 ADD SLOAD SWAP1 POP DUP6 JUMP JUMPDEST PUSH1 0x9 PUSH1 0x20 MSTORE DUP1 PUSH1 0x0 MSTORE PUSH1 0x40 PUSH1 0x0 KECCAK256 PUSH1 0x0 SWAP2 POP SWAP1 POP DUP1 SLOAD PUSH2 0xB7F SWAP1 PUSH2 0x1589 JUMP JUMPDEST DUP1 PUSH1 0x1F ADD PUSH1 0x20 DUP1 SWAP2 DIV MUL PUSH1 0x20 ADD PUSH1 0x40 MLOAD SWAP1 DUP2 ADD PUSH1 0x40 MSTORE DUP1 SWAP3 SWAP2 SWAP1 DUP2 DUP2 MSTORE PUSH1 0x20 ADD DUP3 DUP1 SLOAD PUSH2 0xBAB SWAP1 PUSH2 0x1589 JUMP JUMPDEST DUP1 ISZERO PUSH2 0xBF8 JUMPI DUP1 PUSH1 0x1F LT PUSH2 0xBCD JUMPI PUSH2 0x100 DUP1 DUP4 SLOAD DIV MUL DUP4 MSTORE SWAP2 PUSH1 0x20 ADD SWAP2 PUSH2 0xBF8 JUMP JUMPDEST DUP3 ADD SWAP2 SWAP1 PUSH1 0x0 MSTORE PUSH1 0x20 PUSH1 0x0 KECCAK256 SWAP1 JUMPDEST DUP2 SLOAD DUP2 MSTORE SWAP1 PUSH1 0x1 ADD SWAP1 PUSH1 0x20 ADD DUP1 DUP4 GT PUSH2 0xBDB JUMPI DUP3 SWAP1 SUB PUSH1 0x1F AND DUP3 ADD SWAP2 JUMPDEST POP POP POP POP POP DUP2 JUMP JUMPDEST PUSH1 0x6 SLOAD CALLVALUE EQ PUSH2 0xC0E JUMPI PUSH1 0x0 DUP1 REVERT JUMPDEST PUSH1 0x0 PUSH1 0x8 SLOAD GT PUSH2 0xC1D JUMPI PUSH1 0x0 DUP1 REVERT JUMPDEST PUSH1 0x0 PUSH1 0x40 MLOAD DUP1 PUSH1 0xA0 ADD PUSH1 0x40 MSTORE DUP1 CALLER PUSH20 0xFFFFFFFFFFFFFFFFFFFFFFFFFFFFFFFFFFFFFFFF AND DUP2 MSTORE PUSH1 0x20 ADD DUP6 DUP2 MSTORE PUSH1 0x20 ADD DUP5 DUP2 MSTORE PUSH1 0x20 ADD DUP4 DUP2 MSTORE PUSH1 0x20 ADD PUSH1 0x1 PUSH1 0xA DUP1 SLOAD SWAP1 POP PUSH2 0xC6A SWAP2 SWAP1 PUSH2 0x15EA JUMP JUMPDEST DUP2 MSTORE POP SWAP1 POP PUSH1 0xA DUP2 SWAP1 DUP1 PUSH1 0x1 DUP2 SLOAD ADD DUP1 DUP3 SSTORE DUP1 SWAP2 POP POP PUSH1 0x1 SWAP1 SUB SWAP1 PUSH1 0x0 MSTORE PUSH1 0x20 PUSH1 0x0 KECCAK256 SWAP1 PUSH1 0x5 MUL ADD PUSH1 0x0 SWAP1 SWAP2 SWAP1 SWAP2 SWAP1 SWAP2 POP PUSH1 0x0 DUP3 ADD MLOAD DUP2 PUSH1 0x0 ADD PUSH1 0x0 PUSH2 0x100 EXP DUP2 SLOAD DUP2 PUSH20 0xFFFFFFFFFFFFFFFFFFFFFFFFFFFFFFFFFFFFFFFF MUL NOT AND SWAP1 DUP4 PUSH20 0xFFFFFFFFFFFFFFFFFFFFFFFFFFFFFFFFFFFFFFFF AND MUL OR SWAP1 SSTORE POP PUSH1 0x20 DUP3 ADD MLOAD DUP2 PUSH1 0x1 ADD SWAP1 DUP1 MLOAD SWAP1 PUSH1 0x20 ADD SWAP1 PUSH2 0xCFE SWAP3 SWAP2 SWAP1 PUSH2 0xE1C JUMP JUMPDEST POP PUSH1 0x40 DUP3 ADD MLOAD DUP2 PUSH1 0x2 ADD SWAP1 DUP1 MLOAD SWAP1 PUSH1 0x20 ADD SWAP1 PUSH2 0xD1B SWAP3 SWAP2 SWAP1 PUSH2 0xE1C JUMP JUMPDEST POP PUSH1 0x60 DUP3 ADD MLOAD DUP2 PUSH1 0x3 ADD SWAP1 DUP1 MLOAD SWAP1 PUSH1 0x20 ADD SWAP1 PUSH2 0xD38 SWAP3 SWAP2 SWAP1 PUSH2 0xE1C JUMP JUMPDEST POP PUSH1 0x80 DUP3 ADD MLOAD DUP2 PUSH1 0x4 ADD SSTORE POP POP PUSH1 0x40 MLOAD DUP1 PUSH1 0x40 ADD PUSH1 0x40 MSTORE DUP1 PUSH1 0x7 DUP2 MSTORE PUSH1 0x20 ADD PUSH32 0x65636F6E6F6D7900000000000000000000000000000000000000000000000000 DUP2 MSTORE POP PUSH1 0x9 PUSH1 0x0 CALLER PUSH20 0xFFFFFFFFFFFFFFFFFFFFFFFFFFFFFFFFFFFFFFFF AND PUSH20 0xFFFFFFFFFFFFFFFFFFFFFFFFFFFFFFFFFFFFFFFF AND DUP2 MSTORE PUSH1 0x20 ADD SWAP1 DUP2 MSTORE PUSH1 0x20 ADD PUSH1 0x0 KECCAK256 SWAP1 DUP1 MLOAD SWAP1 PUSH1 0x20 ADD SWAP1 PUSH2 0xDCD SWAP3 SWAP2 SWAP1 PUSH2 0xE1C JUMP JUMPDEST POP PUSH1 0x8 PUSH1 0x0 DUP2 SLOAD DUP1 SWAP3 SWAP2 SWAP1 PUSH2 0xDE1 SWAP1 PUSH2 0x1640 JUMP JUMPDEST SWAP2 SWAP1 POP SSTORE POP POP POP POP POP JUMP JUMPDEST PUSH1 0x0 PUSH1 0x8 SLOAD SWAP1 POP SWAP1 JUMP JUMPDEST PUSH1 0x7 PUSH1 0x0 SWAP1 SLOAD SWAP1 PUSH2 0x100 EXP SWAP1 DIV PUSH20 0xFFFFFFFFFFFFFFFFFFFFFFFFFFFFFFFFFFFFFFFF AND DUP2 JUMP JUMPDEST DUP3 DUP1 SLOAD PUSH2 0xE28 SWAP1 PUSH2 0x1589 JUMP JUMPDEST SWAP1 PUSH1 0x0 MSTORE PUSH1 0x20 PUSH1 0x0 KECCAK256 SWAP1 PUSH1 0x1F ADD PUSH1 0x20 SWAP1 DIV DUP2 ADD SWAP3 DUP3 PUSH2 0xE4A JUMPI PUSH1 0x0 DUP6 SSTORE PUSH2 0xE91 JUMP JUMPDEST DUP3 PUSH1 0x1F LT PUSH2 0xE63 JUMPI DUP1 MLOAD PUSH1 0xFF NOT AND DUP4 DUP1 ADD OR DUP6 SSTORE PUSH2 0xE91 JUMP JUMPDEST DUP3 DUP1 ADD PUSH1 0x1 ADD DUP6 SSTORE DUP3 ISZERO PUSH2 0xE91 JUMPI SWAP2 DUP3 ADD JUMPDEST DUP3 DUP2 GT ISZERO PUSH2 0xE90 JUMPI DUP3 MLOAD DUP3 SSTORE SWAP2 PUSH1 0x20 ADD SWAP2 SWAP1 PUSH1 0x1 ADD SWAP1 PUSH2 0xE75 JUMP JUMPDEST JUMPDEST POP SWAP1 POP PUSH2 0xE9E SWAP2 SWAP1 PUSH2 0xEA2 JUMP JUMPDEST POP SWAP1 JUMP JUMPDEST JUMPDEST DUP1 DUP3 GT ISZERO PUSH2 0xEBB JUMPI PUSH1 0x0 DUP2 PUSH1 0x0 SWAP1 SSTORE POP PUSH1 0x1 ADD PUSH2 0xEA3 JUMP JUMPDEST POP SWAP1 JUMP JUMPDEST PUSH1 0x0 DUP2 MLOAD SWAP1 POP SWAP2 SWAP1 POP JUMP JUMPDEST PUSH1 0x0 DUP3 DUP3 MSTORE PUSH1 0x20 DUP3 ADD SWAP1 POP SWAP3 SWAP2 POP POP JUMP JUMPDEST PUSH1 0x0 JUMPDEST DUP4 DUP2 LT ISZERO PUSH2 0xEF9 JUMPI DUP1 DUP3 ADD MLOAD DUP2 DUP5 ADD MSTORE PUSH1 0x20 DUP2 ADD SWAP1 POP PUSH2 0xEDE JUMP JUMPDEST DUP4 DUP2 GT ISZERO PUSH2 0xF08 JUMPI PUSH1 0x0 DUP5 DUP5 ADD MSTORE JUMPDEST POP POP POP POP JUMP JUMPDEST PUSH1 0x0 PUSH1 0x1F NOT PUSH1 0x1F DUP4 ADD AND SWAP1 POP SWAP2 SWAP1 POP JUMP JUMPDEST PUSH1 0x0 PUSH2 0xF2A DUP3 PUSH2 0xEBF JUMP JUMPDEST PUSH2 0xF34 DUP2 DUP6 PUSH2 0xECA JUMP JUMPDEST SWAP4 POP PUSH2 0xF44 DUP2 DUP6 PUSH1 0x20 DUP7 ADD PUSH2 0xEDB JUMP JUMPDEST PUSH2 0xF4D DUP2 PUSH2 0xF0E JUMP JUMPDEST DUP5 ADD SWAP2 POP POP SWAP3 SWAP2 POP POP JUMP JUMPDEST PUSH1 0x0 PUSH1 0xA0 DUP3 ADD SWAP1 POP DUP2 DUP2 SUB PUSH1 0x0 DUP4 ADD MSTORE PUSH2 0xF72 DUP2 DUP9 PUSH2 0xF1F JUMP JUMPDEST SWAP1 POP DUP2 DUP2 SUB PUSH1 0x20 DUP4 ADD MSTORE PUSH2 0xF86 DUP2 DUP8 PUSH2 0xF1F JUMP JUMPDEST SWAP1 POP DUP2 DUP2 SUB PUSH1 0x40 DUP4 ADD MSTORE PUSH2 0xF9A DUP2 DUP7 PUSH2 0xF1F JUMP JUMPDEST SWAP1 POP DUP2 DUP2 SUB PUSH1 0x60 DUP4 ADD MSTORE PUSH2 0xFAE DUP2 DUP6 PUSH2 0xF1F JUMP JUMPDEST SWAP1 POP DUP2 DUP2 SUB PUSH1 0x80 DUP4 ADD MSTORE PUSH2 0xFC2 DUP2 DUP5 PUSH2 0xF1F JUMP JUMPDEST SWAP1 POP SWAP7 SWAP6 POP POP POP POP POP POP JUMP JUMPDEST PUSH1 0x0 PUSH1 0x40 MLOAD SWAP1 POP SWAP1 JUMP JUMPDEST PUSH1 0x0 DUP1 REVERT JUMPDEST PUSH1 0x0 DUP1 REVERT JUMPDEST PUSH1 0x0 DUP1 REVERT JUMPDEST PUSH1 0x0 DUP1 REVERT JUMPDEST PUSH32 0x4E487B7100000000000000000000000000000000000000000000000000000000 PUSH1 0x0 MSTORE PUSH1 0x41 PUSH1 0x4 MSTORE PUSH1 0x24 PUSH1 0x0 REVERT JUMPDEST PUSH2 0x1024 DUP3 PUSH2 0xF0E JUMP JUMPDEST DUP2 ADD DUP2 DUP2 LT PUSH8 0xFFFFFFFFFFFFFFFF DUP3 GT OR ISZERO PUSH2 0x1043 JUMPI PUSH2 0x1042 PUSH2 0xFEC JUMP JUMPDEST JUMPDEST DUP1 PUSH1 0x40 MSTORE POP POP POP JUMP JUMPDEST PUSH1 0x0 PUSH2 0x1056 PUSH2 0xFCE JUMP JUMPDEST SWAP1 POP PUSH2 0x1062 DUP3 DUP3 PUSH2 0x101B JUMP JUMPDEST SWAP2 SWAP1 POP JUMP JUMPDEST PUSH1 0x0 PUSH8 0xFFFFFFFFFFFFFFFF DUP3 GT ISZERO PUSH2 0x1082 JUMPI PUSH2 0x1081 PUSH2 0xFEC JUMP JUMPDEST JUMPDEST PUSH2 0x108B DUP3 PUSH2 0xF0E JUMP JUMPDEST SWAP1 POP PUSH1 0x20 DUP2 ADD SWAP1 POP SWAP2 SWAP1 POP JUMP JUMPDEST DUP3 DUP2 DUP4 CALLDATACOPY PUSH1 0x0 DUP4 DUP4 ADD MSTORE POP POP POP JUMP JUMPDEST PUSH1 0x0 PUSH2 0x10BA PUSH2 0x10B5 DUP5 PUSH2 0x1067 JUMP JUMPDEST PUSH2 0x104C JUMP JUMPDEST SWAP1 POP DUP3 DUP2 MSTORE PUSH1 0x20 DUP2 ADD DUP5 DUP5 DUP5 ADD GT ISZERO PUSH2 0x10D6 JUMPI PUSH2 0x10D5 PUSH2 0xFE7 JUMP JUMPDEST JUMPDEST PUSH2 0x10E1 DUP5 DUP3 DUP6 PUSH2 0x1098 JUMP JUMPDEST POP SWAP4 SWAP3 POP POP POP JUMP JUMPDEST PUSH1 0x0 DUP3 PUSH1 0x1F DUP4 ADD SLT PUSH2 0x10FE JUMPI PUSH2 0x10FD PUSH2 0xFE2 JUMP JUMPDEST JUMPDEST DUP2 CALLDATALOAD PUSH2 0x110E DUP5 DUP3 PUSH1 0x20 DUP7 ADD PUSH2 0x10A7 JUMP JUMPDEST SWAP2 POP POP SWAP3 SWAP2 POP POP JUMP JUMPDEST PUSH1 0x0 DUP1 PUSH1 0x0 PUSH1 0x60 DUP5 DUP7 SUB SLT ISZERO PUSH2 0x1130 JUMPI PUSH2 0x112F PUSH2 0xFD8 JUMP JUMPDEST JUMPDEST PUSH1 0x0 DUP5 ADD CALLDATALOAD PUSH8 0xFFFFFFFFFFFFFFFF DUP2 GT ISZERO PUSH2 0x114E JUMPI PUSH2 0x114D PUSH2 0xFDD JUMP JUMPDEST JUMPDEST PUSH2 0x115A DUP7 DUP3 DUP8 ADD PUSH2 0x10E9 JUMP JUMPDEST SWAP4 POP POP PUSH1 0x20 DUP5 ADD CALLDATALOAD PUSH8 0xFFFFFFFFFFFFFFFF DUP2 GT ISZERO PUSH2 0x117B JUMPI PUSH2 0x117A PUSH2 0xFDD JUMP JUMPDEST JUMPDEST PUSH2 0x1187 DUP7 DUP3 DUP8 ADD PUSH2 0x10E9 JUMP JUMPDEST SWAP3 POP POP PUSH1 0x40 DUP5 ADD CALLDATALOAD PUSH8 0xFFFFFFFFFFFFFFFF DUP2 GT ISZERO PUSH2 0x11A8 JUMPI PUSH2 0x11A7 PUSH2 0xFDD JUMP JUMPDEST JUMPDEST PUSH2 0x11B4 DUP7 DUP3 DUP8 ADD PUSH2 0x10E9 JUMP JUMPDEST SWAP2 POP POP SWAP3 POP SWAP3 POP SWAP3 JUMP JUMPDEST PUSH1 0x0 DUP2 SWAP1 POP SWAP2 SWAP1 POP JUMP JUMPDEST PUSH2 0x11D1 DUP2 PUSH2 0x11BE JUMP JUMPDEST DUP3 MSTORE POP POP JUMP JUMPDEST PUSH1 0x0 PUSH1 0x20 DUP3 ADD SWAP1 POP PUSH2 0x11EC PUSH1 0x0 DUP4 ADD DUP5 PUSH2 0x11C8 JUMP JUMPDEST SWAP3 SWAP2 POP POP JUMP JUMPDEST PUSH1 0x0 DUP2 MLOAD SWAP1 POP SWAP2 SWAP1 POP JUMP JUMPDEST PUSH1 0x0 DUP3 DUP3 MSTORE PUSH1 0x20 DUP3 ADD SWAP1 POP SWAP3 SWAP2 POP POP JUMP JUMPDEST PUSH1 0x0 DUP2 SWAP1 POP PUSH1 0x20 DUP3 ADD SWAP1 POP SWAP2 SWAP1 POP JUMP JUMPDEST PUSH1 0x0 PUSH20 0xFFFFFFFFFFFFFFFFFFFFFFFFFFFFFFFFFFFFFFFF DUP3 AND SWAP1 POP SWAP2 SWAP1 POP JUMP JUMPDEST PUSH1 0x0 PUSH2 0x1249 DUP3 PUSH2 0x121E JUMP JUMPDEST SWAP1 POP SWAP2 SWAP1 POP JUMP JUMPDEST PUSH2 0x1259 DUP2 PUSH2 0x123E JUMP JUMPDEST DUP3 MSTORE POP POP JUMP JUMPDEST PUSH1 0x0 DUP3 DUP3 MSTORE PUSH1 0x20 DUP3 ADD SWAP1 POP SWAP3 SWAP2 POP POP JUMP JUMPDEST PUSH1 0x0 PUSH2 0x127B DUP3 PUSH2 0xEBF JUMP JUMPDEST PUSH2 0x1285 DUP2 DUP6 PUSH2 0x125F JUMP JUMPDEST SWAP4 POP PUSH2 0x1295 DUP2 DUP6 PUSH1 0x20 DUP7 ADD PUSH2 0xEDB JUMP JUMPDEST PUSH2 0x129E DUP2 PUSH2 0xF0E JUMP JUMPDEST DUP5 ADD SWAP2 POP POP SWAP3 SWAP2 POP POP JUMP JUMPDEST PUSH2 0x12B2 DUP2 PUSH2 0x11BE JUMP JUMPDEST DUP3 MSTORE POP POP JUMP JUMPDEST PUSH1 0x0 PUSH1 0xA0 DUP4 ADD PUSH1 0x0 DUP4 ADD MLOAD PUSH2 0x12D0 PUSH1 0x0 DUP7 ADD DUP3 PUSH2 0x1250 JUMP JUMPDEST POP PUSH1 0x20 DUP4 ADD MLOAD DUP5 DUP3 SUB PUSH1 0x20 DUP7 ADD MSTORE PUSH2 0x12E8 DUP3 DUP3 PUSH2 0x1270 JUMP JUMPDEST SWAP2 POP POP PUSH1 0x40 DUP4 ADD MLOAD DUP5 DUP3 SUB PUSH1 0x40 DUP7 ADD MSTORE PUSH2 0x1302 DUP3 DUP3 PUSH2 0x1270 JUMP JUMPDEST SWAP2 POP POP PUSH1 0x60 DUP4 ADD MLOAD DUP5 DUP3 SUB PUSH1 0x60 DUP7 ADD MSTORE PUSH2 0x131C DUP3 DUP3 PUSH2 0x1270 JUMP JUMPDEST SWAP2 POP POP PUSH1 0x80 DUP4 ADD MLOAD PUSH2 0x1331 PUSH1 0x80 DUP7 ADD DUP3 PUSH2 0x12A9 JUMP JUMPDEST POP DUP1 SWAP2 POP POP SWAP3 SWAP2 POP POP JUMP JUMPDEST PUSH1 0x0 PUSH2 0x1348 DUP4 DUP4 PUSH2 0x12B8 JUMP JUMPDEST SWAP1 POP SWAP3 SWAP2 POP POP JUMP JUMPDEST PUSH1 0x0 PUSH1 0x20 DUP3 ADD SWAP1 POP SWAP2 SWAP1 POP JUMP JUMPDEST PUSH1 0x0 PUSH2 0x1368 DUP3 PUSH2 0x11F2 JUMP JUMPDEST PUSH2 0x1372 DUP2 DUP6 PUSH2 0x11FD JUMP JUMPDEST SWAP4 POP DUP4 PUSH1 0x20 DUP3 MUL DUP6 ADD PUSH2 0x1384 DUP6 PUSH2 0x120E JUMP JUMPDEST DUP1 PUSH1 0x0 JUMPDEST DUP6 DUP2 LT ISZERO PUSH2 0x13C0 JUMPI DUP5 DUP5 SUB DUP10 MSTORE DUP2 MLOAD PUSH2 0x13A1 DUP6 DUP3 PUSH2 0x133C JUMP JUMPDEST SWAP5 POP PUSH2 0x13AC DUP4 PUSH2 0x1350 JUMP JUMPDEST SWAP3 POP PUSH1 0x20 DUP11 ADD SWAP10 POP POP PUSH1 0x1 DUP2 ADD SWAP1 POP PUSH2 0x1388 JUMP JUMPDEST POP DUP3 SWAP8 POP DUP8 SWAP6 POP POP POP POP POP POP SWAP3 SWAP2 POP POP JUMP JUMPDEST PUSH1 0x0 PUSH1 0x20 DUP3 ADD SWAP1 POP DUP2 DUP2 SUB PUSH1 0x0 DUP4 ADD MSTORE PUSH2 0x13EC DUP2 DUP5 PUSH2 0x135D JUMP JUMPDEST SWAP1 POP SWAP3 SWAP2 POP POP JUMP JUMPDEST PUSH2 0x13FD DUP2 PUSH2 0x11BE JUMP JUMPDEST DUP2 EQ PUSH2 0x1408 JUMPI PUSH1 0x0 DUP1 REVERT JUMPDEST POP JUMP JUMPDEST PUSH1 0x0 DUP2 CALLDATALOAD SWAP1 POP PUSH2 0x141A DUP2 PUSH2 0x13F4 JUMP JUMPDEST SWAP3 SWAP2 POP POP JUMP JUMPDEST PUSH1 0x0 PUSH1 0x20 DUP3 DUP5 SUB SLT ISZERO PUSH2 0x1436 JUMPI PUSH2 0x1435 PUSH2 0xFD8 JUMP JUMPDEST JUMPDEST PUSH1 0x0 PUSH2 0x1444 DUP5 DUP3 DUP6 ADD PUSH2 0x140B JUMP JUMPDEST SWAP2 POP POP SWAP3 SWAP2 POP POP JUMP JUMPDEST PUSH2 0x1456 DUP2 PUSH2 0x123E JUMP JUMPDEST DUP3 MSTORE POP POP JUMP JUMPDEST PUSH1 0x0 PUSH1 0xA0 DUP3 ADD SWAP1 POP PUSH2 0x1471 PUSH1 0x0 DUP4 ADD DUP9 PUSH2 0x144D JUMP JUMPDEST DUP2 DUP2 SUB PUSH1 0x20 DUP4 ADD MSTORE PUSH2 0x1483 DUP2 DUP8 PUSH2 0xF1F JUMP JUMPDEST SWAP1 POP DUP2 DUP2 SUB PUSH1 0x40 DUP4 ADD MSTORE PUSH2 0x1497 DUP2 DUP7 PUSH2 0xF1F JUMP JUMPDEST SWAP1 POP DUP2 DUP2 SUB PUSH1 0x60 DUP4 ADD MSTORE PUSH2 0x14AB DUP2 DUP6 PUSH2 0xF1F JUMP JUMPDEST SWAP1 POP PUSH2 0x14BA PUSH1 0x80 DUP4 ADD DUP5 PUSH2 0x11C8 JUMP JUMPDEST SWAP7 SWAP6 POP POP POP POP POP POP JUMP JUMPDEST PUSH2 0x14CD DUP2 PUSH2 0x123E JUMP JUMPDEST DUP2 EQ PUSH2 0x14D8 JUMPI PUSH1 0x0 DUP1 REVERT JUMPDEST POP JUMP JUMPDEST PUSH1 0x0 DUP2 CALLDATALOAD SWAP1 POP PUSH2 0x14EA DUP2 PUSH2 0x14C4 JUMP JUMPDEST SWAP3 SWAP2 POP POP JUMP JUMPDEST PUSH1 0x0 PUSH1 0x20 DUP3 DUP5 SUB SLT ISZERO PUSH2 0x1506 JUMPI PUSH2 0x1505 PUSH2 0xFD8 JUMP JUMPDEST JUMPDEST PUSH1 0x0 PUSH2 0x1514 DUP5 DUP3 DUP6 ADD PUSH2 0x14DB JUMP JUMPDEST SWAP2 POP POP SWAP3 SWAP2 POP POP JUMP JUMPDEST PUSH1 0x0 PUSH1 0x20 DUP3 ADD SWAP1 POP DUP2 DUP2 SUB PUSH1 0x0 DUP4 ADD MSTORE PUSH2 0x1537 DUP2 DUP5 PUSH2 0xF1F JUMP JUMPDEST SWAP1 POP SWAP3 SWAP2 POP POP JUMP JUMPDEST PUSH1 0x0 PUSH1 0x20 DUP3 ADD SWAP1 POP PUSH2 0x1554 PUSH1 0x0 DUP4 ADD DUP5 PUSH2 0x144D JUMP JUMPDEST SWAP3 SWAP2 POP POP JUMP JUMPDEST PUSH32 0x4E487B7100000000000000000000000000000000000000000000000000000000 PUSH1 0x0 MSTORE PUSH1 0x22 PUSH1 0x4 MSTORE PUSH1 0x24 PUSH1 0x0 REVERT JUMPDEST PUSH1 0x0 PUSH1 0x2 DUP3 DIV SWAP1 POP PUSH1 0x1 DUP3 AND DUP1 PUSH2 0x15A1 JUMPI PUSH1 0x7F DUP3 AND SWAP2 POP JUMPDEST PUSH1 0x20 DUP3 LT DUP2 EQ ISZERO PUSH2 0x15B5 JUMPI PUSH2 0x15B4 PUSH2 0x155A JUMP JUMPDEST JUMPDEST POP SWAP2 SWAP1 POP JUMP JUMPDEST PUSH32 0x4E487B7100000000000000000000000000000000000000000000000000000000 PUSH1 0x0 MSTORE PUSH1 0x11 PUSH1 0x4 MSTORE PUSH1 0x24 PUSH1 0x0 REVERT JUMPDEST PUSH1 0x0 PUSH2 0x15F5 DUP3 PUSH2 0x11BE JUMP JUMPDEST SWAP2 POP PUSH2 0x1600 DUP4 PUSH2 0x11BE JUMP JUMPDEST SWAP3 POP DUP3 PUSH32 0xFFFFFFFFFFFFFFFFFFFFFFFFFFFFFFFFFFFFFFFFFFFFFFFFFFFFFFFFFFFFFFFF SUB DUP3 GT ISZERO PUSH2 0x1635 JUMPI PUSH2 0x1634 PUSH2 0x15BB JUMP JUMPDEST JUMPDEST DUP3 DUP3 ADD SWAP1 POP SWAP3 SWAP2 POP POP JUMP JUMPDEST PUSH1 0x0 PUSH2 0x164B DUP3 PUSH2 0x11BE JUMP JUMPDEST SWAP2 POP PUSH1 0x0 DUP3 EQ ISZERO PUSH2 0x165F JUMPI PUSH2 0x165E PUSH2 0x15BB JUMP JUMPDEST JUMPDEST PUSH1 0x1 DUP3 SUB SWAP1 POP SWAP2 SWAP1 POP JUMP INVALID LOG2 PUSH5 0x6970667358 0x22 SLT KECCAK256 0xEF 0xCE 0xB3 0xDA BLOCKHASH CODESIZE 0xE9 0xBE SUB 0x5F 0xAE GASPRICE 0xAB 0xCF SHL 0xF8 0x4D PUSH20 0x73087D7C77EE6AC6973A9B615F1A64736F6C6343 STOP ADDMOD SIGNEXTEND STOP CALLER LOG2 PUSH5 0x6970667358 0x22 SLT KECCAK256 0x1F PUSH25 0xEDBE117804A91A81001B00F326E0F16042CD5932E82DF438C2 NUMBER PUSH17 0x6E9F3164736F6C634300080B0033000000 "},"gasEstimates":{"creation":{"codeDepositCost":"2512400","executionCost":"2710","totalCost":"2515110"},"external":{"createFlight(string,string,string,string,string,string,uint256,uint256,uint256)":"infinite","deployedFlightsDate(string,uint256)":"infinite","getFlightsOnDate(string)":"infinite"}},"methodIdentifiers":{"createFlight(string,string,string,string,string,string,uint256,uint256,uint256)":"cc9085e5","deployedFlightsDate(string,uint256)":"9106e0de","getFlightsOnDate(string)":"0a9ce09c"}},"storageLayout":{"storage":[{"astId":7,"contract":"Flight.sol:FlightFactory","label":"deployedFlightsDate","offset":0,"slot":"0","type":"t_mapping(t_string_memory_ptr,t_array(t_struct(FlightTemplate)24_storage)dyn_storage)"}],"types":{"t_address":{"encoding":"inplace","label":"address","numberOfBytes":"20"},"t_array(t_struct(FlightTemplate)24_storage)dyn_storage":{"base":"t_struct(FlightTemplate)24_storage","encoding":"dynamic_array","label":"struct FlightFactory.FlightTemplate[]","numberOfBytes":"32"},"t_mapping(t_string_memory_ptr,t_array(t_struct(FlightTemplate)24_storage)dyn_storage)":{"encoding":"mapping","key":"t_string_memory_ptr","label":"mapping(string => struct FlightFactory.FlightTemplate[])","numberOfBytes":"32","value":"t_array(t_struct(FlightTemplate)24_storage)dyn_storage"},"t_string_memory_ptr":{"encoding":"bytes","label":"string","numberOfBytes":"32"},"t_string_storage":{"encoding":"bytes","label":"string","numberOfBytes":"32"},"t_struct(FlightTemplate)24_storage":{"encoding":"inplace","label":"struct FlightFactory.FlightTemplate","members":[{"astId":9,"contract":"Flight.sol:FlightFactory","label":"flightAdress","offset":0,"slot":"0","type":"t_address"},{"astId":11,"contract":"Flight.sol:FlightFactory","label":"flightId","offset":0,"slot":"1","type":"t_string_storage"},{"astId":13,"contract":"Flight.sol:FlightFactory","label":"from","offset":0,"slot":"2","type":"t_string_storage"},{"astId":15,"contract":"Flight.sol:FlightFactory","label":"destination","offset":0,"slot":"3","type":"t_string_storage"},{"astId":17,"contract":"Flight.sol:FlightFactory","label":"flyTime","offset":0,"slot":"4","type":"t_string_storage"},{"astId":19,"contract":"Flight.sol:FlightFactory","label":"arrivalTime","offset":0,"slot":"5","type":"t_string_storage"},{"astId":21,"contract":"Flight.sol:FlightFactory","label":"businessPrice","offset":0,"slot":"6","type":"t_uint256"},{"astId":23,"contract":"Flight.sol:FlightFactory","label":"economyPrice","offset":0,"slot":"7","type":"t_uint256"}],"numberOfBytes":"256"},"t_uint256":{"encoding":"inplace","label":"uint256","numberOfBytes":"32"}}},"userdoc":{"kind":"user","methods":{},"version":1}}